{
	"FundMe.sol": {
		"FundMe": {
			"abi": [
				{
					"inputs": [],
					"name": "fund",
					"outputs": [],
					"stateMutability": "payable",
					"type": "function"
				},
				{
					"inputs": [
						{
							"internalType": "uint256",
							"name": "ethAmount",
							"type": "uint256"
						}
					],
					"name": "getConversionRate",
					"outputs": [],
					"stateMutability": "nonpayable",
					"type": "function"
				},
				{
					"inputs": [],
					"name": "getprice",
					"outputs": [
						{
							"internalType": "uint256",
							"name": "",
							"type": "uint256"
						}
					],
					"stateMutability": "view",
					"type": "function"
				},
				{
					"inputs": [],
					"name": "minimumUsd",
					"outputs": [
						{
							"internalType": "uint256",
							"name": "",
							"type": "uint256"
						}
					],
					"stateMutability": "view",
					"type": "function"
				}
			],
			"devdoc": {
				"kind": "dev",
				"methods": {},
				"version": 1
			},
			"evm": {
				"assembly": "    /* \"FundMe.sol\":214:1042  contract FundMe{... */\n  mstore(0x40, 0x80)\n    /* \"FundMe.sol\":264:266  50 */\n  0x32\n    /* \"FundMe.sol\":236:266  uint256 public minimumUsd = 50 */\n  0x00\n  sstore\n    /* \"FundMe.sol\":214:1042  contract FundMe{... */\n  callvalue\n  dup1\n  iszero\n  tag_1\n  jumpi\n  0x00\n  dup1\n  revert\ntag_1:\n  pop\n  dataSize(sub_0)\n  dup1\n  dataOffset(sub_0)\n  0x00\n  codecopy\n  0x00\n  return\nstop\n\nsub_0: assembly {\n        /* \"FundMe.sol\":214:1042  contract FundMe{... */\n      mstore(0x40, 0x80)\n      jumpi(tag_1, lt(calldatasize, 0x04))\n      shr(0xe0, calldataload(0x00))\n      dup1\n      0x098de820\n      eq\n      tag_2\n      jumpi\n      dup1\n      0x0fcb5984\n      eq\n      tag_3\n      jumpi\n      dup1\n      0x6e5b6b28\n      eq\n      tag_4\n      jumpi\n      dup1\n      0xb60d4288\n      eq\n      tag_5\n      jumpi\n    tag_1:\n      0x00\n      dup1\n      revert\n        /* \"FundMe.sol\":236:266  uint256 public minimumUsd = 50 */\n    tag_2:\n      callvalue\n      dup1\n      iszero\n      tag_6\n      jumpi\n      0x00\n      dup1\n      revert\n    tag_6:\n      pop\n      tag_7\n      tag_8\n      jump\t// in\n    tag_7:\n      mload(0x40)\n      tag_9\n      swap2\n      swap1\n      tag_10\n      jump\t// in\n    tag_9:\n      mload(0x40)\n      dup1\n      swap2\n      sub\n      swap1\n      return\n        /* \"FundMe.sol\":530:949  function getprice() public view returns(uint256) {... */\n    tag_3:\n      callvalue\n      dup1\n      iszero\n      tag_11\n      jumpi\n      0x00\n      dup1\n      revert\n    tag_11:\n      pop\n      tag_12\n      tag_13\n      jump\t// in\n    tag_12:\n      mload(0x40)\n      tag_14\n      swap2\n      swap1\n      tag_10\n      jump\t// in\n    tag_14:\n      mload(0x40)\n      dup1\n      swap2\n      sub\n      swap1\n      return\n        /* \"FundMe.sol\":955:1010  function getConversionRate(uint256 ethAmount) public {} */\n    tag_4:\n      callvalue\n      dup1\n      iszero\n      tag_15\n      jumpi\n      0x00\n      dup1\n      revert\n    tag_15:\n      pop\n      tag_16\n      0x04\n      dup1\n      calldatasize\n      sub\n      dup2\n      add\n      swap1\n      tag_17\n      swap2\n      swap1\n      tag_18\n      jump\t// in\n    tag_17:\n      tag_19\n      jump\t// in\n    tag_16:\n      stop\n        /* \"FundMe.sol\":273:524  function fund() public payable{ ... */\n    tag_5:\n      tag_20\n      tag_21\n      jump\t// in\n    tag_20:\n      stop\n        /* \"FundMe.sol\":236:266  uint256 public minimumUsd = 50 */\n    tag_8:\n      sload(0x00)\n      dup2\n      jump\t// out\n        /* \"FundMe.sol\":530:949  function getprice() public view returns(uint256) {... */\n    tag_13:\n        /* \"FundMe.sol\":570:577  uint256 */\n      0x00\n        /* \"FundMe.sol\":670:701  AggregatorV3Interface priceFeed */\n      dup1\n        /* \"FundMe.sol\":726:768  0x8A753747A1Fa494EC906cE90E9f37563A8AF630e */\n      0x8a753747a1fa494ec906ce90e9f37563a8af630e\n        /* \"FundMe.sol\":670:769  AggregatorV3Interface priceFeed = AggregatorV3Interface(0x8A753747A1Fa494EC906cE90E9f37563A8AF630e) */\n      swap1\n      pop\n        /* \"FundMe.sol\":781:793  int256 price */\n      0x00\n        /* \"FundMe.sol\":800:809  priceFeed */\n      dup2\n        /* \"FundMe.sol\":800:825  priceFeed.latestRoundData */\n      0xffffffffffffffffffffffffffffffffffffffff\n      and\n      0xfeaf968c\n        /* \"FundMe.sol\":800:827  priceFeed.latestRoundData() */\n      mload(0x40)\n      dup2\n      0xffffffff\n      and\n      0xe0\n      shl\n      dup2\n      mstore\n      0x04\n      add\n      0xa0\n      mload(0x40)\n      dup1\n      dup4\n      sub\n      dup2\n      dup7\n      dup1\n      extcodesize\n      iszero\n      dup1\n      iszero\n      tag_23\n      jumpi\n      0x00\n      dup1\n      revert\n    tag_23:\n      pop\n      gas\n      staticcall\n      iszero\n      dup1\n      iszero\n      tag_25\n      jumpi\n      returndatasize\n      0x00\n      dup1\n      returndatacopy\n      revert(0x00, returndatasize)\n    tag_25:\n      pop\n      pop\n      pop\n      pop\n      mload(0x40)\n      returndatasize\n      not(0x1f)\n      0x1f\n      dup3\n      add\n      and\n      dup3\n      add\n      dup1\n      0x40\n      mstore\n      pop\n      dup2\n      add\n      swap1\n      tag_26\n      swap2\n      swap1\n      tag_27\n      jump\t// in\n    tag_26:\n        /* \"FundMe.sol\":779:827  (,int256 price,,,) = priceFeed.latestRoundData() */\n      pop\n      pop\n      pop\n      swap2\n      pop\n      pop\n        /* \"FundMe.sol\":914:918  1e10 */\n      0x02540be400\n        /* \"FundMe.sol\":906:911  price */\n      dup2\n        /* \"FundMe.sol\":906:918  price * 1e10 */\n      tag_28\n      swap2\n      swap1\n      tag_29\n      jump\t// in\n    tag_28:\n        /* \"FundMe.sol\":891:919  return uint256(price * 1e10) */\n      swap3\n      pop\n      pop\n      pop\n        /* \"FundMe.sol\":530:949  function getprice() public view returns(uint256) {... */\n      swap1\n      jump\t// out\n        /* \"FundMe.sol\":955:1010  function getConversionRate(uint256 ethAmount) public {} */\n    tag_19:\n      pop\n      jump\t// out\n        /* \"FundMe.sol\":273:524  function fund() public payable{ ... */\n    tag_21:\n        /* \"FundMe.sol\":441:451  minimumUsd */\n      sload(0x00)\n        /* \"FundMe.sol\":428:437  msg.value */\n      callvalue\n        /* \"FundMe.sol\":428:451  msg.value >= minimumUsd */\n      lt\n      iszero\n        /* \"FundMe.sol\":420:474  require(msg.value >= minimumUsd, \"Didn't send enough\") */\n      tag_32\n      jumpi\n      mload(0x40)\n      0x08c379a000000000000000000000000000000000000000000000000000000000\n      dup2\n      mstore\n      0x04\n      add\n      tag_33\n      swap1\n      tag_34\n      jump\t// in\n    tag_33:\n      mload(0x40)\n      dup1\n      swap2\n      sub\n      swap1\n      revert\n    tag_32:\n        /* \"FundMe.sol\":273:524  function fund() public payable{ ... */\n      jump\t// out\n        /* \"#utility.yul\":7:84   */\n    tag_35:\n        /* \"#utility.yul\":44:51   */\n      0x00\n        /* \"#utility.yul\":73:78   */\n      dup2\n        /* \"#utility.yul\":62:78   */\n      swap1\n      pop\n        /* \"#utility.yul\":7:84   */\n      swap2\n      swap1\n      pop\n      jump\t// out\n        /* \"#utility.yul\":90:208   */\n    tag_36:\n        /* \"#utility.yul\":177:201   */\n      tag_56\n        /* \"#utility.yul\":195:200   */\n      dup2\n        /* \"#utility.yul\":177:201   */\n      tag_35\n      jump\t// in\n    tag_56:\n        /* \"#utility.yul\":172:175   */\n      dup3\n        /* \"#utility.yul\":165:202   */\n      mstore\n        /* \"#utility.yul\":90:208   */\n      pop\n      pop\n      jump\t// out\n        /* \"#utility.yul\":214:436   */\n    tag_10:\n        /* \"#utility.yul\":307:311   */\n      0x00\n        /* \"#utility.yul\":345:347   */\n      0x20\n        /* \"#utility.yul\":334:343   */\n      dup3\n        /* \"#utility.yul\":330:348   */\n      add\n        /* \"#utility.yul\":322:348   */\n      swap1\n      pop\n        /* \"#utility.yul\":358:429   */\n      tag_58\n        /* \"#utility.yul\":426:427   */\n      0x00\n        /* \"#utility.yul\":415:424   */\n      dup4\n        /* \"#utility.yul\":411:428   */\n      add\n        /* \"#utility.yul\":402:408   */\n      dup5\n        /* \"#utility.yul\":358:429   */\n      tag_36\n      jump\t// in\n    tag_58:\n        /* \"#utility.yul\":214:436   */\n      swap3\n      swap2\n      pop\n      pop\n      jump\t// out\n        /* \"#utility.yul\":523:640   */\n    tag_38:\n        /* \"#utility.yul\":632:633   */\n      0x00\n        /* \"#utility.yul\":629:630   */\n      dup1\n        /* \"#utility.yul\":622:634   */\n      revert\n        /* \"#utility.yul\":769:891   */\n    tag_40:\n        /* \"#utility.yul\":842:866   */\n      tag_63\n        /* \"#utility.yul\":860:865   */\n      dup2\n        /* \"#utility.yul\":842:866   */\n      tag_35\n      jump\t// in\n    tag_63:\n        /* \"#utility.yul\":835:840   */\n      dup2\n        /* \"#utility.yul\":832:867   */\n      eq\n        /* \"#utility.yul\":822:885   */\n      tag_64\n      jumpi\n        /* \"#utility.yul\":881:882   */\n      0x00\n        /* \"#utility.yul\":878:879   */\n      dup1\n        /* \"#utility.yul\":871:883   */\n      revert\n        /* \"#utility.yul\":822:885   */\n    tag_64:\n        /* \"#utility.yul\":769:891   */\n      pop\n      jump\t// out\n        /* \"#utility.yul\":897:1036   */\n    tag_41:\n        /* \"#utility.yul\":943:948   */\n      0x00\n        /* \"#utility.yul\":981:987   */\n      dup2\n        /* \"#utility.yul\":968:988   */\n      calldataload\n        /* \"#utility.yul\":959:988   */\n      swap1\n      pop\n        /* \"#utility.yul\":997:1030   */\n      tag_66\n        /* \"#utility.yul\":1024:1029   */\n      dup2\n        /* \"#utility.yul\":997:1030   */\n      tag_40\n      jump\t// in\n    tag_66:\n        /* \"#utility.yul\":897:1036   */\n      swap3\n      swap2\n      pop\n      pop\n      jump\t// out\n        /* \"#utility.yul\":1042:1371   */\n    tag_18:\n        /* \"#utility.yul\":1101:1107   */\n      0x00\n        /* \"#utility.yul\":1150:1152   */\n      0x20\n        /* \"#utility.yul\":1138:1147   */\n      dup3\n        /* \"#utility.yul\":1129:1136   */\n      dup5\n        /* \"#utility.yul\":1125:1148   */\n      sub\n        /* \"#utility.yul\":1121:1153   */\n      slt\n        /* \"#utility.yul\":1118:1237   */\n      iszero\n      tag_68\n      jumpi\n        /* \"#utility.yul\":1156:1235   */\n      tag_69\n      tag_38\n      jump\t// in\n    tag_69:\n        /* \"#utility.yul\":1118:1237   */\n    tag_68:\n        /* \"#utility.yul\":1276:1277   */\n      0x00\n        /* \"#utility.yul\":1301:1354   */\n      tag_70\n        /* \"#utility.yul\":1346:1353   */\n      dup5\n        /* \"#utility.yul\":1337:1343   */\n      dup3\n        /* \"#utility.yul\":1326:1335   */\n      dup6\n        /* \"#utility.yul\":1322:1344   */\n      add\n        /* \"#utility.yul\":1301:1354   */\n      tag_41\n      jump\t// in\n    tag_70:\n        /* \"#utility.yul\":1291:1354   */\n      swap2\n      pop\n        /* \"#utility.yul\":1247:1364   */\n      pop\n        /* \"#utility.yul\":1042:1371   */\n      swap3\n      swap2\n      pop\n      pop\n      jump\t// out\n        /* \"#utility.yul\":1377:1482   */\n    tag_42:\n        /* \"#utility.yul\":1413:1420   */\n      0x00\n        /* \"#utility.yul\":1453:1475   */\n      0xffffffffffffffffffff\n        /* \"#utility.yul\":1446:1451   */\n      dup3\n        /* \"#utility.yul\":1442:1476   */\n      and\n        /* \"#utility.yul\":1431:1476   */\n      swap1\n      pop\n        /* \"#utility.yul\":1377:1482   */\n      swap2\n      swap1\n      pop\n      jump\t// out\n        /* \"#utility.yul\":1488:1608   */\n    tag_43:\n        /* \"#utility.yul\":1560:1583   */\n      tag_73\n        /* \"#utility.yul\":1577:1582   */\n      dup2\n        /* \"#utility.yul\":1560:1583   */\n      tag_42\n      jump\t// in\n    tag_73:\n        /* \"#utility.yul\":1553:1558   */\n      dup2\n        /* \"#utility.yul\":1550:1584   */\n      eq\n        /* \"#utility.yul\":1540:1602   */\n      tag_74\n      jumpi\n        /* \"#utility.yul\":1598:1599   */\n      0x00\n        /* \"#utility.yul\":1595:1596   */\n      dup1\n        /* \"#utility.yul\":1588:1600   */\n      revert\n        /* \"#utility.yul\":1540:1602   */\n    tag_74:\n        /* \"#utility.yul\":1488:1608   */\n      pop\n      jump\t// out\n        /* \"#utility.yul\":1614:1755   */\n    tag_44:\n        /* \"#utility.yul\":1670:1675   */\n      0x00\n        /* \"#utility.yul\":1701:1707   */\n      dup2\n        /* \"#utility.yul\":1695:1708   */\n      mload\n        /* \"#utility.yul\":1686:1708   */\n      swap1\n      pop\n        /* \"#utility.yul\":1717:1749   */\n      tag_76\n        /* \"#utility.yul\":1743:1748   */\n      dup2\n        /* \"#utility.yul\":1717:1749   */\n      tag_43\n      jump\t// in\n    tag_76:\n        /* \"#utility.yul\":1614:1755   */\n      swap3\n      swap2\n      pop\n      pop\n      jump\t// out\n        /* \"#utility.yul\":1761:1837   */\n    tag_45:\n        /* \"#utility.yul\":1797:1804   */\n      0x00\n        /* \"#utility.yul\":1826:1831   */\n      dup2\n        /* \"#utility.yul\":1815:1831   */\n      swap1\n      pop\n        /* \"#utility.yul\":1761:1837   */\n      swap2\n      swap1\n      pop\n      jump\t// out\n        /* \"#utility.yul\":1843:1963   */\n    tag_46:\n        /* \"#utility.yul\":1915:1938   */\n      tag_79\n        /* \"#utility.yul\":1932:1937   */\n      dup2\n        /* \"#utility.yul\":1915:1938   */\n      tag_45\n      jump\t// in\n    tag_79:\n        /* \"#utility.yul\":1908:1913   */\n      dup2\n        /* \"#utility.yul\":1905:1939   */\n      eq\n        /* \"#utility.yul\":1895:1957   */\n      tag_80\n      jumpi\n        /* \"#utility.yul\":1953:1954   */\n      0x00\n        /* \"#utility.yul\":1950:1951   */\n      dup1\n        /* \"#utility.yul\":1943:1955   */\n      revert\n        /* \"#utility.yul\":1895:1957   */\n    tag_80:\n        /* \"#utility.yul\":1843:1963   */\n      pop\n      jump\t// out\n        /* \"#utility.yul\":1969:2110   */\n    tag_47:\n        /* \"#utility.yul\":2025:2030   */\n      0x00\n        /* \"#utility.yul\":2056:2062   */\n      dup2\n        /* \"#utility.yul\":2050:2063   */\n      mload\n        /* \"#utility.yul\":2041:2063   */\n      swap1\n      pop\n        /* \"#utility.yul\":2072:2104   */\n      tag_82\n        /* \"#utility.yul\":2098:2103   */\n      dup2\n        /* \"#utility.yul\":2072:2104   */\n      tag_46\n      jump\t// in\n    tag_82:\n        /* \"#utility.yul\":1969:2110   */\n      swap3\n      swap2\n      pop\n      pop\n      jump\t// out\n        /* \"#utility.yul\":2116:2259   */\n    tag_48:\n        /* \"#utility.yul\":2173:2178   */\n      0x00\n        /* \"#utility.yul\":2204:2210   */\n      dup2\n        /* \"#utility.yul\":2198:2211   */\n      mload\n        /* \"#utility.yul\":2189:2211   */\n      swap1\n      pop\n        /* \"#utility.yul\":2220:2253   */\n      tag_84\n        /* \"#utility.yul\":2247:2252   */\n      dup2\n        /* \"#utility.yul\":2220:2253   */\n      tag_40\n      jump\t// in\n    tag_84:\n        /* \"#utility.yul\":2116:2259   */\n      swap3\n      swap2\n      pop\n      pop\n      jump\t// out\n        /* \"#utility.yul\":2265:3236   */\n    tag_27:\n        /* \"#utility.yul\":2368:2374   */\n      0x00\n        /* \"#utility.yul\":2376:2382   */\n      dup1\n        /* \"#utility.yul\":2384:2390   */\n      0x00\n        /* \"#utility.yul\":2392:2398   */\n      dup1\n        /* \"#utility.yul\":2400:2406   */\n      0x00\n        /* \"#utility.yul\":2449:2452   */\n      0xa0\n        /* \"#utility.yul\":2437:2446   */\n      dup7\n        /* \"#utility.yul\":2428:2435   */\n      dup9\n        /* \"#utility.yul\":2424:2447   */\n      sub\n        /* \"#utility.yul\":2420:2453   */\n      slt\n        /* \"#utility.yul\":2417:2537   */\n      iszero\n      tag_86\n      jumpi\n        /* \"#utility.yul\":2456:2535   */\n      tag_87\n      tag_38\n      jump\t// in\n    tag_87:\n        /* \"#utility.yul\":2417:2537   */\n    tag_86:\n        /* \"#utility.yul\":2576:2577   */\n      0x00\n        /* \"#utility.yul\":2601:2664   */\n      tag_88\n        /* \"#utility.yul\":2656:2663   */\n      dup9\n        /* \"#utility.yul\":2647:2653   */\n      dup3\n        /* \"#utility.yul\":2636:2645   */\n      dup10\n        /* \"#utility.yul\":2632:2654   */\n      add\n        /* \"#utility.yul\":2601:2664   */\n      tag_44\n      jump\t// in\n    tag_88:\n        /* \"#utility.yul\":2591:2664   */\n      swap6\n      pop\n        /* \"#utility.yul\":2547:2674   */\n      pop\n        /* \"#utility.yul\":2713:2715   */\n      0x20\n        /* \"#utility.yul\":2739:2802   */\n      tag_89\n        /* \"#utility.yul\":2794:2801   */\n      dup9\n        /* \"#utility.yul\":2785:2791   */\n      dup3\n        /* \"#utility.yul\":2774:2783   */\n      dup10\n        /* \"#utility.yul\":2770:2792   */\n      add\n        /* \"#utility.yul\":2739:2802   */\n      tag_47\n      jump\t// in\n    tag_89:\n        /* \"#utility.yul\":2729:2802   */\n      swap5\n      pop\n        /* \"#utility.yul\":2684:2812   */\n      pop\n        /* \"#utility.yul\":2851:2853   */\n      0x40\n        /* \"#utility.yul\":2877:2941   */\n      tag_90\n        /* \"#utility.yul\":2933:2940   */\n      dup9\n        /* \"#utility.yul\":2924:2930   */\n      dup3\n        /* \"#utility.yul\":2913:2922   */\n      dup10\n        /* \"#utility.yul\":2909:2931   */\n      add\n        /* \"#utility.yul\":2877:2941   */\n      tag_48\n      jump\t// in\n    tag_90:\n        /* \"#utility.yul\":2867:2941   */\n      swap4\n      pop\n        /* \"#utility.yul\":2822:2951   */\n      pop\n        /* \"#utility.yul\":2990:2992   */\n      0x60\n        /* \"#utility.yul\":3016:3080   */\n      tag_91\n        /* \"#utility.yul\":3072:3079   */\n      dup9\n        /* \"#utility.yul\":3063:3069   */\n      dup3\n        /* \"#utility.yul\":3052:3061   */\n      dup10\n        /* \"#utility.yul\":3048:3070   */\n      add\n        /* \"#utility.yul\":3016:3080   */\n      tag_48\n      jump\t// in\n    tag_91:\n        /* \"#utility.yul\":3006:3080   */\n      swap3\n      pop\n        /* \"#utility.yul\":2961:3090   */\n      pop\n        /* \"#utility.yul\":3129:3132   */\n      0x80\n        /* \"#utility.yul\":3156:3219   */\n      tag_92\n        /* \"#utility.yul\":3211:3218   */\n      dup9\n        /* \"#utility.yul\":3202:3208   */\n      dup3\n        /* \"#utility.yul\":3191:3200   */\n      dup10\n        /* \"#utility.yul\":3187:3209   */\n      add\n        /* \"#utility.yul\":3156:3219   */\n      tag_44\n      jump\t// in\n    tag_92:\n        /* \"#utility.yul\":3146:3219   */\n      swap2\n      pop\n        /* \"#utility.yul\":3100:3229   */\n      pop\n        /* \"#utility.yul\":2265:3236   */\n      swap3\n      swap6\n      pop\n      swap3\n      swap6\n      swap1\n      swap4\n      pop\n      jump\t// out\n        /* \"#utility.yul\":3242:3422   */\n    tag_49:\n        /* \"#utility.yul\":3290:3367   */\n      0x4e487b7100000000000000000000000000000000000000000000000000000000\n        /* \"#utility.yul\":3287:3288   */\n      0x00\n        /* \"#utility.yul\":3280:3368   */\n      mstore\n        /* \"#utility.yul\":3387:3391   */\n      0x11\n        /* \"#utility.yul\":3384:3385   */\n      0x04\n        /* \"#utility.yul\":3377:3392   */\n      mstore\n        /* \"#utility.yul\":3411:3415   */\n      0x24\n        /* \"#utility.yul\":3408:3409   */\n      0x00\n        /* \"#utility.yul\":3401:3416   */\n      revert\n        /* \"#utility.yul\":3428:4419   */\n    tag_29:\n        /* \"#utility.yul\":3467:3474   */\n      0x00\n        /* \"#utility.yul\":3490:3509   */\n      tag_95\n        /* \"#utility.yul\":3507:3508   */\n      dup3\n        /* \"#utility.yul\":3490:3509   */\n      tag_45\n      jump\t// in\n    tag_95:\n        /* \"#utility.yul\":3485:3509   */\n      swap2\n      pop\n        /* \"#utility.yul\":3523:3542   */\n      tag_96\n        /* \"#utility.yul\":3540:3541   */\n      dup4\n        /* \"#utility.yul\":3523:3542   */\n      tag_45\n      jump\t// in\n    tag_96:\n        /* \"#utility.yul\":3518:3542   */\n      swap3\n      pop\n        /* \"#utility.yul\":3724:3725   */\n      dup3\n        /* \"#utility.yul\":3656:3722   */\n      0x7fffffffffffffffffffffffffffffffffffffffffffffffffffffffffffffff\n        /* \"#utility.yul\":3652:3726   */\n      div\n        /* \"#utility.yul\":3649:3650   */\n      dup3\n        /* \"#utility.yul\":3646:3727   */\n      gt\n        /* \"#utility.yul\":3641:3642   */\n      0x00\n        /* \"#utility.yul\":3638:3639   */\n      dup5\n        /* \"#utility.yul\":3634:3643   */\n      sgt\n        /* \"#utility.yul\":3630:3631   */\n      0x00\n        /* \"#utility.yul\":3627:3628   */\n      dup5\n        /* \"#utility.yul\":3623:3632   */\n      sgt\n        /* \"#utility.yul\":3619:3644   */\n      and\n        /* \"#utility.yul\":3615:3728   */\n      and\n        /* \"#utility.yul\":3612:3751   */\n      iszero\n      tag_97\n      jumpi\n        /* \"#utility.yul\":3731:3749   */\n      tag_98\n      tag_49\n      jump\t// in\n    tag_98:\n        /* \"#utility.yul\":3612:3751   */\n    tag_97:\n        /* \"#utility.yul\":3935:3936   */\n      dup2\n        /* \"#utility.yul\":3867:3933   */\n      0x8000000000000000000000000000000000000000000000000000000000000000\n        /* \"#utility.yul\":3862:3937   */\n      sdiv\n        /* \"#utility.yul\":3859:3860   */\n      dup4\n        /* \"#utility.yul\":3855:3938   */\n      slt\n        /* \"#utility.yul\":3850:3851   */\n      0x00\n        /* \"#utility.yul\":3847:3848   */\n      dup5\n        /* \"#utility.yul\":3843:3852   */\n      slt\n        /* \"#utility.yul\":3839:3840   */\n      0x00\n        /* \"#utility.yul\":3836:3837   */\n      dup5\n        /* \"#utility.yul\":3832:3841   */\n      sgt\n        /* \"#utility.yul\":3828:3853   */\n      and\n        /* \"#utility.yul\":3824:3939   */\n      and\n        /* \"#utility.yul\":3821:3962   */\n      iszero\n      tag_99\n      jumpi\n        /* \"#utility.yul\":3942:3960   */\n      tag_100\n      tag_49\n      jump\t// in\n    tag_100:\n        /* \"#utility.yul\":3821:3962   */\n    tag_99:\n        /* \"#utility.yul\":4146:4147   */\n      dup3\n        /* \"#utility.yul\":4078:4144   */\n      0x8000000000000000000000000000000000000000000000000000000000000000\n        /* \"#utility.yul\":4073:4148   */\n      sdiv\n        /* \"#utility.yul\":4070:4071   */\n      dup3\n        /* \"#utility.yul\":4066:4149   */\n      slt\n        /* \"#utility.yul\":4061:4062   */\n      0x00\n        /* \"#utility.yul\":4058:4059   */\n      dup5\n        /* \"#utility.yul\":4054:4063   */\n      sgt\n        /* \"#utility.yul\":4050:4051   */\n      0x00\n        /* \"#utility.yul\":4047:4048   */\n      dup5\n        /* \"#utility.yul\":4043:4052   */\n      slt\n        /* \"#utility.yul\":4039:4064   */\n      and\n        /* \"#utility.yul\":4035:4150   */\n      and\n        /* \"#utility.yul\":4032:4173   */\n      iszero\n      tag_101\n      jumpi\n        /* \"#utility.yul\":4153:4171   */\n      tag_102\n      tag_49\n      jump\t// in\n    tag_102:\n        /* \"#utility.yul\":4032:4173   */\n    tag_101:\n        /* \"#utility.yul\":4356:4357   */\n      dup3\n        /* \"#utility.yul\":4288:4354   */\n      0x7fffffffffffffffffffffffffffffffffffffffffffffffffffffffffffffff\n        /* \"#utility.yul\":4283:4358   */\n      sdiv\n        /* \"#utility.yul\":4280:4281   */\n      dup3\n        /* \"#utility.yul\":4276:4359   */\n      slt\n        /* \"#utility.yul\":4271:4272   */\n      0x00\n        /* \"#utility.yul\":4268:4269   */\n      dup5\n        /* \"#utility.yul\":4264:4273   */\n      slt\n        /* \"#utility.yul\":4260:4261   */\n      0x00\n        /* \"#utility.yul\":4257:4258   */\n      dup5\n        /* \"#utility.yul\":4253:4262   */\n      slt\n        /* \"#utility.yul\":4249:4274   */\n      and\n        /* \"#utility.yul\":4245:4360   */\n      and\n        /* \"#utility.yul\":4242:4383   */\n      iszero\n      tag_103\n      jumpi\n        /* \"#utility.yul\":4363:4381   */\n      tag_104\n      tag_49\n      jump\t// in\n    tag_104:\n        /* \"#utility.yul\":4242:4383   */\n    tag_103:\n        /* \"#utility.yul\":4411:4412   */\n      dup3\n        /* \"#utility.yul\":4408:4409   */\n      dup3\n        /* \"#utility.yul\":4404:4413   */\n      mul\n        /* \"#utility.yul\":4393:4413   */\n      swap1\n      pop\n        /* \"#utility.yul\":3428:4419   */\n      swap3\n      swap2\n      pop\n      pop\n      jump\t// out\n        /* \"#utility.yul\":4425:4594   */\n    tag_50:\n        /* \"#utility.yul\":4509:4520   */\n      0x00\n        /* \"#utility.yul\":4543:4549   */\n      dup3\n        /* \"#utility.yul\":4538:4541   */\n      dup3\n        /* \"#utility.yul\":4531:4550   */\n      mstore\n        /* \"#utility.yul\":4583:4587   */\n      0x20\n        /* \"#utility.yul\":4578:4581   */\n      dup3\n        /* \"#utility.yul\":4574:4588   */\n      add\n        /* \"#utility.yul\":4559:4588   */\n      swap1\n      pop\n        /* \"#utility.yul\":4425:4594   */\n      swap3\n      swap2\n      pop\n      pop\n      jump\t// out\n        /* \"#utility.yul\":4600:4768   */\n    tag_51:\n        /* \"#utility.yul\":4740:4760   */\n      0x4469646e27742073656e6420656e6f7567680000000000000000000000000000\n        /* \"#utility.yul\":4736:4737   */\n      0x00\n        /* \"#utility.yul\":4728:4734   */\n      dup3\n        /* \"#utility.yul\":4724:4738   */\n      add\n        /* \"#utility.yul\":4717:4761   */\n      mstore\n        /* \"#utility.yul\":4600:4768   */\n      pop\n      jump\t// out\n        /* \"#utility.yul\":4774:5140   */\n    tag_52:\n        /* \"#utility.yul\":4916:4919   */\n      0x00\n        /* \"#utility.yul\":4937:5004   */\n      tag_108\n        /* \"#utility.yul\":5001:5003   */\n      0x12\n        /* \"#utility.yul\":4996:4999   */\n      dup4\n        /* \"#utility.yul\":4937:5004   */\n      tag_50\n      jump\t// in\n    tag_108:\n        /* \"#utility.yul\":4930:5004   */\n      swap2\n      pop\n        /* \"#utility.yul\":5013:5106   */\n      tag_109\n        /* \"#utility.yul\":5102:5105   */\n      dup3\n        /* \"#utility.yul\":5013:5106   */\n      tag_51\n      jump\t// in\n    tag_109:\n        /* \"#utility.yul\":5131:5133   */\n      0x20\n        /* \"#utility.yul\":5126:5129   */\n      dup3\n        /* \"#utility.yul\":5122:5134   */\n      add\n        /* \"#utility.yul\":5115:5134   */\n      swap1\n      pop\n        /* \"#utility.yul\":4774:5140   */\n      swap2\n      swap1\n      pop\n      jump\t// out\n        /* \"#utility.yul\":5146:5565   */\n    tag_34:\n        /* \"#utility.yul\":5312:5316   */\n      0x00\n        /* \"#utility.yul\":5350:5352   */\n      0x20\n        /* \"#utility.yul\":5339:5348   */\n      dup3\n        /* \"#utility.yul\":5335:5353   */\n      add\n        /* \"#utility.yul\":5327:5353   */\n      swap1\n      pop\n        /* \"#utility.yul\":5399:5408   */\n      dup2\n        /* \"#utility.yul\":5393:5397   */\n      dup2\n        /* \"#utility.yul\":5389:5409   */\n      sub\n        /* \"#utility.yul\":5385:5386   */\n      0x00\n        /* \"#utility.yul\":5374:5383   */\n      dup4\n        /* \"#utility.yul\":5370:5387   */\n      add\n        /* \"#utility.yul\":5363:5410   */\n      mstore\n        /* \"#utility.yul\":5427:5558   */\n      tag_111\n        /* \"#utility.yul\":5553:5557   */\n      dup2\n        /* \"#utility.yul\":5427:5558   */\n      tag_52\n      jump\t// in\n    tag_111:\n        /* \"#utility.yul\":5419:5558   */\n      swap1\n      pop\n        /* \"#utility.yul\":5146:5565   */\n      swap2\n      swap1\n      pop\n      jump\t// out\n\n    auxdata: 0xa2646970667358221220b9ed1a3eade07ccb15979af39d7b70119c47936b14446b69533a371f764ebaf064736f6c63430008080033\n}\n",
				"bytecode": {
					"linkReferences": {},
					"object": "6080604052603260005534801561001557600080fd5b50610568806100256000396000f3fe60806040526004361061003f5760003560e01c8063098de820146100445780630fcb59841461006f5780636e5b6b281461009a578063b60d4288146100c3575b600080fd5b34801561005057600080fd5b506100596100cd565b60405161006691906101ee565b60405180910390f35b34801561007b57600080fd5b506100846100d3565b60405161009191906101ee565b60405180910390f35b3480156100a657600080fd5b506100c160048036038101906100bc919061023a565b61018b565b005b6100cb61018e565b005b60005481565b600080738a753747a1fa494ec906ce90e9f37563a8af630e905060008173ffffffffffffffffffffffffffffffffffffffff1663feaf968c6040518163ffffffff1660e01b815260040160a06040518083038186803b15801561013557600080fd5b505afa158015610149573d6000803e3d6000fd5b505050506040513d601f19601f8201168201806040525081019061016d91906102f4565b5050509150506402540be40081610184919061039e565b9250505090565b50565b6000543410156101d3576040517f08c379a00000000000000000000000000000000000000000000000000000000081526004016101ca90610512565b60405180910390fd5b565b6000819050919050565b6101e8816101d5565b82525050565b600060208201905061020360008301846101df565b92915050565b600080fd5b610217816101d5565b811461022257600080fd5b50565b6000813590506102348161020e565b92915050565b6000602082840312156102505761024f610209565b5b600061025e84828501610225565b91505092915050565b600069ffffffffffffffffffff82169050919050565b61028681610267565b811461029157600080fd5b50565b6000815190506102a38161027d565b92915050565b6000819050919050565b6102bc816102a9565b81146102c757600080fd5b50565b6000815190506102d9816102b3565b92915050565b6000815190506102ee8161020e565b92915050565b600080600080600060a086880312156103105761030f610209565b5b600061031e88828901610294565b955050602061032f888289016102ca565b9450506040610340888289016102df565b9350506060610351888289016102df565b925050608061036288828901610294565b9150509295509295909350565b7f4e487b7100000000000000000000000000000000000000000000000000000000600052601160045260246000fd5b60006103a9826102a9565b91506103b4836102a9565b9250827f7fffffffffffffffffffffffffffffffffffffffffffffffffffffffffffffff04821160008413600084131616156103f3576103f261036f565b5b817f800000000000000000000000000000000000000000000000000000000000000005831260008412600084131616156104305761042f61036f565b5b827f8000000000000000000000000000000000000000000000000000000000000000058212600084136000841216161561046d5761046c61036f565b5b827f7fffffffffffffffffffffffffffffffffffffffffffffffffffffffffffffff05821260008412600084121616156104aa576104a961036f565b5b828202905092915050565b600082825260208201905092915050565b7f4469646e27742073656e6420656e6f7567680000000000000000000000000000600082015250565b60006104fc6012836104b5565b9150610507826104c6565b602082019050919050565b6000602082019050818103600083015261052b816104ef565b905091905056fea2646970667358221220b9ed1a3eade07ccb15979af39d7b70119c47936b14446b69533a371f764ebaf064736f6c63430008080033",
					"opcodes": "PUSH1 0x80 PUSH1 0x40 MSTORE PUSH1 0x32 PUSH1 0x0 SSTORE CALLVALUE DUP1 ISZERO PUSH2 0x15 JUMPI PUSH1 0x0 DUP1 REVERT JUMPDEST POP PUSH2 0x568 DUP1 PUSH2 0x25 PUSH1 0x0 CODECOPY PUSH1 0x0 RETURN INVALID PUSH1 0x80 PUSH1 0x40 MSTORE PUSH1 0x4 CALLDATASIZE LT PUSH2 0x3F JUMPI PUSH1 0x0 CALLDATALOAD PUSH1 0xE0 SHR DUP1 PUSH4 0x98DE820 EQ PUSH2 0x44 JUMPI DUP1 PUSH4 0xFCB5984 EQ PUSH2 0x6F JUMPI DUP1 PUSH4 0x6E5B6B28 EQ PUSH2 0x9A JUMPI DUP1 PUSH4 0xB60D4288 EQ PUSH2 0xC3 JUMPI JUMPDEST PUSH1 0x0 DUP1 REVERT JUMPDEST CALLVALUE DUP1 ISZERO PUSH2 0x50 JUMPI PUSH1 0x0 DUP1 REVERT JUMPDEST POP PUSH2 0x59 PUSH2 0xCD JUMP JUMPDEST PUSH1 0x40 MLOAD PUSH2 0x66 SWAP2 SWAP1 PUSH2 0x1EE JUMP JUMPDEST PUSH1 0x40 MLOAD DUP1 SWAP2 SUB SWAP1 RETURN JUMPDEST CALLVALUE DUP1 ISZERO PUSH2 0x7B JUMPI PUSH1 0x0 DUP1 REVERT JUMPDEST POP PUSH2 0x84 PUSH2 0xD3 JUMP JUMPDEST PUSH1 0x40 MLOAD PUSH2 0x91 SWAP2 SWAP1 PUSH2 0x1EE JUMP JUMPDEST PUSH1 0x40 MLOAD DUP1 SWAP2 SUB SWAP1 RETURN JUMPDEST CALLVALUE DUP1 ISZERO PUSH2 0xA6 JUMPI PUSH1 0x0 DUP1 REVERT JUMPDEST POP PUSH2 0xC1 PUSH1 0x4 DUP1 CALLDATASIZE SUB DUP2 ADD SWAP1 PUSH2 0xBC SWAP2 SWAP1 PUSH2 0x23A JUMP JUMPDEST PUSH2 0x18B JUMP JUMPDEST STOP JUMPDEST PUSH2 0xCB PUSH2 0x18E JUMP JUMPDEST STOP JUMPDEST PUSH1 0x0 SLOAD DUP2 JUMP JUMPDEST PUSH1 0x0 DUP1 PUSH20 0x8A753747A1FA494EC906CE90E9F37563A8AF630E SWAP1 POP PUSH1 0x0 DUP2 PUSH20 0xFFFFFFFFFFFFFFFFFFFFFFFFFFFFFFFFFFFFFFFF AND PUSH4 0xFEAF968C PUSH1 0x40 MLOAD DUP2 PUSH4 0xFFFFFFFF AND PUSH1 0xE0 SHL DUP2 MSTORE PUSH1 0x4 ADD PUSH1 0xA0 PUSH1 0x40 MLOAD DUP1 DUP4 SUB DUP2 DUP7 DUP1 EXTCODESIZE ISZERO DUP1 ISZERO PUSH2 0x135 JUMPI PUSH1 0x0 DUP1 REVERT JUMPDEST POP GAS STATICCALL ISZERO DUP1 ISZERO PUSH2 0x149 JUMPI RETURNDATASIZE PUSH1 0x0 DUP1 RETURNDATACOPY RETURNDATASIZE PUSH1 0x0 REVERT JUMPDEST POP POP POP POP PUSH1 0x40 MLOAD RETURNDATASIZE PUSH1 0x1F NOT PUSH1 0x1F DUP3 ADD AND DUP3 ADD DUP1 PUSH1 0x40 MSTORE POP DUP2 ADD SWAP1 PUSH2 0x16D SWAP2 SWAP1 PUSH2 0x2F4 JUMP JUMPDEST POP POP POP SWAP2 POP POP PUSH5 0x2540BE400 DUP2 PUSH2 0x184 SWAP2 SWAP1 PUSH2 0x39E JUMP JUMPDEST SWAP3 POP POP POP SWAP1 JUMP JUMPDEST POP JUMP JUMPDEST PUSH1 0x0 SLOAD CALLVALUE LT ISZERO PUSH2 0x1D3 JUMPI PUSH1 0x40 MLOAD PUSH32 0x8C379A000000000000000000000000000000000000000000000000000000000 DUP2 MSTORE PUSH1 0x4 ADD PUSH2 0x1CA SWAP1 PUSH2 0x512 JUMP JUMPDEST PUSH1 0x40 MLOAD DUP1 SWAP2 SUB SWAP1 REVERT JUMPDEST JUMP JUMPDEST PUSH1 0x0 DUP2 SWAP1 POP SWAP2 SWAP1 POP JUMP JUMPDEST PUSH2 0x1E8 DUP2 PUSH2 0x1D5 JUMP JUMPDEST DUP3 MSTORE POP POP JUMP JUMPDEST PUSH1 0x0 PUSH1 0x20 DUP3 ADD SWAP1 POP PUSH2 0x203 PUSH1 0x0 DUP4 ADD DUP5 PUSH2 0x1DF JUMP JUMPDEST SWAP3 SWAP2 POP POP JUMP JUMPDEST PUSH1 0x0 DUP1 REVERT JUMPDEST PUSH2 0x217 DUP2 PUSH2 0x1D5 JUMP JUMPDEST DUP2 EQ PUSH2 0x222 JUMPI PUSH1 0x0 DUP1 REVERT JUMPDEST POP JUMP JUMPDEST PUSH1 0x0 DUP2 CALLDATALOAD SWAP1 POP PUSH2 0x234 DUP2 PUSH2 0x20E JUMP JUMPDEST SWAP3 SWAP2 POP POP JUMP JUMPDEST PUSH1 0x0 PUSH1 0x20 DUP3 DUP5 SUB SLT ISZERO PUSH2 0x250 JUMPI PUSH2 0x24F PUSH2 0x209 JUMP JUMPDEST JUMPDEST PUSH1 0x0 PUSH2 0x25E DUP5 DUP3 DUP6 ADD PUSH2 0x225 JUMP JUMPDEST SWAP2 POP POP SWAP3 SWAP2 POP POP JUMP JUMPDEST PUSH1 0x0 PUSH10 0xFFFFFFFFFFFFFFFFFFFF DUP3 AND SWAP1 POP SWAP2 SWAP1 POP JUMP JUMPDEST PUSH2 0x286 DUP2 PUSH2 0x267 JUMP JUMPDEST DUP2 EQ PUSH2 0x291 JUMPI PUSH1 0x0 DUP1 REVERT JUMPDEST POP JUMP JUMPDEST PUSH1 0x0 DUP2 MLOAD SWAP1 POP PUSH2 0x2A3 DUP2 PUSH2 0x27D JUMP JUMPDEST SWAP3 SWAP2 POP POP JUMP JUMPDEST PUSH1 0x0 DUP2 SWAP1 POP SWAP2 SWAP1 POP JUMP JUMPDEST PUSH2 0x2BC DUP2 PUSH2 0x2A9 JUMP JUMPDEST DUP2 EQ PUSH2 0x2C7 JUMPI PUSH1 0x0 DUP1 REVERT JUMPDEST POP JUMP JUMPDEST PUSH1 0x0 DUP2 MLOAD SWAP1 POP PUSH2 0x2D9 DUP2 PUSH2 0x2B3 JUMP JUMPDEST SWAP3 SWAP2 POP POP JUMP JUMPDEST PUSH1 0x0 DUP2 MLOAD SWAP1 POP PUSH2 0x2EE DUP2 PUSH2 0x20E JUMP JUMPDEST SWAP3 SWAP2 POP POP JUMP JUMPDEST PUSH1 0x0 DUP1 PUSH1 0x0 DUP1 PUSH1 0x0 PUSH1 0xA0 DUP7 DUP9 SUB SLT ISZERO PUSH2 0x310 JUMPI PUSH2 0x30F PUSH2 0x209 JUMP JUMPDEST JUMPDEST PUSH1 0x0 PUSH2 0x31E DUP9 DUP3 DUP10 ADD PUSH2 0x294 JUMP JUMPDEST SWAP6 POP POP PUSH1 0x20 PUSH2 0x32F DUP9 DUP3 DUP10 ADD PUSH2 0x2CA JUMP JUMPDEST SWAP5 POP POP PUSH1 0x40 PUSH2 0x340 DUP9 DUP3 DUP10 ADD PUSH2 0x2DF JUMP JUMPDEST SWAP4 POP POP PUSH1 0x60 PUSH2 0x351 DUP9 DUP3 DUP10 ADD PUSH2 0x2DF JUMP JUMPDEST SWAP3 POP POP PUSH1 0x80 PUSH2 0x362 DUP9 DUP3 DUP10 ADD PUSH2 0x294 JUMP JUMPDEST SWAP2 POP POP SWAP3 SWAP6 POP SWAP3 SWAP6 SWAP1 SWAP4 POP JUMP JUMPDEST PUSH32 0x4E487B7100000000000000000000000000000000000000000000000000000000 PUSH1 0x0 MSTORE PUSH1 0x11 PUSH1 0x4 MSTORE PUSH1 0x24 PUSH1 0x0 REVERT JUMPDEST PUSH1 0x0 PUSH2 0x3A9 DUP3 PUSH2 0x2A9 JUMP JUMPDEST SWAP2 POP PUSH2 0x3B4 DUP4 PUSH2 0x2A9 JUMP JUMPDEST SWAP3 POP DUP3 PUSH32 0x7FFFFFFFFFFFFFFFFFFFFFFFFFFFFFFFFFFFFFFFFFFFFFFFFFFFFFFFFFFFFFFF DIV DUP3 GT PUSH1 0x0 DUP5 SGT PUSH1 0x0 DUP5 SGT AND AND ISZERO PUSH2 0x3F3 JUMPI PUSH2 0x3F2 PUSH2 0x36F JUMP JUMPDEST JUMPDEST DUP2 PUSH32 0x8000000000000000000000000000000000000000000000000000000000000000 SDIV DUP4 SLT PUSH1 0x0 DUP5 SLT PUSH1 0x0 DUP5 SGT AND AND ISZERO PUSH2 0x430 JUMPI PUSH2 0x42F PUSH2 0x36F JUMP JUMPDEST JUMPDEST DUP3 PUSH32 0x8000000000000000000000000000000000000000000000000000000000000000 SDIV DUP3 SLT PUSH1 0x0 DUP5 SGT PUSH1 0x0 DUP5 SLT AND AND ISZERO PUSH2 0x46D JUMPI PUSH2 0x46C PUSH2 0x36F JUMP JUMPDEST JUMPDEST DUP3 PUSH32 0x7FFFFFFFFFFFFFFFFFFFFFFFFFFFFFFFFFFFFFFFFFFFFFFFFFFFFFFFFFFFFFFF SDIV DUP3 SLT PUSH1 0x0 DUP5 SLT PUSH1 0x0 DUP5 SLT AND AND ISZERO PUSH2 0x4AA JUMPI PUSH2 0x4A9 PUSH2 0x36F JUMP JUMPDEST JUMPDEST DUP3 DUP3 MUL SWAP1 POP SWAP3 SWAP2 POP POP JUMP JUMPDEST PUSH1 0x0 DUP3 DUP3 MSTORE PUSH1 0x20 DUP3 ADD SWAP1 POP SWAP3 SWAP2 POP POP JUMP JUMPDEST PUSH32 0x4469646E27742073656E6420656E6F7567680000000000000000000000000000 PUSH1 0x0 DUP3 ADD MSTORE POP JUMP JUMPDEST PUSH1 0x0 PUSH2 0x4FC PUSH1 0x12 DUP4 PUSH2 0x4B5 JUMP JUMPDEST SWAP2 POP PUSH2 0x507 DUP3 PUSH2 0x4C6 JUMP JUMPDEST PUSH1 0x20 DUP3 ADD SWAP1 POP SWAP2 SWAP1 POP JUMP JUMPDEST PUSH1 0x0 PUSH1 0x20 DUP3 ADD SWAP1 POP DUP2 DUP2 SUB PUSH1 0x0 DUP4 ADD MSTORE PUSH2 0x52B DUP2 PUSH2 0x4EF JUMP JUMPDEST SWAP1 POP SWAP2 SWAP1 POP JUMP INVALID LOG2 PUSH5 0x6970667358 0x22 SLT KECCAK256 0xB9 0xED BYTE RETURNDATACOPY 0xAD 0xE0 PUSH29 0xCB15979AF39D7B70119C47936B14446B69533A371F764EBAF064736F6C PUSH4 0x43000808 STOP CALLER "
				},
				"gasEstimates": {
					"creation": {
						"codeDepositCost": "276800",
						"executionCost": "22424",
						"totalCost": "299224"
					},
					"external": {
						"fund()": "2578",
						"getConversionRate(uint256)": "428",
						"getprice()": "infinite",
						"minimumUsd()": "2407"
					}
				},
				"methodIdentifiers": {
					"fund()": "b60d4288",
					"getConversionRate(uint256)": "6e5b6b28",
					"getprice()": "0fcb5984",
					"minimumUsd()": "098de820"
				}
			},
			"storageLayout": {
				"storage": [
					{
						"astId": 51,
						"contract": "FundMe.sol:FundMe",
						"label": "minimumUsd",
						"offset": 0,
						"slot": "0",
						"type": "t_uint256"
					}
				],
				"types": {
					"t_uint256": {
						"encoding": "inplace",
						"label": "uint256",
						"numberOfBytes": "32"
					}
				}
			},
			"userdoc": {
				"kind": "user",
				"methods": {},
				"version": 1
			}
		}
	}
}