{
	"contracts/PriceConverter.sol": {
		"PriceConverter": {
			"abi": [
				{
					"inputs": [],
					"name": "getPrice",
					"outputs": [
						{
							"internalType": "uint256",
							"name": "",
							"type": "uint256"
						}
					],
					"stateMutability": "view",
					"type": "function"
				}
			],
			"devdoc": {
				"kind": "dev",
				"methods": {},
				"version": 1
			},
			"evm": {
				"assembly": "    /* \"contracts/PriceConverter.sol\":136:1025  library PriceConverter {... */\n  dataSize(sub_0)\n  dataOffset(sub_0)\n  0x0b\n  dup3\n  dup3\n  dup3\n  codecopy\n  dup1\n  mload\n  0x00\n  byte\n  0x73\n  eq\n  tag_1\n  jumpi\n  mstore(0x00, 0x4e487b7100000000000000000000000000000000000000000000000000000000)\n  mstore(0x04, 0x00)\n  revert(0x00, 0x24)\ntag_1:\n  mstore(0x00, address)\n  0x73\n  dup2\n  mstore8\n  dup3\n  dup2\n  return\nstop\n\nsub_0: assembly {\n        /* \"contracts/PriceConverter.sol\":136:1025  library PriceConverter {... */\n      eq(address, deployTimeAddress())\n      mstore(0x40, 0x80)\n      jumpi(tag_1, lt(calldatasize, 0x04))\n      shr(0xe0, calldataload(0x00))\n      dup1\n      0x98d5fdca\n      eq\n      tag_2\n      jumpi\n    tag_1:\n      0x00\n      dup1\n      revert\n        /* \"contracts/PriceConverter.sol\":166:585  function getPrice() public view returns(uint256) {... */\n    tag_2:\n      tag_3\n      tag_4\n      jump\t// in\n    tag_3:\n      mload(0x40)\n      tag_5\n      swap2\n      swap1\n      tag_6\n      jump\t// in\n    tag_5:\n      mload(0x40)\n      dup1\n      swap2\n      sub\n      swap1\n      return\n    tag_4:\n        /* \"contracts/PriceConverter.sol\":206:213  uint256 */\n      0x00\n        /* \"contracts/PriceConverter.sol\":306:337  AggregatorV3Interface priceFeed */\n      dup1\n        /* \"contracts/PriceConverter.sol\":362:404  0x8A753747A1Fa494EC906cE90E9f37563A8AF630e */\n      0x8a753747a1fa494ec906ce90e9f37563a8af630e\n        /* \"contracts/PriceConverter.sol\":306:405  AggregatorV3Interface priceFeed = AggregatorV3Interface(0x8A753747A1Fa494EC906cE90E9f37563A8AF630e) */\n      swap1\n      pop\n        /* \"contracts/PriceConverter.sol\":417:429  int256 price */\n      0x00\n        /* \"contracts/PriceConverter.sol\":436:445  priceFeed */\n      dup2\n        /* \"contracts/PriceConverter.sol\":436:461  priceFeed.latestRoundData */\n      0xffffffffffffffffffffffffffffffffffffffff\n      and\n      0xfeaf968c\n        /* \"contracts/PriceConverter.sol\":436:463  priceFeed.latestRoundData() */\n      mload(0x40)\n      dup2\n      0xffffffff\n      and\n      0xe0\n      shl\n      dup2\n      mstore\n      0x04\n      add\n      0xa0\n      mload(0x40)\n      dup1\n      dup4\n      sub\n      dup2\n      dup7\n      dup1\n      extcodesize\n      iszero\n      dup1\n      iszero\n      tag_8\n      jumpi\n      0x00\n      dup1\n      revert\n    tag_8:\n      pop\n      gas\n      staticcall\n      iszero\n      dup1\n      iszero\n      tag_10\n      jumpi\n      returndatasize\n      0x00\n      dup1\n      returndatacopy\n      revert(0x00, returndatasize)\n    tag_10:\n      pop\n      pop\n      pop\n      pop\n      mload(0x40)\n      returndatasize\n      not(0x1f)\n      0x1f\n      dup3\n      add\n      and\n      dup3\n      add\n      dup1\n      0x40\n      mstore\n      pop\n      dup2\n      add\n      swap1\n      tag_11\n      swap2\n      swap1\n      tag_12\n      jump\t// in\n    tag_11:\n        /* \"contracts/PriceConverter.sol\":415:463  (,int256 price,,,) = priceFeed.latestRoundData() */\n      pop\n      pop\n      pop\n      swap2\n      pop\n      pop\n        /* \"contracts/PriceConverter.sol\":550:554  1e10 */\n      0x02540be400\n        /* \"contracts/PriceConverter.sol\":542:547  price */\n      dup2\n        /* \"contracts/PriceConverter.sol\":542:554  price * 1e10 */\n      tag_13\n      swap2\n      swap1\n      tag_14\n      jump\t// in\n    tag_13:\n        /* \"contracts/PriceConverter.sol\":527:555  return uint256(price * 1e10) */\n      swap3\n      pop\n      pop\n      pop\n        /* \"contracts/PriceConverter.sol\":166:585  function getPrice() public view returns(uint256) {... */\n      swap1\n      jump\t// out\n        /* \"#utility.yul\":7:84   */\n    tag_15:\n        /* \"#utility.yul\":44:51   */\n      0x00\n        /* \"#utility.yul\":73:78   */\n      dup2\n        /* \"#utility.yul\":62:78   */\n      swap1\n      pop\n        /* \"#utility.yul\":7:84   */\n      swap2\n      swap1\n      pop\n      jump\t// out\n        /* \"#utility.yul\":90:216   */\n    tag_16:\n        /* \"#utility.yul\":185:209   */\n      tag_32\n        /* \"#utility.yul\":203:208   */\n      dup2\n        /* \"#utility.yul\":185:209   */\n      tag_15\n      jump\t// in\n    tag_32:\n        /* \"#utility.yul\":180:183   */\n      dup3\n        /* \"#utility.yul\":173:210   */\n      mstore\n        /* \"#utility.yul\":90:216   */\n      pop\n      pop\n      jump\t// out\n        /* \"#utility.yul\":222:460   */\n    tag_6:\n        /* \"#utility.yul\":323:327   */\n      0x00\n        /* \"#utility.yul\":361:363   */\n      0x20\n        /* \"#utility.yul\":350:359   */\n      dup3\n        /* \"#utility.yul\":346:364   */\n      add\n        /* \"#utility.yul\":338:364   */\n      swap1\n      pop\n        /* \"#utility.yul\":374:453   */\n      tag_34\n        /* \"#utility.yul\":450:451   */\n      0x00\n        /* \"#utility.yul\":439:448   */\n      dup4\n        /* \"#utility.yul\":435:452   */\n      add\n        /* \"#utility.yul\":426:432   */\n      dup5\n        /* \"#utility.yul\":374:453   */\n      tag_16\n      jump\t// in\n    tag_34:\n        /* \"#utility.yul\":222:460   */\n      swap3\n      swap2\n      pop\n      pop\n      jump\t// out\n        /* \"#utility.yul\":547:664   */\n    tag_18:\n        /* \"#utility.yul\":656:657   */\n      0x00\n        /* \"#utility.yul\":653:654   */\n      dup1\n        /* \"#utility.yul\":646:658   */\n      revert\n        /* \"#utility.yul\":793:898   */\n    tag_20:\n        /* \"#utility.yul\":829:836   */\n      0x00\n        /* \"#utility.yul\":869:891   */\n      0xffffffffffffffffffff\n        /* \"#utility.yul\":862:867   */\n      dup3\n        /* \"#utility.yul\":858:892   */\n      and\n        /* \"#utility.yul\":847:892   */\n      swap1\n      pop\n        /* \"#utility.yul\":793:898   */\n      swap2\n      swap1\n      pop\n      jump\t// out\n        /* \"#utility.yul\":904:1024   */\n    tag_21:\n        /* \"#utility.yul\":976:999   */\n      tag_40\n        /* \"#utility.yul\":993:998   */\n      dup2\n        /* \"#utility.yul\":976:999   */\n      tag_20\n      jump\t// in\n    tag_40:\n        /* \"#utility.yul\":969:974   */\n      dup2\n        /* \"#utility.yul\":966:1000   */\n      eq\n        /* \"#utility.yul\":956:1018   */\n      tag_41\n      jumpi\n        /* \"#utility.yul\":1014:1015   */\n      0x00\n        /* \"#utility.yul\":1011:1012   */\n      dup1\n        /* \"#utility.yul\":1004:1016   */\n      revert\n        /* \"#utility.yul\":956:1018   */\n    tag_41:\n        /* \"#utility.yul\":904:1024   */\n      pop\n      jump\t// out\n        /* \"#utility.yul\":1030:1171   */\n    tag_22:\n        /* \"#utility.yul\":1086:1091   */\n      0x00\n        /* \"#utility.yul\":1117:1123   */\n      dup2\n        /* \"#utility.yul\":1111:1124   */\n      mload\n        /* \"#utility.yul\":1102:1124   */\n      swap1\n      pop\n        /* \"#utility.yul\":1133:1165   */\n      tag_43\n        /* \"#utility.yul\":1159:1164   */\n      dup2\n        /* \"#utility.yul\":1133:1165   */\n      tag_21\n      jump\t// in\n    tag_43:\n        /* \"#utility.yul\":1030:1171   */\n      swap3\n      swap2\n      pop\n      pop\n      jump\t// out\n        /* \"#utility.yul\":1177:1253   */\n    tag_23:\n        /* \"#utility.yul\":1213:1220   */\n      0x00\n        /* \"#utility.yul\":1242:1247   */\n      dup2\n        /* \"#utility.yul\":1231:1247   */\n      swap1\n      pop\n        /* \"#utility.yul\":1177:1253   */\n      swap2\n      swap1\n      pop\n      jump\t// out\n        /* \"#utility.yul\":1259:1379   */\n    tag_24:\n        /* \"#utility.yul\":1331:1354   */\n      tag_46\n        /* \"#utility.yul\":1348:1353   */\n      dup2\n        /* \"#utility.yul\":1331:1354   */\n      tag_23\n      jump\t// in\n    tag_46:\n        /* \"#utility.yul\":1324:1329   */\n      dup2\n        /* \"#utility.yul\":1321:1355   */\n      eq\n        /* \"#utility.yul\":1311:1373   */\n      tag_47\n      jumpi\n        /* \"#utility.yul\":1369:1370   */\n      0x00\n        /* \"#utility.yul\":1366:1367   */\n      dup1\n        /* \"#utility.yul\":1359:1371   */\n      revert\n        /* \"#utility.yul\":1311:1373   */\n    tag_47:\n        /* \"#utility.yul\":1259:1379   */\n      pop\n      jump\t// out\n        /* \"#utility.yul\":1385:1526   */\n    tag_25:\n        /* \"#utility.yul\":1441:1446   */\n      0x00\n        /* \"#utility.yul\":1472:1478   */\n      dup2\n        /* \"#utility.yul\":1466:1479   */\n      mload\n        /* \"#utility.yul\":1457:1479   */\n      swap1\n      pop\n        /* \"#utility.yul\":1488:1520   */\n      tag_49\n        /* \"#utility.yul\":1514:1519   */\n      dup2\n        /* \"#utility.yul\":1488:1520   */\n      tag_24\n      jump\t// in\n    tag_49:\n        /* \"#utility.yul\":1385:1526   */\n      swap3\n      swap2\n      pop\n      pop\n      jump\t// out\n        /* \"#utility.yul\":1532:1654   */\n    tag_26:\n        /* \"#utility.yul\":1605:1629   */\n      tag_51\n        /* \"#utility.yul\":1623:1628   */\n      dup2\n        /* \"#utility.yul\":1605:1629   */\n      tag_15\n      jump\t// in\n    tag_51:\n        /* \"#utility.yul\":1598:1603   */\n      dup2\n        /* \"#utility.yul\":1595:1630   */\n      eq\n        /* \"#utility.yul\":1585:1648   */\n      tag_52\n      jumpi\n        /* \"#utility.yul\":1644:1645   */\n      0x00\n        /* \"#utility.yul\":1641:1642   */\n      dup1\n        /* \"#utility.yul\":1634:1646   */\n      revert\n        /* \"#utility.yul\":1585:1648   */\n    tag_52:\n        /* \"#utility.yul\":1532:1654   */\n      pop\n      jump\t// out\n        /* \"#utility.yul\":1660:1803   */\n    tag_27:\n        /* \"#utility.yul\":1717:1722   */\n      0x00\n        /* \"#utility.yul\":1748:1754   */\n      dup2\n        /* \"#utility.yul\":1742:1755   */\n      mload\n        /* \"#utility.yul\":1733:1755   */\n      swap1\n      pop\n        /* \"#utility.yul\":1764:1797   */\n      tag_54\n        /* \"#utility.yul\":1791:1796   */\n      dup2\n        /* \"#utility.yul\":1764:1797   */\n      tag_26\n      jump\t// in\n    tag_54:\n        /* \"#utility.yul\":1660:1803   */\n      swap3\n      swap2\n      pop\n      pop\n      jump\t// out\n        /* \"#utility.yul\":1809:2780   */\n    tag_12:\n        /* \"#utility.yul\":1912:1918   */\n      0x00\n        /* \"#utility.yul\":1920:1926   */\n      dup1\n        /* \"#utility.yul\":1928:1934   */\n      0x00\n        /* \"#utility.yul\":1936:1942   */\n      dup1\n        /* \"#utility.yul\":1944:1950   */\n      0x00\n        /* \"#utility.yul\":1993:1996   */\n      0xa0\n        /* \"#utility.yul\":1981:1990   */\n      dup7\n        /* \"#utility.yul\":1972:1979   */\n      dup9\n        /* \"#utility.yul\":1968:1991   */\n      sub\n        /* \"#utility.yul\":1964:1997   */\n      slt\n        /* \"#utility.yul\":1961:2081   */\n      iszero\n      tag_56\n      jumpi\n        /* \"#utility.yul\":2000:2079   */\n      tag_57\n      tag_18\n      jump\t// in\n    tag_57:\n        /* \"#utility.yul\":1961:2081   */\n    tag_56:\n        /* \"#utility.yul\":2120:2121   */\n      0x00\n        /* \"#utility.yul\":2145:2208   */\n      tag_58\n        /* \"#utility.yul\":2200:2207   */\n      dup9\n        /* \"#utility.yul\":2191:2197   */\n      dup3\n        /* \"#utility.yul\":2180:2189   */\n      dup10\n        /* \"#utility.yul\":2176:2198   */\n      add\n        /* \"#utility.yul\":2145:2208   */\n      tag_22\n      jump\t// in\n    tag_58:\n        /* \"#utility.yul\":2135:2208   */\n      swap6\n      pop\n        /* \"#utility.yul\":2091:2218   */\n      pop\n        /* \"#utility.yul\":2257:2259   */\n      0x20\n        /* \"#utility.yul\":2283:2346   */\n      tag_59\n        /* \"#utility.yul\":2338:2345   */\n      dup9\n        /* \"#utility.yul\":2329:2335   */\n      dup3\n        /* \"#utility.yul\":2318:2327   */\n      dup10\n        /* \"#utility.yul\":2314:2336   */\n      add\n        /* \"#utility.yul\":2283:2346   */\n      tag_25\n      jump\t// in\n    tag_59:\n        /* \"#utility.yul\":2273:2346   */\n      swap5\n      pop\n        /* \"#utility.yul\":2228:2356   */\n      pop\n        /* \"#utility.yul\":2395:2397   */\n      0x40\n        /* \"#utility.yul\":2421:2485   */\n      tag_60\n        /* \"#utility.yul\":2477:2484   */\n      dup9\n        /* \"#utility.yul\":2468:2474   */\n      dup3\n        /* \"#utility.yul\":2457:2466   */\n      dup10\n        /* \"#utility.yul\":2453:2475   */\n      add\n        /* \"#utility.yul\":2421:2485   */\n      tag_27\n      jump\t// in\n    tag_60:\n        /* \"#utility.yul\":2411:2485   */\n      swap4\n      pop\n        /* \"#utility.yul\":2366:2495   */\n      pop\n        /* \"#utility.yul\":2534:2536   */\n      0x60\n        /* \"#utility.yul\":2560:2624   */\n      tag_61\n        /* \"#utility.yul\":2616:2623   */\n      dup9\n        /* \"#utility.yul\":2607:2613   */\n      dup3\n        /* \"#utility.yul\":2596:2605   */\n      dup10\n        /* \"#utility.yul\":2592:2614   */\n      add\n        /* \"#utility.yul\":2560:2624   */\n      tag_27\n      jump\t// in\n    tag_61:\n        /* \"#utility.yul\":2550:2624   */\n      swap3\n      pop\n        /* \"#utility.yul\":2505:2634   */\n      pop\n        /* \"#utility.yul\":2673:2676   */\n      0x80\n        /* \"#utility.yul\":2700:2763   */\n      tag_62\n        /* \"#utility.yul\":2755:2762   */\n      dup9\n        /* \"#utility.yul\":2746:2752   */\n      dup3\n        /* \"#utility.yul\":2735:2744   */\n      dup10\n        /* \"#utility.yul\":2731:2753   */\n      add\n        /* \"#utility.yul\":2700:2763   */\n      tag_22\n      jump\t// in\n    tag_62:\n        /* \"#utility.yul\":2690:2763   */\n      swap2\n      pop\n        /* \"#utility.yul\":2644:2773   */\n      pop\n        /* \"#utility.yul\":1809:2780   */\n      swap3\n      swap6\n      pop\n      swap3\n      swap6\n      swap1\n      swap4\n      pop\n      jump\t// out\n        /* \"#utility.yul\":2786:2966   */\n    tag_28:\n        /* \"#utility.yul\":2834:2911   */\n      0x4e487b7100000000000000000000000000000000000000000000000000000000\n        /* \"#utility.yul\":2831:2832   */\n      0x00\n        /* \"#utility.yul\":2824:2912   */\n      mstore\n        /* \"#utility.yul\":2931:2935   */\n      0x11\n        /* \"#utility.yul\":2928:2929   */\n      0x04\n        /* \"#utility.yul\":2921:2936   */\n      mstore\n        /* \"#utility.yul\":2955:2959   */\n      0x24\n        /* \"#utility.yul\":2952:2953   */\n      0x00\n        /* \"#utility.yul\":2945:2960   */\n      revert\n        /* \"#utility.yul\":2972:3963   */\n    tag_14:\n        /* \"#utility.yul\":3011:3018   */\n      0x00\n        /* \"#utility.yul\":3034:3053   */\n      tag_65\n        /* \"#utility.yul\":3051:3052   */\n      dup3\n        /* \"#utility.yul\":3034:3053   */\n      tag_23\n      jump\t// in\n    tag_65:\n        /* \"#utility.yul\":3029:3053   */\n      swap2\n      pop\n        /* \"#utility.yul\":3067:3086   */\n      tag_66\n        /* \"#utility.yul\":3084:3085   */\n      dup4\n        /* \"#utility.yul\":3067:3086   */\n      tag_23\n      jump\t// in\n    tag_66:\n        /* \"#utility.yul\":3062:3086   */\n      swap3\n      pop\n        /* \"#utility.yul\":3268:3269   */\n      dup3\n        /* \"#utility.yul\":3200:3266   */\n      0x7fffffffffffffffffffffffffffffffffffffffffffffffffffffffffffffff\n        /* \"#utility.yul\":3196:3270   */\n      div\n        /* \"#utility.yul\":3193:3194   */\n      dup3\n        /* \"#utility.yul\":3190:3271   */\n      gt\n        /* \"#utility.yul\":3185:3186   */\n      0x00\n        /* \"#utility.yul\":3182:3183   */\n      dup5\n        /* \"#utility.yul\":3178:3187   */\n      sgt\n        /* \"#utility.yul\":3174:3175   */\n      0x00\n        /* \"#utility.yul\":3171:3172   */\n      dup5\n        /* \"#utility.yul\":3167:3176   */\n      sgt\n        /* \"#utility.yul\":3163:3188   */\n      and\n        /* \"#utility.yul\":3159:3272   */\n      and\n        /* \"#utility.yul\":3156:3295   */\n      iszero\n      tag_67\n      jumpi\n        /* \"#utility.yul\":3275:3293   */\n      tag_68\n      tag_28\n      jump\t// in\n    tag_68:\n        /* \"#utility.yul\":3156:3295   */\n    tag_67:\n        /* \"#utility.yul\":3479:3480   */\n      dup2\n        /* \"#utility.yul\":3411:3477   */\n      0x8000000000000000000000000000000000000000000000000000000000000000\n        /* \"#utility.yul\":3406:3481   */\n      sdiv\n        /* \"#utility.yul\":3403:3404   */\n      dup4\n        /* \"#utility.yul\":3399:3482   */\n      slt\n        /* \"#utility.yul\":3394:3395   */\n      0x00\n        /* \"#utility.yul\":3391:3392   */\n      dup5\n        /* \"#utility.yul\":3387:3396   */\n      slt\n        /* \"#utility.yul\":3383:3384   */\n      0x00\n        /* \"#utility.yul\":3380:3381   */\n      dup5\n        /* \"#utility.yul\":3376:3385   */\n      sgt\n        /* \"#utility.yul\":3372:3397   */\n      and\n        /* \"#utility.yul\":3368:3483   */\n      and\n        /* \"#utility.yul\":3365:3506   */\n      iszero\n      tag_69\n      jumpi\n        /* \"#utility.yul\":3486:3504   */\n      tag_70\n      tag_28\n      jump\t// in\n    tag_70:\n        /* \"#utility.yul\":3365:3506   */\n    tag_69:\n        /* \"#utility.yul\":3690:3691   */\n      dup3\n        /* \"#utility.yul\":3622:3688   */\n      0x8000000000000000000000000000000000000000000000000000000000000000\n        /* \"#utility.yul\":3617:3692   */\n      sdiv\n        /* \"#utility.yul\":3614:3615   */\n      dup3\n        /* \"#utility.yul\":3610:3693   */\n      slt\n        /* \"#utility.yul\":3605:3606   */\n      0x00\n        /* \"#utility.yul\":3602:3603   */\n      dup5\n        /* \"#utility.yul\":3598:3607   */\n      sgt\n        /* \"#utility.yul\":3594:3595   */\n      0x00\n        /* \"#utility.yul\":3591:3592   */\n      dup5\n        /* \"#utility.yul\":3587:3596   */\n      slt\n        /* \"#utility.yul\":3583:3608   */\n      and\n        /* \"#utility.yul\":3579:3694   */\n      and\n        /* \"#utility.yul\":3576:3717   */\n      iszero\n      tag_71\n      jumpi\n        /* \"#utility.yul\":3697:3715   */\n      tag_72\n      tag_28\n      jump\t// in\n    tag_72:\n        /* \"#utility.yul\":3576:3717   */\n    tag_71:\n        /* \"#utility.yul\":3900:3901   */\n      dup3\n        /* \"#utility.yul\":3832:3898   */\n      0x7fffffffffffffffffffffffffffffffffffffffffffffffffffffffffffffff\n        /* \"#utility.yul\":3827:3902   */\n      sdiv\n        /* \"#utility.yul\":3824:3825   */\n      dup3\n        /* \"#utility.yul\":3820:3903   */\n      slt\n        /* \"#utility.yul\":3815:3816   */\n      0x00\n        /* \"#utility.yul\":3812:3813   */\n      dup5\n        /* \"#utility.yul\":3808:3817   */\n      slt\n        /* \"#utility.yul\":3804:3805   */\n      0x00\n        /* \"#utility.yul\":3801:3802   */\n      dup5\n        /* \"#utility.yul\":3797:3806   */\n      slt\n        /* \"#utility.yul\":3793:3818   */\n      and\n        /* \"#utility.yul\":3789:3904   */\n      and\n        /* \"#utility.yul\":3786:3927   */\n      iszero\n      tag_73\n      jumpi\n        /* \"#utility.yul\":3907:3925   */\n      tag_74\n      tag_28\n      jump\t// in\n    tag_74:\n        /* \"#utility.yul\":3786:3927   */\n    tag_73:\n        /* \"#utility.yul\":3955:3956   */\n      dup3\n        /* \"#utility.yul\":3952:3953   */\n      dup3\n        /* \"#utility.yul\":3948:3957   */\n      mul\n        /* \"#utility.yul\":3937:3957   */\n      swap1\n      pop\n        /* \"#utility.yul\":2972:3963   */\n      swap3\n      swap2\n      pop\n      pop\n      jump\t// out\n\n    auxdata: 0xa26469706673582212202a0700649c00f39897a042d8ec519696d70c12b512a13abdd1a65bdb7973bd6064736f6c63430008080033\n}\n",
				"bytecode": {
					"linkReferences": {},
					"object": "6103e4610053600b82828239805160001a607314610046577f4e487b7100000000000000000000000000000000000000000000000000000000600052600060045260246000fd5b30600052607381538281f3fe73000000000000000000000000000000000000000030146080604052600436106100355760003560e01c806398d5fdca1461003a575b600080fd5b610042610058565b60405161004f9190610129565b60405180910390f35b600080738a753747a1fa494ec906ce90e9f37563a8af630e905060008173ffffffffffffffffffffffffffffffffffffffff1663feaf968c6040518163ffffffff1660e01b815260040160a06040518083038186803b1580156100ba57600080fd5b505afa1580156100ce573d6000803e3d6000fd5b505050506040513d601f19601f820116820180604052508101906100f291906101ed565b5050509150506402540be400816101099190610297565b9250505090565b6000819050919050565b61012381610110565b82525050565b600060208201905061013e600083018461011a565b92915050565b600080fd5b600069ffffffffffffffffffff82169050919050565b61016881610149565b811461017357600080fd5b50565b6000815190506101858161015f565b92915050565b6000819050919050565b61019e8161018b565b81146101a957600080fd5b50565b6000815190506101bb81610195565b92915050565b6101ca81610110565b81146101d557600080fd5b50565b6000815190506101e7816101c1565b92915050565b600080600080600060a0868803121561020957610208610144565b5b600061021788828901610176565b9550506020610228888289016101ac565b9450506040610239888289016101d8565b935050606061024a888289016101d8565b925050608061025b88828901610176565b9150509295509295909350565b7f4e487b7100000000000000000000000000000000000000000000000000000000600052601160045260246000fd5b60006102a28261018b565b91506102ad8361018b565b9250827f7fffffffffffffffffffffffffffffffffffffffffffffffffffffffffffffff04821160008413600084131616156102ec576102eb610268565b5b817f8000000000000000000000000000000000000000000000000000000000000000058312600084126000841316161561032957610328610268565b5b827f8000000000000000000000000000000000000000000000000000000000000000058212600084136000841216161561036657610365610268565b5b827f7fffffffffffffffffffffffffffffffffffffffffffffffffffffffffffffff05821260008412600084121616156103a3576103a2610268565b5b82820290509291505056fea26469706673582212202a0700649c00f39897a042d8ec519696d70c12b512a13abdd1a65bdb7973bd6064736f6c63430008080033",
					"opcodes": "PUSH2 0x3E4 PUSH2 0x53 PUSH1 0xB DUP3 DUP3 DUP3 CODECOPY DUP1 MLOAD PUSH1 0x0 BYTE PUSH1 0x73 EQ PUSH2 0x46 JUMPI PUSH32 0x4E487B7100000000000000000000000000000000000000000000000000000000 PUSH1 0x0 MSTORE PUSH1 0x0 PUSH1 0x4 MSTORE PUSH1 0x24 PUSH1 0x0 REVERT JUMPDEST ADDRESS PUSH1 0x0 MSTORE PUSH1 0x73 DUP2 MSTORE8 DUP3 DUP2 RETURN INVALID PUSH20 0x0 ADDRESS EQ PUSH1 0x80 PUSH1 0x40 MSTORE PUSH1 0x4 CALLDATASIZE LT PUSH2 0x35 JUMPI PUSH1 0x0 CALLDATALOAD PUSH1 0xE0 SHR DUP1 PUSH4 0x98D5FDCA EQ PUSH2 0x3A JUMPI JUMPDEST PUSH1 0x0 DUP1 REVERT JUMPDEST PUSH2 0x42 PUSH2 0x58 JUMP JUMPDEST PUSH1 0x40 MLOAD PUSH2 0x4F SWAP2 SWAP1 PUSH2 0x129 JUMP JUMPDEST PUSH1 0x40 MLOAD DUP1 SWAP2 SUB SWAP1 RETURN JUMPDEST PUSH1 0x0 DUP1 PUSH20 0x8A753747A1FA494EC906CE90E9F37563A8AF630E SWAP1 POP PUSH1 0x0 DUP2 PUSH20 0xFFFFFFFFFFFFFFFFFFFFFFFFFFFFFFFFFFFFFFFF AND PUSH4 0xFEAF968C PUSH1 0x40 MLOAD DUP2 PUSH4 0xFFFFFFFF AND PUSH1 0xE0 SHL DUP2 MSTORE PUSH1 0x4 ADD PUSH1 0xA0 PUSH1 0x40 MLOAD DUP1 DUP4 SUB DUP2 DUP7 DUP1 EXTCODESIZE ISZERO DUP1 ISZERO PUSH2 0xBA JUMPI PUSH1 0x0 DUP1 REVERT JUMPDEST POP GAS STATICCALL ISZERO DUP1 ISZERO PUSH2 0xCE JUMPI RETURNDATASIZE PUSH1 0x0 DUP1 RETURNDATACOPY RETURNDATASIZE PUSH1 0x0 REVERT JUMPDEST POP POP POP POP PUSH1 0x40 MLOAD RETURNDATASIZE PUSH1 0x1F NOT PUSH1 0x1F DUP3 ADD AND DUP3 ADD DUP1 PUSH1 0x40 MSTORE POP DUP2 ADD SWAP1 PUSH2 0xF2 SWAP2 SWAP1 PUSH2 0x1ED JUMP JUMPDEST POP POP POP SWAP2 POP POP PUSH5 0x2540BE400 DUP2 PUSH2 0x109 SWAP2 SWAP1 PUSH2 0x297 JUMP JUMPDEST SWAP3 POP POP POP SWAP1 JUMP JUMPDEST PUSH1 0x0 DUP2 SWAP1 POP SWAP2 SWAP1 POP JUMP JUMPDEST PUSH2 0x123 DUP2 PUSH2 0x110 JUMP JUMPDEST DUP3 MSTORE POP POP JUMP JUMPDEST PUSH1 0x0 PUSH1 0x20 DUP3 ADD SWAP1 POP PUSH2 0x13E PUSH1 0x0 DUP4 ADD DUP5 PUSH2 0x11A JUMP JUMPDEST SWAP3 SWAP2 POP POP JUMP JUMPDEST PUSH1 0x0 DUP1 REVERT JUMPDEST PUSH1 0x0 PUSH10 0xFFFFFFFFFFFFFFFFFFFF DUP3 AND SWAP1 POP SWAP2 SWAP1 POP JUMP JUMPDEST PUSH2 0x168 DUP2 PUSH2 0x149 JUMP JUMPDEST DUP2 EQ PUSH2 0x173 JUMPI PUSH1 0x0 DUP1 REVERT JUMPDEST POP JUMP JUMPDEST PUSH1 0x0 DUP2 MLOAD SWAP1 POP PUSH2 0x185 DUP2 PUSH2 0x15F JUMP JUMPDEST SWAP3 SWAP2 POP POP JUMP JUMPDEST PUSH1 0x0 DUP2 SWAP1 POP SWAP2 SWAP1 POP JUMP JUMPDEST PUSH2 0x19E DUP2 PUSH2 0x18B JUMP JUMPDEST DUP2 EQ PUSH2 0x1A9 JUMPI PUSH1 0x0 DUP1 REVERT JUMPDEST POP JUMP JUMPDEST PUSH1 0x0 DUP2 MLOAD SWAP1 POP PUSH2 0x1BB DUP2 PUSH2 0x195 JUMP JUMPDEST SWAP3 SWAP2 POP POP JUMP JUMPDEST PUSH2 0x1CA DUP2 PUSH2 0x110 JUMP JUMPDEST DUP2 EQ PUSH2 0x1D5 JUMPI PUSH1 0x0 DUP1 REVERT JUMPDEST POP JUMP JUMPDEST PUSH1 0x0 DUP2 MLOAD SWAP1 POP PUSH2 0x1E7 DUP2 PUSH2 0x1C1 JUMP JUMPDEST SWAP3 SWAP2 POP POP JUMP JUMPDEST PUSH1 0x0 DUP1 PUSH1 0x0 DUP1 PUSH1 0x0 PUSH1 0xA0 DUP7 DUP9 SUB SLT ISZERO PUSH2 0x209 JUMPI PUSH2 0x208 PUSH2 0x144 JUMP JUMPDEST JUMPDEST PUSH1 0x0 PUSH2 0x217 DUP9 DUP3 DUP10 ADD PUSH2 0x176 JUMP JUMPDEST SWAP6 POP POP PUSH1 0x20 PUSH2 0x228 DUP9 DUP3 DUP10 ADD PUSH2 0x1AC JUMP JUMPDEST SWAP5 POP POP PUSH1 0x40 PUSH2 0x239 DUP9 DUP3 DUP10 ADD PUSH2 0x1D8 JUMP JUMPDEST SWAP4 POP POP PUSH1 0x60 PUSH2 0x24A DUP9 DUP3 DUP10 ADD PUSH2 0x1D8 JUMP JUMPDEST SWAP3 POP POP PUSH1 0x80 PUSH2 0x25B DUP9 DUP3 DUP10 ADD PUSH2 0x176 JUMP JUMPDEST SWAP2 POP POP SWAP3 SWAP6 POP SWAP3 SWAP6 SWAP1 SWAP4 POP JUMP JUMPDEST PUSH32 0x4E487B7100000000000000000000000000000000000000000000000000000000 PUSH1 0x0 MSTORE PUSH1 0x11 PUSH1 0x4 MSTORE PUSH1 0x24 PUSH1 0x0 REVERT JUMPDEST PUSH1 0x0 PUSH2 0x2A2 DUP3 PUSH2 0x18B JUMP JUMPDEST SWAP2 POP PUSH2 0x2AD DUP4 PUSH2 0x18B JUMP JUMPDEST SWAP3 POP DUP3 PUSH32 0x7FFFFFFFFFFFFFFFFFFFFFFFFFFFFFFFFFFFFFFFFFFFFFFFFFFFFFFFFFFFFFFF DIV DUP3 GT PUSH1 0x0 DUP5 SGT PUSH1 0x0 DUP5 SGT AND AND ISZERO PUSH2 0x2EC JUMPI PUSH2 0x2EB PUSH2 0x268 JUMP JUMPDEST JUMPDEST DUP2 PUSH32 0x8000000000000000000000000000000000000000000000000000000000000000 SDIV DUP4 SLT PUSH1 0x0 DUP5 SLT PUSH1 0x0 DUP5 SGT AND AND ISZERO PUSH2 0x329 JUMPI PUSH2 0x328 PUSH2 0x268 JUMP JUMPDEST JUMPDEST DUP3 PUSH32 0x8000000000000000000000000000000000000000000000000000000000000000 SDIV DUP3 SLT PUSH1 0x0 DUP5 SGT PUSH1 0x0 DUP5 SLT AND AND ISZERO PUSH2 0x366 JUMPI PUSH2 0x365 PUSH2 0x268 JUMP JUMPDEST JUMPDEST DUP3 PUSH32 0x7FFFFFFFFFFFFFFFFFFFFFFFFFFFFFFFFFFFFFFFFFFFFFFFFFFFFFFFFFFFFFFF SDIV DUP3 SLT PUSH1 0x0 DUP5 SLT PUSH1 0x0 DUP5 SLT AND AND ISZERO PUSH2 0x3A3 JUMPI PUSH2 0x3A2 PUSH2 0x268 JUMP JUMPDEST JUMPDEST DUP3 DUP3 MUL SWAP1 POP SWAP3 SWAP2 POP POP JUMP INVALID LOG2 PUSH5 0x6970667358 0x22 SLT KECCAK256 0x2A SMOD STOP PUSH5 0x9C00F39897 LOG0 TIMESTAMP 0xD8 0xEC MLOAD SWAP7 SWAP7 0xD7 0xC SLT 0xB5 SLT LOG1 GASPRICE 0xBD 0xD1 0xA6 JUMPDEST 0xDB PUSH26 0x73BD6064736F6C63430008080033000000000000000000000000 "
				},
				"gasEstimates": {
					"creation": {
						"codeDepositCost": "199200",
						"executionCost": "270",
						"totalCost": "199470"
					},
					"external": {
						"getPrice()": "infinite"
					},
					"internal": {
						"getConversionRate(uint256)": "infinite",
						"getVersion()": "infinite"
					}
				},
				"methodIdentifiers": {
					"getPrice()": "98d5fdca"
				}
			},
			"storageLayout": {
				"storage": [],
				"types": null
			},
			"userdoc": {
				"kind": "user",
				"methods": {},
				"version": 1
			}
		}
	}
}