{
	"contracts/FundMe.sol": {
		"FundMe": {
			"abi": [
				{
					"inputs": [
						{
							"internalType": "address",
							"name": "",
							"type": "address"
						}
					],
					"name": "addressToAmountFunded",
					"outputs": [
						{
							"internalType": "uint256",
							"name": "",
							"type": "uint256"
						}
					],
					"stateMutability": "view",
					"type": "function"
				},
				{
					"inputs": [],
					"name": "fund",
					"outputs": [],
					"stateMutability": "payable",
					"type": "function"
				},
				{
					"inputs": [
						{
							"internalType": "uint256",
							"name": "",
							"type": "uint256"
						}
					],
					"name": "funders",
					"outputs": [
						{
							"internalType": "address",
							"name": "",
							"type": "address"
						}
					],
					"stateMutability": "view",
					"type": "function"
				},
				{
					"inputs": [],
					"name": "minimumUsd",
					"outputs": [
						{
							"internalType": "uint256",
							"name": "",
							"type": "uint256"
						}
					],
					"stateMutability": "view",
					"type": "function"
				},
				{
					"inputs": [],
					"name": "withdraw",
					"outputs": [],
					"stateMutability": "nonpayable",
					"type": "function"
				}
			],
			"devdoc": {
				"kind": "dev",
				"methods": {},
				"version": 1
			},
			"evm": {
				"assembly": "    /* \"contracts/FundMe.sol\":168:1602  contract FundMe{... */\n  mstore(0x40, 0x80)\n    /* \"contracts/FundMe.sol\":257:266  50 * 1e18 */\n  0x02b5e3af16b1880000\n    /* \"contracts/FundMe.sol\":229:266  uint256 public minimumUsd = 50 * 1e18 */\n  0x00\n  sstore\n    /* \"contracts/FundMe.sol\":168:1602  contract FundMe{... */\n  callvalue\n  dup1\n  iszero\n  tag_1\n  jumpi\n  0x00\n  dup1\n  revert\ntag_1:\n  pop\n  dataSize(sub_0)\n  dup1\n  dataOffset(sub_0)\n  0x00\n  codecopy\n  0x00\n  return\nstop\n\nsub_0: assembly {\n        /* \"contracts/FundMe.sol\":168:1602  contract FundMe{... */\n      mstore(0x40, 0x80)\n      jumpi(tag_1, lt(calldatasize, 0x04))\n      shr(0xe0, calldataload(0x00))\n      dup1\n      0x098de820\n      eq\n      tag_2\n      jumpi\n      dup1\n      0x3ccfd60b\n      eq\n      tag_3\n      jumpi\n      dup1\n      0x3e47d6f3\n      eq\n      tag_4\n      jumpi\n      dup1\n      0xb60d4288\n      eq\n      tag_5\n      jumpi\n      dup1\n      0xdc0d3dff\n      eq\n      tag_6\n      jumpi\n    tag_1:\n      0x00\n      dup1\n      revert\n        /* \"contracts/FundMe.sol\":229:266  uint256 public minimumUsd = 50 * 1e18 */\n    tag_2:\n      callvalue\n      dup1\n      iszero\n      tag_7\n      jumpi\n      0x00\n      dup1\n      revert\n    tag_7:\n      pop\n      tag_8\n      tag_9\n      jump\t// in\n    tag_8:\n      mload(0x40)\n      tag_10\n      swap2\n      swap1\n      tag_11\n      jump\t// in\n    tag_10:\n      mload(0x40)\n      dup1\n      swap2\n      sub\n      swap1\n      return\n        /* \"contracts/FundMe.sol\":817:1600  function withdraw() public {... */\n    tag_3:\n      callvalue\n      dup1\n      iszero\n      tag_12\n      jumpi\n      0x00\n      dup1\n      revert\n    tag_12:\n      pop\n      tag_13\n      tag_14\n      jump\t// in\n    tag_13:\n      stop\n        /* \"contracts/FundMe.sol\":303:359  mapping(address => uint256) public addressToAmountFunded */\n    tag_4:\n      callvalue\n      dup1\n      iszero\n      tag_15\n      jumpi\n      0x00\n      dup1\n      revert\n    tag_15:\n      pop\n      tag_16\n      0x04\n      dup1\n      calldatasize\n      sub\n      dup2\n      add\n      swap1\n      tag_17\n      swap2\n      swap1\n      tag_18\n      jump\t// in\n    tag_17:\n      tag_19\n      jump\t// in\n    tag_16:\n      mload(0x40)\n      tag_20\n      swap2\n      swap1\n      tag_11\n      jump\t// in\n    tag_20:\n      mload(0x40)\n      dup1\n      swap2\n      sub\n      swap1\n      return\n        /* \"contracts/FundMe.sol\":366:811  function fund() public payable{ ... */\n    tag_5:\n      tag_21\n      tag_22\n      jump\t// in\n    tag_21:\n      stop\n        /* \"contracts/FundMe.sol\":273:297  address[] public funders */\n    tag_6:\n      callvalue\n      dup1\n      iszero\n      tag_23\n      jumpi\n      0x00\n      dup1\n      revert\n    tag_23:\n      pop\n      tag_24\n      0x04\n      dup1\n      calldatasize\n      sub\n      dup2\n      add\n      swap1\n      tag_25\n      swap2\n      swap1\n      tag_26\n      jump\t// in\n    tag_25:\n      tag_27\n      jump\t// in\n    tag_24:\n      mload(0x40)\n      tag_28\n      swap2\n      swap1\n      tag_29\n      jump\t// in\n    tag_28:\n      mload(0x40)\n      dup1\n      swap2\n      sub\n      swap1\n      return\n        /* \"contracts/FundMe.sol\":229:266  uint256 public minimumUsd = 50 * 1e18 */\n    tag_9:\n      sload(0x00)\n      dup2\n      jump\t// out\n        /* \"contracts/FundMe.sol\":817:1600  function withdraw() public {... */\n    tag_14:\n        /* \"contracts/FundMe.sol\":859:878  uint256 funderIndex */\n      0x00\n        /* \"contracts/FundMe.sol\":855:1038  for(uint256 funderIndex = 0; funderIndex < funders.length; funderIndex++ ){... */\n    tag_31:\n        /* \"contracts/FundMe.sol\":898:905  funders */\n      0x01\n        /* \"contracts/FundMe.sol\":898:912  funders.length */\n      dup1\n      sload\n      swap1\n      pop\n        /* \"contracts/FundMe.sol\":884:895  funderIndex */\n      dup2\n        /* \"contracts/FundMe.sol\":884:912  funderIndex < funders.length */\n      lt\n        /* \"contracts/FundMe.sol\":855:1038  for(uint256 funderIndex = 0; funderIndex < funders.length; funderIndex++ ){... */\n      iszero\n      tag_32\n      jumpi\n        /* \"contracts/FundMe.sol\":943:957  address funder */\n      0x00\n        /* \"contracts/FundMe.sol\":960:967  funders */\n      0x01\n        /* \"contracts/FundMe.sol\":968:979  funderIndex */\n      dup3\n        /* \"contracts/FundMe.sol\":960:980  funders[funderIndex] */\n      dup2\n      sload\n      dup2\n      lt\n      tag_34\n      jumpi\n      tag_35\n      tag_36\n      jump\t// in\n    tag_35:\n    tag_34:\n      swap1\n      0x00\n      mstore\n      keccak256(0x00, 0x20)\n      add\n      0x00\n      swap1\n      sload\n      swap1\n      0x0100\n      exp\n      swap1\n      div\n      0xffffffffffffffffffffffffffffffffffffffff\n      and\n        /* \"contracts/FundMe.sol\":943:980  address funder = funders[funderIndex] */\n      swap1\n      pop\n        /* \"contracts/FundMe.sol\":1026:1027  0 */\n      0x00\n        /* \"contracts/FundMe.sol\":994:1015  addressToAmountFunded */\n      0x02\n        /* \"contracts/FundMe.sol\":994:1023  addressToAmountFunded[funder] */\n      0x00\n        /* \"contracts/FundMe.sol\":1016:1022  funder */\n      dup4\n        /* \"contracts/FundMe.sol\":994:1023  addressToAmountFunded[funder] */\n      0xffffffffffffffffffffffffffffffffffffffff\n      and\n      0xffffffffffffffffffffffffffffffffffffffff\n      and\n      dup2\n      mstore\n      0x20\n      add\n      swap1\n      dup2\n      mstore\n      0x20\n      add\n      0x00\n      keccak256\n        /* \"contracts/FundMe.sol\":994:1027  addressToAmountFunded[funder] = 0 */\n      dup2\n      swap1\n      sstore\n      pop\n        /* \"contracts/FundMe.sol\":929:1038  {... */\n      pop\n        /* \"contracts/FundMe.sol\":914:927  funderIndex++ */\n      dup1\n      dup1\n      tag_38\n      swap1\n      tag_39\n      jump\t// in\n    tag_38:\n      swap2\n      pop\n      pop\n        /* \"contracts/FundMe.sol\":855:1038  for(uint256 funderIndex = 0; funderIndex < funders.length; funderIndex++ ){... */\n      jump(tag_31)\n    tag_32:\n      pop\n        /* \"contracts/FundMe.sol\":1097:1098  0 */\n      0x00\n        /* \"contracts/FundMe.sol\":1083:1099  new address[](0) */\n      0xffffffffffffffff\n      dup2\n      gt\n      iszero\n      tag_40\n      jumpi\n      tag_41\n      tag_42\n      jump\t// in\n    tag_41:\n    tag_40:\n      mload(0x40)\n      swap1\n      dup1\n      dup3\n      mstore\n      dup1\n      0x20\n      mul\n      0x20\n      add\n      dup3\n      add\n      0x40\n      mstore\n      dup1\n      iszero\n      tag_43\n      jumpi\n      dup2\n      0x20\n      add\n      0x20\n      dup3\n      mul\n      dup1\n      calldatasize\n      dup4\n      calldatacopy\n      dup1\n      dup3\n      add\n      swap2\n      pop\n      pop\n      swap1\n      pop\n    tag_43:\n      pop\n        /* \"contracts/FundMe.sol\":1073:1080  funders */\n      0x01\n        /* \"contracts/FundMe.sol\":1073:1099  funders = new address[](0) */\n      swap1\n      dup1\n      mload\n      swap1\n      0x20\n      add\n      swap1\n      tag_44\n      swap3\n      swap2\n      swap1\n      tag_45\n      jump\t// in\n    tag_44:\n      pop\n        /* \"contracts/FundMe.sol\":1267:1277  msg.sender */\n      caller\n        /* \"contracts/FundMe.sol\":1259:1287  payable(msg.sender).transfer */\n      0xffffffffffffffffffffffffffffffffffffffff\n      and\n        /* \"contracts/FundMe.sol\":1259:1310  payable(msg.sender).transfer(address(this).balance) */\n      0x08fc\n        /* \"contracts/FundMe.sol\":1288:1309  address(this).balance */\n      selfbalance\n        /* \"contracts/FundMe.sol\":1259:1310  payable(msg.sender).transfer(address(this).balance) */\n      swap1\n      dup2\n      iszero\n      mul\n      swap1\n      mload(0x40)\n      0x00\n      mload(0x40)\n      dup1\n      dup4\n      sub\n      dup2\n      dup6\n      dup9\n      dup9\n      call\n      swap4\n      pop\n      pop\n      pop\n      pop\n      iszero\n      dup1\n      iszero\n      tag_47\n      jumpi\n      returndatasize\n      0x00\n      dup1\n      returndatacopy\n      revert(0x00, returndatasize)\n    tag_47:\n      pop\n        /* \"contracts/FundMe.sol\":1339:1355  bool sendSuccess */\n      0x00\n        /* \"contracts/FundMe.sol\":1366:1376  msg.sender */\n      caller\n        /* \"contracts/FundMe.sol\":1358:1382  payable(msg.sender).send */\n      0xffffffffffffffffffffffffffffffffffffffff\n      and\n        /* \"contracts/FundMe.sol\":1358:1405  payable(msg.sender).send(address(this).balance) */\n      0x08fc\n        /* \"contracts/FundMe.sol\":1383:1404  address(this).balance */\n      selfbalance\n        /* \"contracts/FundMe.sol\":1358:1405  payable(msg.sender).send(address(this).balance) */\n      swap1\n      dup2\n      iszero\n      mul\n      swap1\n      mload(0x40)\n      0x00\n      mload(0x40)\n      dup1\n      dup4\n      sub\n      dup2\n      dup6\n      dup9\n      dup9\n      call\n      swap4\n      pop\n      pop\n      pop\n      pop\n        /* \"contracts/FundMe.sol\":1339:1405  bool sendSuccess = payable(msg.sender).send(address(this).balance) */\n      swap1\n      pop\n        /* \"contracts/FundMe.sol\":1427:1438  sendSuccess */\n      dup1\n        /* \"contracts/FundMe.sol\":1419:1457  require(sendSuccess, \"Could not send\") */\n      tag_49\n      jumpi\n      mload(0x40)\n      0x08c379a000000000000000000000000000000000000000000000000000000000\n      dup2\n      mstore\n      0x04\n      add\n      tag_50\n      swap1\n      tag_51\n      jump\t// in\n    tag_50:\n      mload(0x40)\n      dup1\n      swap2\n      sub\n      swap1\n      revert\n    tag_49:\n        /* \"contracts/FundMe.sol\":1487:1503  bool callSuccess */\n      0x00\n        /* \"contracts/FundMe.sol\":1505:1530  bytes memory dataReturned */\n      dup1\n        /* \"contracts/FundMe.sol\":1541:1551  msg.sender */\n      caller\n        /* \"contracts/FundMe.sol\":1533:1557  payable(msg.sender).call */\n      0xffffffffffffffffffffffffffffffffffffffff\n      and\n        /* \"contracts/FundMe.sol\":1565:1586  address(this).balance */\n      selfbalance\n        /* \"contracts/FundMe.sol\":1533:1591  payable(msg.sender).call{value: address(this).balance}(\"\") */\n      mload(0x40)\n      tag_52\n      swap1\n      tag_53\n      jump\t// in\n    tag_52:\n      0x00\n      mload(0x40)\n      dup1\n      dup4\n      sub\n      dup2\n      dup6\n      dup8\n      gas\n      call\n      swap3\n      pop\n      pop\n      pop\n      returndatasize\n      dup1\n      0x00\n      dup2\n      eq\n      tag_56\n      jumpi\n      mload(0x40)\n      swap2\n      pop\n      and(add(returndatasize, 0x3f), not(0x1f))\n      dup3\n      add\n      0x40\n      mstore\n      returndatasize\n      dup3\n      mstore\n      returndatasize\n      0x00\n      0x20\n      dup5\n      add\n      returndatacopy\n      jump(tag_55)\n    tag_56:\n      0x60\n      swap2\n      pop\n    tag_55:\n      pop\n        /* \"contracts/FundMe.sol\":1486:1591  (bool callSuccess, bytes memory dataReturned) =payable(msg.sender).call{value: address(this).balance}(\"\") */\n      swap2\n      pop\n      swap2\n      pop\n        /* \"contracts/FundMe.sol\":844:1600  {... */\n      pop\n      pop\n      pop\n        /* \"contracts/FundMe.sol\":817:1600  function withdraw() public {... */\n      jump\t// out\n        /* \"contracts/FundMe.sol\":303:359  mapping(address => uint256) public addressToAmountFunded */\n    tag_19:\n      mstore(0x20, 0x02)\n      dup1\n      0x00\n      mstore\n      keccak256(0x00, 0x40)\n      0x00\n      swap2\n      pop\n      swap1\n      pop\n      sload\n      dup2\n      jump\t// out\n        /* \"contracts/FundMe.sol\":366:811  function fund() public payable{ ... */\n    tag_22:\n        /* \"contracts/FundMe.sol\":639:649  minimumUsd */\n      sload(0x00)\n        /* \"contracts/FundMe.sol\":606:635  msg.value.getConversionRate() */\n      tag_58\n        /* \"contracts/FundMe.sol\":606:615  msg.value */\n      callvalue\n        /* \"contracts/FundMe.sol\":606:633  msg.value.getConversionRate */\n      tag_59\n        /* \"contracts/FundMe.sol\":606:635  msg.value.getConversionRate() */\n      jump\t// in\n    tag_58:\n        /* \"contracts/FundMe.sol\":606:649  msg.value.getConversionRate() >= minimumUsd */\n      lt\n      iszero\n        /* \"contracts/FundMe.sol\":598:672  require(msg.value.getConversionRate() >= minimumUsd, \"Didn't send enough\") */\n      tag_60\n      jumpi\n      mload(0x40)\n      0x08c379a000000000000000000000000000000000000000000000000000000000\n      dup2\n      mstore\n      0x04\n      add\n      tag_61\n      swap1\n      tag_62\n      jump\t// in\n    tag_61:\n      mload(0x40)\n      dup1\n      swap2\n      sub\n      swap1\n      revert\n    tag_60:\n        /* \"contracts/FundMe.sol\":724:731  funders */\n      0x01\n        /* \"contracts/FundMe.sol\":737:747  msg.sender */\n      caller\n        /* \"contracts/FundMe.sol\":724:748  funders.push(msg.sender) */\n      swap1\n      dup1\n      0x01\n      dup2\n      sload\n      add\n      dup1\n      dup3\n      sstore\n      dup1\n      swap2\n      pop\n      pop\n      0x01\n      swap1\n      sub\n      swap1\n      0x00\n      mstore\n      keccak256(0x00, 0x20)\n      add\n      0x00\n      swap1\n      swap2\n      swap1\n      swap2\n      swap1\n      swap2\n      0x0100\n      exp\n      dup2\n      sload\n      dup2\n      0xffffffffffffffffffffffffffffffffffffffff\n      mul\n      not\n      and\n      swap1\n      dup4\n      0xffffffffffffffffffffffffffffffffffffffff\n      and\n      mul\n      or\n      swap1\n      sstore\n      pop\n        /* \"contracts/FundMe.sol\":794:803  msg.value */\n      callvalue\n        /* \"contracts/FundMe.sol\":758:779  addressToAmountFunded */\n      0x02\n        /* \"contracts/FundMe.sol\":758:791  addressToAmountFunded[msg.sender] */\n      0x00\n        /* \"contracts/FundMe.sol\":780:790  msg.sender */\n      caller\n        /* \"contracts/FundMe.sol\":758:791  addressToAmountFunded[msg.sender] */\n      0xffffffffffffffffffffffffffffffffffffffff\n      and\n      0xffffffffffffffffffffffffffffffffffffffff\n      and\n      dup2\n      mstore\n      0x20\n      add\n      swap1\n      dup2\n      mstore\n      0x20\n      add\n      0x00\n      keccak256\n        /* \"contracts/FundMe.sol\":758:803  addressToAmountFunded[msg.sender] = msg.value */\n      dup2\n      swap1\n      sstore\n      pop\n        /* \"contracts/FundMe.sol\":366:811  function fund() public payable{ ... */\n      jump\t// out\n        /* \"contracts/FundMe.sol\":273:297  address[] public funders */\n    tag_27:\n      0x01\n      dup2\n      dup2\n      sload\n      dup2\n      lt\n      tag_64\n      jumpi\n      0x00\n      dup1\n      revert\n    tag_64:\n      swap1\n      0x00\n      mstore\n      keccak256(0x00, 0x20)\n      add\n      0x00\n      swap2\n      pop\n      sload\n      swap1\n      0x0100\n      exp\n      swap1\n      div\n      0xffffffffffffffffffffffffffffffffffffffff\n      and\n      dup2\n      jump\t// out\n        /* \"contracts/PriceConverter.sol\":805:1024  function getConversionRate(uint256 ethAmount) internal view returns (uint256) {... */\n    tag_59:\n        /* \"contracts/PriceConverter.sol\":874:881  uint256 */\n      0x00\n        /* \"contracts/PriceConverter.sol\":894:910  uint256 ethPrice */\n      dup1\n        /* \"contracts/PriceConverter.sol\":912:922  getPrice() */\n      tag_67\n        /* \"contracts/PriceConverter.sol\":912:920  getPrice */\n      tag_68\n        /* \"contracts/PriceConverter.sol\":912:922  getPrice() */\n      jump\t// in\n    tag_67:\n        /* \"contracts/PriceConverter.sol\":894:922  uint256 ethPrice= getPrice() */\n      swap1\n      pop\n        /* \"contracts/PriceConverter.sol\":932:954  uint256 ethAmountInUsd */\n      0x00\n        /* \"contracts/PriceConverter.sol\":982:986  1e18 */\n      0x0de0b6b3a7640000\n        /* \"contracts/PriceConverter.sol\":969:978  ethAmount */\n      dup5\n        /* \"contracts/PriceConverter.sol\":958:966  ethPrice */\n      dup4\n        /* \"contracts/PriceConverter.sol\":958:978  ethPrice * ethAmount */\n      tag_69\n      swap2\n      swap1\n      tag_70\n      jump\t// in\n    tag_69:\n        /* \"contracts/PriceConverter.sol\":957:986  (ethPrice * ethAmount) / 1e18 */\n      tag_71\n      swap2\n      swap1\n      tag_72\n      jump\t// in\n    tag_71:\n        /* \"contracts/PriceConverter.sol\":932:986  uint256 ethAmountInUsd = (ethPrice * ethAmount) / 1e18 */\n      swap1\n      pop\n        /* \"contracts/PriceConverter.sol\":1003:1017  ethAmountInUsd */\n      dup1\n        /* \"contracts/PriceConverter.sol\":996:1017  return ethAmountInUsd */\n      swap3\n      pop\n      pop\n      pop\n        /* \"contracts/PriceConverter.sol\":805:1024  function getConversionRate(uint256 ethAmount) internal view returns (uint256) {... */\n      swap2\n      swap1\n      pop\n      jump\t// out\n        /* \"contracts/PriceConverter.sol\":166:587  function getPrice() internal view returns(uint256) {... */\n    tag_68:\n        /* \"contracts/PriceConverter.sol\":208:215  uint256 */\n      0x00\n        /* \"contracts/PriceConverter.sol\":308:339  AggregatorV3Interface priceFeed */\n      dup1\n        /* \"contracts/PriceConverter.sol\":364:406  0x8A753747A1Fa494EC906cE90E9f37563A8AF630e */\n      0x8a753747a1fa494ec906ce90e9f37563a8af630e\n        /* \"contracts/PriceConverter.sol\":308:407  AggregatorV3Interface priceFeed = AggregatorV3Interface(0x8A753747A1Fa494EC906cE90E9f37563A8AF630e) */\n      swap1\n      pop\n        /* \"contracts/PriceConverter.sol\":419:431  int256 price */\n      0x00\n        /* \"contracts/PriceConverter.sol\":438:447  priceFeed */\n      dup2\n        /* \"contracts/PriceConverter.sol\":438:463  priceFeed.latestRoundData */\n      0xffffffffffffffffffffffffffffffffffffffff\n      and\n      0xfeaf968c\n        /* \"contracts/PriceConverter.sol\":438:465  priceFeed.latestRoundData() */\n      mload(0x40)\n      dup2\n      0xffffffff\n      and\n      0xe0\n      shl\n      dup2\n      mstore\n      0x04\n      add\n      0xa0\n      mload(0x40)\n      dup1\n      dup4\n      sub\n      dup2\n      dup7\n      gas\n      staticcall\n      iszero\n      dup1\n      iszero\n      tag_75\n      jumpi\n      returndatasize\n      0x00\n      dup1\n      returndatacopy\n      revert(0x00, returndatasize)\n    tag_75:\n      pop\n      pop\n      pop\n      pop\n      mload(0x40)\n      returndatasize\n      not(0x1f)\n      0x1f\n      dup3\n      add\n      and\n      dup3\n      add\n      dup1\n      0x40\n      mstore\n      pop\n      dup2\n      add\n      swap1\n      tag_76\n      swap2\n      swap1\n      tag_77\n      jump\t// in\n    tag_76:\n        /* \"contracts/PriceConverter.sol\":417:465  (,int256 price,,,) = priceFeed.latestRoundData() */\n      pop\n      pop\n      pop\n      swap2\n      pop\n      pop\n        /* \"contracts/PriceConverter.sol\":552:556  1e10 */\n      0x02540be400\n        /* \"contracts/PriceConverter.sol\":544:549  price */\n      dup2\n        /* \"contracts/PriceConverter.sol\":544:556  price * 1e10 */\n      tag_78\n      swap2\n      swap1\n      tag_79\n      jump\t// in\n    tag_78:\n        /* \"contracts/PriceConverter.sol\":529:557  return uint256(price * 1e10) */\n      swap3\n      pop\n      pop\n      pop\n        /* \"contracts/PriceConverter.sol\":166:587  function getPrice() internal view returns(uint256) {... */\n      swap1\n      jump\t// out\n    tag_45:\n      dup3\n      dup1\n      sload\n      dup3\n      dup3\n      sstore\n      swap1\n      0x00\n      mstore\n      keccak256(0x00, 0x20)\n      swap1\n      dup2\n      add\n      swap3\n      dup3\n      iszero\n      tag_80\n      jumpi\n      swap2\n      0x20\n      mul\n      dup3\n      add\n    tag_81:\n      dup3\n      dup2\n      gt\n      iszero\n      tag_82\n      jumpi\n      dup3\n      mload\n      dup3\n      exp(0x0100, 0x00)\n      dup2\n      sload\n      dup2\n      0xffffffffffffffffffffffffffffffffffffffff\n      mul\n      not\n      and\n      swap1\n      dup4\n      0xffffffffffffffffffffffffffffffffffffffff\n      and\n      mul\n      or\n      swap1\n      sstore\n      pop\n      swap2\n      0x20\n      add\n      swap2\n      swap1\n      0x01\n      add\n      swap1\n      jump(tag_81)\n    tag_82:\n    tag_80:\n      pop\n      swap1\n      pop\n      tag_83\n      swap2\n      swap1\n      tag_84\n      jump\t// in\n    tag_83:\n      pop\n      swap1\n      jump\t// out\n    tag_84:\n    tag_85:\n      dup1\n      dup3\n      gt\n      iszero\n      tag_86\n      jumpi\n      0x00\n      dup2\n      0x00\n      swap1\n      sstore\n      pop\n      0x01\n      add\n      jump(tag_85)\n    tag_86:\n      pop\n      swap1\n      jump\t// out\n        /* \"#utility.yul\":7:84   */\n    tag_87:\n        /* \"#utility.yul\":44:51   */\n      0x00\n        /* \"#utility.yul\":73:78   */\n      dup2\n        /* \"#utility.yul\":62:78   */\n      swap1\n      pop\n        /* \"#utility.yul\":7:84   */\n      swap2\n      swap1\n      pop\n      jump\t// out\n        /* \"#utility.yul\":90:208   */\n    tag_88:\n        /* \"#utility.yul\":177:201   */\n      tag_119\n        /* \"#utility.yul\":195:200   */\n      dup2\n        /* \"#utility.yul\":177:201   */\n      tag_87\n      jump\t// in\n    tag_119:\n        /* \"#utility.yul\":172:175   */\n      dup3\n        /* \"#utility.yul\":165:202   */\n      mstore\n        /* \"#utility.yul\":90:208   */\n      pop\n      pop\n      jump\t// out\n        /* \"#utility.yul\":214:436   */\n    tag_11:\n        /* \"#utility.yul\":307:311   */\n      0x00\n        /* \"#utility.yul\":345:347   */\n      0x20\n        /* \"#utility.yul\":334:343   */\n      dup3\n        /* \"#utility.yul\":330:348   */\n      add\n        /* \"#utility.yul\":322:348   */\n      swap1\n      pop\n        /* \"#utility.yul\":358:429   */\n      tag_121\n        /* \"#utility.yul\":426:427   */\n      0x00\n        /* \"#utility.yul\":415:424   */\n      dup4\n        /* \"#utility.yul\":411:428   */\n      add\n        /* \"#utility.yul\":402:408   */\n      dup5\n        /* \"#utility.yul\":358:429   */\n      tag_88\n      jump\t// in\n    tag_121:\n        /* \"#utility.yul\":214:436   */\n      swap3\n      swap2\n      pop\n      pop\n      jump\t// out\n        /* \"#utility.yul\":523:640   */\n    tag_90:\n        /* \"#utility.yul\":632:633   */\n      0x00\n        /* \"#utility.yul\":629:630   */\n      dup1\n        /* \"#utility.yul\":622:634   */\n      revert\n        /* \"#utility.yul\":769:895   */\n    tag_92:\n        /* \"#utility.yul\":806:813   */\n      0x00\n        /* \"#utility.yul\":846:888   */\n      0xffffffffffffffffffffffffffffffffffffffff\n        /* \"#utility.yul\":839:844   */\n      dup3\n        /* \"#utility.yul\":835:889   */\n      and\n        /* \"#utility.yul\":824:889   */\n      swap1\n      pop\n        /* \"#utility.yul\":769:895   */\n      swap2\n      swap1\n      pop\n      jump\t// out\n        /* \"#utility.yul\":901:997   */\n    tag_93:\n        /* \"#utility.yul\":938:945   */\n      0x00\n        /* \"#utility.yul\":967:991   */\n      tag_127\n        /* \"#utility.yul\":985:990   */\n      dup3\n        /* \"#utility.yul\":967:991   */\n      tag_92\n      jump\t// in\n    tag_127:\n        /* \"#utility.yul\":956:991   */\n      swap1\n      pop\n        /* \"#utility.yul\":901:997   */\n      swap2\n      swap1\n      pop\n      jump\t// out\n        /* \"#utility.yul\":1003:1125   */\n    tag_94:\n        /* \"#utility.yul\":1076:1100   */\n      tag_129\n        /* \"#utility.yul\":1094:1099   */\n      dup2\n        /* \"#utility.yul\":1076:1100   */\n      tag_93\n      jump\t// in\n    tag_129:\n        /* \"#utility.yul\":1069:1074   */\n      dup2\n        /* \"#utility.yul\":1066:1101   */\n      eq\n        /* \"#utility.yul\":1056:1119   */\n      tag_130\n      jumpi\n        /* \"#utility.yul\":1115:1116   */\n      0x00\n        /* \"#utility.yul\":1112:1113   */\n      dup1\n        /* \"#utility.yul\":1105:1117   */\n      revert\n        /* \"#utility.yul\":1056:1119   */\n    tag_130:\n        /* \"#utility.yul\":1003:1125   */\n      pop\n      jump\t// out\n        /* \"#utility.yul\":1131:1270   */\n    tag_95:\n        /* \"#utility.yul\":1177:1182   */\n      0x00\n        /* \"#utility.yul\":1215:1221   */\n      dup2\n        /* \"#utility.yul\":1202:1222   */\n      calldataload\n        /* \"#utility.yul\":1193:1222   */\n      swap1\n      pop\n        /* \"#utility.yul\":1231:1264   */\n      tag_132\n        /* \"#utility.yul\":1258:1263   */\n      dup2\n        /* \"#utility.yul\":1231:1264   */\n      tag_94\n      jump\t// in\n    tag_132:\n        /* \"#utility.yul\":1131:1270   */\n      swap3\n      swap2\n      pop\n      pop\n      jump\t// out\n        /* \"#utility.yul\":1276:1605   */\n    tag_18:\n        /* \"#utility.yul\":1335:1341   */\n      0x00\n        /* \"#utility.yul\":1384:1386   */\n      0x20\n        /* \"#utility.yul\":1372:1381   */\n      dup3\n        /* \"#utility.yul\":1363:1370   */\n      dup5\n        /* \"#utility.yul\":1359:1382   */\n      sub\n        /* \"#utility.yul\":1355:1387   */\n      slt\n        /* \"#utility.yul\":1352:1471   */\n      iszero\n      tag_134\n      jumpi\n        /* \"#utility.yul\":1390:1469   */\n      tag_135\n      tag_90\n      jump\t// in\n    tag_135:\n        /* \"#utility.yul\":1352:1471   */\n    tag_134:\n        /* \"#utility.yul\":1510:1511   */\n      0x00\n        /* \"#utility.yul\":1535:1588   */\n      tag_136\n        /* \"#utility.yul\":1580:1587   */\n      dup5\n        /* \"#utility.yul\":1571:1577   */\n      dup3\n        /* \"#utility.yul\":1560:1569   */\n      dup6\n        /* \"#utility.yul\":1556:1578   */\n      add\n        /* \"#utility.yul\":1535:1588   */\n      tag_95\n      jump\t// in\n    tag_136:\n        /* \"#utility.yul\":1525:1588   */\n      swap2\n      pop\n        /* \"#utility.yul\":1481:1598   */\n      pop\n        /* \"#utility.yul\":1276:1605   */\n      swap3\n      swap2\n      pop\n      pop\n      jump\t// out\n        /* \"#utility.yul\":1611:1733   */\n    tag_96:\n        /* \"#utility.yul\":1684:1708   */\n      tag_138\n        /* \"#utility.yul\":1702:1707   */\n      dup2\n        /* \"#utility.yul\":1684:1708   */\n      tag_87\n      jump\t// in\n    tag_138:\n        /* \"#utility.yul\":1677:1682   */\n      dup2\n        /* \"#utility.yul\":1674:1709   */\n      eq\n        /* \"#utility.yul\":1664:1727   */\n      tag_139\n      jumpi\n        /* \"#utility.yul\":1723:1724   */\n      0x00\n        /* \"#utility.yul\":1720:1721   */\n      dup1\n        /* \"#utility.yul\":1713:1725   */\n      revert\n        /* \"#utility.yul\":1664:1727   */\n    tag_139:\n        /* \"#utility.yul\":1611:1733   */\n      pop\n      jump\t// out\n        /* \"#utility.yul\":1739:1878   */\n    tag_97:\n        /* \"#utility.yul\":1785:1790   */\n      0x00\n        /* \"#utility.yul\":1823:1829   */\n      dup2\n        /* \"#utility.yul\":1810:1830   */\n      calldataload\n        /* \"#utility.yul\":1801:1830   */\n      swap1\n      pop\n        /* \"#utility.yul\":1839:1872   */\n      tag_141\n        /* \"#utility.yul\":1866:1871   */\n      dup2\n        /* \"#utility.yul\":1839:1872   */\n      tag_96\n      jump\t// in\n    tag_141:\n        /* \"#utility.yul\":1739:1878   */\n      swap3\n      swap2\n      pop\n      pop\n      jump\t// out\n        /* \"#utility.yul\":1884:2213   */\n    tag_26:\n        /* \"#utility.yul\":1943:1949   */\n      0x00\n        /* \"#utility.yul\":1992:1994   */\n      0x20\n        /* \"#utility.yul\":1980:1989   */\n      dup3\n        /* \"#utility.yul\":1971:1978   */\n      dup5\n        /* \"#utility.yul\":1967:1990   */\n      sub\n        /* \"#utility.yul\":1963:1995   */\n      slt\n        /* \"#utility.yul\":1960:2079   */\n      iszero\n      tag_143\n      jumpi\n        /* \"#utility.yul\":1998:2077   */\n      tag_144\n      tag_90\n      jump\t// in\n    tag_144:\n        /* \"#utility.yul\":1960:2079   */\n    tag_143:\n        /* \"#utility.yul\":2118:2119   */\n      0x00\n        /* \"#utility.yul\":2143:2196   */\n      tag_145\n        /* \"#utility.yul\":2188:2195   */\n      dup5\n        /* \"#utility.yul\":2179:2185   */\n      dup3\n        /* \"#utility.yul\":2168:2177   */\n      dup6\n        /* \"#utility.yul\":2164:2186   */\n      add\n        /* \"#utility.yul\":2143:2196   */\n      tag_97\n      jump\t// in\n    tag_145:\n        /* \"#utility.yul\":2133:2196   */\n      swap2\n      pop\n        /* \"#utility.yul\":2089:2206   */\n      pop\n        /* \"#utility.yul\":1884:2213   */\n      swap3\n      swap2\n      pop\n      pop\n      jump\t// out\n        /* \"#utility.yul\":2219:2337   */\n    tag_98:\n        /* \"#utility.yul\":2306:2330   */\n      tag_147\n        /* \"#utility.yul\":2324:2329   */\n      dup2\n        /* \"#utility.yul\":2306:2330   */\n      tag_93\n      jump\t// in\n    tag_147:\n        /* \"#utility.yul\":2301:2304   */\n      dup3\n        /* \"#utility.yul\":2294:2331   */\n      mstore\n        /* \"#utility.yul\":2219:2337   */\n      pop\n      pop\n      jump\t// out\n        /* \"#utility.yul\":2343:2565   */\n    tag_29:\n        /* \"#utility.yul\":2436:2440   */\n      0x00\n        /* \"#utility.yul\":2474:2476   */\n      0x20\n        /* \"#utility.yul\":2463:2472   */\n      dup3\n        /* \"#utility.yul\":2459:2477   */\n      add\n        /* \"#utility.yul\":2451:2477   */\n      swap1\n      pop\n        /* \"#utility.yul\":2487:2558   */\n      tag_149\n        /* \"#utility.yul\":2555:2556   */\n      0x00\n        /* \"#utility.yul\":2544:2553   */\n      dup4\n        /* \"#utility.yul\":2540:2557   */\n      add\n        /* \"#utility.yul\":2531:2537   */\n      dup5\n        /* \"#utility.yul\":2487:2558   */\n      tag_98\n      jump\t// in\n    tag_149:\n        /* \"#utility.yul\":2343:2565   */\n      swap3\n      swap2\n      pop\n      pop\n      jump\t// out\n        /* \"#utility.yul\":2571:2751   */\n    tag_36:\n        /* \"#utility.yul\":2619:2696   */\n      0x4e487b7100000000000000000000000000000000000000000000000000000000\n        /* \"#utility.yul\":2616:2617   */\n      0x00\n        /* \"#utility.yul\":2609:2697   */\n      mstore\n        /* \"#utility.yul\":2716:2720   */\n      0x32\n        /* \"#utility.yul\":2713:2714   */\n      0x04\n        /* \"#utility.yul\":2706:2721   */\n      mstore\n        /* \"#utility.yul\":2740:2744   */\n      0x24\n        /* \"#utility.yul\":2737:2738   */\n      0x00\n        /* \"#utility.yul\":2730:2745   */\n      revert\n        /* \"#utility.yul\":2757:2937   */\n    tag_99:\n        /* \"#utility.yul\":2805:2882   */\n      0x4e487b7100000000000000000000000000000000000000000000000000000000\n        /* \"#utility.yul\":2802:2803   */\n      0x00\n        /* \"#utility.yul\":2795:2883   */\n      mstore\n        /* \"#utility.yul\":2902:2906   */\n      0x11\n        /* \"#utility.yul\":2899:2900   */\n      0x04\n        /* \"#utility.yul\":2892:2907   */\n      mstore\n        /* \"#utility.yul\":2926:2930   */\n      0x24\n        /* \"#utility.yul\":2923:2924   */\n      0x00\n        /* \"#utility.yul\":2916:2931   */\n      revert\n        /* \"#utility.yul\":2943:3176   */\n    tag_39:\n        /* \"#utility.yul\":2982:2985   */\n      0x00\n        /* \"#utility.yul\":3005:3029   */\n      tag_153\n        /* \"#utility.yul\":3023:3028   */\n      dup3\n        /* \"#utility.yul\":3005:3029   */\n      tag_87\n      jump\t// in\n    tag_153:\n        /* \"#utility.yul\":2996:3029   */\n      swap2\n      pop\n        /* \"#utility.yul\":3051:3117   */\n      0xffffffffffffffffffffffffffffffffffffffffffffffffffffffffffffffff\n        /* \"#utility.yul\":3044:3049   */\n      dup3\n        /* \"#utility.yul\":3041:3118   */\n      sub\n        /* \"#utility.yul\":3038:3141   */\n      tag_154\n      jumpi\n        /* \"#utility.yul\":3121:3139   */\n      tag_155\n      tag_99\n      jump\t// in\n    tag_155:\n        /* \"#utility.yul\":3038:3141   */\n    tag_154:\n        /* \"#utility.yul\":3168:3169   */\n      0x01\n        /* \"#utility.yul\":3161:3166   */\n      dup3\n        /* \"#utility.yul\":3157:3170   */\n      add\n        /* \"#utility.yul\":3150:3170   */\n      swap1\n      pop\n        /* \"#utility.yul\":2943:3176   */\n      swap2\n      swap1\n      pop\n      jump\t// out\n        /* \"#utility.yul\":3182:3362   */\n    tag_42:\n        /* \"#utility.yul\":3230:3307   */\n      0x4e487b7100000000000000000000000000000000000000000000000000000000\n        /* \"#utility.yul\":3227:3228   */\n      0x00\n        /* \"#utility.yul\":3220:3308   */\n      mstore\n        /* \"#utility.yul\":3327:3331   */\n      0x41\n        /* \"#utility.yul\":3324:3325   */\n      0x04\n        /* \"#utility.yul\":3317:3332   */\n      mstore\n        /* \"#utility.yul\":3351:3355   */\n      0x24\n        /* \"#utility.yul\":3348:3349   */\n      0x00\n        /* \"#utility.yul\":3341:3356   */\n      revert\n        /* \"#utility.yul\":3368:3537   */\n    tag_100:\n        /* \"#utility.yul\":3452:3463   */\n      0x00\n        /* \"#utility.yul\":3486:3492   */\n      dup3\n        /* \"#utility.yul\":3481:3484   */\n      dup3\n        /* \"#utility.yul\":3474:3493   */\n      mstore\n        /* \"#utility.yul\":3526:3530   */\n      0x20\n        /* \"#utility.yul\":3521:3524   */\n      dup3\n        /* \"#utility.yul\":3517:3531   */\n      add\n        /* \"#utility.yul\":3502:3531   */\n      swap1\n      pop\n        /* \"#utility.yul\":3368:3537   */\n      swap3\n      swap2\n      pop\n      pop\n      jump\t// out\n        /* \"#utility.yul\":3543:3707   */\n    tag_101:\n        /* \"#utility.yul\":3683:3699   */\n      0x436f756c64206e6f742073656e64000000000000000000000000000000000000\n        /* \"#utility.yul\":3679:3680   */\n      0x00\n        /* \"#utility.yul\":3671:3677   */\n      dup3\n        /* \"#utility.yul\":3667:3681   */\n      add\n        /* \"#utility.yul\":3660:3700   */\n      mstore\n        /* \"#utility.yul\":3543:3707   */\n      pop\n      jump\t// out\n        /* \"#utility.yul\":3713:4079   */\n    tag_102:\n        /* \"#utility.yul\":3855:3858   */\n      0x00\n        /* \"#utility.yul\":3876:3943   */\n      tag_160\n        /* \"#utility.yul\":3940:3942   */\n      0x0e\n        /* \"#utility.yul\":3935:3938   */\n      dup4\n        /* \"#utility.yul\":3876:3943   */\n      tag_100\n      jump\t// in\n    tag_160:\n        /* \"#utility.yul\":3869:3943   */\n      swap2\n      pop\n        /* \"#utility.yul\":3952:4045   */\n      tag_161\n        /* \"#utility.yul\":4041:4044   */\n      dup3\n        /* \"#utility.yul\":3952:4045   */\n      tag_101\n      jump\t// in\n    tag_161:\n        /* \"#utility.yul\":4070:4072   */\n      0x20\n        /* \"#utility.yul\":4065:4068   */\n      dup3\n        /* \"#utility.yul\":4061:4073   */\n      add\n        /* \"#utility.yul\":4054:4073   */\n      swap1\n      pop\n        /* \"#utility.yul\":3713:4079   */\n      swap2\n      swap1\n      pop\n      jump\t// out\n        /* \"#utility.yul\":4085:4504   */\n    tag_51:\n        /* \"#utility.yul\":4251:4255   */\n      0x00\n        /* \"#utility.yul\":4289:4291   */\n      0x20\n        /* \"#utility.yul\":4278:4287   */\n      dup3\n        /* \"#utility.yul\":4274:4292   */\n      add\n        /* \"#utility.yul\":4266:4292   */\n      swap1\n      pop\n        /* \"#utility.yul\":4338:4347   */\n      dup2\n        /* \"#utility.yul\":4332:4336   */\n      dup2\n        /* \"#utility.yul\":4328:4348   */\n      sub\n        /* \"#utility.yul\":4324:4325   */\n      0x00\n        /* \"#utility.yul\":4313:4322   */\n      dup4\n        /* \"#utility.yul\":4309:4326   */\n      add\n        /* \"#utility.yul\":4302:4349   */\n      mstore\n        /* \"#utility.yul\":4366:4497   */\n      tag_163\n        /* \"#utility.yul\":4492:4496   */\n      dup2\n        /* \"#utility.yul\":4366:4497   */\n      tag_102\n      jump\t// in\n    tag_163:\n        /* \"#utility.yul\":4358:4497   */\n      swap1\n      pop\n        /* \"#utility.yul\":4085:4504   */\n      swap2\n      swap1\n      pop\n      jump\t// out\n        /* \"#utility.yul\":4510:4657   */\n    tag_103:\n        /* \"#utility.yul\":4611:4622   */\n      0x00\n        /* \"#utility.yul\":4648:4651   */\n      dup2\n        /* \"#utility.yul\":4633:4651   */\n      swap1\n      pop\n        /* \"#utility.yul\":4510:4657   */\n      swap3\n      swap2\n      pop\n      pop\n      jump\t// out\n        /* \"#utility.yul\":4663:4777   */\n    tag_104:\n      pop\n      jump\t// out\n        /* \"#utility.yul\":4783:5181   */\n    tag_105:\n        /* \"#utility.yul\":4942:4945   */\n      0x00\n        /* \"#utility.yul\":4963:5046   */\n      tag_167\n        /* \"#utility.yul\":5044:5045   */\n      0x00\n        /* \"#utility.yul\":5039:5042   */\n      dup4\n        /* \"#utility.yul\":4963:5046   */\n      tag_103\n      jump\t// in\n    tag_167:\n        /* \"#utility.yul\":4956:5046   */\n      swap2\n      pop\n        /* \"#utility.yul\":5055:5148   */\n      tag_168\n        /* \"#utility.yul\":5144:5147   */\n      dup3\n        /* \"#utility.yul\":5055:5148   */\n      tag_104\n      jump\t// in\n    tag_168:\n        /* \"#utility.yul\":5173:5174   */\n      0x00\n        /* \"#utility.yul\":5168:5171   */\n      dup3\n        /* \"#utility.yul\":5164:5175   */\n      add\n        /* \"#utility.yul\":5157:5175   */\n      swap1\n      pop\n        /* \"#utility.yul\":4783:5181   */\n      swap2\n      swap1\n      pop\n      jump\t// out\n        /* \"#utility.yul\":5187:5566   */\n    tag_53:\n        /* \"#utility.yul\":5371:5374   */\n      0x00\n        /* \"#utility.yul\":5393:5540   */\n      tag_170\n        /* \"#utility.yul\":5536:5539   */\n      dup3\n        /* \"#utility.yul\":5393:5540   */\n      tag_105\n      jump\t// in\n    tag_170:\n        /* \"#utility.yul\":5386:5540   */\n      swap2\n      pop\n        /* \"#utility.yul\":5557:5560   */\n      dup2\n        /* \"#utility.yul\":5550:5560   */\n      swap1\n      pop\n        /* \"#utility.yul\":5187:5566   */\n      swap2\n      swap1\n      pop\n      jump\t// out\n        /* \"#utility.yul\":5572:5740   */\n    tag_106:\n        /* \"#utility.yul\":5712:5732   */\n      0x4469646e27742073656e6420656e6f7567680000000000000000000000000000\n        /* \"#utility.yul\":5708:5709   */\n      0x00\n        /* \"#utility.yul\":5700:5706   */\n      dup3\n        /* \"#utility.yul\":5696:5710   */\n      add\n        /* \"#utility.yul\":5689:5733   */\n      mstore\n        /* \"#utility.yul\":5572:5740   */\n      pop\n      jump\t// out\n        /* \"#utility.yul\":5746:6112   */\n    tag_107:\n        /* \"#utility.yul\":5888:5891   */\n      0x00\n        /* \"#utility.yul\":5909:5976   */\n      tag_173\n        /* \"#utility.yul\":5973:5975   */\n      0x12\n        /* \"#utility.yul\":5968:5971   */\n      dup4\n        /* \"#utility.yul\":5909:5976   */\n      tag_100\n      jump\t// in\n    tag_173:\n        /* \"#utility.yul\":5902:5976   */\n      swap2\n      pop\n        /* \"#utility.yul\":5985:6078   */\n      tag_174\n        /* \"#utility.yul\":6074:6077   */\n      dup3\n        /* \"#utility.yul\":5985:6078   */\n      tag_106\n      jump\t// in\n    tag_174:\n        /* \"#utility.yul\":6103:6105   */\n      0x20\n        /* \"#utility.yul\":6098:6101   */\n      dup3\n        /* \"#utility.yul\":6094:6106   */\n      add\n        /* \"#utility.yul\":6087:6106   */\n      swap1\n      pop\n        /* \"#utility.yul\":5746:6112   */\n      swap2\n      swap1\n      pop\n      jump\t// out\n        /* \"#utility.yul\":6118:6537   */\n    tag_62:\n        /* \"#utility.yul\":6284:6288   */\n      0x00\n        /* \"#utility.yul\":6322:6324   */\n      0x20\n        /* \"#utility.yul\":6311:6320   */\n      dup3\n        /* \"#utility.yul\":6307:6325   */\n      add\n        /* \"#utility.yul\":6299:6325   */\n      swap1\n      pop\n        /* \"#utility.yul\":6371:6380   */\n      dup2\n        /* \"#utility.yul\":6365:6369   */\n      dup2\n        /* \"#utility.yul\":6361:6381   */\n      sub\n        /* \"#utility.yul\":6357:6358   */\n      0x00\n        /* \"#utility.yul\":6346:6355   */\n      dup4\n        /* \"#utility.yul\":6342:6359   */\n      add\n        /* \"#utility.yul\":6335:6382   */\n      mstore\n        /* \"#utility.yul\":6399:6530   */\n      tag_176\n        /* \"#utility.yul\":6525:6529   */\n      dup2\n        /* \"#utility.yul\":6399:6530   */\n      tag_107\n      jump\t// in\n    tag_176:\n        /* \"#utility.yul\":6391:6530   */\n      swap1\n      pop\n        /* \"#utility.yul\":6118:6537   */\n      swap2\n      swap1\n      pop\n      jump\t// out\n        /* \"#utility.yul\":6543:6891   */\n    tag_70:\n        /* \"#utility.yul\":6583:6590   */\n      0x00\n        /* \"#utility.yul\":6606:6626   */\n      tag_178\n        /* \"#utility.yul\":6624:6625   */\n      dup3\n        /* \"#utility.yul\":6606:6626   */\n      tag_87\n      jump\t// in\n    tag_178:\n        /* \"#utility.yul\":6601:6626   */\n      swap2\n      pop\n        /* \"#utility.yul\":6640:6660   */\n      tag_179\n        /* \"#utility.yul\":6658:6659   */\n      dup4\n        /* \"#utility.yul\":6640:6660   */\n      tag_87\n      jump\t// in\n    tag_179:\n        /* \"#utility.yul\":6635:6660   */\n      swap3\n      pop\n        /* \"#utility.yul\":6828:6829   */\n      dup2\n        /* \"#utility.yul\":6760:6826   */\n      0xffffffffffffffffffffffffffffffffffffffffffffffffffffffffffffffff\n        /* \"#utility.yul\":6756:6830   */\n      div\n        /* \"#utility.yul\":6753:6754   */\n      dup4\n        /* \"#utility.yul\":6750:6831   */\n      gt\n        /* \"#utility.yul\":6745:6746   */\n      dup3\n        /* \"#utility.yul\":6738:6747   */\n      iszero\n        /* \"#utility.yul\":6731:6748   */\n      iszero\n        /* \"#utility.yul\":6727:6832   */\n      and\n        /* \"#utility.yul\":6724:6855   */\n      iszero\n      tag_180\n      jumpi\n        /* \"#utility.yul\":6835:6853   */\n      tag_181\n      tag_99\n      jump\t// in\n    tag_181:\n        /* \"#utility.yul\":6724:6855   */\n    tag_180:\n        /* \"#utility.yul\":6883:6884   */\n      dup3\n        /* \"#utility.yul\":6880:6881   */\n      dup3\n        /* \"#utility.yul\":6876:6885   */\n      mul\n        /* \"#utility.yul\":6865:6885   */\n      swap1\n      pop\n        /* \"#utility.yul\":6543:6891   */\n      swap3\n      swap2\n      pop\n      pop\n      jump\t// out\n        /* \"#utility.yul\":6897:7077   */\n    tag_108:\n        /* \"#utility.yul\":6945:7022   */\n      0x4e487b7100000000000000000000000000000000000000000000000000000000\n        /* \"#utility.yul\":6942:6943   */\n      0x00\n        /* \"#utility.yul\":6935:7023   */\n      mstore\n        /* \"#utility.yul\":7042:7046   */\n      0x12\n        /* \"#utility.yul\":7039:7040   */\n      0x04\n        /* \"#utility.yul\":7032:7047   */\n      mstore\n        /* \"#utility.yul\":7066:7070   */\n      0x24\n        /* \"#utility.yul\":7063:7064   */\n      0x00\n        /* \"#utility.yul\":7056:7071   */\n      revert\n        /* \"#utility.yul\":7083:7268   */\n    tag_72:\n        /* \"#utility.yul\":7123:7124   */\n      0x00\n        /* \"#utility.yul\":7140:7160   */\n      tag_184\n        /* \"#utility.yul\":7158:7159   */\n      dup3\n        /* \"#utility.yul\":7140:7160   */\n      tag_87\n      jump\t// in\n    tag_184:\n        /* \"#utility.yul\":7135:7160   */\n      swap2\n      pop\n        /* \"#utility.yul\":7174:7194   */\n      tag_185\n        /* \"#utility.yul\":7192:7193   */\n      dup4\n        /* \"#utility.yul\":7174:7194   */\n      tag_87\n      jump\t// in\n    tag_185:\n        /* \"#utility.yul\":7169:7194   */\n      swap3\n      pop\n        /* \"#utility.yul\":7213:7214   */\n      dup3\n        /* \"#utility.yul\":7203:7238   */\n      tag_186\n      jumpi\n        /* \"#utility.yul\":7218:7236   */\n      tag_187\n      tag_108\n      jump\t// in\n    tag_187:\n        /* \"#utility.yul\":7203:7238   */\n    tag_186:\n        /* \"#utility.yul\":7260:7261   */\n      dup3\n        /* \"#utility.yul\":7257:7258   */\n      dup3\n        /* \"#utility.yul\":7253:7262   */\n      div\n        /* \"#utility.yul\":7248:7262   */\n      swap1\n      pop\n        /* \"#utility.yul\":7083:7268   */\n      swap3\n      swap2\n      pop\n      pop\n      jump\t// out\n        /* \"#utility.yul\":7274:7379   */\n    tag_109:\n        /* \"#utility.yul\":7310:7317   */\n      0x00\n        /* \"#utility.yul\":7350:7372   */\n      0xffffffffffffffffffff\n        /* \"#utility.yul\":7343:7348   */\n      dup3\n        /* \"#utility.yul\":7339:7373   */\n      and\n        /* \"#utility.yul\":7328:7373   */\n      swap1\n      pop\n        /* \"#utility.yul\":7274:7379   */\n      swap2\n      swap1\n      pop\n      jump\t// out\n        /* \"#utility.yul\":7385:7505   */\n    tag_110:\n        /* \"#utility.yul\":7457:7480   */\n      tag_190\n        /* \"#utility.yul\":7474:7479   */\n      dup2\n        /* \"#utility.yul\":7457:7480   */\n      tag_109\n      jump\t// in\n    tag_190:\n        /* \"#utility.yul\":7450:7455   */\n      dup2\n        /* \"#utility.yul\":7447:7481   */\n      eq\n        /* \"#utility.yul\":7437:7499   */\n      tag_191\n      jumpi\n        /* \"#utility.yul\":7495:7496   */\n      0x00\n        /* \"#utility.yul\":7492:7493   */\n      dup1\n        /* \"#utility.yul\":7485:7497   */\n      revert\n        /* \"#utility.yul\":7437:7499   */\n    tag_191:\n        /* \"#utility.yul\":7385:7505   */\n      pop\n      jump\t// out\n        /* \"#utility.yul\":7511:7652   */\n    tag_111:\n        /* \"#utility.yul\":7567:7572   */\n      0x00\n        /* \"#utility.yul\":7598:7604   */\n      dup2\n        /* \"#utility.yul\":7592:7605   */\n      mload\n        /* \"#utility.yul\":7583:7605   */\n      swap1\n      pop\n        /* \"#utility.yul\":7614:7646   */\n      tag_193\n        /* \"#utility.yul\":7640:7645   */\n      dup2\n        /* \"#utility.yul\":7614:7646   */\n      tag_110\n      jump\t// in\n    tag_193:\n        /* \"#utility.yul\":7511:7652   */\n      swap3\n      swap2\n      pop\n      pop\n      jump\t// out\n        /* \"#utility.yul\":7658:7734   */\n    tag_112:\n        /* \"#utility.yul\":7694:7701   */\n      0x00\n        /* \"#utility.yul\":7723:7728   */\n      dup2\n        /* \"#utility.yul\":7712:7728   */\n      swap1\n      pop\n        /* \"#utility.yul\":7658:7734   */\n      swap2\n      swap1\n      pop\n      jump\t// out\n        /* \"#utility.yul\":7740:7860   */\n    tag_113:\n        /* \"#utility.yul\":7812:7835   */\n      tag_196\n        /* \"#utility.yul\":7829:7834   */\n      dup2\n        /* \"#utility.yul\":7812:7835   */\n      tag_112\n      jump\t// in\n    tag_196:\n        /* \"#utility.yul\":7805:7810   */\n      dup2\n        /* \"#utility.yul\":7802:7836   */\n      eq\n        /* \"#utility.yul\":7792:7854   */\n      tag_197\n      jumpi\n        /* \"#utility.yul\":7850:7851   */\n      0x00\n        /* \"#utility.yul\":7847:7848   */\n      dup1\n        /* \"#utility.yul\":7840:7852   */\n      revert\n        /* \"#utility.yul\":7792:7854   */\n    tag_197:\n        /* \"#utility.yul\":7740:7860   */\n      pop\n      jump\t// out\n        /* \"#utility.yul\":7866:8007   */\n    tag_114:\n        /* \"#utility.yul\":7922:7927   */\n      0x00\n        /* \"#utility.yul\":7953:7959   */\n      dup2\n        /* \"#utility.yul\":7947:7960   */\n      mload\n        /* \"#utility.yul\":7938:7960   */\n      swap1\n      pop\n        /* \"#utility.yul\":7969:8001   */\n      tag_199\n        /* \"#utility.yul\":7995:8000   */\n      dup2\n        /* \"#utility.yul\":7969:8001   */\n      tag_113\n      jump\t// in\n    tag_199:\n        /* \"#utility.yul\":7866:8007   */\n      swap3\n      swap2\n      pop\n      pop\n      jump\t// out\n        /* \"#utility.yul\":8013:8156   */\n    tag_115:\n        /* \"#utility.yul\":8070:8075   */\n      0x00\n        /* \"#utility.yul\":8101:8107   */\n      dup2\n        /* \"#utility.yul\":8095:8108   */\n      mload\n        /* \"#utility.yul\":8086:8108   */\n      swap1\n      pop\n        /* \"#utility.yul\":8117:8150   */\n      tag_201\n        /* \"#utility.yul\":8144:8149   */\n      dup2\n        /* \"#utility.yul\":8117:8150   */\n      tag_96\n      jump\t// in\n    tag_201:\n        /* \"#utility.yul\":8013:8156   */\n      swap3\n      swap2\n      pop\n      pop\n      jump\t// out\n        /* \"#utility.yul\":8162:9133   */\n    tag_77:\n        /* \"#utility.yul\":8265:8271   */\n      0x00\n        /* \"#utility.yul\":8273:8279   */\n      dup1\n        /* \"#utility.yul\":8281:8287   */\n      0x00\n        /* \"#utility.yul\":8289:8295   */\n      dup1\n        /* \"#utility.yul\":8297:8303   */\n      0x00\n        /* \"#utility.yul\":8346:8349   */\n      0xa0\n        /* \"#utility.yul\":8334:8343   */\n      dup7\n        /* \"#utility.yul\":8325:8332   */\n      dup9\n        /* \"#utility.yul\":8321:8344   */\n      sub\n        /* \"#utility.yul\":8317:8350   */\n      slt\n        /* \"#utility.yul\":8314:8434   */\n      iszero\n      tag_203\n      jumpi\n        /* \"#utility.yul\":8353:8432   */\n      tag_204\n      tag_90\n      jump\t// in\n    tag_204:\n        /* \"#utility.yul\":8314:8434   */\n    tag_203:\n        /* \"#utility.yul\":8473:8474   */\n      0x00\n        /* \"#utility.yul\":8498:8561   */\n      tag_205\n        /* \"#utility.yul\":8553:8560   */\n      dup9\n        /* \"#utility.yul\":8544:8550   */\n      dup3\n        /* \"#utility.yul\":8533:8542   */\n      dup10\n        /* \"#utility.yul\":8529:8551   */\n      add\n        /* \"#utility.yul\":8498:8561   */\n      tag_111\n      jump\t// in\n    tag_205:\n        /* \"#utility.yul\":8488:8561   */\n      swap6\n      pop\n        /* \"#utility.yul\":8444:8571   */\n      pop\n        /* \"#utility.yul\":8610:8612   */\n      0x20\n        /* \"#utility.yul\":8636:8699   */\n      tag_206\n        /* \"#utility.yul\":8691:8698   */\n      dup9\n        /* \"#utility.yul\":8682:8688   */\n      dup3\n        /* \"#utility.yul\":8671:8680   */\n      dup10\n        /* \"#utility.yul\":8667:8689   */\n      add\n        /* \"#utility.yul\":8636:8699   */\n      tag_114\n      jump\t// in\n    tag_206:\n        /* \"#utility.yul\":8626:8699   */\n      swap5\n      pop\n        /* \"#utility.yul\":8581:8709   */\n      pop\n        /* \"#utility.yul\":8748:8750   */\n      0x40\n        /* \"#utility.yul\":8774:8838   */\n      tag_207\n        /* \"#utility.yul\":8830:8837   */\n      dup9\n        /* \"#utility.yul\":8821:8827   */\n      dup3\n        /* \"#utility.yul\":8810:8819   */\n      dup10\n        /* \"#utility.yul\":8806:8828   */\n      add\n        /* \"#utility.yul\":8774:8838   */\n      tag_115\n      jump\t// in\n    tag_207:\n        /* \"#utility.yul\":8764:8838   */\n      swap4\n      pop\n        /* \"#utility.yul\":8719:8848   */\n      pop\n        /* \"#utility.yul\":8887:8889   */\n      0x60\n        /* \"#utility.yul\":8913:8977   */\n      tag_208\n        /* \"#utility.yul\":8969:8976   */\n      dup9\n        /* \"#utility.yul\":8960:8966   */\n      dup3\n        /* \"#utility.yul\":8949:8958   */\n      dup10\n        /* \"#utility.yul\":8945:8967   */\n      add\n        /* \"#utility.yul\":8913:8977   */\n      tag_115\n      jump\t// in\n    tag_208:\n        /* \"#utility.yul\":8903:8977   */\n      swap3\n      pop\n        /* \"#utility.yul\":8858:8987   */\n      pop\n        /* \"#utility.yul\":9026:9029   */\n      0x80\n        /* \"#utility.yul\":9053:9116   */\n      tag_209\n        /* \"#utility.yul\":9108:9115   */\n      dup9\n        /* \"#utility.yul\":9099:9105   */\n      dup3\n        /* \"#utility.yul\":9088:9097   */\n      dup10\n        /* \"#utility.yul\":9084:9106   */\n      add\n        /* \"#utility.yul\":9053:9116   */\n      tag_111\n      jump\t// in\n    tag_209:\n        /* \"#utility.yul\":9043:9116   */\n      swap2\n      pop\n        /* \"#utility.yul\":8997:9126   */\n      pop\n        /* \"#utility.yul\":8162:9133   */\n      swap3\n      swap6\n      pop\n      swap3\n      swap6\n      swap1\n      swap4\n      pop\n      jump\t// out\n        /* \"#utility.yul\":9139:10130   */\n    tag_79:\n        /* \"#utility.yul\":9178:9185   */\n      0x00\n        /* \"#utility.yul\":9201:9220   */\n      tag_211\n        /* \"#utility.yul\":9218:9219   */\n      dup3\n        /* \"#utility.yul\":9201:9220   */\n      tag_112\n      jump\t// in\n    tag_211:\n        /* \"#utility.yul\":9196:9220   */\n      swap2\n      pop\n        /* \"#utility.yul\":9234:9253   */\n      tag_212\n        /* \"#utility.yul\":9251:9252   */\n      dup4\n        /* \"#utility.yul\":9234:9253   */\n      tag_112\n      jump\t// in\n    tag_212:\n        /* \"#utility.yul\":9229:9253   */\n      swap3\n      pop\n        /* \"#utility.yul\":9435:9436   */\n      dup3\n        /* \"#utility.yul\":9367:9433   */\n      0x7fffffffffffffffffffffffffffffffffffffffffffffffffffffffffffffff\n        /* \"#utility.yul\":9363:9437   */\n      div\n        /* \"#utility.yul\":9360:9361   */\n      dup3\n        /* \"#utility.yul\":9357:9438   */\n      gt\n        /* \"#utility.yul\":9352:9353   */\n      0x00\n        /* \"#utility.yul\":9349:9350   */\n      dup5\n        /* \"#utility.yul\":9345:9354   */\n      sgt\n        /* \"#utility.yul\":9341:9342   */\n      0x00\n        /* \"#utility.yul\":9338:9339   */\n      dup5\n        /* \"#utility.yul\":9334:9343   */\n      sgt\n        /* \"#utility.yul\":9330:9355   */\n      and\n        /* \"#utility.yul\":9326:9439   */\n      and\n        /* \"#utility.yul\":9323:9462   */\n      iszero\n      tag_213\n      jumpi\n        /* \"#utility.yul\":9442:9460   */\n      tag_214\n      tag_99\n      jump\t// in\n    tag_214:\n        /* \"#utility.yul\":9323:9462   */\n    tag_213:\n        /* \"#utility.yul\":9646:9647   */\n      dup2\n        /* \"#utility.yul\":9578:9644   */\n      0x8000000000000000000000000000000000000000000000000000000000000000\n        /* \"#utility.yul\":9573:9648   */\n      sdiv\n        /* \"#utility.yul\":9570:9571   */\n      dup4\n        /* \"#utility.yul\":9566:9649   */\n      slt\n        /* \"#utility.yul\":9561:9562   */\n      0x00\n        /* \"#utility.yul\":9558:9559   */\n      dup5\n        /* \"#utility.yul\":9554:9563   */\n      slt\n        /* \"#utility.yul\":9550:9551   */\n      0x00\n        /* \"#utility.yul\":9547:9548   */\n      dup5\n        /* \"#utility.yul\":9543:9552   */\n      sgt\n        /* \"#utility.yul\":9539:9564   */\n      and\n        /* \"#utility.yul\":9535:9650   */\n      and\n        /* \"#utility.yul\":9532:9673   */\n      iszero\n      tag_215\n      jumpi\n        /* \"#utility.yul\":9653:9671   */\n      tag_216\n      tag_99\n      jump\t// in\n    tag_216:\n        /* \"#utility.yul\":9532:9673   */\n    tag_215:\n        /* \"#utility.yul\":9857:9858   */\n      dup3\n        /* \"#utility.yul\":9789:9855   */\n      0x8000000000000000000000000000000000000000000000000000000000000000\n        /* \"#utility.yul\":9784:9859   */\n      sdiv\n        /* \"#utility.yul\":9781:9782   */\n      dup3\n        /* \"#utility.yul\":9777:9860   */\n      slt\n        /* \"#utility.yul\":9772:9773   */\n      0x00\n        /* \"#utility.yul\":9769:9770   */\n      dup5\n        /* \"#utility.yul\":9765:9774   */\n      sgt\n        /* \"#utility.yul\":9761:9762   */\n      0x00\n        /* \"#utility.yul\":9758:9759   */\n      dup5\n        /* \"#utility.yul\":9754:9763   */\n      slt\n        /* \"#utility.yul\":9750:9775   */\n      and\n        /* \"#utility.yul\":9746:9861   */\n      and\n        /* \"#utility.yul\":9743:9884   */\n      iszero\n      tag_217\n      jumpi\n        /* \"#utility.yul\":9864:9882   */\n      tag_218\n      tag_99\n      jump\t// in\n    tag_218:\n        /* \"#utility.yul\":9743:9884   */\n    tag_217:\n        /* \"#utility.yul\":10067:10068   */\n      dup3\n        /* \"#utility.yul\":9999:10065   */\n      0x7fffffffffffffffffffffffffffffffffffffffffffffffffffffffffffffff\n        /* \"#utility.yul\":9994:10069   */\n      sdiv\n        /* \"#utility.yul\":9991:9992   */\n      dup3\n        /* \"#utility.yul\":9987:10070   */\n      slt\n        /* \"#utility.yul\":9982:9983   */\n      0x00\n        /* \"#utility.yul\":9979:9980   */\n      dup5\n        /* \"#utility.yul\":9975:9984   */\n      slt\n        /* \"#utility.yul\":9971:9972   */\n      0x00\n        /* \"#utility.yul\":9968:9969   */\n      dup5\n        /* \"#utility.yul\":9964:9973   */\n      slt\n        /* \"#utility.yul\":9960:9985   */\n      and\n        /* \"#utility.yul\":9956:10071   */\n      and\n        /* \"#utility.yul\":9953:10094   */\n      iszero\n      tag_219\n      jumpi\n        /* \"#utility.yul\":10074:10092   */\n      tag_220\n      tag_99\n      jump\t// in\n    tag_220:\n        /* \"#utility.yul\":9953:10094   */\n    tag_219:\n        /* \"#utility.yul\":10122:10123   */\n      dup3\n        /* \"#utility.yul\":10119:10120   */\n      dup3\n        /* \"#utility.yul\":10115:10124   */\n      mul\n        /* \"#utility.yul\":10104:10124   */\n      swap1\n      pop\n        /* \"#utility.yul\":9139:10130   */\n      swap3\n      swap2\n      pop\n      pop\n      jump\t// out\n\n    auxdata: 0xa2646970667358221220f72224d85f4dcb3b1fa48b99905efcea627908f78eca93ccf6b27fee96c007a264736f6c634300080f0033\n}\n",
				"bytecode": {
					"linkReferences": {},
					"object": "60806040526802b5e3af16b188000060005534801561001d57600080fd5b50610c8c8061002d6000396000f3fe60806040526004361061004a5760003560e01c8063098de8201461004f5780633ccfd60b1461007a5780633e47d6f314610091578063b60d4288146100ce578063dc0d3dff146100d8575b600080fd5b34801561005b57600080fd5b50610064610115565b604051610071919061064b565b60405180910390f35b34801561008657600080fd5b5061008f61011b565b005b34801561009d57600080fd5b506100b860048036038101906100b391906106c9565b61035b565b6040516100c5919061064b565b60405180910390f35b6100d6610373565b005b3480156100e457600080fd5b506100ff60048036038101906100fa9190610722565b610469565b60405161010c919061075e565b60405180910390f35b60005481565b60005b6001805490508110156101c75760006001828154811061014157610140610779565b5b9060005260206000200160009054906101000a900473ffffffffffffffffffffffffffffffffffffffff1690506000600260008373ffffffffffffffffffffffffffffffffffffffff1673ffffffffffffffffffffffffffffffffffffffff168152602001908152602001600020819055505080806101bf906107d7565b91505061011e565b50600067ffffffffffffffff8111156101e3576101e261081f565b5b6040519080825280602002602001820160405280156102115781602001602082028036833780820191505090505b506001908051906020019061022792919061058b565b503373ffffffffffffffffffffffffffffffffffffffff166108fc479081150290604051600060405180830381858888f1935050505015801561026e573d6000803e3d6000fd5b5060003373ffffffffffffffffffffffffffffffffffffffff166108fc479081150290604051600060405180830381858888f193505050509050806102e8576040517f08c379a00000000000000000000000000000000000000000000000000000000081526004016102df906108ab565b60405180910390fd5b6000803373ffffffffffffffffffffffffffffffffffffffff164760405161030f906108fc565b60006040518083038185875af1925050503d806000811461034c576040519150601f19603f3d011682016040523d82523d6000602084013e610351565b606091505b5091509150505050565b60026020528060005260406000206000915090505481565b60005461037f346104a8565b10156103c0576040517f08c379a00000000000000000000000000000000000000000000000000000000081526004016103b79061095d565b60405180910390fd5b6001339080600181540180825580915050600190039060005260206000200160009091909190916101000a81548173ffffffffffffffffffffffffffffffffffffffff021916908373ffffffffffffffffffffffffffffffffffffffff16021790555034600260003373ffffffffffffffffffffffffffffffffffffffff1673ffffffffffffffffffffffffffffffffffffffff16815260200190815260200160002081905550565b6001818154811061047957600080fd5b906000526020600020016000915054906101000a900473ffffffffffffffffffffffffffffffffffffffff1681565b6000806104b36104e2565b90506000670de0b6b3a764000084836104cc919061097d565b6104d69190610a06565b90508092505050919050565b600080738a753747a1fa494ec906ce90e9f37563a8af630e905060008173ffffffffffffffffffffffffffffffffffffffff1663feaf968c6040518163ffffffff1660e01b815260040160a060405180830381865afa158015610549573d6000803e3d6000fd5b505050506040513d601f19601f8201168201806040525081019061056d9190610ac4565b5050509150506402540be400816105849190610b3f565b9250505090565b828054828255906000526020600020908101928215610604579160200282015b828111156106035782518260006101000a81548173ffffffffffffffffffffffffffffffffffffffff021916908373ffffffffffffffffffffffffffffffffffffffff160217905550916020019190600101906105ab565b5b5090506106119190610615565b5090565b5b8082111561062e576000816000905550600101610616565b5090565b6000819050919050565b61064581610632565b82525050565b6000602082019050610660600083018461063c565b92915050565b600080fd5b600073ffffffffffffffffffffffffffffffffffffffff82169050919050565b60006106968261066b565b9050919050565b6106a68161068b565b81146106b157600080fd5b50565b6000813590506106c38161069d565b92915050565b6000602082840312156106df576106de610666565b5b60006106ed848285016106b4565b91505092915050565b6106ff81610632565b811461070a57600080fd5b50565b60008135905061071c816106f6565b92915050565b60006020828403121561073857610737610666565b5b60006107468482850161070d565b91505092915050565b6107588161068b565b82525050565b6000602082019050610773600083018461074f565b92915050565b7f4e487b7100000000000000000000000000000000000000000000000000000000600052603260045260246000fd5b7f4e487b7100000000000000000000000000000000000000000000000000000000600052601160045260246000fd5b60006107e282610632565b91507fffffffffffffffffffffffffffffffffffffffffffffffffffffffffffffffff8203610814576108136107a8565b5b600182019050919050565b7f4e487b7100000000000000000000000000000000000000000000000000000000600052604160045260246000fd5b600082825260208201905092915050565b7f436f756c64206e6f742073656e64000000000000000000000000000000000000600082015250565b6000610895600e8361084e565b91506108a08261085f565b602082019050919050565b600060208201905081810360008301526108c481610888565b9050919050565b600081905092915050565b50565b60006108e66000836108cb565b91506108f1826108d6565b600082019050919050565b6000610907826108d9565b9150819050919050565b7f4469646e27742073656e6420656e6f7567680000000000000000000000000000600082015250565b600061094760128361084e565b915061095282610911565b602082019050919050565b600060208201905081810360008301526109768161093a565b9050919050565b600061098882610632565b915061099383610632565b9250817fffffffffffffffffffffffffffffffffffffffffffffffffffffffffffffffff04831182151516156109cc576109cb6107a8565b5b828202905092915050565b7f4e487b7100000000000000000000000000000000000000000000000000000000600052601260045260246000fd5b6000610a1182610632565b9150610a1c83610632565b925082610a2c57610a2b6109d7565b5b828204905092915050565b600069ffffffffffffffffffff82169050919050565b610a5681610a37565b8114610a6157600080fd5b50565b600081519050610a7381610a4d565b92915050565b6000819050919050565b610a8c81610a79565b8114610a9757600080fd5b50565b600081519050610aa981610a83565b92915050565b600081519050610abe816106f6565b92915050565b600080600080600060a08688031215610ae057610adf610666565b5b6000610aee88828901610a64565b9550506020610aff88828901610a9a565b9450506040610b1088828901610aaf565b9350506060610b2188828901610aaf565b9250506080610b3288828901610a64565b9150509295509295909350565b6000610b4a82610a79565b9150610b5583610a79565b9250827f7fffffffffffffffffffffffffffffffffffffffffffffffffffffffffffffff0482116000841360008413161615610b9457610b936107a8565b5b817f80000000000000000000000000000000000000000000000000000000000000000583126000841260008413161615610bd157610bd06107a8565b5b827f80000000000000000000000000000000000000000000000000000000000000000582126000841360008412161615610c0e57610c0d6107a8565b5b827f7fffffffffffffffffffffffffffffffffffffffffffffffffffffffffffffff0582126000841260008412161615610c4b57610c4a6107a8565b5b82820290509291505056fea2646970667358221220f72224d85f4dcb3b1fa48b99905efcea627908f78eca93ccf6b27fee96c007a264736f6c634300080f0033",
					"opcodes": "PUSH1 0x80 PUSH1 0x40 MSTORE PUSH9 0x2B5E3AF16B1880000 PUSH1 0x0 SSTORE CALLVALUE DUP1 ISZERO PUSH2 0x1D JUMPI PUSH1 0x0 DUP1 REVERT JUMPDEST POP PUSH2 0xC8C DUP1 PUSH2 0x2D PUSH1 0x0 CODECOPY PUSH1 0x0 RETURN INVALID PUSH1 0x80 PUSH1 0x40 MSTORE PUSH1 0x4 CALLDATASIZE LT PUSH2 0x4A JUMPI PUSH1 0x0 CALLDATALOAD PUSH1 0xE0 SHR DUP1 PUSH4 0x98DE820 EQ PUSH2 0x4F JUMPI DUP1 PUSH4 0x3CCFD60B EQ PUSH2 0x7A JUMPI DUP1 PUSH4 0x3E47D6F3 EQ PUSH2 0x91 JUMPI DUP1 PUSH4 0xB60D4288 EQ PUSH2 0xCE JUMPI DUP1 PUSH4 0xDC0D3DFF EQ PUSH2 0xD8 JUMPI JUMPDEST PUSH1 0x0 DUP1 REVERT JUMPDEST CALLVALUE DUP1 ISZERO PUSH2 0x5B JUMPI PUSH1 0x0 DUP1 REVERT JUMPDEST POP PUSH2 0x64 PUSH2 0x115 JUMP JUMPDEST PUSH1 0x40 MLOAD PUSH2 0x71 SWAP2 SWAP1 PUSH2 0x64B JUMP JUMPDEST PUSH1 0x40 MLOAD DUP1 SWAP2 SUB SWAP1 RETURN JUMPDEST CALLVALUE DUP1 ISZERO PUSH2 0x86 JUMPI PUSH1 0x0 DUP1 REVERT JUMPDEST POP PUSH2 0x8F PUSH2 0x11B JUMP JUMPDEST STOP JUMPDEST CALLVALUE DUP1 ISZERO PUSH2 0x9D JUMPI PUSH1 0x0 DUP1 REVERT JUMPDEST POP PUSH2 0xB8 PUSH1 0x4 DUP1 CALLDATASIZE SUB DUP2 ADD SWAP1 PUSH2 0xB3 SWAP2 SWAP1 PUSH2 0x6C9 JUMP JUMPDEST PUSH2 0x35B JUMP JUMPDEST PUSH1 0x40 MLOAD PUSH2 0xC5 SWAP2 SWAP1 PUSH2 0x64B JUMP JUMPDEST PUSH1 0x40 MLOAD DUP1 SWAP2 SUB SWAP1 RETURN JUMPDEST PUSH2 0xD6 PUSH2 0x373 JUMP JUMPDEST STOP JUMPDEST CALLVALUE DUP1 ISZERO PUSH2 0xE4 JUMPI PUSH1 0x0 DUP1 REVERT JUMPDEST POP PUSH2 0xFF PUSH1 0x4 DUP1 CALLDATASIZE SUB DUP2 ADD SWAP1 PUSH2 0xFA SWAP2 SWAP1 PUSH2 0x722 JUMP JUMPDEST PUSH2 0x469 JUMP JUMPDEST PUSH1 0x40 MLOAD PUSH2 0x10C SWAP2 SWAP1 PUSH2 0x75E JUMP JUMPDEST PUSH1 0x40 MLOAD DUP1 SWAP2 SUB SWAP1 RETURN JUMPDEST PUSH1 0x0 SLOAD DUP2 JUMP JUMPDEST PUSH1 0x0 JUMPDEST PUSH1 0x1 DUP1 SLOAD SWAP1 POP DUP2 LT ISZERO PUSH2 0x1C7 JUMPI PUSH1 0x0 PUSH1 0x1 DUP3 DUP2 SLOAD DUP2 LT PUSH2 0x141 JUMPI PUSH2 0x140 PUSH2 0x779 JUMP JUMPDEST JUMPDEST SWAP1 PUSH1 0x0 MSTORE PUSH1 0x20 PUSH1 0x0 KECCAK256 ADD PUSH1 0x0 SWAP1 SLOAD SWAP1 PUSH2 0x100 EXP SWAP1 DIV PUSH20 0xFFFFFFFFFFFFFFFFFFFFFFFFFFFFFFFFFFFFFFFF AND SWAP1 POP PUSH1 0x0 PUSH1 0x2 PUSH1 0x0 DUP4 PUSH20 0xFFFFFFFFFFFFFFFFFFFFFFFFFFFFFFFFFFFFFFFF AND PUSH20 0xFFFFFFFFFFFFFFFFFFFFFFFFFFFFFFFFFFFFFFFF AND DUP2 MSTORE PUSH1 0x20 ADD SWAP1 DUP2 MSTORE PUSH1 0x20 ADD PUSH1 0x0 KECCAK256 DUP2 SWAP1 SSTORE POP POP DUP1 DUP1 PUSH2 0x1BF SWAP1 PUSH2 0x7D7 JUMP JUMPDEST SWAP2 POP POP PUSH2 0x11E JUMP JUMPDEST POP PUSH1 0x0 PUSH8 0xFFFFFFFFFFFFFFFF DUP2 GT ISZERO PUSH2 0x1E3 JUMPI PUSH2 0x1E2 PUSH2 0x81F JUMP JUMPDEST JUMPDEST PUSH1 0x40 MLOAD SWAP1 DUP1 DUP3 MSTORE DUP1 PUSH1 0x20 MUL PUSH1 0x20 ADD DUP3 ADD PUSH1 0x40 MSTORE DUP1 ISZERO PUSH2 0x211 JUMPI DUP2 PUSH1 0x20 ADD PUSH1 0x20 DUP3 MUL DUP1 CALLDATASIZE DUP4 CALLDATACOPY DUP1 DUP3 ADD SWAP2 POP POP SWAP1 POP JUMPDEST POP PUSH1 0x1 SWAP1 DUP1 MLOAD SWAP1 PUSH1 0x20 ADD SWAP1 PUSH2 0x227 SWAP3 SWAP2 SWAP1 PUSH2 0x58B JUMP JUMPDEST POP CALLER PUSH20 0xFFFFFFFFFFFFFFFFFFFFFFFFFFFFFFFFFFFFFFFF AND PUSH2 0x8FC SELFBALANCE SWAP1 DUP2 ISZERO MUL SWAP1 PUSH1 0x40 MLOAD PUSH1 0x0 PUSH1 0x40 MLOAD DUP1 DUP4 SUB DUP2 DUP6 DUP9 DUP9 CALL SWAP4 POP POP POP POP ISZERO DUP1 ISZERO PUSH2 0x26E JUMPI RETURNDATASIZE PUSH1 0x0 DUP1 RETURNDATACOPY RETURNDATASIZE PUSH1 0x0 REVERT JUMPDEST POP PUSH1 0x0 CALLER PUSH20 0xFFFFFFFFFFFFFFFFFFFFFFFFFFFFFFFFFFFFFFFF AND PUSH2 0x8FC SELFBALANCE SWAP1 DUP2 ISZERO MUL SWAP1 PUSH1 0x40 MLOAD PUSH1 0x0 PUSH1 0x40 MLOAD DUP1 DUP4 SUB DUP2 DUP6 DUP9 DUP9 CALL SWAP4 POP POP POP POP SWAP1 POP DUP1 PUSH2 0x2E8 JUMPI PUSH1 0x40 MLOAD PUSH32 0x8C379A000000000000000000000000000000000000000000000000000000000 DUP2 MSTORE PUSH1 0x4 ADD PUSH2 0x2DF SWAP1 PUSH2 0x8AB JUMP JUMPDEST PUSH1 0x40 MLOAD DUP1 SWAP2 SUB SWAP1 REVERT JUMPDEST PUSH1 0x0 DUP1 CALLER PUSH20 0xFFFFFFFFFFFFFFFFFFFFFFFFFFFFFFFFFFFFFFFF AND SELFBALANCE PUSH1 0x40 MLOAD PUSH2 0x30F SWAP1 PUSH2 0x8FC JUMP JUMPDEST PUSH1 0x0 PUSH1 0x40 MLOAD DUP1 DUP4 SUB DUP2 DUP6 DUP8 GAS CALL SWAP3 POP POP POP RETURNDATASIZE DUP1 PUSH1 0x0 DUP2 EQ PUSH2 0x34C JUMPI PUSH1 0x40 MLOAD SWAP2 POP PUSH1 0x1F NOT PUSH1 0x3F RETURNDATASIZE ADD AND DUP3 ADD PUSH1 0x40 MSTORE RETURNDATASIZE DUP3 MSTORE RETURNDATASIZE PUSH1 0x0 PUSH1 0x20 DUP5 ADD RETURNDATACOPY PUSH2 0x351 JUMP JUMPDEST PUSH1 0x60 SWAP2 POP JUMPDEST POP SWAP2 POP SWAP2 POP POP POP POP JUMP JUMPDEST PUSH1 0x2 PUSH1 0x20 MSTORE DUP1 PUSH1 0x0 MSTORE PUSH1 0x40 PUSH1 0x0 KECCAK256 PUSH1 0x0 SWAP2 POP SWAP1 POP SLOAD DUP2 JUMP JUMPDEST PUSH1 0x0 SLOAD PUSH2 0x37F CALLVALUE PUSH2 0x4A8 JUMP JUMPDEST LT ISZERO PUSH2 0x3C0 JUMPI PUSH1 0x40 MLOAD PUSH32 0x8C379A000000000000000000000000000000000000000000000000000000000 DUP2 MSTORE PUSH1 0x4 ADD PUSH2 0x3B7 SWAP1 PUSH2 0x95D JUMP JUMPDEST PUSH1 0x40 MLOAD DUP1 SWAP2 SUB SWAP1 REVERT JUMPDEST PUSH1 0x1 CALLER SWAP1 DUP1 PUSH1 0x1 DUP2 SLOAD ADD DUP1 DUP3 SSTORE DUP1 SWAP2 POP POP PUSH1 0x1 SWAP1 SUB SWAP1 PUSH1 0x0 MSTORE PUSH1 0x20 PUSH1 0x0 KECCAK256 ADD PUSH1 0x0 SWAP1 SWAP2 SWAP1 SWAP2 SWAP1 SWAP2 PUSH2 0x100 EXP DUP2 SLOAD DUP2 PUSH20 0xFFFFFFFFFFFFFFFFFFFFFFFFFFFFFFFFFFFFFFFF MUL NOT AND SWAP1 DUP4 PUSH20 0xFFFFFFFFFFFFFFFFFFFFFFFFFFFFFFFFFFFFFFFF AND MUL OR SWAP1 SSTORE POP CALLVALUE PUSH1 0x2 PUSH1 0x0 CALLER PUSH20 0xFFFFFFFFFFFFFFFFFFFFFFFFFFFFFFFFFFFFFFFF AND PUSH20 0xFFFFFFFFFFFFFFFFFFFFFFFFFFFFFFFFFFFFFFFF AND DUP2 MSTORE PUSH1 0x20 ADD SWAP1 DUP2 MSTORE PUSH1 0x20 ADD PUSH1 0x0 KECCAK256 DUP2 SWAP1 SSTORE POP JUMP JUMPDEST PUSH1 0x1 DUP2 DUP2 SLOAD DUP2 LT PUSH2 0x479 JUMPI PUSH1 0x0 DUP1 REVERT JUMPDEST SWAP1 PUSH1 0x0 MSTORE PUSH1 0x20 PUSH1 0x0 KECCAK256 ADD PUSH1 0x0 SWAP2 POP SLOAD SWAP1 PUSH2 0x100 EXP SWAP1 DIV PUSH20 0xFFFFFFFFFFFFFFFFFFFFFFFFFFFFFFFFFFFFFFFF AND DUP2 JUMP JUMPDEST PUSH1 0x0 DUP1 PUSH2 0x4B3 PUSH2 0x4E2 JUMP JUMPDEST SWAP1 POP PUSH1 0x0 PUSH8 0xDE0B6B3A7640000 DUP5 DUP4 PUSH2 0x4CC SWAP2 SWAP1 PUSH2 0x97D JUMP JUMPDEST PUSH2 0x4D6 SWAP2 SWAP1 PUSH2 0xA06 JUMP JUMPDEST SWAP1 POP DUP1 SWAP3 POP POP POP SWAP2 SWAP1 POP JUMP JUMPDEST PUSH1 0x0 DUP1 PUSH20 0x8A753747A1FA494EC906CE90E9F37563A8AF630E SWAP1 POP PUSH1 0x0 DUP2 PUSH20 0xFFFFFFFFFFFFFFFFFFFFFFFFFFFFFFFFFFFFFFFF AND PUSH4 0xFEAF968C PUSH1 0x40 MLOAD DUP2 PUSH4 0xFFFFFFFF AND PUSH1 0xE0 SHL DUP2 MSTORE PUSH1 0x4 ADD PUSH1 0xA0 PUSH1 0x40 MLOAD DUP1 DUP4 SUB DUP2 DUP7 GAS STATICCALL ISZERO DUP1 ISZERO PUSH2 0x549 JUMPI RETURNDATASIZE PUSH1 0x0 DUP1 RETURNDATACOPY RETURNDATASIZE PUSH1 0x0 REVERT JUMPDEST POP POP POP POP PUSH1 0x40 MLOAD RETURNDATASIZE PUSH1 0x1F NOT PUSH1 0x1F DUP3 ADD AND DUP3 ADD DUP1 PUSH1 0x40 MSTORE POP DUP2 ADD SWAP1 PUSH2 0x56D SWAP2 SWAP1 PUSH2 0xAC4 JUMP JUMPDEST POP POP POP SWAP2 POP POP PUSH5 0x2540BE400 DUP2 PUSH2 0x584 SWAP2 SWAP1 PUSH2 0xB3F JUMP JUMPDEST SWAP3 POP POP POP SWAP1 JUMP JUMPDEST DUP3 DUP1 SLOAD DUP3 DUP3 SSTORE SWAP1 PUSH1 0x0 MSTORE PUSH1 0x20 PUSH1 0x0 KECCAK256 SWAP1 DUP2 ADD SWAP3 DUP3 ISZERO PUSH2 0x604 JUMPI SWAP2 PUSH1 0x20 MUL DUP3 ADD JUMPDEST DUP3 DUP2 GT ISZERO PUSH2 0x603 JUMPI DUP3 MLOAD DUP3 PUSH1 0x0 PUSH2 0x100 EXP DUP2 SLOAD DUP2 PUSH20 0xFFFFFFFFFFFFFFFFFFFFFFFFFFFFFFFFFFFFFFFF MUL NOT AND SWAP1 DUP4 PUSH20 0xFFFFFFFFFFFFFFFFFFFFFFFFFFFFFFFFFFFFFFFF AND MUL OR SWAP1 SSTORE POP SWAP2 PUSH1 0x20 ADD SWAP2 SWAP1 PUSH1 0x1 ADD SWAP1 PUSH2 0x5AB JUMP JUMPDEST JUMPDEST POP SWAP1 POP PUSH2 0x611 SWAP2 SWAP1 PUSH2 0x615 JUMP JUMPDEST POP SWAP1 JUMP JUMPDEST JUMPDEST DUP1 DUP3 GT ISZERO PUSH2 0x62E JUMPI PUSH1 0x0 DUP2 PUSH1 0x0 SWAP1 SSTORE POP PUSH1 0x1 ADD PUSH2 0x616 JUMP JUMPDEST POP SWAP1 JUMP JUMPDEST PUSH1 0x0 DUP2 SWAP1 POP SWAP2 SWAP1 POP JUMP JUMPDEST PUSH2 0x645 DUP2 PUSH2 0x632 JUMP JUMPDEST DUP3 MSTORE POP POP JUMP JUMPDEST PUSH1 0x0 PUSH1 0x20 DUP3 ADD SWAP1 POP PUSH2 0x660 PUSH1 0x0 DUP4 ADD DUP5 PUSH2 0x63C JUMP JUMPDEST SWAP3 SWAP2 POP POP JUMP JUMPDEST PUSH1 0x0 DUP1 REVERT JUMPDEST PUSH1 0x0 PUSH20 0xFFFFFFFFFFFFFFFFFFFFFFFFFFFFFFFFFFFFFFFF DUP3 AND SWAP1 POP SWAP2 SWAP1 POP JUMP JUMPDEST PUSH1 0x0 PUSH2 0x696 DUP3 PUSH2 0x66B JUMP JUMPDEST SWAP1 POP SWAP2 SWAP1 POP JUMP JUMPDEST PUSH2 0x6A6 DUP2 PUSH2 0x68B JUMP JUMPDEST DUP2 EQ PUSH2 0x6B1 JUMPI PUSH1 0x0 DUP1 REVERT JUMPDEST POP JUMP JUMPDEST PUSH1 0x0 DUP2 CALLDATALOAD SWAP1 POP PUSH2 0x6C3 DUP2 PUSH2 0x69D JUMP JUMPDEST SWAP3 SWAP2 POP POP JUMP JUMPDEST PUSH1 0x0 PUSH1 0x20 DUP3 DUP5 SUB SLT ISZERO PUSH2 0x6DF JUMPI PUSH2 0x6DE PUSH2 0x666 JUMP JUMPDEST JUMPDEST PUSH1 0x0 PUSH2 0x6ED DUP5 DUP3 DUP6 ADD PUSH2 0x6B4 JUMP JUMPDEST SWAP2 POP POP SWAP3 SWAP2 POP POP JUMP JUMPDEST PUSH2 0x6FF DUP2 PUSH2 0x632 JUMP JUMPDEST DUP2 EQ PUSH2 0x70A JUMPI PUSH1 0x0 DUP1 REVERT JUMPDEST POP JUMP JUMPDEST PUSH1 0x0 DUP2 CALLDATALOAD SWAP1 POP PUSH2 0x71C DUP2 PUSH2 0x6F6 JUMP JUMPDEST SWAP3 SWAP2 POP POP JUMP JUMPDEST PUSH1 0x0 PUSH1 0x20 DUP3 DUP5 SUB SLT ISZERO PUSH2 0x738 JUMPI PUSH2 0x737 PUSH2 0x666 JUMP JUMPDEST JUMPDEST PUSH1 0x0 PUSH2 0x746 DUP5 DUP3 DUP6 ADD PUSH2 0x70D JUMP JUMPDEST SWAP2 POP POP SWAP3 SWAP2 POP POP JUMP JUMPDEST PUSH2 0x758 DUP2 PUSH2 0x68B JUMP JUMPDEST DUP3 MSTORE POP POP JUMP JUMPDEST PUSH1 0x0 PUSH1 0x20 DUP3 ADD SWAP1 POP PUSH2 0x773 PUSH1 0x0 DUP4 ADD DUP5 PUSH2 0x74F JUMP JUMPDEST SWAP3 SWAP2 POP POP JUMP JUMPDEST PUSH32 0x4E487B7100000000000000000000000000000000000000000000000000000000 PUSH1 0x0 MSTORE PUSH1 0x32 PUSH1 0x4 MSTORE PUSH1 0x24 PUSH1 0x0 REVERT JUMPDEST PUSH32 0x4E487B7100000000000000000000000000000000000000000000000000000000 PUSH1 0x0 MSTORE PUSH1 0x11 PUSH1 0x4 MSTORE PUSH1 0x24 PUSH1 0x0 REVERT JUMPDEST PUSH1 0x0 PUSH2 0x7E2 DUP3 PUSH2 0x632 JUMP JUMPDEST SWAP2 POP PUSH32 0xFFFFFFFFFFFFFFFFFFFFFFFFFFFFFFFFFFFFFFFFFFFFFFFFFFFFFFFFFFFFFFFF DUP3 SUB PUSH2 0x814 JUMPI PUSH2 0x813 PUSH2 0x7A8 JUMP JUMPDEST JUMPDEST PUSH1 0x1 DUP3 ADD SWAP1 POP SWAP2 SWAP1 POP JUMP JUMPDEST PUSH32 0x4E487B7100000000000000000000000000000000000000000000000000000000 PUSH1 0x0 MSTORE PUSH1 0x41 PUSH1 0x4 MSTORE PUSH1 0x24 PUSH1 0x0 REVERT JUMPDEST PUSH1 0x0 DUP3 DUP3 MSTORE PUSH1 0x20 DUP3 ADD SWAP1 POP SWAP3 SWAP2 POP POP JUMP JUMPDEST PUSH32 0x436F756C64206E6F742073656E64000000000000000000000000000000000000 PUSH1 0x0 DUP3 ADD MSTORE POP JUMP JUMPDEST PUSH1 0x0 PUSH2 0x895 PUSH1 0xE DUP4 PUSH2 0x84E JUMP JUMPDEST SWAP2 POP PUSH2 0x8A0 DUP3 PUSH2 0x85F JUMP JUMPDEST PUSH1 0x20 DUP3 ADD SWAP1 POP SWAP2 SWAP1 POP JUMP JUMPDEST PUSH1 0x0 PUSH1 0x20 DUP3 ADD SWAP1 POP DUP2 DUP2 SUB PUSH1 0x0 DUP4 ADD MSTORE PUSH2 0x8C4 DUP2 PUSH2 0x888 JUMP JUMPDEST SWAP1 POP SWAP2 SWAP1 POP JUMP JUMPDEST PUSH1 0x0 DUP2 SWAP1 POP SWAP3 SWAP2 POP POP JUMP JUMPDEST POP JUMP JUMPDEST PUSH1 0x0 PUSH2 0x8E6 PUSH1 0x0 DUP4 PUSH2 0x8CB JUMP JUMPDEST SWAP2 POP PUSH2 0x8F1 DUP3 PUSH2 0x8D6 JUMP JUMPDEST PUSH1 0x0 DUP3 ADD SWAP1 POP SWAP2 SWAP1 POP JUMP JUMPDEST PUSH1 0x0 PUSH2 0x907 DUP3 PUSH2 0x8D9 JUMP JUMPDEST SWAP2 POP DUP2 SWAP1 POP SWAP2 SWAP1 POP JUMP JUMPDEST PUSH32 0x4469646E27742073656E6420656E6F7567680000000000000000000000000000 PUSH1 0x0 DUP3 ADD MSTORE POP JUMP JUMPDEST PUSH1 0x0 PUSH2 0x947 PUSH1 0x12 DUP4 PUSH2 0x84E JUMP JUMPDEST SWAP2 POP PUSH2 0x952 DUP3 PUSH2 0x911 JUMP JUMPDEST PUSH1 0x20 DUP3 ADD SWAP1 POP SWAP2 SWAP1 POP JUMP JUMPDEST PUSH1 0x0 PUSH1 0x20 DUP3 ADD SWAP1 POP DUP2 DUP2 SUB PUSH1 0x0 DUP4 ADD MSTORE PUSH2 0x976 DUP2 PUSH2 0x93A JUMP JUMPDEST SWAP1 POP SWAP2 SWAP1 POP JUMP JUMPDEST PUSH1 0x0 PUSH2 0x988 DUP3 PUSH2 0x632 JUMP JUMPDEST SWAP2 POP PUSH2 0x993 DUP4 PUSH2 0x632 JUMP JUMPDEST SWAP3 POP DUP2 PUSH32 0xFFFFFFFFFFFFFFFFFFFFFFFFFFFFFFFFFFFFFFFFFFFFFFFFFFFFFFFFFFFFFFFF DIV DUP4 GT DUP3 ISZERO ISZERO AND ISZERO PUSH2 0x9CC JUMPI PUSH2 0x9CB PUSH2 0x7A8 JUMP JUMPDEST JUMPDEST DUP3 DUP3 MUL SWAP1 POP SWAP3 SWAP2 POP POP JUMP JUMPDEST PUSH32 0x4E487B7100000000000000000000000000000000000000000000000000000000 PUSH1 0x0 MSTORE PUSH1 0x12 PUSH1 0x4 MSTORE PUSH1 0x24 PUSH1 0x0 REVERT JUMPDEST PUSH1 0x0 PUSH2 0xA11 DUP3 PUSH2 0x632 JUMP JUMPDEST SWAP2 POP PUSH2 0xA1C DUP4 PUSH2 0x632 JUMP JUMPDEST SWAP3 POP DUP3 PUSH2 0xA2C JUMPI PUSH2 0xA2B PUSH2 0x9D7 JUMP JUMPDEST JUMPDEST DUP3 DUP3 DIV SWAP1 POP SWAP3 SWAP2 POP POP JUMP JUMPDEST PUSH1 0x0 PUSH10 0xFFFFFFFFFFFFFFFFFFFF DUP3 AND SWAP1 POP SWAP2 SWAP1 POP JUMP JUMPDEST PUSH2 0xA56 DUP2 PUSH2 0xA37 JUMP JUMPDEST DUP2 EQ PUSH2 0xA61 JUMPI PUSH1 0x0 DUP1 REVERT JUMPDEST POP JUMP JUMPDEST PUSH1 0x0 DUP2 MLOAD SWAP1 POP PUSH2 0xA73 DUP2 PUSH2 0xA4D JUMP JUMPDEST SWAP3 SWAP2 POP POP JUMP JUMPDEST PUSH1 0x0 DUP2 SWAP1 POP SWAP2 SWAP1 POP JUMP JUMPDEST PUSH2 0xA8C DUP2 PUSH2 0xA79 JUMP JUMPDEST DUP2 EQ PUSH2 0xA97 JUMPI PUSH1 0x0 DUP1 REVERT JUMPDEST POP JUMP JUMPDEST PUSH1 0x0 DUP2 MLOAD SWAP1 POP PUSH2 0xAA9 DUP2 PUSH2 0xA83 JUMP JUMPDEST SWAP3 SWAP2 POP POP JUMP JUMPDEST PUSH1 0x0 DUP2 MLOAD SWAP1 POP PUSH2 0xABE DUP2 PUSH2 0x6F6 JUMP JUMPDEST SWAP3 SWAP2 POP POP JUMP JUMPDEST PUSH1 0x0 DUP1 PUSH1 0x0 DUP1 PUSH1 0x0 PUSH1 0xA0 DUP7 DUP9 SUB SLT ISZERO PUSH2 0xAE0 JUMPI PUSH2 0xADF PUSH2 0x666 JUMP JUMPDEST JUMPDEST PUSH1 0x0 PUSH2 0xAEE DUP9 DUP3 DUP10 ADD PUSH2 0xA64 JUMP JUMPDEST SWAP6 POP POP PUSH1 0x20 PUSH2 0xAFF DUP9 DUP3 DUP10 ADD PUSH2 0xA9A JUMP JUMPDEST SWAP5 POP POP PUSH1 0x40 PUSH2 0xB10 DUP9 DUP3 DUP10 ADD PUSH2 0xAAF JUMP JUMPDEST SWAP4 POP POP PUSH1 0x60 PUSH2 0xB21 DUP9 DUP3 DUP10 ADD PUSH2 0xAAF JUMP JUMPDEST SWAP3 POP POP PUSH1 0x80 PUSH2 0xB32 DUP9 DUP3 DUP10 ADD PUSH2 0xA64 JUMP JUMPDEST SWAP2 POP POP SWAP3 SWAP6 POP SWAP3 SWAP6 SWAP1 SWAP4 POP JUMP JUMPDEST PUSH1 0x0 PUSH2 0xB4A DUP3 PUSH2 0xA79 JUMP JUMPDEST SWAP2 POP PUSH2 0xB55 DUP4 PUSH2 0xA79 JUMP JUMPDEST SWAP3 POP DUP3 PUSH32 0x7FFFFFFFFFFFFFFFFFFFFFFFFFFFFFFFFFFFFFFFFFFFFFFFFFFFFFFFFFFFFFFF DIV DUP3 GT PUSH1 0x0 DUP5 SGT PUSH1 0x0 DUP5 SGT AND AND ISZERO PUSH2 0xB94 JUMPI PUSH2 0xB93 PUSH2 0x7A8 JUMP JUMPDEST JUMPDEST DUP2 PUSH32 0x8000000000000000000000000000000000000000000000000000000000000000 SDIV DUP4 SLT PUSH1 0x0 DUP5 SLT PUSH1 0x0 DUP5 SGT AND AND ISZERO PUSH2 0xBD1 JUMPI PUSH2 0xBD0 PUSH2 0x7A8 JUMP JUMPDEST JUMPDEST DUP3 PUSH32 0x8000000000000000000000000000000000000000000000000000000000000000 SDIV DUP3 SLT PUSH1 0x0 DUP5 SGT PUSH1 0x0 DUP5 SLT AND AND ISZERO PUSH2 0xC0E JUMPI PUSH2 0xC0D PUSH2 0x7A8 JUMP JUMPDEST JUMPDEST DUP3 PUSH32 0x7FFFFFFFFFFFFFFFFFFFFFFFFFFFFFFFFFFFFFFFFFFFFFFFFFFFFFFFFFFFFFFF SDIV DUP3 SLT PUSH1 0x0 DUP5 SLT PUSH1 0x0 DUP5 SLT AND AND ISZERO PUSH2 0xC4B JUMPI PUSH2 0xC4A PUSH2 0x7A8 JUMP JUMPDEST JUMPDEST DUP3 DUP3 MUL SWAP1 POP SWAP3 SWAP2 POP POP JUMP INVALID LOG2 PUSH5 0x6970667358 0x22 SLT KECCAK256 0xF7 0x22 0x24 0xD8 0x5F 0x4D 0xCB EXTCODESIZE 0x1F LOG4 DUP12 SWAP10 SWAP1 0x5E 0xFC 0xEA PUSH3 0x7908F7 DUP15 0xCA SWAP4 0xCC 0xF6 0xB2 PUSH32 0xEE96C007A264736F6C634300080F003300000000000000000000000000000000 "
				},
				"gasEstimates": {
					"creation": {
						"codeDepositCost": "642400",
						"executionCost": "22782",
						"totalCost": "665182"
					},
					"external": {
						"addressToAmountFunded(address)": "2836",
						"fund()": "infinite",
						"funders(uint256)": "5022",
						"minimumUsd()": "2407",
						"withdraw()": "infinite"
					}
				},
				"methodIdentifiers": {
					"addressToAmountFunded(address)": "3e47d6f3",
					"fund()": "b60d4288",
					"funders(uint256)": "dc0d3dff",
					"minimumUsd()": "098de820",
					"withdraw()": "3ccfd60b"
				}
			},
			"storageLayout": {
				"storage": [
					{
						"astId": 56,
						"contract": "contracts/FundMe.sol:FundMe",
						"label": "minimumUsd",
						"offset": 0,
						"slot": "0",
						"type": "t_uint256"
					},
					{
						"astId": 59,
						"contract": "contracts/FundMe.sol:FundMe",
						"label": "funders",
						"offset": 0,
						"slot": "1",
						"type": "t_array(t_address)dyn_storage"
					},
					{
						"astId": 63,
						"contract": "contracts/FundMe.sol:FundMe",
						"label": "addressToAmountFunded",
						"offset": 0,
						"slot": "2",
						"type": "t_mapping(t_address,t_uint256)"
					}
				],
				"types": {
					"t_address": {
						"encoding": "inplace",
						"label": "address",
						"numberOfBytes": "20"
					},
					"t_array(t_address)dyn_storage": {
						"base": "t_address",
						"encoding": "dynamic_array",
						"label": "address[]",
						"numberOfBytes": "32"
					},
					"t_mapping(t_address,t_uint256)": {
						"encoding": "mapping",
						"key": "t_address",
						"label": "mapping(address => uint256)",
						"numberOfBytes": "32",
						"value": "t_uint256"
					},
					"t_uint256": {
						"encoding": "inplace",
						"label": "uint256",
						"numberOfBytes": "32"
					}
				}
			},
			"userdoc": {
				"kind": "user",
				"methods": {},
				"version": 1
			}
		}
	}
}