{
	"contracts/FundMe.sol": {
		"FundMe": {
			"abi": [
				{
					"inputs": [
						{
							"internalType": "address",
							"name": "",
							"type": "address"
						}
					],
					"name": "addressToAmountFunded",
					"outputs": [
						{
							"internalType": "uint256",
							"name": "",
							"type": "uint256"
						}
					],
					"stateMutability": "view",
					"type": "function"
				},
				{
					"inputs": [],
					"name": "fund",
					"outputs": [],
					"stateMutability": "payable",
					"type": "function"
				},
				{
					"inputs": [
						{
							"internalType": "uint256",
							"name": "",
							"type": "uint256"
						}
					],
					"name": "funders",
					"outputs": [
						{
							"internalType": "address",
							"name": "",
							"type": "address"
						}
					],
					"stateMutability": "view",
					"type": "function"
				},
				{
					"inputs": [],
					"name": "minimumUsd",
					"outputs": [
						{
							"internalType": "uint256",
							"name": "",
							"type": "uint256"
						}
					],
					"stateMutability": "view",
					"type": "function"
				},
				{
					"inputs": [],
					"name": "withdraw",
					"outputs": [],
					"stateMutability": "nonpayable",
					"type": "function"
				}
			],
			"devdoc": {
				"kind": "dev",
				"methods": {},
				"version": 1
			},
			"evm": {
				"assembly": "    /* \"contracts/FundMe.sol\":168:1682  contract FundMe{... */\n  mstore(0x40, 0x80)\n    /* \"contracts/FundMe.sol\":257:266  50 * 1e18 */\n  0x02b5e3af16b1880000\n    /* \"contracts/FundMe.sol\":229:266  uint256 public minimumUsd = 50 * 1e18 */\n  0x00\n  sstore\n    /* \"contracts/FundMe.sol\":168:1682  contract FundMe{... */\n  callvalue\n  dup1\n  iszero\n  tag_1\n  jumpi\n  0x00\n  dup1\n  revert\ntag_1:\n  pop\n  dataSize(sub_0)\n  dup1\n  dataOffset(sub_0)\n  0x00\n  codecopy\n  0x00\n  return\nstop\n\nsub_0: assembly {\n        /* \"contracts/FundMe.sol\":168:1682  contract FundMe{... */\n      mstore(0x40, 0x80)\n      jumpi(tag_1, lt(calldatasize, 0x04))\n      shr(0xe0, calldataload(0x00))\n      dup1\n      0x098de820\n      eq\n      tag_2\n      jumpi\n      dup1\n      0x3ccfd60b\n      eq\n      tag_3\n      jumpi\n      dup1\n      0x3e47d6f3\n      eq\n      tag_4\n      jumpi\n      dup1\n      0xb60d4288\n      eq\n      tag_5\n      jumpi\n      dup1\n      0xdc0d3dff\n      eq\n      tag_6\n      jumpi\n    tag_1:\n      0x00\n      dup1\n      revert\n        /* \"contracts/FundMe.sol\":229:266  uint256 public minimumUsd = 50 * 1e18 */\n    tag_2:\n      callvalue\n      dup1\n      iszero\n      tag_7\n      jumpi\n      0x00\n      dup1\n      revert\n    tag_7:\n      pop\n      tag_8\n      tag_9\n      jump\t// in\n    tag_8:\n      mload(0x40)\n      tag_10\n      swap2\n      swap1\n      tag_11\n      jump\t// in\n    tag_10:\n      mload(0x40)\n      dup1\n      swap2\n      sub\n      swap1\n      return\n        /* \"contracts/FundMe.sol\":817:1680  function withdraw() public {... */\n    tag_3:\n      callvalue\n      dup1\n      iszero\n      tag_12\n      jumpi\n      0x00\n      dup1\n      revert\n    tag_12:\n      pop\n      tag_13\n      tag_14\n      jump\t// in\n    tag_13:\n      stop\n        /* \"contracts/FundMe.sol\":303:359  mapping(address => uint256) public addressToAmountFunded */\n    tag_4:\n      callvalue\n      dup1\n      iszero\n      tag_15\n      jumpi\n      0x00\n      dup1\n      revert\n    tag_15:\n      pop\n      tag_16\n      0x04\n      dup1\n      calldatasize\n      sub\n      dup2\n      add\n      swap1\n      tag_17\n      swap2\n      swap1\n      tag_18\n      jump\t// in\n    tag_17:\n      tag_19\n      jump\t// in\n    tag_16:\n      mload(0x40)\n      tag_20\n      swap2\n      swap1\n      tag_11\n      jump\t// in\n    tag_20:\n      mload(0x40)\n      dup1\n      swap2\n      sub\n      swap1\n      return\n        /* \"contracts/FundMe.sol\":366:811  function fund() public payable{ ... */\n    tag_5:\n      tag_21\n      tag_22\n      jump\t// in\n    tag_21:\n      stop\n        /* \"contracts/FundMe.sol\":273:297  address[] public funders */\n    tag_6:\n      callvalue\n      dup1\n      iszero\n      tag_23\n      jumpi\n      0x00\n      dup1\n      revert\n    tag_23:\n      pop\n      tag_24\n      0x04\n      dup1\n      calldatasize\n      sub\n      dup2\n      add\n      swap1\n      tag_25\n      swap2\n      swap1\n      tag_26\n      jump\t// in\n    tag_25:\n      tag_27\n      jump\t// in\n    tag_24:\n      mload(0x40)\n      tag_28\n      swap2\n      swap1\n      tag_29\n      jump\t// in\n    tag_28:\n      mload(0x40)\n      dup1\n      swap2\n      sub\n      swap1\n      return\n        /* \"contracts/FundMe.sol\":229:266  uint256 public minimumUsd = 50 * 1e18 */\n    tag_9:\n      sload(0x00)\n      dup2\n      jump\t// out\n        /* \"contracts/FundMe.sol\":817:1680  function withdraw() public {... */\n    tag_14:\n        /* \"contracts/FundMe.sol\":859:878  uint256 funderIndex */\n      0x00\n        /* \"contracts/FundMe.sol\":855:1038  for(uint256 funderIndex = 0; funderIndex < funders.length; funderIndex++ ){... */\n    tag_31:\n        /* \"contracts/FundMe.sol\":898:905  funders */\n      0x01\n        /* \"contracts/FundMe.sol\":898:912  funders.length */\n      dup1\n      sload\n      swap1\n      pop\n        /* \"contracts/FundMe.sol\":884:895  funderIndex */\n      dup2\n        /* \"contracts/FundMe.sol\":884:912  funderIndex < funders.length */\n      lt\n        /* \"contracts/FundMe.sol\":855:1038  for(uint256 funderIndex = 0; funderIndex < funders.length; funderIndex++ ){... */\n      iszero\n      tag_32\n      jumpi\n        /* \"contracts/FundMe.sol\":943:957  address funder */\n      0x00\n        /* \"contracts/FundMe.sol\":960:967  funders */\n      0x01\n        /* \"contracts/FundMe.sol\":968:979  funderIndex */\n      dup3\n        /* \"contracts/FundMe.sol\":960:980  funders[funderIndex] */\n      dup2\n      sload\n      dup2\n      lt\n      tag_34\n      jumpi\n      tag_35\n      tag_36\n      jump\t// in\n    tag_35:\n    tag_34:\n      swap1\n      0x00\n      mstore\n      keccak256(0x00, 0x20)\n      add\n      0x00\n      swap1\n      sload\n      swap1\n      0x0100\n      exp\n      swap1\n      div\n      0xffffffffffffffffffffffffffffffffffffffff\n      and\n        /* \"contracts/FundMe.sol\":943:980  address funder = funders[funderIndex] */\n      swap1\n      pop\n        /* \"contracts/FundMe.sol\":1026:1027  0 */\n      0x00\n        /* \"contracts/FundMe.sol\":994:1015  addressToAmountFunded */\n      0x02\n        /* \"contracts/FundMe.sol\":994:1023  addressToAmountFunded[funder] */\n      0x00\n        /* \"contracts/FundMe.sol\":1016:1022  funder */\n      dup4\n        /* \"contracts/FundMe.sol\":994:1023  addressToAmountFunded[funder] */\n      0xffffffffffffffffffffffffffffffffffffffff\n      and\n      0xffffffffffffffffffffffffffffffffffffffff\n      and\n      dup2\n      mstore\n      0x20\n      add\n      swap1\n      dup2\n      mstore\n      0x20\n      add\n      0x00\n      keccak256\n        /* \"contracts/FundMe.sol\":994:1027  addressToAmountFunded[funder] = 0 */\n      dup2\n      swap1\n      sstore\n      pop\n        /* \"contracts/FundMe.sol\":929:1038  {... */\n      pop\n        /* \"contracts/FundMe.sol\":914:927  funderIndex++ */\n      dup1\n      dup1\n      tag_38\n      swap1\n      tag_39\n      jump\t// in\n    tag_38:\n      swap2\n      pop\n      pop\n        /* \"contracts/FundMe.sol\":855:1038  for(uint256 funderIndex = 0; funderIndex < funders.length; funderIndex++ ){... */\n      jump(tag_31)\n    tag_32:\n      pop\n        /* \"contracts/FundMe.sol\":1097:1098  0 */\n      0x00\n        /* \"contracts/FundMe.sol\":1083:1099  new address[](0) */\n      0xffffffffffffffff\n      dup2\n      gt\n      iszero\n      tag_40\n      jumpi\n      tag_41\n      tag_42\n      jump\t// in\n    tag_41:\n    tag_40:\n      mload(0x40)\n      swap1\n      dup1\n      dup3\n      mstore\n      dup1\n      0x20\n      mul\n      0x20\n      add\n      dup3\n      add\n      0x40\n      mstore\n      dup1\n      iszero\n      tag_43\n      jumpi\n      dup2\n      0x20\n      add\n      0x20\n      dup3\n      mul\n      dup1\n      calldatasize\n      dup4\n      calldatacopy\n      dup1\n      dup3\n      add\n      swap2\n      pop\n      pop\n      swap1\n      pop\n    tag_43:\n      pop\n        /* \"contracts/FundMe.sol\":1073:1080  funders */\n      0x01\n        /* \"contracts/FundMe.sol\":1073:1099  funders = new address[](0) */\n      swap1\n      dup1\n      mload\n      swap1\n      0x20\n      add\n      swap1\n      tag_44\n      swap3\n      swap2\n      swap1\n      tag_45\n      jump\t// in\n    tag_44:\n      pop\n        /* \"contracts/FundMe.sol\":1342:1358  bool sendSuccess */\n      0x00\n        /* \"contracts/FundMe.sol\":1369:1379  msg.sender */\n      caller\n        /* \"contracts/FundMe.sol\":1361:1385  payable(msg.sender).send */\n      0xffffffffffffffffffffffffffffffffffffffff\n      and\n        /* \"contracts/FundMe.sol\":1361:1408  payable(msg.sender).send(address(this).balance) */\n      0x08fc\n        /* \"contracts/FundMe.sol\":1386:1407  address(this).balance */\n      selfbalance\n        /* \"contracts/FundMe.sol\":1361:1408  payable(msg.sender).send(address(this).balance) */\n      swap1\n      dup2\n      iszero\n      mul\n      swap1\n      mload(0x40)\n      0x00\n      mload(0x40)\n      dup1\n      dup4\n      sub\n      dup2\n      dup6\n      dup9\n      dup9\n      call\n      swap4\n      pop\n      pop\n      pop\n      pop\n        /* \"contracts/FundMe.sol\":1342:1408  bool sendSuccess = payable(msg.sender).send(address(this).balance) */\n      swap1\n      pop\n        /* \"contracts/FundMe.sol\":1430:1441  sendSuccess */\n      dup1\n        /* \"contracts/FundMe.sol\":1422:1460  require(sendSuccess, \"Could not send\") */\n      tag_47\n      jumpi\n      mload(0x40)\n      0x08c379a000000000000000000000000000000000000000000000000000000000\n      dup2\n      mstore\n      0x04\n      add\n      tag_48\n      swap1\n      tag_49\n      jump\t// in\n    tag_48:\n      mload(0x40)\n      dup1\n      swap2\n      sub\n      swap1\n      revert\n    tag_47:\n        /* \"contracts/FundMe.sol\":1490:1506  bool callSuccess */\n      0x00\n        /* \"contracts/FundMe.sol\":1574:1584  msg.sender */\n      caller\n        /* \"contracts/FundMe.sol\":1566:1590  payable(msg.sender).call */\n      0xffffffffffffffffffffffffffffffffffffffff\n      and\n        /* \"contracts/FundMe.sol\":1598:1619  address(this).balance */\n      selfbalance\n        /* \"contracts/FundMe.sol\":1566:1624  payable(msg.sender).call{value: address(this).balance}(\"\") */\n      mload(0x40)\n      tag_50\n      swap1\n      tag_51\n      jump\t// in\n    tag_50:\n      0x00\n      mload(0x40)\n      dup1\n      dup4\n      sub\n      dup2\n      dup6\n      dup8\n      gas\n      call\n      swap3\n      pop\n      pop\n      pop\n      returndatasize\n      dup1\n      0x00\n      dup2\n      eq\n      tag_54\n      jumpi\n      mload(0x40)\n      swap2\n      pop\n      and(add(returndatasize, 0x3f), not(0x1f))\n      dup3\n      add\n      0x40\n      mstore\n      returndatasize\n      dup3\n      mstore\n      returndatasize\n      0x00\n      0x20\n      dup5\n      add\n      returndatacopy\n      jump(tag_53)\n    tag_54:\n      0x60\n      swap2\n      pop\n    tag_53:\n      pop\n        /* \"contracts/FundMe.sol\":1489:1624  (bool callSuccess, /*bytes memory dataReturned  <-not necessary for now*/) = payable(msg.sender).call{value: address(this).balance}(\"\") */\n      pop\n      swap1\n      pop\n        /* \"contracts/FundMe.sol\":1646:1657  callSuccess */\n      dup1\n        /* \"contracts/FundMe.sol\":1638:1672  require(callSuccess,\"Call failed\") */\n      tag_55\n      jumpi\n      mload(0x40)\n      0x08c379a000000000000000000000000000000000000000000000000000000000\n      dup2\n      mstore\n      0x04\n      add\n      tag_56\n      swap1\n      tag_57\n      jump\t// in\n    tag_56:\n      mload(0x40)\n      dup1\n      swap2\n      sub\n      swap1\n      revert\n    tag_55:\n        /* \"contracts/FundMe.sol\":844:1680  {... */\n      pop\n      pop\n        /* \"contracts/FundMe.sol\":817:1680  function withdraw() public {... */\n      jump\t// out\n        /* \"contracts/FundMe.sol\":303:359  mapping(address => uint256) public addressToAmountFunded */\n    tag_19:\n      mstore(0x20, 0x02)\n      dup1\n      0x00\n      mstore\n      keccak256(0x00, 0x40)\n      0x00\n      swap2\n      pop\n      swap1\n      pop\n      sload\n      dup2\n      jump\t// out\n        /* \"contracts/FundMe.sol\":366:811  function fund() public payable{ ... */\n    tag_22:\n        /* \"contracts/FundMe.sol\":639:649  minimumUsd */\n      sload(0x00)\n        /* \"contracts/FundMe.sol\":606:635  msg.value.getConversionRate() */\n      tag_59\n        /* \"contracts/FundMe.sol\":606:615  msg.value */\n      callvalue\n        /* \"contracts/FundMe.sol\":606:633  msg.value.getConversionRate */\n      tag_60\n        /* \"contracts/FundMe.sol\":606:635  msg.value.getConversionRate() */\n      jump\t// in\n    tag_59:\n        /* \"contracts/FundMe.sol\":606:649  msg.value.getConversionRate() >= minimumUsd */\n      lt\n      iszero\n        /* \"contracts/FundMe.sol\":598:672  require(msg.value.getConversionRate() >= minimumUsd, \"Didn't send enough\") */\n      tag_61\n      jumpi\n      mload(0x40)\n      0x08c379a000000000000000000000000000000000000000000000000000000000\n      dup2\n      mstore\n      0x04\n      add\n      tag_62\n      swap1\n      tag_63\n      jump\t// in\n    tag_62:\n      mload(0x40)\n      dup1\n      swap2\n      sub\n      swap1\n      revert\n    tag_61:\n        /* \"contracts/FundMe.sol\":724:731  funders */\n      0x01\n        /* \"contracts/FundMe.sol\":737:747  msg.sender */\n      caller\n        /* \"contracts/FundMe.sol\":724:748  funders.push(msg.sender) */\n      swap1\n      dup1\n      0x01\n      dup2\n      sload\n      add\n      dup1\n      dup3\n      sstore\n      dup1\n      swap2\n      pop\n      pop\n      0x01\n      swap1\n      sub\n      swap1\n      0x00\n      mstore\n      keccak256(0x00, 0x20)\n      add\n      0x00\n      swap1\n      swap2\n      swap1\n      swap2\n      swap1\n      swap2\n      0x0100\n      exp\n      dup2\n      sload\n      dup2\n      0xffffffffffffffffffffffffffffffffffffffff\n      mul\n      not\n      and\n      swap1\n      dup4\n      0xffffffffffffffffffffffffffffffffffffffff\n      and\n      mul\n      or\n      swap1\n      sstore\n      pop\n        /* \"contracts/FundMe.sol\":794:803  msg.value */\n      callvalue\n        /* \"contracts/FundMe.sol\":758:779  addressToAmountFunded */\n      0x02\n        /* \"contracts/FundMe.sol\":758:791  addressToAmountFunded[msg.sender] */\n      0x00\n        /* \"contracts/FundMe.sol\":780:790  msg.sender */\n      caller\n        /* \"contracts/FundMe.sol\":758:791  addressToAmountFunded[msg.sender] */\n      0xffffffffffffffffffffffffffffffffffffffff\n      and\n      0xffffffffffffffffffffffffffffffffffffffff\n      and\n      dup2\n      mstore\n      0x20\n      add\n      swap1\n      dup2\n      mstore\n      0x20\n      add\n      0x00\n      keccak256\n        /* \"contracts/FundMe.sol\":758:803  addressToAmountFunded[msg.sender] = msg.value */\n      dup2\n      swap1\n      sstore\n      pop\n        /* \"contracts/FundMe.sol\":366:811  function fund() public payable{ ... */\n      jump\t// out\n        /* \"contracts/FundMe.sol\":273:297  address[] public funders */\n    tag_27:\n      0x01\n      dup2\n      dup2\n      sload\n      dup2\n      lt\n      tag_65\n      jumpi\n      0x00\n      dup1\n      revert\n    tag_65:\n      swap1\n      0x00\n      mstore\n      keccak256(0x00, 0x20)\n      add\n      0x00\n      swap2\n      pop\n      sload\n      swap1\n      0x0100\n      exp\n      swap1\n      div\n      0xffffffffffffffffffffffffffffffffffffffff\n      and\n      dup2\n      jump\t// out\n        /* \"contracts/PriceConverter.sol\":805:1024  function getConversionRate(uint256 ethAmount) internal view returns (uint256) {... */\n    tag_60:\n        /* \"contracts/PriceConverter.sol\":874:881  uint256 */\n      0x00\n        /* \"contracts/PriceConverter.sol\":894:910  uint256 ethPrice */\n      dup1\n        /* \"contracts/PriceConverter.sol\":912:922  getPrice() */\n      tag_68\n        /* \"contracts/PriceConverter.sol\":912:920  getPrice */\n      tag_69\n        /* \"contracts/PriceConverter.sol\":912:922  getPrice() */\n      jump\t// in\n    tag_68:\n        /* \"contracts/PriceConverter.sol\":894:922  uint256 ethPrice= getPrice() */\n      swap1\n      pop\n        /* \"contracts/PriceConverter.sol\":932:954  uint256 ethAmountInUsd */\n      0x00\n        /* \"contracts/PriceConverter.sol\":982:986  1e18 */\n      0x0de0b6b3a7640000\n        /* \"contracts/PriceConverter.sol\":969:978  ethAmount */\n      dup5\n        /* \"contracts/PriceConverter.sol\":958:966  ethPrice */\n      dup4\n        /* \"contracts/PriceConverter.sol\":958:978  ethPrice * ethAmount */\n      tag_70\n      swap2\n      swap1\n      tag_71\n      jump\t// in\n    tag_70:\n        /* \"contracts/PriceConverter.sol\":957:986  (ethPrice * ethAmount) / 1e18 */\n      tag_72\n      swap2\n      swap1\n      tag_73\n      jump\t// in\n    tag_72:\n        /* \"contracts/PriceConverter.sol\":932:986  uint256 ethAmountInUsd = (ethPrice * ethAmount) / 1e18 */\n      swap1\n      pop\n        /* \"contracts/PriceConverter.sol\":1003:1017  ethAmountInUsd */\n      dup1\n        /* \"contracts/PriceConverter.sol\":996:1017  return ethAmountInUsd */\n      swap3\n      pop\n      pop\n      pop\n        /* \"contracts/PriceConverter.sol\":805:1024  function getConversionRate(uint256 ethAmount) internal view returns (uint256) {... */\n      swap2\n      swap1\n      pop\n      jump\t// out\n        /* \"contracts/PriceConverter.sol\":166:587  function getPrice() internal view returns(uint256) {... */\n    tag_69:\n        /* \"contracts/PriceConverter.sol\":208:215  uint256 */\n      0x00\n        /* \"contracts/PriceConverter.sol\":308:339  AggregatorV3Interface priceFeed */\n      dup1\n        /* \"contracts/PriceConverter.sol\":364:406  0x8A753747A1Fa494EC906cE90E9f37563A8AF630e */\n      0x8a753747a1fa494ec906ce90e9f37563a8af630e\n        /* \"contracts/PriceConverter.sol\":308:407  AggregatorV3Interface priceFeed = AggregatorV3Interface(0x8A753747A1Fa494EC906cE90E9f37563A8AF630e) */\n      swap1\n      pop\n        /* \"contracts/PriceConverter.sol\":419:431  int256 price */\n      0x00\n        /* \"contracts/PriceConverter.sol\":438:447  priceFeed */\n      dup2\n        /* \"contracts/PriceConverter.sol\":438:463  priceFeed.latestRoundData */\n      0xffffffffffffffffffffffffffffffffffffffff\n      and\n      0xfeaf968c\n        /* \"contracts/PriceConverter.sol\":438:465  priceFeed.latestRoundData() */\n      mload(0x40)\n      dup2\n      0xffffffff\n      and\n      0xe0\n      shl\n      dup2\n      mstore\n      0x04\n      add\n      0xa0\n      mload(0x40)\n      dup1\n      dup4\n      sub\n      dup2\n      dup7\n      gas\n      staticcall\n      iszero\n      dup1\n      iszero\n      tag_76\n      jumpi\n      returndatasize\n      0x00\n      dup1\n      returndatacopy\n      revert(0x00, returndatasize)\n    tag_76:\n      pop\n      pop\n      pop\n      pop\n      mload(0x40)\n      returndatasize\n      not(0x1f)\n      0x1f\n      dup3\n      add\n      and\n      dup3\n      add\n      dup1\n      0x40\n      mstore\n      pop\n      dup2\n      add\n      swap1\n      tag_77\n      swap2\n      swap1\n      tag_78\n      jump\t// in\n    tag_77:\n        /* \"contracts/PriceConverter.sol\":417:465  (,int256 price,,,) = priceFeed.latestRoundData() */\n      pop\n      pop\n      pop\n      swap2\n      pop\n      pop\n        /* \"contracts/PriceConverter.sol\":552:556  1e10 */\n      0x02540be400\n        /* \"contracts/PriceConverter.sol\":544:549  price */\n      dup2\n        /* \"contracts/PriceConverter.sol\":544:556  price * 1e10 */\n      tag_79\n      swap2\n      swap1\n      tag_80\n      jump\t// in\n    tag_79:\n        /* \"contracts/PriceConverter.sol\":529:557  return uint256(price * 1e10) */\n      swap3\n      pop\n      pop\n      pop\n        /* \"contracts/PriceConverter.sol\":166:587  function getPrice() internal view returns(uint256) {... */\n      swap1\n      jump\t// out\n    tag_45:\n      dup3\n      dup1\n      sload\n      dup3\n      dup3\n      sstore\n      swap1\n      0x00\n      mstore\n      keccak256(0x00, 0x20)\n      swap1\n      dup2\n      add\n      swap3\n      dup3\n      iszero\n      tag_81\n      jumpi\n      swap2\n      0x20\n      mul\n      dup3\n      add\n    tag_82:\n      dup3\n      dup2\n      gt\n      iszero\n      tag_83\n      jumpi\n      dup3\n      mload\n      dup3\n      exp(0x0100, 0x00)\n      dup2\n      sload\n      dup2\n      0xffffffffffffffffffffffffffffffffffffffff\n      mul\n      not\n      and\n      swap1\n      dup4\n      0xffffffffffffffffffffffffffffffffffffffff\n      and\n      mul\n      or\n      swap1\n      sstore\n      pop\n      swap2\n      0x20\n      add\n      swap2\n      swap1\n      0x01\n      add\n      swap1\n      jump(tag_82)\n    tag_83:\n    tag_81:\n      pop\n      swap1\n      pop\n      tag_84\n      swap2\n      swap1\n      tag_85\n      jump\t// in\n    tag_84:\n      pop\n      swap1\n      jump\t// out\n    tag_85:\n    tag_86:\n      dup1\n      dup3\n      gt\n      iszero\n      tag_87\n      jumpi\n      0x00\n      dup2\n      0x00\n      swap1\n      sstore\n      pop\n      0x01\n      add\n      jump(tag_86)\n    tag_87:\n      pop\n      swap1\n      jump\t// out\n        /* \"#utility.yul\":7:84   */\n    tag_88:\n        /* \"#utility.yul\":44:51   */\n      0x00\n        /* \"#utility.yul\":73:78   */\n      dup2\n        /* \"#utility.yul\":62:78   */\n      swap1\n      pop\n        /* \"#utility.yul\":7:84   */\n      swap2\n      swap1\n      pop\n      jump\t// out\n        /* \"#utility.yul\":90:208   */\n    tag_89:\n        /* \"#utility.yul\":177:201   */\n      tag_122\n        /* \"#utility.yul\":195:200   */\n      dup2\n        /* \"#utility.yul\":177:201   */\n      tag_88\n      jump\t// in\n    tag_122:\n        /* \"#utility.yul\":172:175   */\n      dup3\n        /* \"#utility.yul\":165:202   */\n      mstore\n        /* \"#utility.yul\":90:208   */\n      pop\n      pop\n      jump\t// out\n        /* \"#utility.yul\":214:436   */\n    tag_11:\n        /* \"#utility.yul\":307:311   */\n      0x00\n        /* \"#utility.yul\":345:347   */\n      0x20\n        /* \"#utility.yul\":334:343   */\n      dup3\n        /* \"#utility.yul\":330:348   */\n      add\n        /* \"#utility.yul\":322:348   */\n      swap1\n      pop\n        /* \"#utility.yul\":358:429   */\n      tag_124\n        /* \"#utility.yul\":426:427   */\n      0x00\n        /* \"#utility.yul\":415:424   */\n      dup4\n        /* \"#utility.yul\":411:428   */\n      add\n        /* \"#utility.yul\":402:408   */\n      dup5\n        /* \"#utility.yul\":358:429   */\n      tag_89\n      jump\t// in\n    tag_124:\n        /* \"#utility.yul\":214:436   */\n      swap3\n      swap2\n      pop\n      pop\n      jump\t// out\n        /* \"#utility.yul\":523:640   */\n    tag_91:\n        /* \"#utility.yul\":632:633   */\n      0x00\n        /* \"#utility.yul\":629:630   */\n      dup1\n        /* \"#utility.yul\":622:634   */\n      revert\n        /* \"#utility.yul\":769:895   */\n    tag_93:\n        /* \"#utility.yul\":806:813   */\n      0x00\n        /* \"#utility.yul\":846:888   */\n      0xffffffffffffffffffffffffffffffffffffffff\n        /* \"#utility.yul\":839:844   */\n      dup3\n        /* \"#utility.yul\":835:889   */\n      and\n        /* \"#utility.yul\":824:889   */\n      swap1\n      pop\n        /* \"#utility.yul\":769:895   */\n      swap2\n      swap1\n      pop\n      jump\t// out\n        /* \"#utility.yul\":901:997   */\n    tag_94:\n        /* \"#utility.yul\":938:945   */\n      0x00\n        /* \"#utility.yul\":967:991   */\n      tag_130\n        /* \"#utility.yul\":985:990   */\n      dup3\n        /* \"#utility.yul\":967:991   */\n      tag_93\n      jump\t// in\n    tag_130:\n        /* \"#utility.yul\":956:991   */\n      swap1\n      pop\n        /* \"#utility.yul\":901:997   */\n      swap2\n      swap1\n      pop\n      jump\t// out\n        /* \"#utility.yul\":1003:1125   */\n    tag_95:\n        /* \"#utility.yul\":1076:1100   */\n      tag_132\n        /* \"#utility.yul\":1094:1099   */\n      dup2\n        /* \"#utility.yul\":1076:1100   */\n      tag_94\n      jump\t// in\n    tag_132:\n        /* \"#utility.yul\":1069:1074   */\n      dup2\n        /* \"#utility.yul\":1066:1101   */\n      eq\n        /* \"#utility.yul\":1056:1119   */\n      tag_133\n      jumpi\n        /* \"#utility.yul\":1115:1116   */\n      0x00\n        /* \"#utility.yul\":1112:1113   */\n      dup1\n        /* \"#utility.yul\":1105:1117   */\n      revert\n        /* \"#utility.yul\":1056:1119   */\n    tag_133:\n        /* \"#utility.yul\":1003:1125   */\n      pop\n      jump\t// out\n        /* \"#utility.yul\":1131:1270   */\n    tag_96:\n        /* \"#utility.yul\":1177:1182   */\n      0x00\n        /* \"#utility.yul\":1215:1221   */\n      dup2\n        /* \"#utility.yul\":1202:1222   */\n      calldataload\n        /* \"#utility.yul\":1193:1222   */\n      swap1\n      pop\n        /* \"#utility.yul\":1231:1264   */\n      tag_135\n        /* \"#utility.yul\":1258:1263   */\n      dup2\n        /* \"#utility.yul\":1231:1264   */\n      tag_95\n      jump\t// in\n    tag_135:\n        /* \"#utility.yul\":1131:1270   */\n      swap3\n      swap2\n      pop\n      pop\n      jump\t// out\n        /* \"#utility.yul\":1276:1605   */\n    tag_18:\n        /* \"#utility.yul\":1335:1341   */\n      0x00\n        /* \"#utility.yul\":1384:1386   */\n      0x20\n        /* \"#utility.yul\":1372:1381   */\n      dup3\n        /* \"#utility.yul\":1363:1370   */\n      dup5\n        /* \"#utility.yul\":1359:1382   */\n      sub\n        /* \"#utility.yul\":1355:1387   */\n      slt\n        /* \"#utility.yul\":1352:1471   */\n      iszero\n      tag_137\n      jumpi\n        /* \"#utility.yul\":1390:1469   */\n      tag_138\n      tag_91\n      jump\t// in\n    tag_138:\n        /* \"#utility.yul\":1352:1471   */\n    tag_137:\n        /* \"#utility.yul\":1510:1511   */\n      0x00\n        /* \"#utility.yul\":1535:1588   */\n      tag_139\n        /* \"#utility.yul\":1580:1587   */\n      dup5\n        /* \"#utility.yul\":1571:1577   */\n      dup3\n        /* \"#utility.yul\":1560:1569   */\n      dup6\n        /* \"#utility.yul\":1556:1578   */\n      add\n        /* \"#utility.yul\":1535:1588   */\n      tag_96\n      jump\t// in\n    tag_139:\n        /* \"#utility.yul\":1525:1588   */\n      swap2\n      pop\n        /* \"#utility.yul\":1481:1598   */\n      pop\n        /* \"#utility.yul\":1276:1605   */\n      swap3\n      swap2\n      pop\n      pop\n      jump\t// out\n        /* \"#utility.yul\":1611:1733   */\n    tag_97:\n        /* \"#utility.yul\":1684:1708   */\n      tag_141\n        /* \"#utility.yul\":1702:1707   */\n      dup2\n        /* \"#utility.yul\":1684:1708   */\n      tag_88\n      jump\t// in\n    tag_141:\n        /* \"#utility.yul\":1677:1682   */\n      dup2\n        /* \"#utility.yul\":1674:1709   */\n      eq\n        /* \"#utility.yul\":1664:1727   */\n      tag_142\n      jumpi\n        /* \"#utility.yul\":1723:1724   */\n      0x00\n        /* \"#utility.yul\":1720:1721   */\n      dup1\n        /* \"#utility.yul\":1713:1725   */\n      revert\n        /* \"#utility.yul\":1664:1727   */\n    tag_142:\n        /* \"#utility.yul\":1611:1733   */\n      pop\n      jump\t// out\n        /* \"#utility.yul\":1739:1878   */\n    tag_98:\n        /* \"#utility.yul\":1785:1790   */\n      0x00\n        /* \"#utility.yul\":1823:1829   */\n      dup2\n        /* \"#utility.yul\":1810:1830   */\n      calldataload\n        /* \"#utility.yul\":1801:1830   */\n      swap1\n      pop\n        /* \"#utility.yul\":1839:1872   */\n      tag_144\n        /* \"#utility.yul\":1866:1871   */\n      dup2\n        /* \"#utility.yul\":1839:1872   */\n      tag_97\n      jump\t// in\n    tag_144:\n        /* \"#utility.yul\":1739:1878   */\n      swap3\n      swap2\n      pop\n      pop\n      jump\t// out\n        /* \"#utility.yul\":1884:2213   */\n    tag_26:\n        /* \"#utility.yul\":1943:1949   */\n      0x00\n        /* \"#utility.yul\":1992:1994   */\n      0x20\n        /* \"#utility.yul\":1980:1989   */\n      dup3\n        /* \"#utility.yul\":1971:1978   */\n      dup5\n        /* \"#utility.yul\":1967:1990   */\n      sub\n        /* \"#utility.yul\":1963:1995   */\n      slt\n        /* \"#utility.yul\":1960:2079   */\n      iszero\n      tag_146\n      jumpi\n        /* \"#utility.yul\":1998:2077   */\n      tag_147\n      tag_91\n      jump\t// in\n    tag_147:\n        /* \"#utility.yul\":1960:2079   */\n    tag_146:\n        /* \"#utility.yul\":2118:2119   */\n      0x00\n        /* \"#utility.yul\":2143:2196   */\n      tag_148\n        /* \"#utility.yul\":2188:2195   */\n      dup5\n        /* \"#utility.yul\":2179:2185   */\n      dup3\n        /* \"#utility.yul\":2168:2177   */\n      dup6\n        /* \"#utility.yul\":2164:2186   */\n      add\n        /* \"#utility.yul\":2143:2196   */\n      tag_98\n      jump\t// in\n    tag_148:\n        /* \"#utility.yul\":2133:2196   */\n      swap2\n      pop\n        /* \"#utility.yul\":2089:2206   */\n      pop\n        /* \"#utility.yul\":1884:2213   */\n      swap3\n      swap2\n      pop\n      pop\n      jump\t// out\n        /* \"#utility.yul\":2219:2337   */\n    tag_99:\n        /* \"#utility.yul\":2306:2330   */\n      tag_150\n        /* \"#utility.yul\":2324:2329   */\n      dup2\n        /* \"#utility.yul\":2306:2330   */\n      tag_94\n      jump\t// in\n    tag_150:\n        /* \"#utility.yul\":2301:2304   */\n      dup3\n        /* \"#utility.yul\":2294:2331   */\n      mstore\n        /* \"#utility.yul\":2219:2337   */\n      pop\n      pop\n      jump\t// out\n        /* \"#utility.yul\":2343:2565   */\n    tag_29:\n        /* \"#utility.yul\":2436:2440   */\n      0x00\n        /* \"#utility.yul\":2474:2476   */\n      0x20\n        /* \"#utility.yul\":2463:2472   */\n      dup3\n        /* \"#utility.yul\":2459:2477   */\n      add\n        /* \"#utility.yul\":2451:2477   */\n      swap1\n      pop\n        /* \"#utility.yul\":2487:2558   */\n      tag_152\n        /* \"#utility.yul\":2555:2556   */\n      0x00\n        /* \"#utility.yul\":2544:2553   */\n      dup4\n        /* \"#utility.yul\":2540:2557   */\n      add\n        /* \"#utility.yul\":2531:2537   */\n      dup5\n        /* \"#utility.yul\":2487:2558   */\n      tag_99\n      jump\t// in\n    tag_152:\n        /* \"#utility.yul\":2343:2565   */\n      swap3\n      swap2\n      pop\n      pop\n      jump\t// out\n        /* \"#utility.yul\":2571:2751   */\n    tag_36:\n        /* \"#utility.yul\":2619:2696   */\n      0x4e487b7100000000000000000000000000000000000000000000000000000000\n        /* \"#utility.yul\":2616:2617   */\n      0x00\n        /* \"#utility.yul\":2609:2697   */\n      mstore\n        /* \"#utility.yul\":2716:2720   */\n      0x32\n        /* \"#utility.yul\":2713:2714   */\n      0x04\n        /* \"#utility.yul\":2706:2721   */\n      mstore\n        /* \"#utility.yul\":2740:2744   */\n      0x24\n        /* \"#utility.yul\":2737:2738   */\n      0x00\n        /* \"#utility.yul\":2730:2745   */\n      revert\n        /* \"#utility.yul\":2757:2937   */\n    tag_100:\n        /* \"#utility.yul\":2805:2882   */\n      0x4e487b7100000000000000000000000000000000000000000000000000000000\n        /* \"#utility.yul\":2802:2803   */\n      0x00\n        /* \"#utility.yul\":2795:2883   */\n      mstore\n        /* \"#utility.yul\":2902:2906   */\n      0x11\n        /* \"#utility.yul\":2899:2900   */\n      0x04\n        /* \"#utility.yul\":2892:2907   */\n      mstore\n        /* \"#utility.yul\":2926:2930   */\n      0x24\n        /* \"#utility.yul\":2923:2924   */\n      0x00\n        /* \"#utility.yul\":2916:2931   */\n      revert\n        /* \"#utility.yul\":2943:3176   */\n    tag_39:\n        /* \"#utility.yul\":2982:2985   */\n      0x00\n        /* \"#utility.yul\":3005:3029   */\n      tag_156\n        /* \"#utility.yul\":3023:3028   */\n      dup3\n        /* \"#utility.yul\":3005:3029   */\n      tag_88\n      jump\t// in\n    tag_156:\n        /* \"#utility.yul\":2996:3029   */\n      swap2\n      pop\n        /* \"#utility.yul\":3051:3117   */\n      0xffffffffffffffffffffffffffffffffffffffffffffffffffffffffffffffff\n        /* \"#utility.yul\":3044:3049   */\n      dup3\n        /* \"#utility.yul\":3041:3118   */\n      sub\n        /* \"#utility.yul\":3038:3141   */\n      tag_157\n      jumpi\n        /* \"#utility.yul\":3121:3139   */\n      tag_158\n      tag_100\n      jump\t// in\n    tag_158:\n        /* \"#utility.yul\":3038:3141   */\n    tag_157:\n        /* \"#utility.yul\":3168:3169   */\n      0x01\n        /* \"#utility.yul\":3161:3166   */\n      dup3\n        /* \"#utility.yul\":3157:3170   */\n      add\n        /* \"#utility.yul\":3150:3170   */\n      swap1\n      pop\n        /* \"#utility.yul\":2943:3176   */\n      swap2\n      swap1\n      pop\n      jump\t// out\n        /* \"#utility.yul\":3182:3362   */\n    tag_42:\n        /* \"#utility.yul\":3230:3307   */\n      0x4e487b7100000000000000000000000000000000000000000000000000000000\n        /* \"#utility.yul\":3227:3228   */\n      0x00\n        /* \"#utility.yul\":3220:3308   */\n      mstore\n        /* \"#utility.yul\":3327:3331   */\n      0x41\n        /* \"#utility.yul\":3324:3325   */\n      0x04\n        /* \"#utility.yul\":3317:3332   */\n      mstore\n        /* \"#utility.yul\":3351:3355   */\n      0x24\n        /* \"#utility.yul\":3348:3349   */\n      0x00\n        /* \"#utility.yul\":3341:3356   */\n      revert\n        /* \"#utility.yul\":3368:3537   */\n    tag_101:\n        /* \"#utility.yul\":3452:3463   */\n      0x00\n        /* \"#utility.yul\":3486:3492   */\n      dup3\n        /* \"#utility.yul\":3481:3484   */\n      dup3\n        /* \"#utility.yul\":3474:3493   */\n      mstore\n        /* \"#utility.yul\":3526:3530   */\n      0x20\n        /* \"#utility.yul\":3521:3524   */\n      dup3\n        /* \"#utility.yul\":3517:3531   */\n      add\n        /* \"#utility.yul\":3502:3531   */\n      swap1\n      pop\n        /* \"#utility.yul\":3368:3537   */\n      swap3\n      swap2\n      pop\n      pop\n      jump\t// out\n        /* \"#utility.yul\":3543:3707   */\n    tag_102:\n        /* \"#utility.yul\":3683:3699   */\n      0x436f756c64206e6f742073656e64000000000000000000000000000000000000\n        /* \"#utility.yul\":3679:3680   */\n      0x00\n        /* \"#utility.yul\":3671:3677   */\n      dup3\n        /* \"#utility.yul\":3667:3681   */\n      add\n        /* \"#utility.yul\":3660:3700   */\n      mstore\n        /* \"#utility.yul\":3543:3707   */\n      pop\n      jump\t// out\n        /* \"#utility.yul\":3713:4079   */\n    tag_103:\n        /* \"#utility.yul\":3855:3858   */\n      0x00\n        /* \"#utility.yul\":3876:3943   */\n      tag_163\n        /* \"#utility.yul\":3940:3942   */\n      0x0e\n        /* \"#utility.yul\":3935:3938   */\n      dup4\n        /* \"#utility.yul\":3876:3943   */\n      tag_101\n      jump\t// in\n    tag_163:\n        /* \"#utility.yul\":3869:3943   */\n      swap2\n      pop\n        /* \"#utility.yul\":3952:4045   */\n      tag_164\n        /* \"#utility.yul\":4041:4044   */\n      dup3\n        /* \"#utility.yul\":3952:4045   */\n      tag_102\n      jump\t// in\n    tag_164:\n        /* \"#utility.yul\":4070:4072   */\n      0x20\n        /* \"#utility.yul\":4065:4068   */\n      dup3\n        /* \"#utility.yul\":4061:4073   */\n      add\n        /* \"#utility.yul\":4054:4073   */\n      swap1\n      pop\n        /* \"#utility.yul\":3713:4079   */\n      swap2\n      swap1\n      pop\n      jump\t// out\n        /* \"#utility.yul\":4085:4504   */\n    tag_49:\n        /* \"#utility.yul\":4251:4255   */\n      0x00\n        /* \"#utility.yul\":4289:4291   */\n      0x20\n        /* \"#utility.yul\":4278:4287   */\n      dup3\n        /* \"#utility.yul\":4274:4292   */\n      add\n        /* \"#utility.yul\":4266:4292   */\n      swap1\n      pop\n        /* \"#utility.yul\":4338:4347   */\n      dup2\n        /* \"#utility.yul\":4332:4336   */\n      dup2\n        /* \"#utility.yul\":4328:4348   */\n      sub\n        /* \"#utility.yul\":4324:4325   */\n      0x00\n        /* \"#utility.yul\":4313:4322   */\n      dup4\n        /* \"#utility.yul\":4309:4326   */\n      add\n        /* \"#utility.yul\":4302:4349   */\n      mstore\n        /* \"#utility.yul\":4366:4497   */\n      tag_166\n        /* \"#utility.yul\":4492:4496   */\n      dup2\n        /* \"#utility.yul\":4366:4497   */\n      tag_103\n      jump\t// in\n    tag_166:\n        /* \"#utility.yul\":4358:4497   */\n      swap1\n      pop\n        /* \"#utility.yul\":4085:4504   */\n      swap2\n      swap1\n      pop\n      jump\t// out\n        /* \"#utility.yul\":4510:4657   */\n    tag_104:\n        /* \"#utility.yul\":4611:4622   */\n      0x00\n        /* \"#utility.yul\":4648:4651   */\n      dup2\n        /* \"#utility.yul\":4633:4651   */\n      swap1\n      pop\n        /* \"#utility.yul\":4510:4657   */\n      swap3\n      swap2\n      pop\n      pop\n      jump\t// out\n        /* \"#utility.yul\":4663:4777   */\n    tag_105:\n      pop\n      jump\t// out\n        /* \"#utility.yul\":4783:5181   */\n    tag_106:\n        /* \"#utility.yul\":4942:4945   */\n      0x00\n        /* \"#utility.yul\":4963:5046   */\n      tag_170\n        /* \"#utility.yul\":5044:5045   */\n      0x00\n        /* \"#utility.yul\":5039:5042   */\n      dup4\n        /* \"#utility.yul\":4963:5046   */\n      tag_104\n      jump\t// in\n    tag_170:\n        /* \"#utility.yul\":4956:5046   */\n      swap2\n      pop\n        /* \"#utility.yul\":5055:5148   */\n      tag_171\n        /* \"#utility.yul\":5144:5147   */\n      dup3\n        /* \"#utility.yul\":5055:5148   */\n      tag_105\n      jump\t// in\n    tag_171:\n        /* \"#utility.yul\":5173:5174   */\n      0x00\n        /* \"#utility.yul\":5168:5171   */\n      dup3\n        /* \"#utility.yul\":5164:5175   */\n      add\n        /* \"#utility.yul\":5157:5175   */\n      swap1\n      pop\n        /* \"#utility.yul\":4783:5181   */\n      swap2\n      swap1\n      pop\n      jump\t// out\n        /* \"#utility.yul\":5187:5566   */\n    tag_51:\n        /* \"#utility.yul\":5371:5374   */\n      0x00\n        /* \"#utility.yul\":5393:5540   */\n      tag_173\n        /* \"#utility.yul\":5536:5539   */\n      dup3\n        /* \"#utility.yul\":5393:5540   */\n      tag_106\n      jump\t// in\n    tag_173:\n        /* \"#utility.yul\":5386:5540   */\n      swap2\n      pop\n        /* \"#utility.yul\":5557:5560   */\n      dup2\n        /* \"#utility.yul\":5550:5560   */\n      swap1\n      pop\n        /* \"#utility.yul\":5187:5566   */\n      swap2\n      swap1\n      pop\n      jump\t// out\n        /* \"#utility.yul\":5572:5733   */\n    tag_107:\n        /* \"#utility.yul\":5712:5725   */\n      0x43616c6c206661696c6564000000000000000000000000000000000000000000\n        /* \"#utility.yul\":5708:5709   */\n      0x00\n        /* \"#utility.yul\":5700:5706   */\n      dup3\n        /* \"#utility.yul\":5696:5710   */\n      add\n        /* \"#utility.yul\":5689:5726   */\n      mstore\n        /* \"#utility.yul\":5572:5733   */\n      pop\n      jump\t// out\n        /* \"#utility.yul\":5739:6105   */\n    tag_108:\n        /* \"#utility.yul\":5881:5884   */\n      0x00\n        /* \"#utility.yul\":5902:5969   */\n      tag_176\n        /* \"#utility.yul\":5966:5968   */\n      0x0b\n        /* \"#utility.yul\":5961:5964   */\n      dup4\n        /* \"#utility.yul\":5902:5969   */\n      tag_101\n      jump\t// in\n    tag_176:\n        /* \"#utility.yul\":5895:5969   */\n      swap2\n      pop\n        /* \"#utility.yul\":5978:6071   */\n      tag_177\n        /* \"#utility.yul\":6067:6070   */\n      dup3\n        /* \"#utility.yul\":5978:6071   */\n      tag_107\n      jump\t// in\n    tag_177:\n        /* \"#utility.yul\":6096:6098   */\n      0x20\n        /* \"#utility.yul\":6091:6094   */\n      dup3\n        /* \"#utility.yul\":6087:6099   */\n      add\n        /* \"#utility.yul\":6080:6099   */\n      swap1\n      pop\n        /* \"#utility.yul\":5739:6105   */\n      swap2\n      swap1\n      pop\n      jump\t// out\n        /* \"#utility.yul\":6111:6530   */\n    tag_57:\n        /* \"#utility.yul\":6277:6281   */\n      0x00\n        /* \"#utility.yul\":6315:6317   */\n      0x20\n        /* \"#utility.yul\":6304:6313   */\n      dup3\n        /* \"#utility.yul\":6300:6318   */\n      add\n        /* \"#utility.yul\":6292:6318   */\n      swap1\n      pop\n        /* \"#utility.yul\":6364:6373   */\n      dup2\n        /* \"#utility.yul\":6358:6362   */\n      dup2\n        /* \"#utility.yul\":6354:6374   */\n      sub\n        /* \"#utility.yul\":6350:6351   */\n      0x00\n        /* \"#utility.yul\":6339:6348   */\n      dup4\n        /* \"#utility.yul\":6335:6352   */\n      add\n        /* \"#utility.yul\":6328:6375   */\n      mstore\n        /* \"#utility.yul\":6392:6523   */\n      tag_179\n        /* \"#utility.yul\":6518:6522   */\n      dup2\n        /* \"#utility.yul\":6392:6523   */\n      tag_108\n      jump\t// in\n    tag_179:\n        /* \"#utility.yul\":6384:6523   */\n      swap1\n      pop\n        /* \"#utility.yul\":6111:6530   */\n      swap2\n      swap1\n      pop\n      jump\t// out\n        /* \"#utility.yul\":6536:6704   */\n    tag_109:\n        /* \"#utility.yul\":6676:6696   */\n      0x4469646e27742073656e6420656e6f7567680000000000000000000000000000\n        /* \"#utility.yul\":6672:6673   */\n      0x00\n        /* \"#utility.yul\":6664:6670   */\n      dup3\n        /* \"#utility.yul\":6660:6674   */\n      add\n        /* \"#utility.yul\":6653:6697   */\n      mstore\n        /* \"#utility.yul\":6536:6704   */\n      pop\n      jump\t// out\n        /* \"#utility.yul\":6710:7076   */\n    tag_110:\n        /* \"#utility.yul\":6852:6855   */\n      0x00\n        /* \"#utility.yul\":6873:6940   */\n      tag_182\n        /* \"#utility.yul\":6937:6939   */\n      0x12\n        /* \"#utility.yul\":6932:6935   */\n      dup4\n        /* \"#utility.yul\":6873:6940   */\n      tag_101\n      jump\t// in\n    tag_182:\n        /* \"#utility.yul\":6866:6940   */\n      swap2\n      pop\n        /* \"#utility.yul\":6949:7042   */\n      tag_183\n        /* \"#utility.yul\":7038:7041   */\n      dup3\n        /* \"#utility.yul\":6949:7042   */\n      tag_109\n      jump\t// in\n    tag_183:\n        /* \"#utility.yul\":7067:7069   */\n      0x20\n        /* \"#utility.yul\":7062:7065   */\n      dup3\n        /* \"#utility.yul\":7058:7070   */\n      add\n        /* \"#utility.yul\":7051:7070   */\n      swap1\n      pop\n        /* \"#utility.yul\":6710:7076   */\n      swap2\n      swap1\n      pop\n      jump\t// out\n        /* \"#utility.yul\":7082:7501   */\n    tag_63:\n        /* \"#utility.yul\":7248:7252   */\n      0x00\n        /* \"#utility.yul\":7286:7288   */\n      0x20\n        /* \"#utility.yul\":7275:7284   */\n      dup3\n        /* \"#utility.yul\":7271:7289   */\n      add\n        /* \"#utility.yul\":7263:7289   */\n      swap1\n      pop\n        /* \"#utility.yul\":7335:7344   */\n      dup2\n        /* \"#utility.yul\":7329:7333   */\n      dup2\n        /* \"#utility.yul\":7325:7345   */\n      sub\n        /* \"#utility.yul\":7321:7322   */\n      0x00\n        /* \"#utility.yul\":7310:7319   */\n      dup4\n        /* \"#utility.yul\":7306:7323   */\n      add\n        /* \"#utility.yul\":7299:7346   */\n      mstore\n        /* \"#utility.yul\":7363:7494   */\n      tag_185\n        /* \"#utility.yul\":7489:7493   */\n      dup2\n        /* \"#utility.yul\":7363:7494   */\n      tag_110\n      jump\t// in\n    tag_185:\n        /* \"#utility.yul\":7355:7494   */\n      swap1\n      pop\n        /* \"#utility.yul\":7082:7501   */\n      swap2\n      swap1\n      pop\n      jump\t// out\n        /* \"#utility.yul\":7507:7855   */\n    tag_71:\n        /* \"#utility.yul\":7547:7554   */\n      0x00\n        /* \"#utility.yul\":7570:7590   */\n      tag_187\n        /* \"#utility.yul\":7588:7589   */\n      dup3\n        /* \"#utility.yul\":7570:7590   */\n      tag_88\n      jump\t// in\n    tag_187:\n        /* \"#utility.yul\":7565:7590   */\n      swap2\n      pop\n        /* \"#utility.yul\":7604:7624   */\n      tag_188\n        /* \"#utility.yul\":7622:7623   */\n      dup4\n        /* \"#utility.yul\":7604:7624   */\n      tag_88\n      jump\t// in\n    tag_188:\n        /* \"#utility.yul\":7599:7624   */\n      swap3\n      pop\n        /* \"#utility.yul\":7792:7793   */\n      dup2\n        /* \"#utility.yul\":7724:7790   */\n      0xffffffffffffffffffffffffffffffffffffffffffffffffffffffffffffffff\n        /* \"#utility.yul\":7720:7794   */\n      div\n        /* \"#utility.yul\":7717:7718   */\n      dup4\n        /* \"#utility.yul\":7714:7795   */\n      gt\n        /* \"#utility.yul\":7709:7710   */\n      dup3\n        /* \"#utility.yul\":7702:7711   */\n      iszero\n        /* \"#utility.yul\":7695:7712   */\n      iszero\n        /* \"#utility.yul\":7691:7796   */\n      and\n        /* \"#utility.yul\":7688:7819   */\n      iszero\n      tag_189\n      jumpi\n        /* \"#utility.yul\":7799:7817   */\n      tag_190\n      tag_100\n      jump\t// in\n    tag_190:\n        /* \"#utility.yul\":7688:7819   */\n    tag_189:\n        /* \"#utility.yul\":7847:7848   */\n      dup3\n        /* \"#utility.yul\":7844:7845   */\n      dup3\n        /* \"#utility.yul\":7840:7849   */\n      mul\n        /* \"#utility.yul\":7829:7849   */\n      swap1\n      pop\n        /* \"#utility.yul\":7507:7855   */\n      swap3\n      swap2\n      pop\n      pop\n      jump\t// out\n        /* \"#utility.yul\":7861:8041   */\n    tag_111:\n        /* \"#utility.yul\":7909:7986   */\n      0x4e487b7100000000000000000000000000000000000000000000000000000000\n        /* \"#utility.yul\":7906:7907   */\n      0x00\n        /* \"#utility.yul\":7899:7987   */\n      mstore\n        /* \"#utility.yul\":8006:8010   */\n      0x12\n        /* \"#utility.yul\":8003:8004   */\n      0x04\n        /* \"#utility.yul\":7996:8011   */\n      mstore\n        /* \"#utility.yul\":8030:8034   */\n      0x24\n        /* \"#utility.yul\":8027:8028   */\n      0x00\n        /* \"#utility.yul\":8020:8035   */\n      revert\n        /* \"#utility.yul\":8047:8232   */\n    tag_73:\n        /* \"#utility.yul\":8087:8088   */\n      0x00\n        /* \"#utility.yul\":8104:8124   */\n      tag_193\n        /* \"#utility.yul\":8122:8123   */\n      dup3\n        /* \"#utility.yul\":8104:8124   */\n      tag_88\n      jump\t// in\n    tag_193:\n        /* \"#utility.yul\":8099:8124   */\n      swap2\n      pop\n        /* \"#utility.yul\":8138:8158   */\n      tag_194\n        /* \"#utility.yul\":8156:8157   */\n      dup4\n        /* \"#utility.yul\":8138:8158   */\n      tag_88\n      jump\t// in\n    tag_194:\n        /* \"#utility.yul\":8133:8158   */\n      swap3\n      pop\n        /* \"#utility.yul\":8177:8178   */\n      dup3\n        /* \"#utility.yul\":8167:8202   */\n      tag_195\n      jumpi\n        /* \"#utility.yul\":8182:8200   */\n      tag_196\n      tag_111\n      jump\t// in\n    tag_196:\n        /* \"#utility.yul\":8167:8202   */\n    tag_195:\n        /* \"#utility.yul\":8224:8225   */\n      dup3\n        /* \"#utility.yul\":8221:8222   */\n      dup3\n        /* \"#utility.yul\":8217:8226   */\n      div\n        /* \"#utility.yul\":8212:8226   */\n      swap1\n      pop\n        /* \"#utility.yul\":8047:8232   */\n      swap3\n      swap2\n      pop\n      pop\n      jump\t// out\n        /* \"#utility.yul\":8238:8343   */\n    tag_112:\n        /* \"#utility.yul\":8274:8281   */\n      0x00\n        /* \"#utility.yul\":8314:8336   */\n      0xffffffffffffffffffff\n        /* \"#utility.yul\":8307:8312   */\n      dup3\n        /* \"#utility.yul\":8303:8337   */\n      and\n        /* \"#utility.yul\":8292:8337   */\n      swap1\n      pop\n        /* \"#utility.yul\":8238:8343   */\n      swap2\n      swap1\n      pop\n      jump\t// out\n        /* \"#utility.yul\":8349:8469   */\n    tag_113:\n        /* \"#utility.yul\":8421:8444   */\n      tag_199\n        /* \"#utility.yul\":8438:8443   */\n      dup2\n        /* \"#utility.yul\":8421:8444   */\n      tag_112\n      jump\t// in\n    tag_199:\n        /* \"#utility.yul\":8414:8419   */\n      dup2\n        /* \"#utility.yul\":8411:8445   */\n      eq\n        /* \"#utility.yul\":8401:8463   */\n      tag_200\n      jumpi\n        /* \"#utility.yul\":8459:8460   */\n      0x00\n        /* \"#utility.yul\":8456:8457   */\n      dup1\n        /* \"#utility.yul\":8449:8461   */\n      revert\n        /* \"#utility.yul\":8401:8463   */\n    tag_200:\n        /* \"#utility.yul\":8349:8469   */\n      pop\n      jump\t// out\n        /* \"#utility.yul\":8475:8616   */\n    tag_114:\n        /* \"#utility.yul\":8531:8536   */\n      0x00\n        /* \"#utility.yul\":8562:8568   */\n      dup2\n        /* \"#utility.yul\":8556:8569   */\n      mload\n        /* \"#utility.yul\":8547:8569   */\n      swap1\n      pop\n        /* \"#utility.yul\":8578:8610   */\n      tag_202\n        /* \"#utility.yul\":8604:8609   */\n      dup2\n        /* \"#utility.yul\":8578:8610   */\n      tag_113\n      jump\t// in\n    tag_202:\n        /* \"#utility.yul\":8475:8616   */\n      swap3\n      swap2\n      pop\n      pop\n      jump\t// out\n        /* \"#utility.yul\":8622:8698   */\n    tag_115:\n        /* \"#utility.yul\":8658:8665   */\n      0x00\n        /* \"#utility.yul\":8687:8692   */\n      dup2\n        /* \"#utility.yul\":8676:8692   */\n      swap1\n      pop\n        /* \"#utility.yul\":8622:8698   */\n      swap2\n      swap1\n      pop\n      jump\t// out\n        /* \"#utility.yul\":8704:8824   */\n    tag_116:\n        /* \"#utility.yul\":8776:8799   */\n      tag_205\n        /* \"#utility.yul\":8793:8798   */\n      dup2\n        /* \"#utility.yul\":8776:8799   */\n      tag_115\n      jump\t// in\n    tag_205:\n        /* \"#utility.yul\":8769:8774   */\n      dup2\n        /* \"#utility.yul\":8766:8800   */\n      eq\n        /* \"#utility.yul\":8756:8818   */\n      tag_206\n      jumpi\n        /* \"#utility.yul\":8814:8815   */\n      0x00\n        /* \"#utility.yul\":8811:8812   */\n      dup1\n        /* \"#utility.yul\":8804:8816   */\n      revert\n        /* \"#utility.yul\":8756:8818   */\n    tag_206:\n        /* \"#utility.yul\":8704:8824   */\n      pop\n      jump\t// out\n        /* \"#utility.yul\":8830:8971   */\n    tag_117:\n        /* \"#utility.yul\":8886:8891   */\n      0x00\n        /* \"#utility.yul\":8917:8923   */\n      dup2\n        /* \"#utility.yul\":8911:8924   */\n      mload\n        /* \"#utility.yul\":8902:8924   */\n      swap1\n      pop\n        /* \"#utility.yul\":8933:8965   */\n      tag_208\n        /* \"#utility.yul\":8959:8964   */\n      dup2\n        /* \"#utility.yul\":8933:8965   */\n      tag_116\n      jump\t// in\n    tag_208:\n        /* \"#utility.yul\":8830:8971   */\n      swap3\n      swap2\n      pop\n      pop\n      jump\t// out\n        /* \"#utility.yul\":8977:9120   */\n    tag_118:\n        /* \"#utility.yul\":9034:9039   */\n      0x00\n        /* \"#utility.yul\":9065:9071   */\n      dup2\n        /* \"#utility.yul\":9059:9072   */\n      mload\n        /* \"#utility.yul\":9050:9072   */\n      swap1\n      pop\n        /* \"#utility.yul\":9081:9114   */\n      tag_210\n        /* \"#utility.yul\":9108:9113   */\n      dup2\n        /* \"#utility.yul\":9081:9114   */\n      tag_97\n      jump\t// in\n    tag_210:\n        /* \"#utility.yul\":8977:9120   */\n      swap3\n      swap2\n      pop\n      pop\n      jump\t// out\n        /* \"#utility.yul\":9126:10097   */\n    tag_78:\n        /* \"#utility.yul\":9229:9235   */\n      0x00\n        /* \"#utility.yul\":9237:9243   */\n      dup1\n        /* \"#utility.yul\":9245:9251   */\n      0x00\n        /* \"#utility.yul\":9253:9259   */\n      dup1\n        /* \"#utility.yul\":9261:9267   */\n      0x00\n        /* \"#utility.yul\":9310:9313   */\n      0xa0\n        /* \"#utility.yul\":9298:9307   */\n      dup7\n        /* \"#utility.yul\":9289:9296   */\n      dup9\n        /* \"#utility.yul\":9285:9308   */\n      sub\n        /* \"#utility.yul\":9281:9314   */\n      slt\n        /* \"#utility.yul\":9278:9398   */\n      iszero\n      tag_212\n      jumpi\n        /* \"#utility.yul\":9317:9396   */\n      tag_213\n      tag_91\n      jump\t// in\n    tag_213:\n        /* \"#utility.yul\":9278:9398   */\n    tag_212:\n        /* \"#utility.yul\":9437:9438   */\n      0x00\n        /* \"#utility.yul\":9462:9525   */\n      tag_214\n        /* \"#utility.yul\":9517:9524   */\n      dup9\n        /* \"#utility.yul\":9508:9514   */\n      dup3\n        /* \"#utility.yul\":9497:9506   */\n      dup10\n        /* \"#utility.yul\":9493:9515   */\n      add\n        /* \"#utility.yul\":9462:9525   */\n      tag_114\n      jump\t// in\n    tag_214:\n        /* \"#utility.yul\":9452:9525   */\n      swap6\n      pop\n        /* \"#utility.yul\":9408:9535   */\n      pop\n        /* \"#utility.yul\":9574:9576   */\n      0x20\n        /* \"#utility.yul\":9600:9663   */\n      tag_215\n        /* \"#utility.yul\":9655:9662   */\n      dup9\n        /* \"#utility.yul\":9646:9652   */\n      dup3\n        /* \"#utility.yul\":9635:9644   */\n      dup10\n        /* \"#utility.yul\":9631:9653   */\n      add\n        /* \"#utility.yul\":9600:9663   */\n      tag_117\n      jump\t// in\n    tag_215:\n        /* \"#utility.yul\":9590:9663   */\n      swap5\n      pop\n        /* \"#utility.yul\":9545:9673   */\n      pop\n        /* \"#utility.yul\":9712:9714   */\n      0x40\n        /* \"#utility.yul\":9738:9802   */\n      tag_216\n        /* \"#utility.yul\":9794:9801   */\n      dup9\n        /* \"#utility.yul\":9785:9791   */\n      dup3\n        /* \"#utility.yul\":9774:9783   */\n      dup10\n        /* \"#utility.yul\":9770:9792   */\n      add\n        /* \"#utility.yul\":9738:9802   */\n      tag_118\n      jump\t// in\n    tag_216:\n        /* \"#utility.yul\":9728:9802   */\n      swap4\n      pop\n        /* \"#utility.yul\":9683:9812   */\n      pop\n        /* \"#utility.yul\":9851:9853   */\n      0x60\n        /* \"#utility.yul\":9877:9941   */\n      tag_217\n        /* \"#utility.yul\":9933:9940   */\n      dup9\n        /* \"#utility.yul\":9924:9930   */\n      dup3\n        /* \"#utility.yul\":9913:9922   */\n      dup10\n        /* \"#utility.yul\":9909:9931   */\n      add\n        /* \"#utility.yul\":9877:9941   */\n      tag_118\n      jump\t// in\n    tag_217:\n        /* \"#utility.yul\":9867:9941   */\n      swap3\n      pop\n        /* \"#utility.yul\":9822:9951   */\n      pop\n        /* \"#utility.yul\":9990:9993   */\n      0x80\n        /* \"#utility.yul\":10017:10080   */\n      tag_218\n        /* \"#utility.yul\":10072:10079   */\n      dup9\n        /* \"#utility.yul\":10063:10069   */\n      dup3\n        /* \"#utility.yul\":10052:10061   */\n      dup10\n        /* \"#utility.yul\":10048:10070   */\n      add\n        /* \"#utility.yul\":10017:10080   */\n      tag_114\n      jump\t// in\n    tag_218:\n        /* \"#utility.yul\":10007:10080   */\n      swap2\n      pop\n        /* \"#utility.yul\":9961:10090   */\n      pop\n        /* \"#utility.yul\":9126:10097   */\n      swap3\n      swap6\n      pop\n      swap3\n      swap6\n      swap1\n      swap4\n      pop\n      jump\t// out\n        /* \"#utility.yul\":10103:11094   */\n    tag_80:\n        /* \"#utility.yul\":10142:10149   */\n      0x00\n        /* \"#utility.yul\":10165:10184   */\n      tag_220\n        /* \"#utility.yul\":10182:10183   */\n      dup3\n        /* \"#utility.yul\":10165:10184   */\n      tag_115\n      jump\t// in\n    tag_220:\n        /* \"#utility.yul\":10160:10184   */\n      swap2\n      pop\n        /* \"#utility.yul\":10198:10217   */\n      tag_221\n        /* \"#utility.yul\":10215:10216   */\n      dup4\n        /* \"#utility.yul\":10198:10217   */\n      tag_115\n      jump\t// in\n    tag_221:\n        /* \"#utility.yul\":10193:10217   */\n      swap3\n      pop\n        /* \"#utility.yul\":10399:10400   */\n      dup3\n        /* \"#utility.yul\":10331:10397   */\n      0x7fffffffffffffffffffffffffffffffffffffffffffffffffffffffffffffff\n        /* \"#utility.yul\":10327:10401   */\n      div\n        /* \"#utility.yul\":10324:10325   */\n      dup3\n        /* \"#utility.yul\":10321:10402   */\n      gt\n        /* \"#utility.yul\":10316:10317   */\n      0x00\n        /* \"#utility.yul\":10313:10314   */\n      dup5\n        /* \"#utility.yul\":10309:10318   */\n      sgt\n        /* \"#utility.yul\":10305:10306   */\n      0x00\n        /* \"#utility.yul\":10302:10303   */\n      dup5\n        /* \"#utility.yul\":10298:10307   */\n      sgt\n        /* \"#utility.yul\":10294:10319   */\n      and\n        /* \"#utility.yul\":10290:10403   */\n      and\n        /* \"#utility.yul\":10287:10426   */\n      iszero\n      tag_222\n      jumpi\n        /* \"#utility.yul\":10406:10424   */\n      tag_223\n      tag_100\n      jump\t// in\n    tag_223:\n        /* \"#utility.yul\":10287:10426   */\n    tag_222:\n        /* \"#utility.yul\":10610:10611   */\n      dup2\n        /* \"#utility.yul\":10542:10608   */\n      0x8000000000000000000000000000000000000000000000000000000000000000\n        /* \"#utility.yul\":10537:10612   */\n      sdiv\n        /* \"#utility.yul\":10534:10535   */\n      dup4\n        /* \"#utility.yul\":10530:10613   */\n      slt\n        /* \"#utility.yul\":10525:10526   */\n      0x00\n        /* \"#utility.yul\":10522:10523   */\n      dup5\n        /* \"#utility.yul\":10518:10527   */\n      slt\n        /* \"#utility.yul\":10514:10515   */\n      0x00\n        /* \"#utility.yul\":10511:10512   */\n      dup5\n        /* \"#utility.yul\":10507:10516   */\n      sgt\n        /* \"#utility.yul\":10503:10528   */\n      and\n        /* \"#utility.yul\":10499:10614   */\n      and\n        /* \"#utility.yul\":10496:10637   */\n      iszero\n      tag_224\n      jumpi\n        /* \"#utility.yul\":10617:10635   */\n      tag_225\n      tag_100\n      jump\t// in\n    tag_225:\n        /* \"#utility.yul\":10496:10637   */\n    tag_224:\n        /* \"#utility.yul\":10821:10822   */\n      dup3\n        /* \"#utility.yul\":10753:10819   */\n      0x8000000000000000000000000000000000000000000000000000000000000000\n        /* \"#utility.yul\":10748:10823   */\n      sdiv\n        /* \"#utility.yul\":10745:10746   */\n      dup3\n        /* \"#utility.yul\":10741:10824   */\n      slt\n        /* \"#utility.yul\":10736:10737   */\n      0x00\n        /* \"#utility.yul\":10733:10734   */\n      dup5\n        /* \"#utility.yul\":10729:10738   */\n      sgt\n        /* \"#utility.yul\":10725:10726   */\n      0x00\n        /* \"#utility.yul\":10722:10723   */\n      dup5\n        /* \"#utility.yul\":10718:10727   */\n      slt\n        /* \"#utility.yul\":10714:10739   */\n      and\n        /* \"#utility.yul\":10710:10825   */\n      and\n        /* \"#utility.yul\":10707:10848   */\n      iszero\n      tag_226\n      jumpi\n        /* \"#utility.yul\":10828:10846   */\n      tag_227\n      tag_100\n      jump\t// in\n    tag_227:\n        /* \"#utility.yul\":10707:10848   */\n    tag_226:\n        /* \"#utility.yul\":11031:11032   */\n      dup3\n        /* \"#utility.yul\":10963:11029   */\n      0x7fffffffffffffffffffffffffffffffffffffffffffffffffffffffffffffff\n        /* \"#utility.yul\":10958:11033   */\n      sdiv\n        /* \"#utility.yul\":10955:10956   */\n      dup3\n        /* \"#utility.yul\":10951:11034   */\n      slt\n        /* \"#utility.yul\":10946:10947   */\n      0x00\n        /* \"#utility.yul\":10943:10944   */\n      dup5\n        /* \"#utility.yul\":10939:10948   */\n      slt\n        /* \"#utility.yul\":10935:10936   */\n      0x00\n        /* \"#utility.yul\":10932:10933   */\n      dup5\n        /* \"#utility.yul\":10928:10937   */\n      slt\n        /* \"#utility.yul\":10924:10949   */\n      and\n        /* \"#utility.yul\":10920:11035   */\n      and\n        /* \"#utility.yul\":10917:11058   */\n      iszero\n      tag_228\n      jumpi\n        /* \"#utility.yul\":11038:11056   */\n      tag_229\n      tag_100\n      jump\t// in\n    tag_229:\n        /* \"#utility.yul\":10917:11058   */\n    tag_228:\n        /* \"#utility.yul\":11086:11087   */\n      dup3\n        /* \"#utility.yul\":11083:11084   */\n      dup3\n        /* \"#utility.yul\":11079:11088   */\n      mul\n        /* \"#utility.yul\":11068:11088   */\n      swap1\n      pop\n        /* \"#utility.yul\":10103:11094   */\n      swap3\n      swap2\n      pop\n      pop\n      jump\t// out\n\n    auxdata: 0xa264697066735822122080b87c52295b8f5ae3a402894bcf7fbebd0be8cf93307c1cf79837250fd9aa2664736f6c634300080f0033\n}\n",
				"bytecode": {
					"linkReferences": {},
					"object": "60806040526802b5e3af16b188000060005534801561001d57600080fd5b50610cee8061002d6000396000f3fe60806040526004361061004a5760003560e01c8063098de8201461004f5780633ccfd60b1461007a5780633e47d6f314610091578063b60d4288146100ce578063dc0d3dff146100d8575b600080fd5b34801561005b57600080fd5b50610064610115565b6040516100719190610641565b60405180910390f35b34801561008657600080fd5b5061008f61011b565b005b34801561009d57600080fd5b506100b860048036038101906100b391906106bf565b610351565b6040516100c59190610641565b60405180910390f35b6100d6610369565b005b3480156100e457600080fd5b506100ff60048036038101906100fa9190610718565b61045f565b60405161010c9190610754565b60405180910390f35b60005481565b60005b6001805490508110156101c7576000600182815481106101415761014061076f565b5b9060005260206000200160009054906101000a900473ffffffffffffffffffffffffffffffffffffffff1690506000600260008373ffffffffffffffffffffffffffffffffffffffff1673ffffffffffffffffffffffffffffffffffffffff168152602001908152602001600020819055505080806101bf906107cd565b91505061011e565b50600067ffffffffffffffff8111156101e3576101e2610815565b5b6040519080825280602002602001820160405280156102115781602001602082028036833780820191505090505b5060019080519060200190610227929190610581565b5060003373ffffffffffffffffffffffffffffffffffffffff166108fc479081150290604051600060405180830381858888f193505050509050806102a1576040517f08c379a0000000000000000000000000000000000000000000000000000000008152600401610298906108a1565b60405180910390fd5b60003373ffffffffffffffffffffffffffffffffffffffff16476040516102c7906108f2565b60006040518083038185875af1925050503d8060008114610304576040519150601f19603f3d011682016040523d82523d6000602084013e610309565b606091505b505090508061034d576040517f08c379a000000000000000000000000000000000000000000000000000000000815260040161034490610953565b60405180910390fd5b5050565b60026020528060005260406000206000915090505481565b6000546103753461049e565b10156103b6576040517f08c379a00000000000000000000000000000000000000000000000000000000081526004016103ad906109bf565b60405180910390fd5b6001339080600181540180825580915050600190039060005260206000200160009091909190916101000a81548173ffffffffffffffffffffffffffffffffffffffff021916908373ffffffffffffffffffffffffffffffffffffffff16021790555034600260003373ffffffffffffffffffffffffffffffffffffffff1673ffffffffffffffffffffffffffffffffffffffff16815260200190815260200160002081905550565b6001818154811061046f57600080fd5b906000526020600020016000915054906101000a900473ffffffffffffffffffffffffffffffffffffffff1681565b6000806104a96104d8565b90506000670de0b6b3a764000084836104c291906109df565b6104cc9190610a68565b90508092505050919050565b600080738a753747a1fa494ec906ce90e9f37563a8af630e905060008173ffffffffffffffffffffffffffffffffffffffff1663feaf968c6040518163ffffffff1660e01b815260040160a060405180830381865afa15801561053f573d6000803e3d6000fd5b505050506040513d601f19601f820116820180604052508101906105639190610b26565b5050509150506402540be4008161057a9190610ba1565b9250505090565b8280548282559060005260206000209081019282156105fa579160200282015b828111156105f95782518260006101000a81548173ffffffffffffffffffffffffffffffffffffffff021916908373ffffffffffffffffffffffffffffffffffffffff160217905550916020019190600101906105a1565b5b509050610607919061060b565b5090565b5b8082111561062457600081600090555060010161060c565b5090565b6000819050919050565b61063b81610628565b82525050565b60006020820190506106566000830184610632565b92915050565b600080fd5b600073ffffffffffffffffffffffffffffffffffffffff82169050919050565b600061068c82610661565b9050919050565b61069c81610681565b81146106a757600080fd5b50565b6000813590506106b981610693565b92915050565b6000602082840312156106d5576106d461065c565b5b60006106e3848285016106aa565b91505092915050565b6106f581610628565b811461070057600080fd5b50565b600081359050610712816106ec565b92915050565b60006020828403121561072e5761072d61065c565b5b600061073c84828501610703565b91505092915050565b61074e81610681565b82525050565b60006020820190506107696000830184610745565b92915050565b7f4e487b7100000000000000000000000000000000000000000000000000000000600052603260045260246000fd5b7f4e487b7100000000000000000000000000000000000000000000000000000000600052601160045260246000fd5b60006107d882610628565b91507fffffffffffffffffffffffffffffffffffffffffffffffffffffffffffffffff820361080a5761080961079e565b5b600182019050919050565b7f4e487b7100000000000000000000000000000000000000000000000000000000600052604160045260246000fd5b600082825260208201905092915050565b7f436f756c64206e6f742073656e64000000000000000000000000000000000000600082015250565b600061088b600e83610844565b915061089682610855565b602082019050919050565b600060208201905081810360008301526108ba8161087e565b9050919050565b600081905092915050565b50565b60006108dc6000836108c1565b91506108e7826108cc565b600082019050919050565b60006108fd826108cf565b9150819050919050565b7f43616c6c206661696c6564000000000000000000000000000000000000000000600082015250565b600061093d600b83610844565b915061094882610907565b602082019050919050565b6000602082019050818103600083015261096c81610930565b9050919050565b7f4469646e27742073656e6420656e6f7567680000000000000000000000000000600082015250565b60006109a9601283610844565b91506109b482610973565b602082019050919050565b600060208201905081810360008301526109d88161099c565b9050919050565b60006109ea82610628565b91506109f583610628565b9250817fffffffffffffffffffffffffffffffffffffffffffffffffffffffffffffffff0483118215151615610a2e57610a2d61079e565b5b828202905092915050565b7f4e487b7100000000000000000000000000000000000000000000000000000000600052601260045260246000fd5b6000610a7382610628565b9150610a7e83610628565b925082610a8e57610a8d610a39565b5b828204905092915050565b600069ffffffffffffffffffff82169050919050565b610ab881610a99565b8114610ac357600080fd5b50565b600081519050610ad581610aaf565b92915050565b6000819050919050565b610aee81610adb565b8114610af957600080fd5b50565b600081519050610b0b81610ae5565b92915050565b600081519050610b20816106ec565b92915050565b600080600080600060a08688031215610b4257610b4161065c565b5b6000610b5088828901610ac6565b9550506020610b6188828901610afc565b9450506040610b7288828901610b11565b9350506060610b8388828901610b11565b9250506080610b9488828901610ac6565b9150509295509295909350565b6000610bac82610adb565b9150610bb783610adb565b9250827f7fffffffffffffffffffffffffffffffffffffffffffffffffffffffffffffff0482116000841360008413161615610bf657610bf561079e565b5b817f80000000000000000000000000000000000000000000000000000000000000000583126000841260008413161615610c3357610c3261079e565b5b827f80000000000000000000000000000000000000000000000000000000000000000582126000841360008412161615610c7057610c6f61079e565b5b827f7fffffffffffffffffffffffffffffffffffffffffffffffffffffffffffffff0582126000841260008412161615610cad57610cac61079e565b5b82820290509291505056fea264697066735822122080b87c52295b8f5ae3a402894bcf7fbebd0be8cf93307c1cf79837250fd9aa2664736f6c634300080f0033",
					"opcodes": "PUSH1 0x80 PUSH1 0x40 MSTORE PUSH9 0x2B5E3AF16B1880000 PUSH1 0x0 SSTORE CALLVALUE DUP1 ISZERO PUSH2 0x1D JUMPI PUSH1 0x0 DUP1 REVERT JUMPDEST POP PUSH2 0xCEE DUP1 PUSH2 0x2D PUSH1 0x0 CODECOPY PUSH1 0x0 RETURN INVALID PUSH1 0x80 PUSH1 0x40 MSTORE PUSH1 0x4 CALLDATASIZE LT PUSH2 0x4A JUMPI PUSH1 0x0 CALLDATALOAD PUSH1 0xE0 SHR DUP1 PUSH4 0x98DE820 EQ PUSH2 0x4F JUMPI DUP1 PUSH4 0x3CCFD60B EQ PUSH2 0x7A JUMPI DUP1 PUSH4 0x3E47D6F3 EQ PUSH2 0x91 JUMPI DUP1 PUSH4 0xB60D4288 EQ PUSH2 0xCE JUMPI DUP1 PUSH4 0xDC0D3DFF EQ PUSH2 0xD8 JUMPI JUMPDEST PUSH1 0x0 DUP1 REVERT JUMPDEST CALLVALUE DUP1 ISZERO PUSH2 0x5B JUMPI PUSH1 0x0 DUP1 REVERT JUMPDEST POP PUSH2 0x64 PUSH2 0x115 JUMP JUMPDEST PUSH1 0x40 MLOAD PUSH2 0x71 SWAP2 SWAP1 PUSH2 0x641 JUMP JUMPDEST PUSH1 0x40 MLOAD DUP1 SWAP2 SUB SWAP1 RETURN JUMPDEST CALLVALUE DUP1 ISZERO PUSH2 0x86 JUMPI PUSH1 0x0 DUP1 REVERT JUMPDEST POP PUSH2 0x8F PUSH2 0x11B JUMP JUMPDEST STOP JUMPDEST CALLVALUE DUP1 ISZERO PUSH2 0x9D JUMPI PUSH1 0x0 DUP1 REVERT JUMPDEST POP PUSH2 0xB8 PUSH1 0x4 DUP1 CALLDATASIZE SUB DUP2 ADD SWAP1 PUSH2 0xB3 SWAP2 SWAP1 PUSH2 0x6BF JUMP JUMPDEST PUSH2 0x351 JUMP JUMPDEST PUSH1 0x40 MLOAD PUSH2 0xC5 SWAP2 SWAP1 PUSH2 0x641 JUMP JUMPDEST PUSH1 0x40 MLOAD DUP1 SWAP2 SUB SWAP1 RETURN JUMPDEST PUSH2 0xD6 PUSH2 0x369 JUMP JUMPDEST STOP JUMPDEST CALLVALUE DUP1 ISZERO PUSH2 0xE4 JUMPI PUSH1 0x0 DUP1 REVERT JUMPDEST POP PUSH2 0xFF PUSH1 0x4 DUP1 CALLDATASIZE SUB DUP2 ADD SWAP1 PUSH2 0xFA SWAP2 SWAP1 PUSH2 0x718 JUMP JUMPDEST PUSH2 0x45F JUMP JUMPDEST PUSH1 0x40 MLOAD PUSH2 0x10C SWAP2 SWAP1 PUSH2 0x754 JUMP JUMPDEST PUSH1 0x40 MLOAD DUP1 SWAP2 SUB SWAP1 RETURN JUMPDEST PUSH1 0x0 SLOAD DUP2 JUMP JUMPDEST PUSH1 0x0 JUMPDEST PUSH1 0x1 DUP1 SLOAD SWAP1 POP DUP2 LT ISZERO PUSH2 0x1C7 JUMPI PUSH1 0x0 PUSH1 0x1 DUP3 DUP2 SLOAD DUP2 LT PUSH2 0x141 JUMPI PUSH2 0x140 PUSH2 0x76F JUMP JUMPDEST JUMPDEST SWAP1 PUSH1 0x0 MSTORE PUSH1 0x20 PUSH1 0x0 KECCAK256 ADD PUSH1 0x0 SWAP1 SLOAD SWAP1 PUSH2 0x100 EXP SWAP1 DIV PUSH20 0xFFFFFFFFFFFFFFFFFFFFFFFFFFFFFFFFFFFFFFFF AND SWAP1 POP PUSH1 0x0 PUSH1 0x2 PUSH1 0x0 DUP4 PUSH20 0xFFFFFFFFFFFFFFFFFFFFFFFFFFFFFFFFFFFFFFFF AND PUSH20 0xFFFFFFFFFFFFFFFFFFFFFFFFFFFFFFFFFFFFFFFF AND DUP2 MSTORE PUSH1 0x20 ADD SWAP1 DUP2 MSTORE PUSH1 0x20 ADD PUSH1 0x0 KECCAK256 DUP2 SWAP1 SSTORE POP POP DUP1 DUP1 PUSH2 0x1BF SWAP1 PUSH2 0x7CD JUMP JUMPDEST SWAP2 POP POP PUSH2 0x11E JUMP JUMPDEST POP PUSH1 0x0 PUSH8 0xFFFFFFFFFFFFFFFF DUP2 GT ISZERO PUSH2 0x1E3 JUMPI PUSH2 0x1E2 PUSH2 0x815 JUMP JUMPDEST JUMPDEST PUSH1 0x40 MLOAD SWAP1 DUP1 DUP3 MSTORE DUP1 PUSH1 0x20 MUL PUSH1 0x20 ADD DUP3 ADD PUSH1 0x40 MSTORE DUP1 ISZERO PUSH2 0x211 JUMPI DUP2 PUSH1 0x20 ADD PUSH1 0x20 DUP3 MUL DUP1 CALLDATASIZE DUP4 CALLDATACOPY DUP1 DUP3 ADD SWAP2 POP POP SWAP1 POP JUMPDEST POP PUSH1 0x1 SWAP1 DUP1 MLOAD SWAP1 PUSH1 0x20 ADD SWAP1 PUSH2 0x227 SWAP3 SWAP2 SWAP1 PUSH2 0x581 JUMP JUMPDEST POP PUSH1 0x0 CALLER PUSH20 0xFFFFFFFFFFFFFFFFFFFFFFFFFFFFFFFFFFFFFFFF AND PUSH2 0x8FC SELFBALANCE SWAP1 DUP2 ISZERO MUL SWAP1 PUSH1 0x40 MLOAD PUSH1 0x0 PUSH1 0x40 MLOAD DUP1 DUP4 SUB DUP2 DUP6 DUP9 DUP9 CALL SWAP4 POP POP POP POP SWAP1 POP DUP1 PUSH2 0x2A1 JUMPI PUSH1 0x40 MLOAD PUSH32 0x8C379A000000000000000000000000000000000000000000000000000000000 DUP2 MSTORE PUSH1 0x4 ADD PUSH2 0x298 SWAP1 PUSH2 0x8A1 JUMP JUMPDEST PUSH1 0x40 MLOAD DUP1 SWAP2 SUB SWAP1 REVERT JUMPDEST PUSH1 0x0 CALLER PUSH20 0xFFFFFFFFFFFFFFFFFFFFFFFFFFFFFFFFFFFFFFFF AND SELFBALANCE PUSH1 0x40 MLOAD PUSH2 0x2C7 SWAP1 PUSH2 0x8F2 JUMP JUMPDEST PUSH1 0x0 PUSH1 0x40 MLOAD DUP1 DUP4 SUB DUP2 DUP6 DUP8 GAS CALL SWAP3 POP POP POP RETURNDATASIZE DUP1 PUSH1 0x0 DUP2 EQ PUSH2 0x304 JUMPI PUSH1 0x40 MLOAD SWAP2 POP PUSH1 0x1F NOT PUSH1 0x3F RETURNDATASIZE ADD AND DUP3 ADD PUSH1 0x40 MSTORE RETURNDATASIZE DUP3 MSTORE RETURNDATASIZE PUSH1 0x0 PUSH1 0x20 DUP5 ADD RETURNDATACOPY PUSH2 0x309 JUMP JUMPDEST PUSH1 0x60 SWAP2 POP JUMPDEST POP POP SWAP1 POP DUP1 PUSH2 0x34D JUMPI PUSH1 0x40 MLOAD PUSH32 0x8C379A000000000000000000000000000000000000000000000000000000000 DUP2 MSTORE PUSH1 0x4 ADD PUSH2 0x344 SWAP1 PUSH2 0x953 JUMP JUMPDEST PUSH1 0x40 MLOAD DUP1 SWAP2 SUB SWAP1 REVERT JUMPDEST POP POP JUMP JUMPDEST PUSH1 0x2 PUSH1 0x20 MSTORE DUP1 PUSH1 0x0 MSTORE PUSH1 0x40 PUSH1 0x0 KECCAK256 PUSH1 0x0 SWAP2 POP SWAP1 POP SLOAD DUP2 JUMP JUMPDEST PUSH1 0x0 SLOAD PUSH2 0x375 CALLVALUE PUSH2 0x49E JUMP JUMPDEST LT ISZERO PUSH2 0x3B6 JUMPI PUSH1 0x40 MLOAD PUSH32 0x8C379A000000000000000000000000000000000000000000000000000000000 DUP2 MSTORE PUSH1 0x4 ADD PUSH2 0x3AD SWAP1 PUSH2 0x9BF JUMP JUMPDEST PUSH1 0x40 MLOAD DUP1 SWAP2 SUB SWAP1 REVERT JUMPDEST PUSH1 0x1 CALLER SWAP1 DUP1 PUSH1 0x1 DUP2 SLOAD ADD DUP1 DUP3 SSTORE DUP1 SWAP2 POP POP PUSH1 0x1 SWAP1 SUB SWAP1 PUSH1 0x0 MSTORE PUSH1 0x20 PUSH1 0x0 KECCAK256 ADD PUSH1 0x0 SWAP1 SWAP2 SWAP1 SWAP2 SWAP1 SWAP2 PUSH2 0x100 EXP DUP2 SLOAD DUP2 PUSH20 0xFFFFFFFFFFFFFFFFFFFFFFFFFFFFFFFFFFFFFFFF MUL NOT AND SWAP1 DUP4 PUSH20 0xFFFFFFFFFFFFFFFFFFFFFFFFFFFFFFFFFFFFFFFF AND MUL OR SWAP1 SSTORE POP CALLVALUE PUSH1 0x2 PUSH1 0x0 CALLER PUSH20 0xFFFFFFFFFFFFFFFFFFFFFFFFFFFFFFFFFFFFFFFF AND PUSH20 0xFFFFFFFFFFFFFFFFFFFFFFFFFFFFFFFFFFFFFFFF AND DUP2 MSTORE PUSH1 0x20 ADD SWAP1 DUP2 MSTORE PUSH1 0x20 ADD PUSH1 0x0 KECCAK256 DUP2 SWAP1 SSTORE POP JUMP JUMPDEST PUSH1 0x1 DUP2 DUP2 SLOAD DUP2 LT PUSH2 0x46F JUMPI PUSH1 0x0 DUP1 REVERT JUMPDEST SWAP1 PUSH1 0x0 MSTORE PUSH1 0x20 PUSH1 0x0 KECCAK256 ADD PUSH1 0x0 SWAP2 POP SLOAD SWAP1 PUSH2 0x100 EXP SWAP1 DIV PUSH20 0xFFFFFFFFFFFFFFFFFFFFFFFFFFFFFFFFFFFFFFFF AND DUP2 JUMP JUMPDEST PUSH1 0x0 DUP1 PUSH2 0x4A9 PUSH2 0x4D8 JUMP JUMPDEST SWAP1 POP PUSH1 0x0 PUSH8 0xDE0B6B3A7640000 DUP5 DUP4 PUSH2 0x4C2 SWAP2 SWAP1 PUSH2 0x9DF JUMP JUMPDEST PUSH2 0x4CC SWAP2 SWAP1 PUSH2 0xA68 JUMP JUMPDEST SWAP1 POP DUP1 SWAP3 POP POP POP SWAP2 SWAP1 POP JUMP JUMPDEST PUSH1 0x0 DUP1 PUSH20 0x8A753747A1FA494EC906CE90E9F37563A8AF630E SWAP1 POP PUSH1 0x0 DUP2 PUSH20 0xFFFFFFFFFFFFFFFFFFFFFFFFFFFFFFFFFFFFFFFF AND PUSH4 0xFEAF968C PUSH1 0x40 MLOAD DUP2 PUSH4 0xFFFFFFFF AND PUSH1 0xE0 SHL DUP2 MSTORE PUSH1 0x4 ADD PUSH1 0xA0 PUSH1 0x40 MLOAD DUP1 DUP4 SUB DUP2 DUP7 GAS STATICCALL ISZERO DUP1 ISZERO PUSH2 0x53F JUMPI RETURNDATASIZE PUSH1 0x0 DUP1 RETURNDATACOPY RETURNDATASIZE PUSH1 0x0 REVERT JUMPDEST POP POP POP POP PUSH1 0x40 MLOAD RETURNDATASIZE PUSH1 0x1F NOT PUSH1 0x1F DUP3 ADD AND DUP3 ADD DUP1 PUSH1 0x40 MSTORE POP DUP2 ADD SWAP1 PUSH2 0x563 SWAP2 SWAP1 PUSH2 0xB26 JUMP JUMPDEST POP POP POP SWAP2 POP POP PUSH5 0x2540BE400 DUP2 PUSH2 0x57A SWAP2 SWAP1 PUSH2 0xBA1 JUMP JUMPDEST SWAP3 POP POP POP SWAP1 JUMP JUMPDEST DUP3 DUP1 SLOAD DUP3 DUP3 SSTORE SWAP1 PUSH1 0x0 MSTORE PUSH1 0x20 PUSH1 0x0 KECCAK256 SWAP1 DUP2 ADD SWAP3 DUP3 ISZERO PUSH2 0x5FA JUMPI SWAP2 PUSH1 0x20 MUL DUP3 ADD JUMPDEST DUP3 DUP2 GT ISZERO PUSH2 0x5F9 JUMPI DUP3 MLOAD DUP3 PUSH1 0x0 PUSH2 0x100 EXP DUP2 SLOAD DUP2 PUSH20 0xFFFFFFFFFFFFFFFFFFFFFFFFFFFFFFFFFFFFFFFF MUL NOT AND SWAP1 DUP4 PUSH20 0xFFFFFFFFFFFFFFFFFFFFFFFFFFFFFFFFFFFFFFFF AND MUL OR SWAP1 SSTORE POP SWAP2 PUSH1 0x20 ADD SWAP2 SWAP1 PUSH1 0x1 ADD SWAP1 PUSH2 0x5A1 JUMP JUMPDEST JUMPDEST POP SWAP1 POP PUSH2 0x607 SWAP2 SWAP1 PUSH2 0x60B JUMP JUMPDEST POP SWAP1 JUMP JUMPDEST JUMPDEST DUP1 DUP3 GT ISZERO PUSH2 0x624 JUMPI PUSH1 0x0 DUP2 PUSH1 0x0 SWAP1 SSTORE POP PUSH1 0x1 ADD PUSH2 0x60C JUMP JUMPDEST POP SWAP1 JUMP JUMPDEST PUSH1 0x0 DUP2 SWAP1 POP SWAP2 SWAP1 POP JUMP JUMPDEST PUSH2 0x63B DUP2 PUSH2 0x628 JUMP JUMPDEST DUP3 MSTORE POP POP JUMP JUMPDEST PUSH1 0x0 PUSH1 0x20 DUP3 ADD SWAP1 POP PUSH2 0x656 PUSH1 0x0 DUP4 ADD DUP5 PUSH2 0x632 JUMP JUMPDEST SWAP3 SWAP2 POP POP JUMP JUMPDEST PUSH1 0x0 DUP1 REVERT JUMPDEST PUSH1 0x0 PUSH20 0xFFFFFFFFFFFFFFFFFFFFFFFFFFFFFFFFFFFFFFFF DUP3 AND SWAP1 POP SWAP2 SWAP1 POP JUMP JUMPDEST PUSH1 0x0 PUSH2 0x68C DUP3 PUSH2 0x661 JUMP JUMPDEST SWAP1 POP SWAP2 SWAP1 POP JUMP JUMPDEST PUSH2 0x69C DUP2 PUSH2 0x681 JUMP JUMPDEST DUP2 EQ PUSH2 0x6A7 JUMPI PUSH1 0x0 DUP1 REVERT JUMPDEST POP JUMP JUMPDEST PUSH1 0x0 DUP2 CALLDATALOAD SWAP1 POP PUSH2 0x6B9 DUP2 PUSH2 0x693 JUMP JUMPDEST SWAP3 SWAP2 POP POP JUMP JUMPDEST PUSH1 0x0 PUSH1 0x20 DUP3 DUP5 SUB SLT ISZERO PUSH2 0x6D5 JUMPI PUSH2 0x6D4 PUSH2 0x65C JUMP JUMPDEST JUMPDEST PUSH1 0x0 PUSH2 0x6E3 DUP5 DUP3 DUP6 ADD PUSH2 0x6AA JUMP JUMPDEST SWAP2 POP POP SWAP3 SWAP2 POP POP JUMP JUMPDEST PUSH2 0x6F5 DUP2 PUSH2 0x628 JUMP JUMPDEST DUP2 EQ PUSH2 0x700 JUMPI PUSH1 0x0 DUP1 REVERT JUMPDEST POP JUMP JUMPDEST PUSH1 0x0 DUP2 CALLDATALOAD SWAP1 POP PUSH2 0x712 DUP2 PUSH2 0x6EC JUMP JUMPDEST SWAP3 SWAP2 POP POP JUMP JUMPDEST PUSH1 0x0 PUSH1 0x20 DUP3 DUP5 SUB SLT ISZERO PUSH2 0x72E JUMPI PUSH2 0x72D PUSH2 0x65C JUMP JUMPDEST JUMPDEST PUSH1 0x0 PUSH2 0x73C DUP5 DUP3 DUP6 ADD PUSH2 0x703 JUMP JUMPDEST SWAP2 POP POP SWAP3 SWAP2 POP POP JUMP JUMPDEST PUSH2 0x74E DUP2 PUSH2 0x681 JUMP JUMPDEST DUP3 MSTORE POP POP JUMP JUMPDEST PUSH1 0x0 PUSH1 0x20 DUP3 ADD SWAP1 POP PUSH2 0x769 PUSH1 0x0 DUP4 ADD DUP5 PUSH2 0x745 JUMP JUMPDEST SWAP3 SWAP2 POP POP JUMP JUMPDEST PUSH32 0x4E487B7100000000000000000000000000000000000000000000000000000000 PUSH1 0x0 MSTORE PUSH1 0x32 PUSH1 0x4 MSTORE PUSH1 0x24 PUSH1 0x0 REVERT JUMPDEST PUSH32 0x4E487B7100000000000000000000000000000000000000000000000000000000 PUSH1 0x0 MSTORE PUSH1 0x11 PUSH1 0x4 MSTORE PUSH1 0x24 PUSH1 0x0 REVERT JUMPDEST PUSH1 0x0 PUSH2 0x7D8 DUP3 PUSH2 0x628 JUMP JUMPDEST SWAP2 POP PUSH32 0xFFFFFFFFFFFFFFFFFFFFFFFFFFFFFFFFFFFFFFFFFFFFFFFFFFFFFFFFFFFFFFFF DUP3 SUB PUSH2 0x80A JUMPI PUSH2 0x809 PUSH2 0x79E JUMP JUMPDEST JUMPDEST PUSH1 0x1 DUP3 ADD SWAP1 POP SWAP2 SWAP1 POP JUMP JUMPDEST PUSH32 0x4E487B7100000000000000000000000000000000000000000000000000000000 PUSH1 0x0 MSTORE PUSH1 0x41 PUSH1 0x4 MSTORE PUSH1 0x24 PUSH1 0x0 REVERT JUMPDEST PUSH1 0x0 DUP3 DUP3 MSTORE PUSH1 0x20 DUP3 ADD SWAP1 POP SWAP3 SWAP2 POP POP JUMP JUMPDEST PUSH32 0x436F756C64206E6F742073656E64000000000000000000000000000000000000 PUSH1 0x0 DUP3 ADD MSTORE POP JUMP JUMPDEST PUSH1 0x0 PUSH2 0x88B PUSH1 0xE DUP4 PUSH2 0x844 JUMP JUMPDEST SWAP2 POP PUSH2 0x896 DUP3 PUSH2 0x855 JUMP JUMPDEST PUSH1 0x20 DUP3 ADD SWAP1 POP SWAP2 SWAP1 POP JUMP JUMPDEST PUSH1 0x0 PUSH1 0x20 DUP3 ADD SWAP1 POP DUP2 DUP2 SUB PUSH1 0x0 DUP4 ADD MSTORE PUSH2 0x8BA DUP2 PUSH2 0x87E JUMP JUMPDEST SWAP1 POP SWAP2 SWAP1 POP JUMP JUMPDEST PUSH1 0x0 DUP2 SWAP1 POP SWAP3 SWAP2 POP POP JUMP JUMPDEST POP JUMP JUMPDEST PUSH1 0x0 PUSH2 0x8DC PUSH1 0x0 DUP4 PUSH2 0x8C1 JUMP JUMPDEST SWAP2 POP PUSH2 0x8E7 DUP3 PUSH2 0x8CC JUMP JUMPDEST PUSH1 0x0 DUP3 ADD SWAP1 POP SWAP2 SWAP1 POP JUMP JUMPDEST PUSH1 0x0 PUSH2 0x8FD DUP3 PUSH2 0x8CF JUMP JUMPDEST SWAP2 POP DUP2 SWAP1 POP SWAP2 SWAP1 POP JUMP JUMPDEST PUSH32 0x43616C6C206661696C6564000000000000000000000000000000000000000000 PUSH1 0x0 DUP3 ADD MSTORE POP JUMP JUMPDEST PUSH1 0x0 PUSH2 0x93D PUSH1 0xB DUP4 PUSH2 0x844 JUMP JUMPDEST SWAP2 POP PUSH2 0x948 DUP3 PUSH2 0x907 JUMP JUMPDEST PUSH1 0x20 DUP3 ADD SWAP1 POP SWAP2 SWAP1 POP JUMP JUMPDEST PUSH1 0x0 PUSH1 0x20 DUP3 ADD SWAP1 POP DUP2 DUP2 SUB PUSH1 0x0 DUP4 ADD MSTORE PUSH2 0x96C DUP2 PUSH2 0x930 JUMP JUMPDEST SWAP1 POP SWAP2 SWAP1 POP JUMP JUMPDEST PUSH32 0x4469646E27742073656E6420656E6F7567680000000000000000000000000000 PUSH1 0x0 DUP3 ADD MSTORE POP JUMP JUMPDEST PUSH1 0x0 PUSH2 0x9A9 PUSH1 0x12 DUP4 PUSH2 0x844 JUMP JUMPDEST SWAP2 POP PUSH2 0x9B4 DUP3 PUSH2 0x973 JUMP JUMPDEST PUSH1 0x20 DUP3 ADD SWAP1 POP SWAP2 SWAP1 POP JUMP JUMPDEST PUSH1 0x0 PUSH1 0x20 DUP3 ADD SWAP1 POP DUP2 DUP2 SUB PUSH1 0x0 DUP4 ADD MSTORE PUSH2 0x9D8 DUP2 PUSH2 0x99C JUMP JUMPDEST SWAP1 POP SWAP2 SWAP1 POP JUMP JUMPDEST PUSH1 0x0 PUSH2 0x9EA DUP3 PUSH2 0x628 JUMP JUMPDEST SWAP2 POP PUSH2 0x9F5 DUP4 PUSH2 0x628 JUMP JUMPDEST SWAP3 POP DUP2 PUSH32 0xFFFFFFFFFFFFFFFFFFFFFFFFFFFFFFFFFFFFFFFFFFFFFFFFFFFFFFFFFFFFFFFF DIV DUP4 GT DUP3 ISZERO ISZERO AND ISZERO PUSH2 0xA2E JUMPI PUSH2 0xA2D PUSH2 0x79E JUMP JUMPDEST JUMPDEST DUP3 DUP3 MUL SWAP1 POP SWAP3 SWAP2 POP POP JUMP JUMPDEST PUSH32 0x4E487B7100000000000000000000000000000000000000000000000000000000 PUSH1 0x0 MSTORE PUSH1 0x12 PUSH1 0x4 MSTORE PUSH1 0x24 PUSH1 0x0 REVERT JUMPDEST PUSH1 0x0 PUSH2 0xA73 DUP3 PUSH2 0x628 JUMP JUMPDEST SWAP2 POP PUSH2 0xA7E DUP4 PUSH2 0x628 JUMP JUMPDEST SWAP3 POP DUP3 PUSH2 0xA8E JUMPI PUSH2 0xA8D PUSH2 0xA39 JUMP JUMPDEST JUMPDEST DUP3 DUP3 DIV SWAP1 POP SWAP3 SWAP2 POP POP JUMP JUMPDEST PUSH1 0x0 PUSH10 0xFFFFFFFFFFFFFFFFFFFF DUP3 AND SWAP1 POP SWAP2 SWAP1 POP JUMP JUMPDEST PUSH2 0xAB8 DUP2 PUSH2 0xA99 JUMP JUMPDEST DUP2 EQ PUSH2 0xAC3 JUMPI PUSH1 0x0 DUP1 REVERT JUMPDEST POP JUMP JUMPDEST PUSH1 0x0 DUP2 MLOAD SWAP1 POP PUSH2 0xAD5 DUP2 PUSH2 0xAAF JUMP JUMPDEST SWAP3 SWAP2 POP POP JUMP JUMPDEST PUSH1 0x0 DUP2 SWAP1 POP SWAP2 SWAP1 POP JUMP JUMPDEST PUSH2 0xAEE DUP2 PUSH2 0xADB JUMP JUMPDEST DUP2 EQ PUSH2 0xAF9 JUMPI PUSH1 0x0 DUP1 REVERT JUMPDEST POP JUMP JUMPDEST PUSH1 0x0 DUP2 MLOAD SWAP1 POP PUSH2 0xB0B DUP2 PUSH2 0xAE5 JUMP JUMPDEST SWAP3 SWAP2 POP POP JUMP JUMPDEST PUSH1 0x0 DUP2 MLOAD SWAP1 POP PUSH2 0xB20 DUP2 PUSH2 0x6EC JUMP JUMPDEST SWAP3 SWAP2 POP POP JUMP JUMPDEST PUSH1 0x0 DUP1 PUSH1 0x0 DUP1 PUSH1 0x0 PUSH1 0xA0 DUP7 DUP9 SUB SLT ISZERO PUSH2 0xB42 JUMPI PUSH2 0xB41 PUSH2 0x65C JUMP JUMPDEST JUMPDEST PUSH1 0x0 PUSH2 0xB50 DUP9 DUP3 DUP10 ADD PUSH2 0xAC6 JUMP JUMPDEST SWAP6 POP POP PUSH1 0x20 PUSH2 0xB61 DUP9 DUP3 DUP10 ADD PUSH2 0xAFC JUMP JUMPDEST SWAP5 POP POP PUSH1 0x40 PUSH2 0xB72 DUP9 DUP3 DUP10 ADD PUSH2 0xB11 JUMP JUMPDEST SWAP4 POP POP PUSH1 0x60 PUSH2 0xB83 DUP9 DUP3 DUP10 ADD PUSH2 0xB11 JUMP JUMPDEST SWAP3 POP POP PUSH1 0x80 PUSH2 0xB94 DUP9 DUP3 DUP10 ADD PUSH2 0xAC6 JUMP JUMPDEST SWAP2 POP POP SWAP3 SWAP6 POP SWAP3 SWAP6 SWAP1 SWAP4 POP JUMP JUMPDEST PUSH1 0x0 PUSH2 0xBAC DUP3 PUSH2 0xADB JUMP JUMPDEST SWAP2 POP PUSH2 0xBB7 DUP4 PUSH2 0xADB JUMP JUMPDEST SWAP3 POP DUP3 PUSH32 0x7FFFFFFFFFFFFFFFFFFFFFFFFFFFFFFFFFFFFFFFFFFFFFFFFFFFFFFFFFFFFFFF DIV DUP3 GT PUSH1 0x0 DUP5 SGT PUSH1 0x0 DUP5 SGT AND AND ISZERO PUSH2 0xBF6 JUMPI PUSH2 0xBF5 PUSH2 0x79E JUMP JUMPDEST JUMPDEST DUP2 PUSH32 0x8000000000000000000000000000000000000000000000000000000000000000 SDIV DUP4 SLT PUSH1 0x0 DUP5 SLT PUSH1 0x0 DUP5 SGT AND AND ISZERO PUSH2 0xC33 JUMPI PUSH2 0xC32 PUSH2 0x79E JUMP JUMPDEST JUMPDEST DUP3 PUSH32 0x8000000000000000000000000000000000000000000000000000000000000000 SDIV DUP3 SLT PUSH1 0x0 DUP5 SGT PUSH1 0x0 DUP5 SLT AND AND ISZERO PUSH2 0xC70 JUMPI PUSH2 0xC6F PUSH2 0x79E JUMP JUMPDEST JUMPDEST DUP3 PUSH32 0x7FFFFFFFFFFFFFFFFFFFFFFFFFFFFFFFFFFFFFFFFFFFFFFFFFFFFFFFFFFFFFFF SDIV DUP3 SLT PUSH1 0x0 DUP5 SLT PUSH1 0x0 DUP5 SLT AND AND ISZERO PUSH2 0xCAD JUMPI PUSH2 0xCAC PUSH2 0x79E JUMP JUMPDEST JUMPDEST DUP3 DUP3 MUL SWAP1 POP SWAP3 SWAP2 POP POP JUMP INVALID LOG2 PUSH5 0x6970667358 0x22 SLT KECCAK256 DUP1 0xB8 PUSH29 0x52295B8F5AE3A402894BCF7FBEBD0BE8CF93307C1CF79837250FD9AA26 PUSH5 0x736F6C6343 STOP ADDMOD 0xF STOP CALLER "
				},
				"gasEstimates": {
					"creation": {
						"codeDepositCost": "662000",
						"executionCost": "22802",
						"totalCost": "684802"
					},
					"external": {
						"addressToAmountFunded(address)": "2836",
						"fund()": "infinite",
						"funders(uint256)": "5022",
						"minimumUsd()": "2407",
						"withdraw()": "infinite"
					}
				},
				"methodIdentifiers": {
					"addressToAmountFunded(address)": "3e47d6f3",
					"fund()": "b60d4288",
					"funders(uint256)": "dc0d3dff",
					"minimumUsd()": "098de820",
					"withdraw()": "3ccfd60b"
				}
			},
			"storageLayout": {
				"storage": [
					{
						"astId": 56,
						"contract": "contracts/FundMe.sol:FundMe",
						"label": "minimumUsd",
						"offset": 0,
						"slot": "0",
						"type": "t_uint256"
					},
					{
						"astId": 59,
						"contract": "contracts/FundMe.sol:FundMe",
						"label": "funders",
						"offset": 0,
						"slot": "1",
						"type": "t_array(t_address)dyn_storage"
					},
					{
						"astId": 63,
						"contract": "contracts/FundMe.sol:FundMe",
						"label": "addressToAmountFunded",
						"offset": 0,
						"slot": "2",
						"type": "t_mapping(t_address,t_uint256)"
					}
				],
				"types": {
					"t_address": {
						"encoding": "inplace",
						"label": "address",
						"numberOfBytes": "20"
					},
					"t_array(t_address)dyn_storage": {
						"base": "t_address",
						"encoding": "dynamic_array",
						"label": "address[]",
						"numberOfBytes": "32"
					},
					"t_mapping(t_address,t_uint256)": {
						"encoding": "mapping",
						"key": "t_address",
						"label": "mapping(address => uint256)",
						"numberOfBytes": "32",
						"value": "t_uint256"
					},
					"t_uint256": {
						"encoding": "inplace",
						"label": "uint256",
						"numberOfBytes": "32"
					}
				}
			},
			"userdoc": {
				"kind": "user",
				"methods": {},
				"version": 1
			}
		}
	}
}