{
	"contracts/FundMe.sol": {
		"FundMe": {
			"abi": [
				{
					"inputs": [],
					"stateMutability": "nonpayable",
					"type": "constructor"
				},
				{
					"inputs": [
						{
							"internalType": "address",
							"name": "",
							"type": "address"
						}
					],
					"name": "addressToAmountFunded",
					"outputs": [
						{
							"internalType": "uint256",
							"name": "",
							"type": "uint256"
						}
					],
					"stateMutability": "view",
					"type": "function"
				},
				{
					"inputs": [],
					"name": "fund",
					"outputs": [],
					"stateMutability": "payable",
					"type": "function"
				},
				{
					"inputs": [
						{
							"internalType": "uint256",
							"name": "",
							"type": "uint256"
						}
					],
					"name": "funders",
					"outputs": [
						{
							"internalType": "address",
							"name": "",
							"type": "address"
						}
					],
					"stateMutability": "view",
					"type": "function"
				},
				{
					"inputs": [],
					"name": "minimumUsd",
					"outputs": [
						{
							"internalType": "uint256",
							"name": "",
							"type": "uint256"
						}
					],
					"stateMutability": "view",
					"type": "function"
				},
				{
					"inputs": [],
					"name": "owner",
					"outputs": [
						{
							"internalType": "address",
							"name": "",
							"type": "address"
						}
					],
					"stateMutability": "view",
					"type": "function"
				},
				{
					"inputs": [],
					"name": "withdraw",
					"outputs": [],
					"stateMutability": "nonpayable",
					"type": "function"
				}
			],
			"devdoc": {
				"kind": "dev",
				"methods": {},
				"version": 1
			},
			"evm": {
				"assembly": "    /* \"contracts/FundMe.sol\":168:1882  contract FundMe{... */\n  mstore(0x40, 0x80)\n    /* \"contracts/FundMe.sol\":257:266  50 * 1e18 */\n  0x02b5e3af16b1880000\n    /* \"contracts/FundMe.sol\":229:266  uint256 public minimumUsd = 50 * 1e18 */\n  0x00\n  sstore\n    /* \"contracts/FundMe.sol\":392:440  constructor(){... */\n  callvalue\n  dup1\n  iszero\n  tag_1\n  jumpi\n  0x00\n  dup1\n  revert\ntag_1:\n  pop\n    /* \"contracts/FundMe.sol\":423:433  msg.sender */\n  caller\n    /* \"contracts/FundMe.sol\":415:420  owner */\n  0x03\n  0x00\n    /* \"contracts/FundMe.sol\":415:433  owner = msg.sender */\n  0x0100\n  exp\n  dup2\n  sload\n  dup2\n  0xffffffffffffffffffffffffffffffffffffffff\n  mul\n  not\n  and\n  swap1\n  dup4\n  0xffffffffffffffffffffffffffffffffffffffff\n  and\n  mul\n  or\n  swap1\n  sstore\n  pop\n    /* \"contracts/FundMe.sol\":168:1882  contract FundMe{... */\n  dataSize(sub_0)\n  dup1\n  dataOffset(sub_0)\n  0x00\n  codecopy\n  0x00\n  return\nstop\n\nsub_0: assembly {\n        /* \"contracts/FundMe.sol\":168:1882  contract FundMe{... */\n      mstore(0x40, 0x80)\n      jumpi(tag_1, lt(calldatasize, 0x04))\n      shr(0xe0, calldataload(0x00))\n      dup1\n      0x098de820\n      eq\n      tag_2\n      jumpi\n      dup1\n      0x3ccfd60b\n      eq\n      tag_3\n      jumpi\n      dup1\n      0x3e47d6f3\n      eq\n      tag_4\n      jumpi\n      dup1\n      0x8da5cb5b\n      eq\n      tag_5\n      jumpi\n      dup1\n      0xb60d4288\n      eq\n      tag_6\n      jumpi\n      dup1\n      0xdc0d3dff\n      eq\n      tag_7\n      jumpi\n    tag_1:\n      0x00\n      dup1\n      revert\n        /* \"contracts/FundMe.sol\":229:266  uint256 public minimumUsd = 50 * 1e18 */\n    tag_2:\n      callvalue\n      dup1\n      iszero\n      tag_8\n      jumpi\n      0x00\n      dup1\n      revert\n    tag_8:\n      pop\n      tag_9\n      tag_10\n      jump\t// in\n    tag_9:\n      mload(0x40)\n      tag_11\n      swap2\n      swap1\n      tag_12\n      jump\t// in\n    tag_11:\n      mload(0x40)\n      dup1\n      swap2\n      sub\n      swap1\n      return\n        /* \"contracts/FundMe.sol\":897:1776  function withdraw() public onlyOwner {... */\n    tag_3:\n      callvalue\n      dup1\n      iszero\n      tag_13\n      jumpi\n      0x00\n      dup1\n      revert\n    tag_13:\n      pop\n      tag_14\n      tag_15\n      jump\t// in\n    tag_14:\n      stop\n        /* \"contracts/FundMe.sol\":303:359  mapping(address => uint256) public addressToAmountFunded */\n    tag_4:\n      callvalue\n      dup1\n      iszero\n      tag_16\n      jumpi\n      0x00\n      dup1\n      revert\n    tag_16:\n      pop\n      tag_17\n      0x04\n      dup1\n      calldatasize\n      sub\n      dup2\n      add\n      swap1\n      tag_18\n      swap2\n      swap1\n      tag_19\n      jump\t// in\n    tag_18:\n      tag_20\n      jump\t// in\n    tag_17:\n      mload(0x40)\n      tag_21\n      swap2\n      swap1\n      tag_12\n      jump\t// in\n    tag_21:\n      mload(0x40)\n      dup1\n      swap2\n      sub\n      swap1\n      return\n        /* \"contracts/FundMe.sol\":366:386  address public owner */\n    tag_5:\n      callvalue\n      dup1\n      iszero\n      tag_22\n      jumpi\n      0x00\n      dup1\n      revert\n    tag_22:\n      pop\n      tag_23\n      tag_24\n      jump\t// in\n    tag_23:\n      mload(0x40)\n      tag_25\n      swap2\n      swap1\n      tag_26\n      jump\t// in\n    tag_25:\n      mload(0x40)\n      dup1\n      swap2\n      sub\n      swap1\n      return\n        /* \"contracts/FundMe.sol\":446:891  function fund() public payable{ ... */\n    tag_6:\n      tag_27\n      tag_28\n      jump\t// in\n    tag_27:\n      stop\n        /* \"contracts/FundMe.sol\":273:297  address[] public funders */\n    tag_7:\n      callvalue\n      dup1\n      iszero\n      tag_29\n      jumpi\n      0x00\n      dup1\n      revert\n    tag_29:\n      pop\n      tag_30\n      0x04\n      dup1\n      calldatasize\n      sub\n      dup2\n      add\n      swap1\n      tag_31\n      swap2\n      swap1\n      tag_32\n      jump\t// in\n    tag_31:\n      tag_33\n      jump\t// in\n    tag_30:\n      mload(0x40)\n      tag_34\n      swap2\n      swap1\n      tag_26\n      jump\t// in\n    tag_34:\n      mload(0x40)\n      dup1\n      swap2\n      sub\n      swap1\n      return\n        /* \"contracts/FundMe.sol\":229:266  uint256 public minimumUsd = 50 * 1e18 */\n    tag_10:\n      sload(0x00)\n      dup2\n      jump\t// out\n        /* \"contracts/FundMe.sol\":897:1776  function withdraw() public onlyOwner {... */\n    tag_15:\n        /* \"contracts/FundMe.sol\":1834:1839  owner */\n      0x03\n      0x00\n      swap1\n      sload\n      swap1\n      0x0100\n      exp\n      swap1\n      div\n      0xffffffffffffffffffffffffffffffffffffffff\n      and\n        /* \"contracts/FundMe.sol\":1820:1839  msg.sender == owner */\n      0xffffffffffffffffffffffffffffffffffffffff\n      and\n        /* \"contracts/FundMe.sol\":1820:1830  msg.sender */\n      caller\n        /* \"contracts/FundMe.sol\":1820:1839  msg.sender == owner */\n      0xffffffffffffffffffffffffffffffffffffffff\n      and\n      eq\n        /* \"contracts/FundMe.sol\":1812:1862  require(msg.sender == owner, \"You are not Owner!\") */\n      tag_36\n      jumpi\n      mload(0x40)\n      0x08c379a000000000000000000000000000000000000000000000000000000000\n      dup2\n      mstore\n      0x04\n      add\n      tag_37\n      swap1\n      tag_38\n      jump\t// in\n    tag_37:\n      mload(0x40)\n      dup1\n      swap2\n      sub\n      swap1\n      revert\n    tag_36:\n        /* \"contracts/FundMe.sol\":949:968  uint256 funderIndex */\n      0x00\n        /* \"contracts/FundMe.sol\":945:1128  for(uint256 funderIndex = 0; funderIndex < funders.length; funderIndex++ ){... */\n    tag_40:\n        /* \"contracts/FundMe.sol\":988:995  funders */\n      0x01\n        /* \"contracts/FundMe.sol\":988:1002  funders.length */\n      dup1\n      sload\n      swap1\n      pop\n        /* \"contracts/FundMe.sol\":974:985  funderIndex */\n      dup2\n        /* \"contracts/FundMe.sol\":974:1002  funderIndex < funders.length */\n      lt\n        /* \"contracts/FundMe.sol\":945:1128  for(uint256 funderIndex = 0; funderIndex < funders.length; funderIndex++ ){... */\n      iszero\n      tag_41\n      jumpi\n        /* \"contracts/FundMe.sol\":1033:1047  address funder */\n      0x00\n        /* \"contracts/FundMe.sol\":1050:1057  funders */\n      0x01\n        /* \"contracts/FundMe.sol\":1058:1069  funderIndex */\n      dup3\n        /* \"contracts/FundMe.sol\":1050:1070  funders[funderIndex] */\n      dup2\n      sload\n      dup2\n      lt\n      tag_43\n      jumpi\n      tag_44\n      tag_45\n      jump\t// in\n    tag_44:\n    tag_43:\n      swap1\n      0x00\n      mstore\n      keccak256(0x00, 0x20)\n      add\n      0x00\n      swap1\n      sload\n      swap1\n      0x0100\n      exp\n      swap1\n      div\n      0xffffffffffffffffffffffffffffffffffffffff\n      and\n        /* \"contracts/FundMe.sol\":1033:1070  address funder = funders[funderIndex] */\n      swap1\n      pop\n        /* \"contracts/FundMe.sol\":1116:1117  0 */\n      0x00\n        /* \"contracts/FundMe.sol\":1084:1105  addressToAmountFunded */\n      0x02\n        /* \"contracts/FundMe.sol\":1084:1113  addressToAmountFunded[funder] */\n      0x00\n        /* \"contracts/FundMe.sol\":1106:1112  funder */\n      dup4\n        /* \"contracts/FundMe.sol\":1084:1113  addressToAmountFunded[funder] */\n      0xffffffffffffffffffffffffffffffffffffffff\n      and\n      0xffffffffffffffffffffffffffffffffffffffff\n      and\n      dup2\n      mstore\n      0x20\n      add\n      swap1\n      dup2\n      mstore\n      0x20\n      add\n      0x00\n      keccak256\n        /* \"contracts/FundMe.sol\":1084:1117  addressToAmountFunded[funder] = 0 */\n      dup2\n      swap1\n      sstore\n      pop\n        /* \"contracts/FundMe.sol\":1019:1128  {... */\n      pop\n        /* \"contracts/FundMe.sol\":1004:1017  funderIndex++ */\n      dup1\n      dup1\n      tag_47\n      swap1\n      tag_48\n      jump\t// in\n    tag_47:\n      swap2\n      pop\n      pop\n        /* \"contracts/FundMe.sol\":945:1128  for(uint256 funderIndex = 0; funderIndex < funders.length; funderIndex++ ){... */\n      jump(tag_40)\n    tag_41:\n      pop\n        /* \"contracts/FundMe.sol\":1187:1188  0 */\n      0x00\n        /* \"contracts/FundMe.sol\":1173:1189  new address[](0) */\n      0xffffffffffffffff\n      dup2\n      gt\n      iszero\n      tag_49\n      jumpi\n      tag_50\n      tag_51\n      jump\t// in\n    tag_50:\n    tag_49:\n      mload(0x40)\n      swap1\n      dup1\n      dup3\n      mstore\n      dup1\n      0x20\n      mul\n      0x20\n      add\n      dup3\n      add\n      0x40\n      mstore\n      dup1\n      iszero\n      tag_52\n      jumpi\n      dup2\n      0x20\n      add\n      0x20\n      dup3\n      mul\n      dup1\n      calldatasize\n      dup4\n      calldatacopy\n      dup1\n      dup3\n      add\n      swap2\n      pop\n      pop\n      swap1\n      pop\n    tag_52:\n      pop\n        /* \"contracts/FundMe.sol\":1163:1170  funders */\n      0x01\n        /* \"contracts/FundMe.sol\":1163:1189  funders = new address[](0) */\n      swap1\n      dup1\n      mload\n      swap1\n      0x20\n      add\n      swap1\n      tag_53\n      swap3\n      swap2\n      swap1\n      tag_54\n      jump\t// in\n    tag_53:\n      pop\n        /* \"contracts/FundMe.sol\":1586:1602  bool callSuccess */\n      0x00\n        /* \"contracts/FundMe.sol\":1670:1680  msg.sender */\n      caller\n        /* \"contracts/FundMe.sol\":1662:1686  payable(msg.sender).call */\n      0xffffffffffffffffffffffffffffffffffffffff\n      and\n        /* \"contracts/FundMe.sol\":1694:1715  address(this).balance */\n      selfbalance\n        /* \"contracts/FundMe.sol\":1662:1720  payable(msg.sender).call{value: address(this).balance}(\"\") */\n      mload(0x40)\n      tag_55\n      swap1\n      tag_56\n      jump\t// in\n    tag_55:\n      0x00\n      mload(0x40)\n      dup1\n      dup4\n      sub\n      dup2\n      dup6\n      dup8\n      gas\n      call\n      swap3\n      pop\n      pop\n      pop\n      returndatasize\n      dup1\n      0x00\n      dup2\n      eq\n      tag_59\n      jumpi\n      mload(0x40)\n      swap2\n      pop\n      and(add(returndatasize, 0x3f), not(0x1f))\n      dup3\n      add\n      0x40\n      mstore\n      returndatasize\n      dup3\n      mstore\n      returndatasize\n      0x00\n      0x20\n      dup5\n      add\n      returndatacopy\n      jump(tag_58)\n    tag_59:\n      0x60\n      swap2\n      pop\n    tag_58:\n      pop\n        /* \"contracts/FundMe.sol\":1585:1720  (bool callSuccess, /*bytes memory dataReturned  <-not necessary for now*/) = payable(msg.sender).call{value: address(this).balance}(\"\") */\n      pop\n      swap1\n      pop\n        /* \"contracts/FundMe.sol\":1742:1753  callSuccess */\n      dup1\n        /* \"contracts/FundMe.sol\":1734:1768  require(callSuccess,\"Call failed\") */\n      tag_60\n      jumpi\n      mload(0x40)\n      0x08c379a000000000000000000000000000000000000000000000000000000000\n      dup2\n      mstore\n      0x04\n      add\n      tag_61\n      swap1\n      tag_62\n      jump\t// in\n    tag_61:\n      mload(0x40)\n      dup1\n      swap2\n      sub\n      swap1\n      revert\n    tag_60:\n        /* \"contracts/FundMe.sol\":934:1776  {... */\n      pop\n        /* \"contracts/FundMe.sol\":897:1776  function withdraw() public onlyOwner {... */\n      jump\t// out\n        /* \"contracts/FundMe.sol\":303:359  mapping(address => uint256) public addressToAmountFunded */\n    tag_20:\n      mstore(0x20, 0x02)\n      dup1\n      0x00\n      mstore\n      keccak256(0x00, 0x40)\n      0x00\n      swap2\n      pop\n      swap1\n      pop\n      sload\n      dup2\n      jump\t// out\n        /* \"contracts/FundMe.sol\":366:386  address public owner */\n    tag_24:\n      0x03\n      0x00\n      swap1\n      sload\n      swap1\n      0x0100\n      exp\n      swap1\n      div\n      0xffffffffffffffffffffffffffffffffffffffff\n      and\n      dup2\n      jump\t// out\n        /* \"contracts/FundMe.sol\":446:891  function fund() public payable{ ... */\n    tag_28:\n        /* \"contracts/FundMe.sol\":719:729  minimumUsd */\n      sload(0x00)\n        /* \"contracts/FundMe.sol\":686:715  msg.value.getConversionRate() */\n      tag_64\n        /* \"contracts/FundMe.sol\":686:695  msg.value */\n      callvalue\n        /* \"contracts/FundMe.sol\":686:713  msg.value.getConversionRate */\n      tag_65\n        /* \"contracts/FundMe.sol\":686:715  msg.value.getConversionRate() */\n      jump\t// in\n    tag_64:\n        /* \"contracts/FundMe.sol\":686:729  msg.value.getConversionRate() >= minimumUsd */\n      lt\n      iszero\n        /* \"contracts/FundMe.sol\":678:752  require(msg.value.getConversionRate() >= minimumUsd, \"Didn't send enough\") */\n      tag_66\n      jumpi\n      mload(0x40)\n      0x08c379a000000000000000000000000000000000000000000000000000000000\n      dup2\n      mstore\n      0x04\n      add\n      tag_67\n      swap1\n      tag_68\n      jump\t// in\n    tag_67:\n      mload(0x40)\n      dup1\n      swap2\n      sub\n      swap1\n      revert\n    tag_66:\n        /* \"contracts/FundMe.sol\":804:811  funders */\n      0x01\n        /* \"contracts/FundMe.sol\":817:827  msg.sender */\n      caller\n        /* \"contracts/FundMe.sol\":804:828  funders.push(msg.sender) */\n      swap1\n      dup1\n      0x01\n      dup2\n      sload\n      add\n      dup1\n      dup3\n      sstore\n      dup1\n      swap2\n      pop\n      pop\n      0x01\n      swap1\n      sub\n      swap1\n      0x00\n      mstore\n      keccak256(0x00, 0x20)\n      add\n      0x00\n      swap1\n      swap2\n      swap1\n      swap2\n      swap1\n      swap2\n      0x0100\n      exp\n      dup2\n      sload\n      dup2\n      0xffffffffffffffffffffffffffffffffffffffff\n      mul\n      not\n      and\n      swap1\n      dup4\n      0xffffffffffffffffffffffffffffffffffffffff\n      and\n      mul\n      or\n      swap1\n      sstore\n      pop\n        /* \"contracts/FundMe.sol\":874:883  msg.value */\n      callvalue\n        /* \"contracts/FundMe.sol\":838:859  addressToAmountFunded */\n      0x02\n        /* \"contracts/FundMe.sol\":838:871  addressToAmountFunded[msg.sender] */\n      0x00\n        /* \"contracts/FundMe.sol\":860:870  msg.sender */\n      caller\n        /* \"contracts/FundMe.sol\":838:871  addressToAmountFunded[msg.sender] */\n      0xffffffffffffffffffffffffffffffffffffffff\n      and\n      0xffffffffffffffffffffffffffffffffffffffff\n      and\n      dup2\n      mstore\n      0x20\n      add\n      swap1\n      dup2\n      mstore\n      0x20\n      add\n      0x00\n      keccak256\n        /* \"contracts/FundMe.sol\":838:883  addressToAmountFunded[msg.sender] = msg.value */\n      dup2\n      swap1\n      sstore\n      pop\n        /* \"contracts/FundMe.sol\":446:891  function fund() public payable{ ... */\n      jump\t// out\n        /* \"contracts/FundMe.sol\":273:297  address[] public funders */\n    tag_33:\n      0x01\n      dup2\n      dup2\n      sload\n      dup2\n      lt\n      tag_70\n      jumpi\n      0x00\n      dup1\n      revert\n    tag_70:\n      swap1\n      0x00\n      mstore\n      keccak256(0x00, 0x20)\n      add\n      0x00\n      swap2\n      pop\n      sload\n      swap1\n      0x0100\n      exp\n      swap1\n      div\n      0xffffffffffffffffffffffffffffffffffffffff\n      and\n      dup2\n      jump\t// out\n        /* \"contracts/PriceConverter.sol\":805:1024  function getConversionRate(uint256 ethAmount) internal view returns (uint256) {... */\n    tag_65:\n        /* \"contracts/PriceConverter.sol\":874:881  uint256 */\n      0x00\n        /* \"contracts/PriceConverter.sol\":894:910  uint256 ethPrice */\n      dup1\n        /* \"contracts/PriceConverter.sol\":912:922  getPrice() */\n      tag_73\n        /* \"contracts/PriceConverter.sol\":912:920  getPrice */\n      tag_74\n        /* \"contracts/PriceConverter.sol\":912:922  getPrice() */\n      jump\t// in\n    tag_73:\n        /* \"contracts/PriceConverter.sol\":894:922  uint256 ethPrice= getPrice() */\n      swap1\n      pop\n        /* \"contracts/PriceConverter.sol\":932:954  uint256 ethAmountInUsd */\n      0x00\n        /* \"contracts/PriceConverter.sol\":982:986  1e18 */\n      0x0de0b6b3a7640000\n        /* \"contracts/PriceConverter.sol\":969:978  ethAmount */\n      dup5\n        /* \"contracts/PriceConverter.sol\":958:966  ethPrice */\n      dup4\n        /* \"contracts/PriceConverter.sol\":958:978  ethPrice * ethAmount */\n      tag_75\n      swap2\n      swap1\n      tag_76\n      jump\t// in\n    tag_75:\n        /* \"contracts/PriceConverter.sol\":957:986  (ethPrice * ethAmount) / 1e18 */\n      tag_77\n      swap2\n      swap1\n      tag_78\n      jump\t// in\n    tag_77:\n        /* \"contracts/PriceConverter.sol\":932:986  uint256 ethAmountInUsd = (ethPrice * ethAmount) / 1e18 */\n      swap1\n      pop\n        /* \"contracts/PriceConverter.sol\":1003:1017  ethAmountInUsd */\n      dup1\n        /* \"contracts/PriceConverter.sol\":996:1017  return ethAmountInUsd */\n      swap3\n      pop\n      pop\n      pop\n        /* \"contracts/PriceConverter.sol\":805:1024  function getConversionRate(uint256 ethAmount) internal view returns (uint256) {... */\n      swap2\n      swap1\n      pop\n      jump\t// out\n        /* \"contracts/PriceConverter.sol\":166:587  function getPrice() internal view returns(uint256) {... */\n    tag_74:\n        /* \"contracts/PriceConverter.sol\":208:215  uint256 */\n      0x00\n        /* \"contracts/PriceConverter.sol\":308:339  AggregatorV3Interface priceFeed */\n      dup1\n        /* \"contracts/PriceConverter.sol\":364:406  0x8A753747A1Fa494EC906cE90E9f37563A8AF630e */\n      0x8a753747a1fa494ec906ce90e9f37563a8af630e\n        /* \"contracts/PriceConverter.sol\":308:407  AggregatorV3Interface priceFeed = AggregatorV3Interface(0x8A753747A1Fa494EC906cE90E9f37563A8AF630e) */\n      swap1\n      pop\n        /* \"contracts/PriceConverter.sol\":419:431  int256 price */\n      0x00\n        /* \"contracts/PriceConverter.sol\":438:447  priceFeed */\n      dup2\n        /* \"contracts/PriceConverter.sol\":438:463  priceFeed.latestRoundData */\n      0xffffffffffffffffffffffffffffffffffffffff\n      and\n      0xfeaf968c\n        /* \"contracts/PriceConverter.sol\":438:465  priceFeed.latestRoundData() */\n      mload(0x40)\n      dup2\n      0xffffffff\n      and\n      0xe0\n      shl\n      dup2\n      mstore\n      0x04\n      add\n      0xa0\n      mload(0x40)\n      dup1\n      dup4\n      sub\n      dup2\n      dup7\n      gas\n      staticcall\n      iszero\n      dup1\n      iszero\n      tag_81\n      jumpi\n      returndatasize\n      0x00\n      dup1\n      returndatacopy\n      revert(0x00, returndatasize)\n    tag_81:\n      pop\n      pop\n      pop\n      pop\n      mload(0x40)\n      returndatasize\n      not(0x1f)\n      0x1f\n      dup3\n      add\n      and\n      dup3\n      add\n      dup1\n      0x40\n      mstore\n      pop\n      dup2\n      add\n      swap1\n      tag_82\n      swap2\n      swap1\n      tag_83\n      jump\t// in\n    tag_82:\n        /* \"contracts/PriceConverter.sol\":417:465  (,int256 price,,,) = priceFeed.latestRoundData() */\n      pop\n      pop\n      pop\n      swap2\n      pop\n      pop\n        /* \"contracts/PriceConverter.sol\":552:556  1e10 */\n      0x02540be400\n        /* \"contracts/PriceConverter.sol\":544:549  price */\n      dup2\n        /* \"contracts/PriceConverter.sol\":544:556  price * 1e10 */\n      tag_84\n      swap2\n      swap1\n      tag_85\n      jump\t// in\n    tag_84:\n        /* \"contracts/PriceConverter.sol\":529:557  return uint256(price * 1e10) */\n      swap3\n      pop\n      pop\n      pop\n        /* \"contracts/PriceConverter.sol\":166:587  function getPrice() internal view returns(uint256) {... */\n      swap1\n      jump\t// out\n    tag_54:\n      dup3\n      dup1\n      sload\n      dup3\n      dup3\n      sstore\n      swap1\n      0x00\n      mstore\n      keccak256(0x00, 0x20)\n      swap1\n      dup2\n      add\n      swap3\n      dup3\n      iszero\n      tag_86\n      jumpi\n      swap2\n      0x20\n      mul\n      dup3\n      add\n    tag_87:\n      dup3\n      dup2\n      gt\n      iszero\n      tag_88\n      jumpi\n      dup3\n      mload\n      dup3\n      exp(0x0100, 0x00)\n      dup2\n      sload\n      dup2\n      0xffffffffffffffffffffffffffffffffffffffff\n      mul\n      not\n      and\n      swap1\n      dup4\n      0xffffffffffffffffffffffffffffffffffffffff\n      and\n      mul\n      or\n      swap1\n      sstore\n      pop\n      swap2\n      0x20\n      add\n      swap2\n      swap1\n      0x01\n      add\n      swap1\n      jump(tag_87)\n    tag_88:\n    tag_86:\n      pop\n      swap1\n      pop\n      tag_89\n      swap2\n      swap1\n      tag_90\n      jump\t// in\n    tag_89:\n      pop\n      swap1\n      jump\t// out\n    tag_90:\n    tag_91:\n      dup1\n      dup3\n      gt\n      iszero\n      tag_92\n      jumpi\n      0x00\n      dup2\n      0x00\n      swap1\n      sstore\n      pop\n      0x01\n      add\n      jump(tag_91)\n    tag_92:\n      pop\n      swap1\n      jump\t// out\n        /* \"#utility.yul\":7:84   */\n    tag_93:\n        /* \"#utility.yul\":44:51   */\n      0x00\n        /* \"#utility.yul\":73:78   */\n      dup2\n        /* \"#utility.yul\":62:78   */\n      swap1\n      pop\n        /* \"#utility.yul\":7:84   */\n      swap2\n      swap1\n      pop\n      jump\t// out\n        /* \"#utility.yul\":90:208   */\n    tag_94:\n        /* \"#utility.yul\":177:201   */\n      tag_127\n        /* \"#utility.yul\":195:200   */\n      dup2\n        /* \"#utility.yul\":177:201   */\n      tag_93\n      jump\t// in\n    tag_127:\n        /* \"#utility.yul\":172:175   */\n      dup3\n        /* \"#utility.yul\":165:202   */\n      mstore\n        /* \"#utility.yul\":90:208   */\n      pop\n      pop\n      jump\t// out\n        /* \"#utility.yul\":214:436   */\n    tag_12:\n        /* \"#utility.yul\":307:311   */\n      0x00\n        /* \"#utility.yul\":345:347   */\n      0x20\n        /* \"#utility.yul\":334:343   */\n      dup3\n        /* \"#utility.yul\":330:348   */\n      add\n        /* \"#utility.yul\":322:348   */\n      swap1\n      pop\n        /* \"#utility.yul\":358:429   */\n      tag_129\n        /* \"#utility.yul\":426:427   */\n      0x00\n        /* \"#utility.yul\":415:424   */\n      dup4\n        /* \"#utility.yul\":411:428   */\n      add\n        /* \"#utility.yul\":402:408   */\n      dup5\n        /* \"#utility.yul\":358:429   */\n      tag_94\n      jump\t// in\n    tag_129:\n        /* \"#utility.yul\":214:436   */\n      swap3\n      swap2\n      pop\n      pop\n      jump\t// out\n        /* \"#utility.yul\":523:640   */\n    tag_96:\n        /* \"#utility.yul\":632:633   */\n      0x00\n        /* \"#utility.yul\":629:630   */\n      dup1\n        /* \"#utility.yul\":622:634   */\n      revert\n        /* \"#utility.yul\":769:895   */\n    tag_98:\n        /* \"#utility.yul\":806:813   */\n      0x00\n        /* \"#utility.yul\":846:888   */\n      0xffffffffffffffffffffffffffffffffffffffff\n        /* \"#utility.yul\":839:844   */\n      dup3\n        /* \"#utility.yul\":835:889   */\n      and\n        /* \"#utility.yul\":824:889   */\n      swap1\n      pop\n        /* \"#utility.yul\":769:895   */\n      swap2\n      swap1\n      pop\n      jump\t// out\n        /* \"#utility.yul\":901:997   */\n    tag_99:\n        /* \"#utility.yul\":938:945   */\n      0x00\n        /* \"#utility.yul\":967:991   */\n      tag_135\n        /* \"#utility.yul\":985:990   */\n      dup3\n        /* \"#utility.yul\":967:991   */\n      tag_98\n      jump\t// in\n    tag_135:\n        /* \"#utility.yul\":956:991   */\n      swap1\n      pop\n        /* \"#utility.yul\":901:997   */\n      swap2\n      swap1\n      pop\n      jump\t// out\n        /* \"#utility.yul\":1003:1125   */\n    tag_100:\n        /* \"#utility.yul\":1076:1100   */\n      tag_137\n        /* \"#utility.yul\":1094:1099   */\n      dup2\n        /* \"#utility.yul\":1076:1100   */\n      tag_99\n      jump\t// in\n    tag_137:\n        /* \"#utility.yul\":1069:1074   */\n      dup2\n        /* \"#utility.yul\":1066:1101   */\n      eq\n        /* \"#utility.yul\":1056:1119   */\n      tag_138\n      jumpi\n        /* \"#utility.yul\":1115:1116   */\n      0x00\n        /* \"#utility.yul\":1112:1113   */\n      dup1\n        /* \"#utility.yul\":1105:1117   */\n      revert\n        /* \"#utility.yul\":1056:1119   */\n    tag_138:\n        /* \"#utility.yul\":1003:1125   */\n      pop\n      jump\t// out\n        /* \"#utility.yul\":1131:1270   */\n    tag_101:\n        /* \"#utility.yul\":1177:1182   */\n      0x00\n        /* \"#utility.yul\":1215:1221   */\n      dup2\n        /* \"#utility.yul\":1202:1222   */\n      calldataload\n        /* \"#utility.yul\":1193:1222   */\n      swap1\n      pop\n        /* \"#utility.yul\":1231:1264   */\n      tag_140\n        /* \"#utility.yul\":1258:1263   */\n      dup2\n        /* \"#utility.yul\":1231:1264   */\n      tag_100\n      jump\t// in\n    tag_140:\n        /* \"#utility.yul\":1131:1270   */\n      swap3\n      swap2\n      pop\n      pop\n      jump\t// out\n        /* \"#utility.yul\":1276:1605   */\n    tag_19:\n        /* \"#utility.yul\":1335:1341   */\n      0x00\n        /* \"#utility.yul\":1384:1386   */\n      0x20\n        /* \"#utility.yul\":1372:1381   */\n      dup3\n        /* \"#utility.yul\":1363:1370   */\n      dup5\n        /* \"#utility.yul\":1359:1382   */\n      sub\n        /* \"#utility.yul\":1355:1387   */\n      slt\n        /* \"#utility.yul\":1352:1471   */\n      iszero\n      tag_142\n      jumpi\n        /* \"#utility.yul\":1390:1469   */\n      tag_143\n      tag_96\n      jump\t// in\n    tag_143:\n        /* \"#utility.yul\":1352:1471   */\n    tag_142:\n        /* \"#utility.yul\":1510:1511   */\n      0x00\n        /* \"#utility.yul\":1535:1588   */\n      tag_144\n        /* \"#utility.yul\":1580:1587   */\n      dup5\n        /* \"#utility.yul\":1571:1577   */\n      dup3\n        /* \"#utility.yul\":1560:1569   */\n      dup6\n        /* \"#utility.yul\":1556:1578   */\n      add\n        /* \"#utility.yul\":1535:1588   */\n      tag_101\n      jump\t// in\n    tag_144:\n        /* \"#utility.yul\":1525:1588   */\n      swap2\n      pop\n        /* \"#utility.yul\":1481:1598   */\n      pop\n        /* \"#utility.yul\":1276:1605   */\n      swap3\n      swap2\n      pop\n      pop\n      jump\t// out\n        /* \"#utility.yul\":1611:1729   */\n    tag_102:\n        /* \"#utility.yul\":1698:1722   */\n      tag_146\n        /* \"#utility.yul\":1716:1721   */\n      dup2\n        /* \"#utility.yul\":1698:1722   */\n      tag_99\n      jump\t// in\n    tag_146:\n        /* \"#utility.yul\":1693:1696   */\n      dup3\n        /* \"#utility.yul\":1686:1723   */\n      mstore\n        /* \"#utility.yul\":1611:1729   */\n      pop\n      pop\n      jump\t// out\n        /* \"#utility.yul\":1735:1957   */\n    tag_26:\n        /* \"#utility.yul\":1828:1832   */\n      0x00\n        /* \"#utility.yul\":1866:1868   */\n      0x20\n        /* \"#utility.yul\":1855:1864   */\n      dup3\n        /* \"#utility.yul\":1851:1869   */\n      add\n        /* \"#utility.yul\":1843:1869   */\n      swap1\n      pop\n        /* \"#utility.yul\":1879:1950   */\n      tag_148\n        /* \"#utility.yul\":1947:1948   */\n      0x00\n        /* \"#utility.yul\":1936:1945   */\n      dup4\n        /* \"#utility.yul\":1932:1949   */\n      add\n        /* \"#utility.yul\":1923:1929   */\n      dup5\n        /* \"#utility.yul\":1879:1950   */\n      tag_102\n      jump\t// in\n    tag_148:\n        /* \"#utility.yul\":1735:1957   */\n      swap3\n      swap2\n      pop\n      pop\n      jump\t// out\n        /* \"#utility.yul\":1963:2085   */\n    tag_103:\n        /* \"#utility.yul\":2036:2060   */\n      tag_150\n        /* \"#utility.yul\":2054:2059   */\n      dup2\n        /* \"#utility.yul\":2036:2060   */\n      tag_93\n      jump\t// in\n    tag_150:\n        /* \"#utility.yul\":2029:2034   */\n      dup2\n        /* \"#utility.yul\":2026:2061   */\n      eq\n        /* \"#utility.yul\":2016:2079   */\n      tag_151\n      jumpi\n        /* \"#utility.yul\":2075:2076   */\n      0x00\n        /* \"#utility.yul\":2072:2073   */\n      dup1\n        /* \"#utility.yul\":2065:2077   */\n      revert\n        /* \"#utility.yul\":2016:2079   */\n    tag_151:\n        /* \"#utility.yul\":1963:2085   */\n      pop\n      jump\t// out\n        /* \"#utility.yul\":2091:2230   */\n    tag_104:\n        /* \"#utility.yul\":2137:2142   */\n      0x00\n        /* \"#utility.yul\":2175:2181   */\n      dup2\n        /* \"#utility.yul\":2162:2182   */\n      calldataload\n        /* \"#utility.yul\":2153:2182   */\n      swap1\n      pop\n        /* \"#utility.yul\":2191:2224   */\n      tag_153\n        /* \"#utility.yul\":2218:2223   */\n      dup2\n        /* \"#utility.yul\":2191:2224   */\n      tag_103\n      jump\t// in\n    tag_153:\n        /* \"#utility.yul\":2091:2230   */\n      swap3\n      swap2\n      pop\n      pop\n      jump\t// out\n        /* \"#utility.yul\":2236:2565   */\n    tag_32:\n        /* \"#utility.yul\":2295:2301   */\n      0x00\n        /* \"#utility.yul\":2344:2346   */\n      0x20\n        /* \"#utility.yul\":2332:2341   */\n      dup3\n        /* \"#utility.yul\":2323:2330   */\n      dup5\n        /* \"#utility.yul\":2319:2342   */\n      sub\n        /* \"#utility.yul\":2315:2347   */\n      slt\n        /* \"#utility.yul\":2312:2431   */\n      iszero\n      tag_155\n      jumpi\n        /* \"#utility.yul\":2350:2429   */\n      tag_156\n      tag_96\n      jump\t// in\n    tag_156:\n        /* \"#utility.yul\":2312:2431   */\n    tag_155:\n        /* \"#utility.yul\":2470:2471   */\n      0x00\n        /* \"#utility.yul\":2495:2548   */\n      tag_157\n        /* \"#utility.yul\":2540:2547   */\n      dup5\n        /* \"#utility.yul\":2531:2537   */\n      dup3\n        /* \"#utility.yul\":2520:2529   */\n      dup6\n        /* \"#utility.yul\":2516:2538   */\n      add\n        /* \"#utility.yul\":2495:2548   */\n      tag_104\n      jump\t// in\n    tag_157:\n        /* \"#utility.yul\":2485:2548   */\n      swap2\n      pop\n        /* \"#utility.yul\":2441:2558   */\n      pop\n        /* \"#utility.yul\":2236:2565   */\n      swap3\n      swap2\n      pop\n      pop\n      jump\t// out\n        /* \"#utility.yul\":2571:2740   */\n    tag_105:\n        /* \"#utility.yul\":2655:2666   */\n      0x00\n        /* \"#utility.yul\":2689:2695   */\n      dup3\n        /* \"#utility.yul\":2684:2687   */\n      dup3\n        /* \"#utility.yul\":2677:2696   */\n      mstore\n        /* \"#utility.yul\":2729:2733   */\n      0x20\n        /* \"#utility.yul\":2724:2727   */\n      dup3\n        /* \"#utility.yul\":2720:2734   */\n      add\n        /* \"#utility.yul\":2705:2734   */\n      swap1\n      pop\n        /* \"#utility.yul\":2571:2740   */\n      swap3\n      swap2\n      pop\n      pop\n      jump\t// out\n        /* \"#utility.yul\":2746:2914   */\n    tag_106:\n        /* \"#utility.yul\":2886:2906   */\n      0x596f7520617265206e6f74204f776e6572210000000000000000000000000000\n        /* \"#utility.yul\":2882:2883   */\n      0x00\n        /* \"#utility.yul\":2874:2880   */\n      dup3\n        /* \"#utility.yul\":2870:2884   */\n      add\n        /* \"#utility.yul\":2863:2907   */\n      mstore\n        /* \"#utility.yul\":2746:2914   */\n      pop\n      jump\t// out\n        /* \"#utility.yul\":2920:3286   */\n    tag_107:\n        /* \"#utility.yul\":3062:3065   */\n      0x00\n        /* \"#utility.yul\":3083:3150   */\n      tag_161\n        /* \"#utility.yul\":3147:3149   */\n      0x12\n        /* \"#utility.yul\":3142:3145   */\n      dup4\n        /* \"#utility.yul\":3083:3150   */\n      tag_105\n      jump\t// in\n    tag_161:\n        /* \"#utility.yul\":3076:3150   */\n      swap2\n      pop\n        /* \"#utility.yul\":3159:3252   */\n      tag_162\n        /* \"#utility.yul\":3248:3251   */\n      dup3\n        /* \"#utility.yul\":3159:3252   */\n      tag_106\n      jump\t// in\n    tag_162:\n        /* \"#utility.yul\":3277:3279   */\n      0x20\n        /* \"#utility.yul\":3272:3275   */\n      dup3\n        /* \"#utility.yul\":3268:3280   */\n      add\n        /* \"#utility.yul\":3261:3280   */\n      swap1\n      pop\n        /* \"#utility.yul\":2920:3286   */\n      swap2\n      swap1\n      pop\n      jump\t// out\n        /* \"#utility.yul\":3292:3711   */\n    tag_38:\n        /* \"#utility.yul\":3458:3462   */\n      0x00\n        /* \"#utility.yul\":3496:3498   */\n      0x20\n        /* \"#utility.yul\":3485:3494   */\n      dup3\n        /* \"#utility.yul\":3481:3499   */\n      add\n        /* \"#utility.yul\":3473:3499   */\n      swap1\n      pop\n        /* \"#utility.yul\":3545:3554   */\n      dup2\n        /* \"#utility.yul\":3539:3543   */\n      dup2\n        /* \"#utility.yul\":3535:3555   */\n      sub\n        /* \"#utility.yul\":3531:3532   */\n      0x00\n        /* \"#utility.yul\":3520:3529   */\n      dup4\n        /* \"#utility.yul\":3516:3533   */\n      add\n        /* \"#utility.yul\":3509:3556   */\n      mstore\n        /* \"#utility.yul\":3573:3704   */\n      tag_164\n        /* \"#utility.yul\":3699:3703   */\n      dup2\n        /* \"#utility.yul\":3573:3704   */\n      tag_107\n      jump\t// in\n    tag_164:\n        /* \"#utility.yul\":3565:3704   */\n      swap1\n      pop\n        /* \"#utility.yul\":3292:3711   */\n      swap2\n      swap1\n      pop\n      jump\t// out\n        /* \"#utility.yul\":3717:3897   */\n    tag_45:\n        /* \"#utility.yul\":3765:3842   */\n      0x4e487b7100000000000000000000000000000000000000000000000000000000\n        /* \"#utility.yul\":3762:3763   */\n      0x00\n        /* \"#utility.yul\":3755:3843   */\n      mstore\n        /* \"#utility.yul\":3862:3866   */\n      0x32\n        /* \"#utility.yul\":3859:3860   */\n      0x04\n        /* \"#utility.yul\":3852:3867   */\n      mstore\n        /* \"#utility.yul\":3886:3890   */\n      0x24\n        /* \"#utility.yul\":3883:3884   */\n      0x00\n        /* \"#utility.yul\":3876:3891   */\n      revert\n        /* \"#utility.yul\":3903:4083   */\n    tag_108:\n        /* \"#utility.yul\":3951:4028   */\n      0x4e487b7100000000000000000000000000000000000000000000000000000000\n        /* \"#utility.yul\":3948:3949   */\n      0x00\n        /* \"#utility.yul\":3941:4029   */\n      mstore\n        /* \"#utility.yul\":4048:4052   */\n      0x11\n        /* \"#utility.yul\":4045:4046   */\n      0x04\n        /* \"#utility.yul\":4038:4053   */\n      mstore\n        /* \"#utility.yul\":4072:4076   */\n      0x24\n        /* \"#utility.yul\":4069:4070   */\n      0x00\n        /* \"#utility.yul\":4062:4077   */\n      revert\n        /* \"#utility.yul\":4089:4322   */\n    tag_48:\n        /* \"#utility.yul\":4128:4131   */\n      0x00\n        /* \"#utility.yul\":4151:4175   */\n      tag_168\n        /* \"#utility.yul\":4169:4174   */\n      dup3\n        /* \"#utility.yul\":4151:4175   */\n      tag_93\n      jump\t// in\n    tag_168:\n        /* \"#utility.yul\":4142:4175   */\n      swap2\n      pop\n        /* \"#utility.yul\":4197:4263   */\n      0xffffffffffffffffffffffffffffffffffffffffffffffffffffffffffffffff\n        /* \"#utility.yul\":4190:4195   */\n      dup3\n        /* \"#utility.yul\":4187:4264   */\n      sub\n        /* \"#utility.yul\":4184:4287   */\n      tag_169\n      jumpi\n        /* \"#utility.yul\":4267:4285   */\n      tag_170\n      tag_108\n      jump\t// in\n    tag_170:\n        /* \"#utility.yul\":4184:4287   */\n    tag_169:\n        /* \"#utility.yul\":4314:4315   */\n      0x01\n        /* \"#utility.yul\":4307:4312   */\n      dup3\n        /* \"#utility.yul\":4303:4316   */\n      add\n        /* \"#utility.yul\":4296:4316   */\n      swap1\n      pop\n        /* \"#utility.yul\":4089:4322   */\n      swap2\n      swap1\n      pop\n      jump\t// out\n        /* \"#utility.yul\":4328:4508   */\n    tag_51:\n        /* \"#utility.yul\":4376:4453   */\n      0x4e487b7100000000000000000000000000000000000000000000000000000000\n        /* \"#utility.yul\":4373:4374   */\n      0x00\n        /* \"#utility.yul\":4366:4454   */\n      mstore\n        /* \"#utility.yul\":4473:4477   */\n      0x41\n        /* \"#utility.yul\":4470:4471   */\n      0x04\n        /* \"#utility.yul\":4463:4478   */\n      mstore\n        /* \"#utility.yul\":4497:4501   */\n      0x24\n        /* \"#utility.yul\":4494:4495   */\n      0x00\n        /* \"#utility.yul\":4487:4502   */\n      revert\n        /* \"#utility.yul\":4514:4661   */\n    tag_109:\n        /* \"#utility.yul\":4615:4626   */\n      0x00\n        /* \"#utility.yul\":4652:4655   */\n      dup2\n        /* \"#utility.yul\":4637:4655   */\n      swap1\n      pop\n        /* \"#utility.yul\":4514:4661   */\n      swap3\n      swap2\n      pop\n      pop\n      jump\t// out\n        /* \"#utility.yul\":4667:4781   */\n    tag_110:\n      pop\n      jump\t// out\n        /* \"#utility.yul\":4787:5185   */\n    tag_111:\n        /* \"#utility.yul\":4946:4949   */\n      0x00\n        /* \"#utility.yul\":4967:5050   */\n      tag_175\n        /* \"#utility.yul\":5048:5049   */\n      0x00\n        /* \"#utility.yul\":5043:5046   */\n      dup4\n        /* \"#utility.yul\":4967:5050   */\n      tag_109\n      jump\t// in\n    tag_175:\n        /* \"#utility.yul\":4960:5050   */\n      swap2\n      pop\n        /* \"#utility.yul\":5059:5152   */\n      tag_176\n        /* \"#utility.yul\":5148:5151   */\n      dup3\n        /* \"#utility.yul\":5059:5152   */\n      tag_110\n      jump\t// in\n    tag_176:\n        /* \"#utility.yul\":5177:5178   */\n      0x00\n        /* \"#utility.yul\":5172:5175   */\n      dup3\n        /* \"#utility.yul\":5168:5179   */\n      add\n        /* \"#utility.yul\":5161:5179   */\n      swap1\n      pop\n        /* \"#utility.yul\":4787:5185   */\n      swap2\n      swap1\n      pop\n      jump\t// out\n        /* \"#utility.yul\":5191:5570   */\n    tag_56:\n        /* \"#utility.yul\":5375:5378   */\n      0x00\n        /* \"#utility.yul\":5397:5544   */\n      tag_178\n        /* \"#utility.yul\":5540:5543   */\n      dup3\n        /* \"#utility.yul\":5397:5544   */\n      tag_111\n      jump\t// in\n    tag_178:\n        /* \"#utility.yul\":5390:5544   */\n      swap2\n      pop\n        /* \"#utility.yul\":5561:5564   */\n      dup2\n        /* \"#utility.yul\":5554:5564   */\n      swap1\n      pop\n        /* \"#utility.yul\":5191:5570   */\n      swap2\n      swap1\n      pop\n      jump\t// out\n        /* \"#utility.yul\":5576:5737   */\n    tag_112:\n        /* \"#utility.yul\":5716:5729   */\n      0x43616c6c206661696c6564000000000000000000000000000000000000000000\n        /* \"#utility.yul\":5712:5713   */\n      0x00\n        /* \"#utility.yul\":5704:5710   */\n      dup3\n        /* \"#utility.yul\":5700:5714   */\n      add\n        /* \"#utility.yul\":5693:5730   */\n      mstore\n        /* \"#utility.yul\":5576:5737   */\n      pop\n      jump\t// out\n        /* \"#utility.yul\":5743:6109   */\n    tag_113:\n        /* \"#utility.yul\":5885:5888   */\n      0x00\n        /* \"#utility.yul\":5906:5973   */\n      tag_181\n        /* \"#utility.yul\":5970:5972   */\n      0x0b\n        /* \"#utility.yul\":5965:5968   */\n      dup4\n        /* \"#utility.yul\":5906:5973   */\n      tag_105\n      jump\t// in\n    tag_181:\n        /* \"#utility.yul\":5899:5973   */\n      swap2\n      pop\n        /* \"#utility.yul\":5982:6075   */\n      tag_182\n        /* \"#utility.yul\":6071:6074   */\n      dup3\n        /* \"#utility.yul\":5982:6075   */\n      tag_112\n      jump\t// in\n    tag_182:\n        /* \"#utility.yul\":6100:6102   */\n      0x20\n        /* \"#utility.yul\":6095:6098   */\n      dup3\n        /* \"#utility.yul\":6091:6103   */\n      add\n        /* \"#utility.yul\":6084:6103   */\n      swap1\n      pop\n        /* \"#utility.yul\":5743:6109   */\n      swap2\n      swap1\n      pop\n      jump\t// out\n        /* \"#utility.yul\":6115:6534   */\n    tag_62:\n        /* \"#utility.yul\":6281:6285   */\n      0x00\n        /* \"#utility.yul\":6319:6321   */\n      0x20\n        /* \"#utility.yul\":6308:6317   */\n      dup3\n        /* \"#utility.yul\":6304:6322   */\n      add\n        /* \"#utility.yul\":6296:6322   */\n      swap1\n      pop\n        /* \"#utility.yul\":6368:6377   */\n      dup2\n        /* \"#utility.yul\":6362:6366   */\n      dup2\n        /* \"#utility.yul\":6358:6378   */\n      sub\n        /* \"#utility.yul\":6354:6355   */\n      0x00\n        /* \"#utility.yul\":6343:6352   */\n      dup4\n        /* \"#utility.yul\":6339:6356   */\n      add\n        /* \"#utility.yul\":6332:6379   */\n      mstore\n        /* \"#utility.yul\":6396:6527   */\n      tag_184\n        /* \"#utility.yul\":6522:6526   */\n      dup2\n        /* \"#utility.yul\":6396:6527   */\n      tag_113\n      jump\t// in\n    tag_184:\n        /* \"#utility.yul\":6388:6527   */\n      swap1\n      pop\n        /* \"#utility.yul\":6115:6534   */\n      swap2\n      swap1\n      pop\n      jump\t// out\n        /* \"#utility.yul\":6540:6708   */\n    tag_114:\n        /* \"#utility.yul\":6680:6700   */\n      0x4469646e27742073656e6420656e6f7567680000000000000000000000000000\n        /* \"#utility.yul\":6676:6677   */\n      0x00\n        /* \"#utility.yul\":6668:6674   */\n      dup3\n        /* \"#utility.yul\":6664:6678   */\n      add\n        /* \"#utility.yul\":6657:6701   */\n      mstore\n        /* \"#utility.yul\":6540:6708   */\n      pop\n      jump\t// out\n        /* \"#utility.yul\":6714:7080   */\n    tag_115:\n        /* \"#utility.yul\":6856:6859   */\n      0x00\n        /* \"#utility.yul\":6877:6944   */\n      tag_187\n        /* \"#utility.yul\":6941:6943   */\n      0x12\n        /* \"#utility.yul\":6936:6939   */\n      dup4\n        /* \"#utility.yul\":6877:6944   */\n      tag_105\n      jump\t// in\n    tag_187:\n        /* \"#utility.yul\":6870:6944   */\n      swap2\n      pop\n        /* \"#utility.yul\":6953:7046   */\n      tag_188\n        /* \"#utility.yul\":7042:7045   */\n      dup3\n        /* \"#utility.yul\":6953:7046   */\n      tag_114\n      jump\t// in\n    tag_188:\n        /* \"#utility.yul\":7071:7073   */\n      0x20\n        /* \"#utility.yul\":7066:7069   */\n      dup3\n        /* \"#utility.yul\":7062:7074   */\n      add\n        /* \"#utility.yul\":7055:7074   */\n      swap1\n      pop\n        /* \"#utility.yul\":6714:7080   */\n      swap2\n      swap1\n      pop\n      jump\t// out\n        /* \"#utility.yul\":7086:7505   */\n    tag_68:\n        /* \"#utility.yul\":7252:7256   */\n      0x00\n        /* \"#utility.yul\":7290:7292   */\n      0x20\n        /* \"#utility.yul\":7279:7288   */\n      dup3\n        /* \"#utility.yul\":7275:7293   */\n      add\n        /* \"#utility.yul\":7267:7293   */\n      swap1\n      pop\n        /* \"#utility.yul\":7339:7348   */\n      dup2\n        /* \"#utility.yul\":7333:7337   */\n      dup2\n        /* \"#utility.yul\":7329:7349   */\n      sub\n        /* \"#utility.yul\":7325:7326   */\n      0x00\n        /* \"#utility.yul\":7314:7323   */\n      dup4\n        /* \"#utility.yul\":7310:7327   */\n      add\n        /* \"#utility.yul\":7303:7350   */\n      mstore\n        /* \"#utility.yul\":7367:7498   */\n      tag_190\n        /* \"#utility.yul\":7493:7497   */\n      dup2\n        /* \"#utility.yul\":7367:7498   */\n      tag_115\n      jump\t// in\n    tag_190:\n        /* \"#utility.yul\":7359:7498   */\n      swap1\n      pop\n        /* \"#utility.yul\":7086:7505   */\n      swap2\n      swap1\n      pop\n      jump\t// out\n        /* \"#utility.yul\":7511:7859   */\n    tag_76:\n        /* \"#utility.yul\":7551:7558   */\n      0x00\n        /* \"#utility.yul\":7574:7594   */\n      tag_192\n        /* \"#utility.yul\":7592:7593   */\n      dup3\n        /* \"#utility.yul\":7574:7594   */\n      tag_93\n      jump\t// in\n    tag_192:\n        /* \"#utility.yul\":7569:7594   */\n      swap2\n      pop\n        /* \"#utility.yul\":7608:7628   */\n      tag_193\n        /* \"#utility.yul\":7626:7627   */\n      dup4\n        /* \"#utility.yul\":7608:7628   */\n      tag_93\n      jump\t// in\n    tag_193:\n        /* \"#utility.yul\":7603:7628   */\n      swap3\n      pop\n        /* \"#utility.yul\":7796:7797   */\n      dup2\n        /* \"#utility.yul\":7728:7794   */\n      0xffffffffffffffffffffffffffffffffffffffffffffffffffffffffffffffff\n        /* \"#utility.yul\":7724:7798   */\n      div\n        /* \"#utility.yul\":7721:7722   */\n      dup4\n        /* \"#utility.yul\":7718:7799   */\n      gt\n        /* \"#utility.yul\":7713:7714   */\n      dup3\n        /* \"#utility.yul\":7706:7715   */\n      iszero\n        /* \"#utility.yul\":7699:7716   */\n      iszero\n        /* \"#utility.yul\":7695:7800   */\n      and\n        /* \"#utility.yul\":7692:7823   */\n      iszero\n      tag_194\n      jumpi\n        /* \"#utility.yul\":7803:7821   */\n      tag_195\n      tag_108\n      jump\t// in\n    tag_195:\n        /* \"#utility.yul\":7692:7823   */\n    tag_194:\n        /* \"#utility.yul\":7851:7852   */\n      dup3\n        /* \"#utility.yul\":7848:7849   */\n      dup3\n        /* \"#utility.yul\":7844:7853   */\n      mul\n        /* \"#utility.yul\":7833:7853   */\n      swap1\n      pop\n        /* \"#utility.yul\":7511:7859   */\n      swap3\n      swap2\n      pop\n      pop\n      jump\t// out\n        /* \"#utility.yul\":7865:8045   */\n    tag_116:\n        /* \"#utility.yul\":7913:7990   */\n      0x4e487b7100000000000000000000000000000000000000000000000000000000\n        /* \"#utility.yul\":7910:7911   */\n      0x00\n        /* \"#utility.yul\":7903:7991   */\n      mstore\n        /* \"#utility.yul\":8010:8014   */\n      0x12\n        /* \"#utility.yul\":8007:8008   */\n      0x04\n        /* \"#utility.yul\":8000:8015   */\n      mstore\n        /* \"#utility.yul\":8034:8038   */\n      0x24\n        /* \"#utility.yul\":8031:8032   */\n      0x00\n        /* \"#utility.yul\":8024:8039   */\n      revert\n        /* \"#utility.yul\":8051:8236   */\n    tag_78:\n        /* \"#utility.yul\":8091:8092   */\n      0x00\n        /* \"#utility.yul\":8108:8128   */\n      tag_198\n        /* \"#utility.yul\":8126:8127   */\n      dup3\n        /* \"#utility.yul\":8108:8128   */\n      tag_93\n      jump\t// in\n    tag_198:\n        /* \"#utility.yul\":8103:8128   */\n      swap2\n      pop\n        /* \"#utility.yul\":8142:8162   */\n      tag_199\n        /* \"#utility.yul\":8160:8161   */\n      dup4\n        /* \"#utility.yul\":8142:8162   */\n      tag_93\n      jump\t// in\n    tag_199:\n        /* \"#utility.yul\":8137:8162   */\n      swap3\n      pop\n        /* \"#utility.yul\":8181:8182   */\n      dup3\n        /* \"#utility.yul\":8171:8206   */\n      tag_200\n      jumpi\n        /* \"#utility.yul\":8186:8204   */\n      tag_201\n      tag_116\n      jump\t// in\n    tag_201:\n        /* \"#utility.yul\":8171:8206   */\n    tag_200:\n        /* \"#utility.yul\":8228:8229   */\n      dup3\n        /* \"#utility.yul\":8225:8226   */\n      dup3\n        /* \"#utility.yul\":8221:8230   */\n      div\n        /* \"#utility.yul\":8216:8230   */\n      swap1\n      pop\n        /* \"#utility.yul\":8051:8236   */\n      swap3\n      swap2\n      pop\n      pop\n      jump\t// out\n        /* \"#utility.yul\":8242:8347   */\n    tag_117:\n        /* \"#utility.yul\":8278:8285   */\n      0x00\n        /* \"#utility.yul\":8318:8340   */\n      0xffffffffffffffffffff\n        /* \"#utility.yul\":8311:8316   */\n      dup3\n        /* \"#utility.yul\":8307:8341   */\n      and\n        /* \"#utility.yul\":8296:8341   */\n      swap1\n      pop\n        /* \"#utility.yul\":8242:8347   */\n      swap2\n      swap1\n      pop\n      jump\t// out\n        /* \"#utility.yul\":8353:8473   */\n    tag_118:\n        /* \"#utility.yul\":8425:8448   */\n      tag_204\n        /* \"#utility.yul\":8442:8447   */\n      dup2\n        /* \"#utility.yul\":8425:8448   */\n      tag_117\n      jump\t// in\n    tag_204:\n        /* \"#utility.yul\":8418:8423   */\n      dup2\n        /* \"#utility.yul\":8415:8449   */\n      eq\n        /* \"#utility.yul\":8405:8467   */\n      tag_205\n      jumpi\n        /* \"#utility.yul\":8463:8464   */\n      0x00\n        /* \"#utility.yul\":8460:8461   */\n      dup1\n        /* \"#utility.yul\":8453:8465   */\n      revert\n        /* \"#utility.yul\":8405:8467   */\n    tag_205:\n        /* \"#utility.yul\":8353:8473   */\n      pop\n      jump\t// out\n        /* \"#utility.yul\":8479:8620   */\n    tag_119:\n        /* \"#utility.yul\":8535:8540   */\n      0x00\n        /* \"#utility.yul\":8566:8572   */\n      dup2\n        /* \"#utility.yul\":8560:8573   */\n      mload\n        /* \"#utility.yul\":8551:8573   */\n      swap1\n      pop\n        /* \"#utility.yul\":8582:8614   */\n      tag_207\n        /* \"#utility.yul\":8608:8613   */\n      dup2\n        /* \"#utility.yul\":8582:8614   */\n      tag_118\n      jump\t// in\n    tag_207:\n        /* \"#utility.yul\":8479:8620   */\n      swap3\n      swap2\n      pop\n      pop\n      jump\t// out\n        /* \"#utility.yul\":8626:8702   */\n    tag_120:\n        /* \"#utility.yul\":8662:8669   */\n      0x00\n        /* \"#utility.yul\":8691:8696   */\n      dup2\n        /* \"#utility.yul\":8680:8696   */\n      swap1\n      pop\n        /* \"#utility.yul\":8626:8702   */\n      swap2\n      swap1\n      pop\n      jump\t// out\n        /* \"#utility.yul\":8708:8828   */\n    tag_121:\n        /* \"#utility.yul\":8780:8803   */\n      tag_210\n        /* \"#utility.yul\":8797:8802   */\n      dup2\n        /* \"#utility.yul\":8780:8803   */\n      tag_120\n      jump\t// in\n    tag_210:\n        /* \"#utility.yul\":8773:8778   */\n      dup2\n        /* \"#utility.yul\":8770:8804   */\n      eq\n        /* \"#utility.yul\":8760:8822   */\n      tag_211\n      jumpi\n        /* \"#utility.yul\":8818:8819   */\n      0x00\n        /* \"#utility.yul\":8815:8816   */\n      dup1\n        /* \"#utility.yul\":8808:8820   */\n      revert\n        /* \"#utility.yul\":8760:8822   */\n    tag_211:\n        /* \"#utility.yul\":8708:8828   */\n      pop\n      jump\t// out\n        /* \"#utility.yul\":8834:8975   */\n    tag_122:\n        /* \"#utility.yul\":8890:8895   */\n      0x00\n        /* \"#utility.yul\":8921:8927   */\n      dup2\n        /* \"#utility.yul\":8915:8928   */\n      mload\n        /* \"#utility.yul\":8906:8928   */\n      swap1\n      pop\n        /* \"#utility.yul\":8937:8969   */\n      tag_213\n        /* \"#utility.yul\":8963:8968   */\n      dup2\n        /* \"#utility.yul\":8937:8969   */\n      tag_121\n      jump\t// in\n    tag_213:\n        /* \"#utility.yul\":8834:8975   */\n      swap3\n      swap2\n      pop\n      pop\n      jump\t// out\n        /* \"#utility.yul\":8981:9124   */\n    tag_123:\n        /* \"#utility.yul\":9038:9043   */\n      0x00\n        /* \"#utility.yul\":9069:9075   */\n      dup2\n        /* \"#utility.yul\":9063:9076   */\n      mload\n        /* \"#utility.yul\":9054:9076   */\n      swap1\n      pop\n        /* \"#utility.yul\":9085:9118   */\n      tag_215\n        /* \"#utility.yul\":9112:9117   */\n      dup2\n        /* \"#utility.yul\":9085:9118   */\n      tag_103\n      jump\t// in\n    tag_215:\n        /* \"#utility.yul\":8981:9124   */\n      swap3\n      swap2\n      pop\n      pop\n      jump\t// out\n        /* \"#utility.yul\":9130:10101   */\n    tag_83:\n        /* \"#utility.yul\":9233:9239   */\n      0x00\n        /* \"#utility.yul\":9241:9247   */\n      dup1\n        /* \"#utility.yul\":9249:9255   */\n      0x00\n        /* \"#utility.yul\":9257:9263   */\n      dup1\n        /* \"#utility.yul\":9265:9271   */\n      0x00\n        /* \"#utility.yul\":9314:9317   */\n      0xa0\n        /* \"#utility.yul\":9302:9311   */\n      dup7\n        /* \"#utility.yul\":9293:9300   */\n      dup9\n        /* \"#utility.yul\":9289:9312   */\n      sub\n        /* \"#utility.yul\":9285:9318   */\n      slt\n        /* \"#utility.yul\":9282:9402   */\n      iszero\n      tag_217\n      jumpi\n        /* \"#utility.yul\":9321:9400   */\n      tag_218\n      tag_96\n      jump\t// in\n    tag_218:\n        /* \"#utility.yul\":9282:9402   */\n    tag_217:\n        /* \"#utility.yul\":9441:9442   */\n      0x00\n        /* \"#utility.yul\":9466:9529   */\n      tag_219\n        /* \"#utility.yul\":9521:9528   */\n      dup9\n        /* \"#utility.yul\":9512:9518   */\n      dup3\n        /* \"#utility.yul\":9501:9510   */\n      dup10\n        /* \"#utility.yul\":9497:9519   */\n      add\n        /* \"#utility.yul\":9466:9529   */\n      tag_119\n      jump\t// in\n    tag_219:\n        /* \"#utility.yul\":9456:9529   */\n      swap6\n      pop\n        /* \"#utility.yul\":9412:9539   */\n      pop\n        /* \"#utility.yul\":9578:9580   */\n      0x20\n        /* \"#utility.yul\":9604:9667   */\n      tag_220\n        /* \"#utility.yul\":9659:9666   */\n      dup9\n        /* \"#utility.yul\":9650:9656   */\n      dup3\n        /* \"#utility.yul\":9639:9648   */\n      dup10\n        /* \"#utility.yul\":9635:9657   */\n      add\n        /* \"#utility.yul\":9604:9667   */\n      tag_122\n      jump\t// in\n    tag_220:\n        /* \"#utility.yul\":9594:9667   */\n      swap5\n      pop\n        /* \"#utility.yul\":9549:9677   */\n      pop\n        /* \"#utility.yul\":9716:9718   */\n      0x40\n        /* \"#utility.yul\":9742:9806   */\n      tag_221\n        /* \"#utility.yul\":9798:9805   */\n      dup9\n        /* \"#utility.yul\":9789:9795   */\n      dup3\n        /* \"#utility.yul\":9778:9787   */\n      dup10\n        /* \"#utility.yul\":9774:9796   */\n      add\n        /* \"#utility.yul\":9742:9806   */\n      tag_123\n      jump\t// in\n    tag_221:\n        /* \"#utility.yul\":9732:9806   */\n      swap4\n      pop\n        /* \"#utility.yul\":9687:9816   */\n      pop\n        /* \"#utility.yul\":9855:9857   */\n      0x60\n        /* \"#utility.yul\":9881:9945   */\n      tag_222\n        /* \"#utility.yul\":9937:9944   */\n      dup9\n        /* \"#utility.yul\":9928:9934   */\n      dup3\n        /* \"#utility.yul\":9917:9926   */\n      dup10\n        /* \"#utility.yul\":9913:9935   */\n      add\n        /* \"#utility.yul\":9881:9945   */\n      tag_123\n      jump\t// in\n    tag_222:\n        /* \"#utility.yul\":9871:9945   */\n      swap3\n      pop\n        /* \"#utility.yul\":9826:9955   */\n      pop\n        /* \"#utility.yul\":9994:9997   */\n      0x80\n        /* \"#utility.yul\":10021:10084   */\n      tag_223\n        /* \"#utility.yul\":10076:10083   */\n      dup9\n        /* \"#utility.yul\":10067:10073   */\n      dup3\n        /* \"#utility.yul\":10056:10065   */\n      dup10\n        /* \"#utility.yul\":10052:10074   */\n      add\n        /* \"#utility.yul\":10021:10084   */\n      tag_119\n      jump\t// in\n    tag_223:\n        /* \"#utility.yul\":10011:10084   */\n      swap2\n      pop\n        /* \"#utility.yul\":9965:10094   */\n      pop\n        /* \"#utility.yul\":9130:10101   */\n      swap3\n      swap6\n      pop\n      swap3\n      swap6\n      swap1\n      swap4\n      pop\n      jump\t// out\n        /* \"#utility.yul\":10107:11098   */\n    tag_85:\n        /* \"#utility.yul\":10146:10153   */\n      0x00\n        /* \"#utility.yul\":10169:10188   */\n      tag_225\n        /* \"#utility.yul\":10186:10187   */\n      dup3\n        /* \"#utility.yul\":10169:10188   */\n      tag_120\n      jump\t// in\n    tag_225:\n        /* \"#utility.yul\":10164:10188   */\n      swap2\n      pop\n        /* \"#utility.yul\":10202:10221   */\n      tag_226\n        /* \"#utility.yul\":10219:10220   */\n      dup4\n        /* \"#utility.yul\":10202:10221   */\n      tag_120\n      jump\t// in\n    tag_226:\n        /* \"#utility.yul\":10197:10221   */\n      swap3\n      pop\n        /* \"#utility.yul\":10403:10404   */\n      dup3\n        /* \"#utility.yul\":10335:10401   */\n      0x7fffffffffffffffffffffffffffffffffffffffffffffffffffffffffffffff\n        /* \"#utility.yul\":10331:10405   */\n      div\n        /* \"#utility.yul\":10328:10329   */\n      dup3\n        /* \"#utility.yul\":10325:10406   */\n      gt\n        /* \"#utility.yul\":10320:10321   */\n      0x00\n        /* \"#utility.yul\":10317:10318   */\n      dup5\n        /* \"#utility.yul\":10313:10322   */\n      sgt\n        /* \"#utility.yul\":10309:10310   */\n      0x00\n        /* \"#utility.yul\":10306:10307   */\n      dup5\n        /* \"#utility.yul\":10302:10311   */\n      sgt\n        /* \"#utility.yul\":10298:10323   */\n      and\n        /* \"#utility.yul\":10294:10407   */\n      and\n        /* \"#utility.yul\":10291:10430   */\n      iszero\n      tag_227\n      jumpi\n        /* \"#utility.yul\":10410:10428   */\n      tag_228\n      tag_108\n      jump\t// in\n    tag_228:\n        /* \"#utility.yul\":10291:10430   */\n    tag_227:\n        /* \"#utility.yul\":10614:10615   */\n      dup2\n        /* \"#utility.yul\":10546:10612   */\n      0x8000000000000000000000000000000000000000000000000000000000000000\n        /* \"#utility.yul\":10541:10616   */\n      sdiv\n        /* \"#utility.yul\":10538:10539   */\n      dup4\n        /* \"#utility.yul\":10534:10617   */\n      slt\n        /* \"#utility.yul\":10529:10530   */\n      0x00\n        /* \"#utility.yul\":10526:10527   */\n      dup5\n        /* \"#utility.yul\":10522:10531   */\n      slt\n        /* \"#utility.yul\":10518:10519   */\n      0x00\n        /* \"#utility.yul\":10515:10516   */\n      dup5\n        /* \"#utility.yul\":10511:10520   */\n      sgt\n        /* \"#utility.yul\":10507:10532   */\n      and\n        /* \"#utility.yul\":10503:10618   */\n      and\n        /* \"#utility.yul\":10500:10641   */\n      iszero\n      tag_229\n      jumpi\n        /* \"#utility.yul\":10621:10639   */\n      tag_230\n      tag_108\n      jump\t// in\n    tag_230:\n        /* \"#utility.yul\":10500:10641   */\n    tag_229:\n        /* \"#utility.yul\":10825:10826   */\n      dup3\n        /* \"#utility.yul\":10757:10823   */\n      0x8000000000000000000000000000000000000000000000000000000000000000\n        /* \"#utility.yul\":10752:10827   */\n      sdiv\n        /* \"#utility.yul\":10749:10750   */\n      dup3\n        /* \"#utility.yul\":10745:10828   */\n      slt\n        /* \"#utility.yul\":10740:10741   */\n      0x00\n        /* \"#utility.yul\":10737:10738   */\n      dup5\n        /* \"#utility.yul\":10733:10742   */\n      sgt\n        /* \"#utility.yul\":10729:10730   */\n      0x00\n        /* \"#utility.yul\":10726:10727   */\n      dup5\n        /* \"#utility.yul\":10722:10731   */\n      slt\n        /* \"#utility.yul\":10718:10743   */\n      and\n        /* \"#utility.yul\":10714:10829   */\n      and\n        /* \"#utility.yul\":10711:10852   */\n      iszero\n      tag_231\n      jumpi\n        /* \"#utility.yul\":10832:10850   */\n      tag_232\n      tag_108\n      jump\t// in\n    tag_232:\n        /* \"#utility.yul\":10711:10852   */\n    tag_231:\n        /* \"#utility.yul\":11035:11036   */\n      dup3\n        /* \"#utility.yul\":10967:11033   */\n      0x7fffffffffffffffffffffffffffffffffffffffffffffffffffffffffffffff\n        /* \"#utility.yul\":10962:11037   */\n      sdiv\n        /* \"#utility.yul\":10959:10960   */\n      dup3\n        /* \"#utility.yul\":10955:11038   */\n      slt\n        /* \"#utility.yul\":10950:10951   */\n      0x00\n        /* \"#utility.yul\":10947:10948   */\n      dup5\n        /* \"#utility.yul\":10943:10952   */\n      slt\n        /* \"#utility.yul\":10939:10940   */\n      0x00\n        /* \"#utility.yul\":10936:10937   */\n      dup5\n        /* \"#utility.yul\":10932:10941   */\n      slt\n        /* \"#utility.yul\":10928:10953   */\n      and\n        /* \"#utility.yul\":10924:11039   */\n      and\n        /* \"#utility.yul\":10921:11062   */\n      iszero\n      tag_233\n      jumpi\n        /* \"#utility.yul\":11042:11060   */\n      tag_234\n      tag_108\n      jump\t// in\n    tag_234:\n        /* \"#utility.yul\":10921:11062   */\n    tag_233:\n        /* \"#utility.yul\":11090:11091   */\n      dup3\n        /* \"#utility.yul\":11087:11088   */\n      dup3\n        /* \"#utility.yul\":11083:11092   */\n      mul\n        /* \"#utility.yul\":11072:11092   */\n      swap1\n      pop\n        /* \"#utility.yul\":10107:11098   */\n      swap3\n      swap2\n      pop\n      pop\n      jump\t// out\n\n    auxdata: 0xa2646970667358221220b4ab8bd28ef0ea34a98f8cb7d771c49d763f995e4ee94e3bc55cf9e4e4ce12cc64736f6c634300080f0033\n}\n",
				"bytecode": {
					"linkReferences": {},
					"object": "60806040526802b5e3af16b188000060005534801561001d57600080fd5b5033600360006101000a81548173ffffffffffffffffffffffffffffffffffffffff021916908373ffffffffffffffffffffffffffffffffffffffff160217905550610d608061006e6000396000f3fe6080604052600436106100555760003560e01c8063098de8201461005a5780633ccfd60b146100855780633e47d6f31461009c5780638da5cb5b146100d9578063b60d428814610104578063dc0d3dff1461010e575b600080fd5b34801561006657600080fd5b5061006f61014b565b60405161007c91906106b3565b60405180910390f35b34801561009157600080fd5b5061009a610151565b005b3480156100a857600080fd5b506100c360048036038101906100be9190610731565b61039d565b6040516100d091906106b3565b60405180910390f35b3480156100e557600080fd5b506100ee6103b5565b6040516100fb919061076d565b60405180910390f35b61010c6103db565b005b34801561011a57600080fd5b50610135600480360381019061013091906107b4565b6104d1565b604051610142919061076d565b60405180910390f35b60005481565b600360009054906101000a900473ffffffffffffffffffffffffffffffffffffffff1673ffffffffffffffffffffffffffffffffffffffff163373ffffffffffffffffffffffffffffffffffffffff16146101e1576040517f08c379a00000000000000000000000000000000000000000000000000000000081526004016101d89061083e565b60405180910390fd5b60005b60018054905081101561028d576000600182815481106102075761020661085e565b5b9060005260206000200160009054906101000a900473ffffffffffffffffffffffffffffffffffffffff1690506000600260008373ffffffffffffffffffffffffffffffffffffffff1673ffffffffffffffffffffffffffffffffffffffff16815260200190815260200160002081905550508080610285906108bc565b9150506101e4565b50600067ffffffffffffffff8111156102a9576102a8610904565b5b6040519080825280602002602001820160405280156102d75781602001602082028036833780820191505090505b50600190805190602001906102ed9291906105f3565b5060003373ffffffffffffffffffffffffffffffffffffffff164760405161031490610964565b60006040518083038185875af1925050503d8060008114610351576040519150601f19603f3d011682016040523d82523d6000602084013e610356565b606091505b505090508061039a576040517f08c379a0000000000000000000000000000000000000000000000000000000008152600401610391906109c5565b60405180910390fd5b50565b60026020528060005260406000206000915090505481565b600360009054906101000a900473ffffffffffffffffffffffffffffffffffffffff1681565b6000546103e734610510565b1015610428576040517f08c379a000000000000000000000000000000000000000000000000000000000815260040161041f90610a31565b60405180910390fd5b6001339080600181540180825580915050600190039060005260206000200160009091909190916101000a81548173ffffffffffffffffffffffffffffffffffffffff021916908373ffffffffffffffffffffffffffffffffffffffff16021790555034600260003373ffffffffffffffffffffffffffffffffffffffff1673ffffffffffffffffffffffffffffffffffffffff16815260200190815260200160002081905550565b600181815481106104e157600080fd5b906000526020600020016000915054906101000a900473ffffffffffffffffffffffffffffffffffffffff1681565b60008061051b61054a565b90506000670de0b6b3a764000084836105349190610a51565b61053e9190610ada565b90508092505050919050565b600080738a753747a1fa494ec906ce90e9f37563a8af630e905060008173ffffffffffffffffffffffffffffffffffffffff1663feaf968c6040518163ffffffff1660e01b815260040160a060405180830381865afa1580156105b1573d6000803e3d6000fd5b505050506040513d601f19601f820116820180604052508101906105d59190610b98565b5050509150506402540be400816105ec9190610c13565b9250505090565b82805482825590600052602060002090810192821561066c579160200282015b8281111561066b5782518260006101000a81548173ffffffffffffffffffffffffffffffffffffffff021916908373ffffffffffffffffffffffffffffffffffffffff16021790555091602001919060010190610613565b5b509050610679919061067d565b5090565b5b8082111561069657600081600090555060010161067e565b5090565b6000819050919050565b6106ad8161069a565b82525050565b60006020820190506106c860008301846106a4565b92915050565b600080fd5b600073ffffffffffffffffffffffffffffffffffffffff82169050919050565b60006106fe826106d3565b9050919050565b61070e816106f3565b811461071957600080fd5b50565b60008135905061072b81610705565b92915050565b600060208284031215610747576107466106ce565b5b60006107558482850161071c565b91505092915050565b610767816106f3565b82525050565b6000602082019050610782600083018461075e565b92915050565b6107918161069a565b811461079c57600080fd5b50565b6000813590506107ae81610788565b92915050565b6000602082840312156107ca576107c96106ce565b5b60006107d88482850161079f565b91505092915050565b600082825260208201905092915050565b7f596f7520617265206e6f74204f776e6572210000000000000000000000000000600082015250565b60006108286012836107e1565b9150610833826107f2565b602082019050919050565b600060208201905081810360008301526108578161081b565b9050919050565b7f4e487b7100000000000000000000000000000000000000000000000000000000600052603260045260246000fd5b7f4e487b7100000000000000000000000000000000000000000000000000000000600052601160045260246000fd5b60006108c78261069a565b91507fffffffffffffffffffffffffffffffffffffffffffffffffffffffffffffffff82036108f9576108f861088d565b5b600182019050919050565b7f4e487b7100000000000000000000000000000000000000000000000000000000600052604160045260246000fd5b600081905092915050565b50565b600061094e600083610933565b91506109598261093e565b600082019050919050565b600061096f82610941565b9150819050919050565b7f43616c6c206661696c6564000000000000000000000000000000000000000000600082015250565b60006109af600b836107e1565b91506109ba82610979565b602082019050919050565b600060208201905081810360008301526109de816109a2565b9050919050565b7f4469646e27742073656e6420656e6f7567680000000000000000000000000000600082015250565b6000610a1b6012836107e1565b9150610a26826109e5565b602082019050919050565b60006020820190508181036000830152610a4a81610a0e565b9050919050565b6000610a5c8261069a565b9150610a678361069a565b9250817fffffffffffffffffffffffffffffffffffffffffffffffffffffffffffffffff0483118215151615610aa057610a9f61088d565b5b828202905092915050565b7f4e487b7100000000000000000000000000000000000000000000000000000000600052601260045260246000fd5b6000610ae58261069a565b9150610af08361069a565b925082610b0057610aff610aab565b5b828204905092915050565b600069ffffffffffffffffffff82169050919050565b610b2a81610b0b565b8114610b3557600080fd5b50565b600081519050610b4781610b21565b92915050565b6000819050919050565b610b6081610b4d565b8114610b6b57600080fd5b50565b600081519050610b7d81610b57565b92915050565b600081519050610b9281610788565b92915050565b600080600080600060a08688031215610bb457610bb36106ce565b5b6000610bc288828901610b38565b9550506020610bd388828901610b6e565b9450506040610be488828901610b83565b9350506060610bf588828901610b83565b9250506080610c0688828901610b38565b9150509295509295909350565b6000610c1e82610b4d565b9150610c2983610b4d565b9250827f7fffffffffffffffffffffffffffffffffffffffffffffffffffffffffffffff0482116000841360008413161615610c6857610c6761088d565b5b817f80000000000000000000000000000000000000000000000000000000000000000583126000841260008413161615610ca557610ca461088d565b5b827f80000000000000000000000000000000000000000000000000000000000000000582126000841360008412161615610ce257610ce161088d565b5b827f7fffffffffffffffffffffffffffffffffffffffffffffffffffffffffffffff0582126000841260008412161615610d1f57610d1e61088d565b5b82820290509291505056fea2646970667358221220b4ab8bd28ef0ea34a98f8cb7d771c49d763f995e4ee94e3bc55cf9e4e4ce12cc64736f6c634300080f0033",
					"opcodes": "PUSH1 0x80 PUSH1 0x40 MSTORE PUSH9 0x2B5E3AF16B1880000 PUSH1 0x0 SSTORE CALLVALUE DUP1 ISZERO PUSH2 0x1D JUMPI PUSH1 0x0 DUP1 REVERT JUMPDEST POP CALLER PUSH1 0x3 PUSH1 0x0 PUSH2 0x100 EXP DUP2 SLOAD DUP2 PUSH20 0xFFFFFFFFFFFFFFFFFFFFFFFFFFFFFFFFFFFFFFFF MUL NOT AND SWAP1 DUP4 PUSH20 0xFFFFFFFFFFFFFFFFFFFFFFFFFFFFFFFFFFFFFFFF AND MUL OR SWAP1 SSTORE POP PUSH2 0xD60 DUP1 PUSH2 0x6E PUSH1 0x0 CODECOPY PUSH1 0x0 RETURN INVALID PUSH1 0x80 PUSH1 0x40 MSTORE PUSH1 0x4 CALLDATASIZE LT PUSH2 0x55 JUMPI PUSH1 0x0 CALLDATALOAD PUSH1 0xE0 SHR DUP1 PUSH4 0x98DE820 EQ PUSH2 0x5A JUMPI DUP1 PUSH4 0x3CCFD60B EQ PUSH2 0x85 JUMPI DUP1 PUSH4 0x3E47D6F3 EQ PUSH2 0x9C JUMPI DUP1 PUSH4 0x8DA5CB5B EQ PUSH2 0xD9 JUMPI DUP1 PUSH4 0xB60D4288 EQ PUSH2 0x104 JUMPI DUP1 PUSH4 0xDC0D3DFF EQ PUSH2 0x10E JUMPI JUMPDEST PUSH1 0x0 DUP1 REVERT JUMPDEST CALLVALUE DUP1 ISZERO PUSH2 0x66 JUMPI PUSH1 0x0 DUP1 REVERT JUMPDEST POP PUSH2 0x6F PUSH2 0x14B JUMP JUMPDEST PUSH1 0x40 MLOAD PUSH2 0x7C SWAP2 SWAP1 PUSH2 0x6B3 JUMP JUMPDEST PUSH1 0x40 MLOAD DUP1 SWAP2 SUB SWAP1 RETURN JUMPDEST CALLVALUE DUP1 ISZERO PUSH2 0x91 JUMPI PUSH1 0x0 DUP1 REVERT JUMPDEST POP PUSH2 0x9A PUSH2 0x151 JUMP JUMPDEST STOP JUMPDEST CALLVALUE DUP1 ISZERO PUSH2 0xA8 JUMPI PUSH1 0x0 DUP1 REVERT JUMPDEST POP PUSH2 0xC3 PUSH1 0x4 DUP1 CALLDATASIZE SUB DUP2 ADD SWAP1 PUSH2 0xBE SWAP2 SWAP1 PUSH2 0x731 JUMP JUMPDEST PUSH2 0x39D JUMP JUMPDEST PUSH1 0x40 MLOAD PUSH2 0xD0 SWAP2 SWAP1 PUSH2 0x6B3 JUMP JUMPDEST PUSH1 0x40 MLOAD DUP1 SWAP2 SUB SWAP1 RETURN JUMPDEST CALLVALUE DUP1 ISZERO PUSH2 0xE5 JUMPI PUSH1 0x0 DUP1 REVERT JUMPDEST POP PUSH2 0xEE PUSH2 0x3B5 JUMP JUMPDEST PUSH1 0x40 MLOAD PUSH2 0xFB SWAP2 SWAP1 PUSH2 0x76D JUMP JUMPDEST PUSH1 0x40 MLOAD DUP1 SWAP2 SUB SWAP1 RETURN JUMPDEST PUSH2 0x10C PUSH2 0x3DB JUMP JUMPDEST STOP JUMPDEST CALLVALUE DUP1 ISZERO PUSH2 0x11A JUMPI PUSH1 0x0 DUP1 REVERT JUMPDEST POP PUSH2 0x135 PUSH1 0x4 DUP1 CALLDATASIZE SUB DUP2 ADD SWAP1 PUSH2 0x130 SWAP2 SWAP1 PUSH2 0x7B4 JUMP JUMPDEST PUSH2 0x4D1 JUMP JUMPDEST PUSH1 0x40 MLOAD PUSH2 0x142 SWAP2 SWAP1 PUSH2 0x76D JUMP JUMPDEST PUSH1 0x40 MLOAD DUP1 SWAP2 SUB SWAP1 RETURN JUMPDEST PUSH1 0x0 SLOAD DUP2 JUMP JUMPDEST PUSH1 0x3 PUSH1 0x0 SWAP1 SLOAD SWAP1 PUSH2 0x100 EXP SWAP1 DIV PUSH20 0xFFFFFFFFFFFFFFFFFFFFFFFFFFFFFFFFFFFFFFFF AND PUSH20 0xFFFFFFFFFFFFFFFFFFFFFFFFFFFFFFFFFFFFFFFF AND CALLER PUSH20 0xFFFFFFFFFFFFFFFFFFFFFFFFFFFFFFFFFFFFFFFF AND EQ PUSH2 0x1E1 JUMPI PUSH1 0x40 MLOAD PUSH32 0x8C379A000000000000000000000000000000000000000000000000000000000 DUP2 MSTORE PUSH1 0x4 ADD PUSH2 0x1D8 SWAP1 PUSH2 0x83E JUMP JUMPDEST PUSH1 0x40 MLOAD DUP1 SWAP2 SUB SWAP1 REVERT JUMPDEST PUSH1 0x0 JUMPDEST PUSH1 0x1 DUP1 SLOAD SWAP1 POP DUP2 LT ISZERO PUSH2 0x28D JUMPI PUSH1 0x0 PUSH1 0x1 DUP3 DUP2 SLOAD DUP2 LT PUSH2 0x207 JUMPI PUSH2 0x206 PUSH2 0x85E JUMP JUMPDEST JUMPDEST SWAP1 PUSH1 0x0 MSTORE PUSH1 0x20 PUSH1 0x0 KECCAK256 ADD PUSH1 0x0 SWAP1 SLOAD SWAP1 PUSH2 0x100 EXP SWAP1 DIV PUSH20 0xFFFFFFFFFFFFFFFFFFFFFFFFFFFFFFFFFFFFFFFF AND SWAP1 POP PUSH1 0x0 PUSH1 0x2 PUSH1 0x0 DUP4 PUSH20 0xFFFFFFFFFFFFFFFFFFFFFFFFFFFFFFFFFFFFFFFF AND PUSH20 0xFFFFFFFFFFFFFFFFFFFFFFFFFFFFFFFFFFFFFFFF AND DUP2 MSTORE PUSH1 0x20 ADD SWAP1 DUP2 MSTORE PUSH1 0x20 ADD PUSH1 0x0 KECCAK256 DUP2 SWAP1 SSTORE POP POP DUP1 DUP1 PUSH2 0x285 SWAP1 PUSH2 0x8BC JUMP JUMPDEST SWAP2 POP POP PUSH2 0x1E4 JUMP JUMPDEST POP PUSH1 0x0 PUSH8 0xFFFFFFFFFFFFFFFF DUP2 GT ISZERO PUSH2 0x2A9 JUMPI PUSH2 0x2A8 PUSH2 0x904 JUMP JUMPDEST JUMPDEST PUSH1 0x40 MLOAD SWAP1 DUP1 DUP3 MSTORE DUP1 PUSH1 0x20 MUL PUSH1 0x20 ADD DUP3 ADD PUSH1 0x40 MSTORE DUP1 ISZERO PUSH2 0x2D7 JUMPI DUP2 PUSH1 0x20 ADD PUSH1 0x20 DUP3 MUL DUP1 CALLDATASIZE DUP4 CALLDATACOPY DUP1 DUP3 ADD SWAP2 POP POP SWAP1 POP JUMPDEST POP PUSH1 0x1 SWAP1 DUP1 MLOAD SWAP1 PUSH1 0x20 ADD SWAP1 PUSH2 0x2ED SWAP3 SWAP2 SWAP1 PUSH2 0x5F3 JUMP JUMPDEST POP PUSH1 0x0 CALLER PUSH20 0xFFFFFFFFFFFFFFFFFFFFFFFFFFFFFFFFFFFFFFFF AND SELFBALANCE PUSH1 0x40 MLOAD PUSH2 0x314 SWAP1 PUSH2 0x964 JUMP JUMPDEST PUSH1 0x0 PUSH1 0x40 MLOAD DUP1 DUP4 SUB DUP2 DUP6 DUP8 GAS CALL SWAP3 POP POP POP RETURNDATASIZE DUP1 PUSH1 0x0 DUP2 EQ PUSH2 0x351 JUMPI PUSH1 0x40 MLOAD SWAP2 POP PUSH1 0x1F NOT PUSH1 0x3F RETURNDATASIZE ADD AND DUP3 ADD PUSH1 0x40 MSTORE RETURNDATASIZE DUP3 MSTORE RETURNDATASIZE PUSH1 0x0 PUSH1 0x20 DUP5 ADD RETURNDATACOPY PUSH2 0x356 JUMP JUMPDEST PUSH1 0x60 SWAP2 POP JUMPDEST POP POP SWAP1 POP DUP1 PUSH2 0x39A JUMPI PUSH1 0x40 MLOAD PUSH32 0x8C379A000000000000000000000000000000000000000000000000000000000 DUP2 MSTORE PUSH1 0x4 ADD PUSH2 0x391 SWAP1 PUSH2 0x9C5 JUMP JUMPDEST PUSH1 0x40 MLOAD DUP1 SWAP2 SUB SWAP1 REVERT JUMPDEST POP JUMP JUMPDEST PUSH1 0x2 PUSH1 0x20 MSTORE DUP1 PUSH1 0x0 MSTORE PUSH1 0x40 PUSH1 0x0 KECCAK256 PUSH1 0x0 SWAP2 POP SWAP1 POP SLOAD DUP2 JUMP JUMPDEST PUSH1 0x3 PUSH1 0x0 SWAP1 SLOAD SWAP1 PUSH2 0x100 EXP SWAP1 DIV PUSH20 0xFFFFFFFFFFFFFFFFFFFFFFFFFFFFFFFFFFFFFFFF AND DUP2 JUMP JUMPDEST PUSH1 0x0 SLOAD PUSH2 0x3E7 CALLVALUE PUSH2 0x510 JUMP JUMPDEST LT ISZERO PUSH2 0x428 JUMPI PUSH1 0x40 MLOAD PUSH32 0x8C379A000000000000000000000000000000000000000000000000000000000 DUP2 MSTORE PUSH1 0x4 ADD PUSH2 0x41F SWAP1 PUSH2 0xA31 JUMP JUMPDEST PUSH1 0x40 MLOAD DUP1 SWAP2 SUB SWAP1 REVERT JUMPDEST PUSH1 0x1 CALLER SWAP1 DUP1 PUSH1 0x1 DUP2 SLOAD ADD DUP1 DUP3 SSTORE DUP1 SWAP2 POP POP PUSH1 0x1 SWAP1 SUB SWAP1 PUSH1 0x0 MSTORE PUSH1 0x20 PUSH1 0x0 KECCAK256 ADD PUSH1 0x0 SWAP1 SWAP2 SWAP1 SWAP2 SWAP1 SWAP2 PUSH2 0x100 EXP DUP2 SLOAD DUP2 PUSH20 0xFFFFFFFFFFFFFFFFFFFFFFFFFFFFFFFFFFFFFFFF MUL NOT AND SWAP1 DUP4 PUSH20 0xFFFFFFFFFFFFFFFFFFFFFFFFFFFFFFFFFFFFFFFF AND MUL OR SWAP1 SSTORE POP CALLVALUE PUSH1 0x2 PUSH1 0x0 CALLER PUSH20 0xFFFFFFFFFFFFFFFFFFFFFFFFFFFFFFFFFFFFFFFF AND PUSH20 0xFFFFFFFFFFFFFFFFFFFFFFFFFFFFFFFFFFFFFFFF AND DUP2 MSTORE PUSH1 0x20 ADD SWAP1 DUP2 MSTORE PUSH1 0x20 ADD PUSH1 0x0 KECCAK256 DUP2 SWAP1 SSTORE POP JUMP JUMPDEST PUSH1 0x1 DUP2 DUP2 SLOAD DUP2 LT PUSH2 0x4E1 JUMPI PUSH1 0x0 DUP1 REVERT JUMPDEST SWAP1 PUSH1 0x0 MSTORE PUSH1 0x20 PUSH1 0x0 KECCAK256 ADD PUSH1 0x0 SWAP2 POP SLOAD SWAP1 PUSH2 0x100 EXP SWAP1 DIV PUSH20 0xFFFFFFFFFFFFFFFFFFFFFFFFFFFFFFFFFFFFFFFF AND DUP2 JUMP JUMPDEST PUSH1 0x0 DUP1 PUSH2 0x51B PUSH2 0x54A JUMP JUMPDEST SWAP1 POP PUSH1 0x0 PUSH8 0xDE0B6B3A7640000 DUP5 DUP4 PUSH2 0x534 SWAP2 SWAP1 PUSH2 0xA51 JUMP JUMPDEST PUSH2 0x53E SWAP2 SWAP1 PUSH2 0xADA JUMP JUMPDEST SWAP1 POP DUP1 SWAP3 POP POP POP SWAP2 SWAP1 POP JUMP JUMPDEST PUSH1 0x0 DUP1 PUSH20 0x8A753747A1FA494EC906CE90E9F37563A8AF630E SWAP1 POP PUSH1 0x0 DUP2 PUSH20 0xFFFFFFFFFFFFFFFFFFFFFFFFFFFFFFFFFFFFFFFF AND PUSH4 0xFEAF968C PUSH1 0x40 MLOAD DUP2 PUSH4 0xFFFFFFFF AND PUSH1 0xE0 SHL DUP2 MSTORE PUSH1 0x4 ADD PUSH1 0xA0 PUSH1 0x40 MLOAD DUP1 DUP4 SUB DUP2 DUP7 GAS STATICCALL ISZERO DUP1 ISZERO PUSH2 0x5B1 JUMPI RETURNDATASIZE PUSH1 0x0 DUP1 RETURNDATACOPY RETURNDATASIZE PUSH1 0x0 REVERT JUMPDEST POP POP POP POP PUSH1 0x40 MLOAD RETURNDATASIZE PUSH1 0x1F NOT PUSH1 0x1F DUP3 ADD AND DUP3 ADD DUP1 PUSH1 0x40 MSTORE POP DUP2 ADD SWAP1 PUSH2 0x5D5 SWAP2 SWAP1 PUSH2 0xB98 JUMP JUMPDEST POP POP POP SWAP2 POP POP PUSH5 0x2540BE400 DUP2 PUSH2 0x5EC SWAP2 SWAP1 PUSH2 0xC13 JUMP JUMPDEST SWAP3 POP POP POP SWAP1 JUMP JUMPDEST DUP3 DUP1 SLOAD DUP3 DUP3 SSTORE SWAP1 PUSH1 0x0 MSTORE PUSH1 0x20 PUSH1 0x0 KECCAK256 SWAP1 DUP2 ADD SWAP3 DUP3 ISZERO PUSH2 0x66C JUMPI SWAP2 PUSH1 0x20 MUL DUP3 ADD JUMPDEST DUP3 DUP2 GT ISZERO PUSH2 0x66B JUMPI DUP3 MLOAD DUP3 PUSH1 0x0 PUSH2 0x100 EXP DUP2 SLOAD DUP2 PUSH20 0xFFFFFFFFFFFFFFFFFFFFFFFFFFFFFFFFFFFFFFFF MUL NOT AND SWAP1 DUP4 PUSH20 0xFFFFFFFFFFFFFFFFFFFFFFFFFFFFFFFFFFFFFFFF AND MUL OR SWAP1 SSTORE POP SWAP2 PUSH1 0x20 ADD SWAP2 SWAP1 PUSH1 0x1 ADD SWAP1 PUSH2 0x613 JUMP JUMPDEST JUMPDEST POP SWAP1 POP PUSH2 0x679 SWAP2 SWAP1 PUSH2 0x67D JUMP JUMPDEST POP SWAP1 JUMP JUMPDEST JUMPDEST DUP1 DUP3 GT ISZERO PUSH2 0x696 JUMPI PUSH1 0x0 DUP2 PUSH1 0x0 SWAP1 SSTORE POP PUSH1 0x1 ADD PUSH2 0x67E JUMP JUMPDEST POP SWAP1 JUMP JUMPDEST PUSH1 0x0 DUP2 SWAP1 POP SWAP2 SWAP1 POP JUMP JUMPDEST PUSH2 0x6AD DUP2 PUSH2 0x69A JUMP JUMPDEST DUP3 MSTORE POP POP JUMP JUMPDEST PUSH1 0x0 PUSH1 0x20 DUP3 ADD SWAP1 POP PUSH2 0x6C8 PUSH1 0x0 DUP4 ADD DUP5 PUSH2 0x6A4 JUMP JUMPDEST SWAP3 SWAP2 POP POP JUMP JUMPDEST PUSH1 0x0 DUP1 REVERT JUMPDEST PUSH1 0x0 PUSH20 0xFFFFFFFFFFFFFFFFFFFFFFFFFFFFFFFFFFFFFFFF DUP3 AND SWAP1 POP SWAP2 SWAP1 POP JUMP JUMPDEST PUSH1 0x0 PUSH2 0x6FE DUP3 PUSH2 0x6D3 JUMP JUMPDEST SWAP1 POP SWAP2 SWAP1 POP JUMP JUMPDEST PUSH2 0x70E DUP2 PUSH2 0x6F3 JUMP JUMPDEST DUP2 EQ PUSH2 0x719 JUMPI PUSH1 0x0 DUP1 REVERT JUMPDEST POP JUMP JUMPDEST PUSH1 0x0 DUP2 CALLDATALOAD SWAP1 POP PUSH2 0x72B DUP2 PUSH2 0x705 JUMP JUMPDEST SWAP3 SWAP2 POP POP JUMP JUMPDEST PUSH1 0x0 PUSH1 0x20 DUP3 DUP5 SUB SLT ISZERO PUSH2 0x747 JUMPI PUSH2 0x746 PUSH2 0x6CE JUMP JUMPDEST JUMPDEST PUSH1 0x0 PUSH2 0x755 DUP5 DUP3 DUP6 ADD PUSH2 0x71C JUMP JUMPDEST SWAP2 POP POP SWAP3 SWAP2 POP POP JUMP JUMPDEST PUSH2 0x767 DUP2 PUSH2 0x6F3 JUMP JUMPDEST DUP3 MSTORE POP POP JUMP JUMPDEST PUSH1 0x0 PUSH1 0x20 DUP3 ADD SWAP1 POP PUSH2 0x782 PUSH1 0x0 DUP4 ADD DUP5 PUSH2 0x75E JUMP JUMPDEST SWAP3 SWAP2 POP POP JUMP JUMPDEST PUSH2 0x791 DUP2 PUSH2 0x69A JUMP JUMPDEST DUP2 EQ PUSH2 0x79C JUMPI PUSH1 0x0 DUP1 REVERT JUMPDEST POP JUMP JUMPDEST PUSH1 0x0 DUP2 CALLDATALOAD SWAP1 POP PUSH2 0x7AE DUP2 PUSH2 0x788 JUMP JUMPDEST SWAP3 SWAP2 POP POP JUMP JUMPDEST PUSH1 0x0 PUSH1 0x20 DUP3 DUP5 SUB SLT ISZERO PUSH2 0x7CA JUMPI PUSH2 0x7C9 PUSH2 0x6CE JUMP JUMPDEST JUMPDEST PUSH1 0x0 PUSH2 0x7D8 DUP5 DUP3 DUP6 ADD PUSH2 0x79F JUMP JUMPDEST SWAP2 POP POP SWAP3 SWAP2 POP POP JUMP JUMPDEST PUSH1 0x0 DUP3 DUP3 MSTORE PUSH1 0x20 DUP3 ADD SWAP1 POP SWAP3 SWAP2 POP POP JUMP JUMPDEST PUSH32 0x596F7520617265206E6F74204F776E6572210000000000000000000000000000 PUSH1 0x0 DUP3 ADD MSTORE POP JUMP JUMPDEST PUSH1 0x0 PUSH2 0x828 PUSH1 0x12 DUP4 PUSH2 0x7E1 JUMP JUMPDEST SWAP2 POP PUSH2 0x833 DUP3 PUSH2 0x7F2 JUMP JUMPDEST PUSH1 0x20 DUP3 ADD SWAP1 POP SWAP2 SWAP1 POP JUMP JUMPDEST PUSH1 0x0 PUSH1 0x20 DUP3 ADD SWAP1 POP DUP2 DUP2 SUB PUSH1 0x0 DUP4 ADD MSTORE PUSH2 0x857 DUP2 PUSH2 0x81B JUMP JUMPDEST SWAP1 POP SWAP2 SWAP1 POP JUMP JUMPDEST PUSH32 0x4E487B7100000000000000000000000000000000000000000000000000000000 PUSH1 0x0 MSTORE PUSH1 0x32 PUSH1 0x4 MSTORE PUSH1 0x24 PUSH1 0x0 REVERT JUMPDEST PUSH32 0x4E487B7100000000000000000000000000000000000000000000000000000000 PUSH1 0x0 MSTORE PUSH1 0x11 PUSH1 0x4 MSTORE PUSH1 0x24 PUSH1 0x0 REVERT JUMPDEST PUSH1 0x0 PUSH2 0x8C7 DUP3 PUSH2 0x69A JUMP JUMPDEST SWAP2 POP PUSH32 0xFFFFFFFFFFFFFFFFFFFFFFFFFFFFFFFFFFFFFFFFFFFFFFFFFFFFFFFFFFFFFFFF DUP3 SUB PUSH2 0x8F9 JUMPI PUSH2 0x8F8 PUSH2 0x88D JUMP JUMPDEST JUMPDEST PUSH1 0x1 DUP3 ADD SWAP1 POP SWAP2 SWAP1 POP JUMP JUMPDEST PUSH32 0x4E487B7100000000000000000000000000000000000000000000000000000000 PUSH1 0x0 MSTORE PUSH1 0x41 PUSH1 0x4 MSTORE PUSH1 0x24 PUSH1 0x0 REVERT JUMPDEST PUSH1 0x0 DUP2 SWAP1 POP SWAP3 SWAP2 POP POP JUMP JUMPDEST POP JUMP JUMPDEST PUSH1 0x0 PUSH2 0x94E PUSH1 0x0 DUP4 PUSH2 0x933 JUMP JUMPDEST SWAP2 POP PUSH2 0x959 DUP3 PUSH2 0x93E JUMP JUMPDEST PUSH1 0x0 DUP3 ADD SWAP1 POP SWAP2 SWAP1 POP JUMP JUMPDEST PUSH1 0x0 PUSH2 0x96F DUP3 PUSH2 0x941 JUMP JUMPDEST SWAP2 POP DUP2 SWAP1 POP SWAP2 SWAP1 POP JUMP JUMPDEST PUSH32 0x43616C6C206661696C6564000000000000000000000000000000000000000000 PUSH1 0x0 DUP3 ADD MSTORE POP JUMP JUMPDEST PUSH1 0x0 PUSH2 0x9AF PUSH1 0xB DUP4 PUSH2 0x7E1 JUMP JUMPDEST SWAP2 POP PUSH2 0x9BA DUP3 PUSH2 0x979 JUMP JUMPDEST PUSH1 0x20 DUP3 ADD SWAP1 POP SWAP2 SWAP1 POP JUMP JUMPDEST PUSH1 0x0 PUSH1 0x20 DUP3 ADD SWAP1 POP DUP2 DUP2 SUB PUSH1 0x0 DUP4 ADD MSTORE PUSH2 0x9DE DUP2 PUSH2 0x9A2 JUMP JUMPDEST SWAP1 POP SWAP2 SWAP1 POP JUMP JUMPDEST PUSH32 0x4469646E27742073656E6420656E6F7567680000000000000000000000000000 PUSH1 0x0 DUP3 ADD MSTORE POP JUMP JUMPDEST PUSH1 0x0 PUSH2 0xA1B PUSH1 0x12 DUP4 PUSH2 0x7E1 JUMP JUMPDEST SWAP2 POP PUSH2 0xA26 DUP3 PUSH2 0x9E5 JUMP JUMPDEST PUSH1 0x20 DUP3 ADD SWAP1 POP SWAP2 SWAP1 POP JUMP JUMPDEST PUSH1 0x0 PUSH1 0x20 DUP3 ADD SWAP1 POP DUP2 DUP2 SUB PUSH1 0x0 DUP4 ADD MSTORE PUSH2 0xA4A DUP2 PUSH2 0xA0E JUMP JUMPDEST SWAP1 POP SWAP2 SWAP1 POP JUMP JUMPDEST PUSH1 0x0 PUSH2 0xA5C DUP3 PUSH2 0x69A JUMP JUMPDEST SWAP2 POP PUSH2 0xA67 DUP4 PUSH2 0x69A JUMP JUMPDEST SWAP3 POP DUP2 PUSH32 0xFFFFFFFFFFFFFFFFFFFFFFFFFFFFFFFFFFFFFFFFFFFFFFFFFFFFFFFFFFFFFFFF DIV DUP4 GT DUP3 ISZERO ISZERO AND ISZERO PUSH2 0xAA0 JUMPI PUSH2 0xA9F PUSH2 0x88D JUMP JUMPDEST JUMPDEST DUP3 DUP3 MUL SWAP1 POP SWAP3 SWAP2 POP POP JUMP JUMPDEST PUSH32 0x4E487B7100000000000000000000000000000000000000000000000000000000 PUSH1 0x0 MSTORE PUSH1 0x12 PUSH1 0x4 MSTORE PUSH1 0x24 PUSH1 0x0 REVERT JUMPDEST PUSH1 0x0 PUSH2 0xAE5 DUP3 PUSH2 0x69A JUMP JUMPDEST SWAP2 POP PUSH2 0xAF0 DUP4 PUSH2 0x69A JUMP JUMPDEST SWAP3 POP DUP3 PUSH2 0xB00 JUMPI PUSH2 0xAFF PUSH2 0xAAB JUMP JUMPDEST JUMPDEST DUP3 DUP3 DIV SWAP1 POP SWAP3 SWAP2 POP POP JUMP JUMPDEST PUSH1 0x0 PUSH10 0xFFFFFFFFFFFFFFFFFFFF DUP3 AND SWAP1 POP SWAP2 SWAP1 POP JUMP JUMPDEST PUSH2 0xB2A DUP2 PUSH2 0xB0B JUMP JUMPDEST DUP2 EQ PUSH2 0xB35 JUMPI PUSH1 0x0 DUP1 REVERT JUMPDEST POP JUMP JUMPDEST PUSH1 0x0 DUP2 MLOAD SWAP1 POP PUSH2 0xB47 DUP2 PUSH2 0xB21 JUMP JUMPDEST SWAP3 SWAP2 POP POP JUMP JUMPDEST PUSH1 0x0 DUP2 SWAP1 POP SWAP2 SWAP1 POP JUMP JUMPDEST PUSH2 0xB60 DUP2 PUSH2 0xB4D JUMP JUMPDEST DUP2 EQ PUSH2 0xB6B JUMPI PUSH1 0x0 DUP1 REVERT JUMPDEST POP JUMP JUMPDEST PUSH1 0x0 DUP2 MLOAD SWAP1 POP PUSH2 0xB7D DUP2 PUSH2 0xB57 JUMP JUMPDEST SWAP3 SWAP2 POP POP JUMP JUMPDEST PUSH1 0x0 DUP2 MLOAD SWAP1 POP PUSH2 0xB92 DUP2 PUSH2 0x788 JUMP JUMPDEST SWAP3 SWAP2 POP POP JUMP JUMPDEST PUSH1 0x0 DUP1 PUSH1 0x0 DUP1 PUSH1 0x0 PUSH1 0xA0 DUP7 DUP9 SUB SLT ISZERO PUSH2 0xBB4 JUMPI PUSH2 0xBB3 PUSH2 0x6CE JUMP JUMPDEST JUMPDEST PUSH1 0x0 PUSH2 0xBC2 DUP9 DUP3 DUP10 ADD PUSH2 0xB38 JUMP JUMPDEST SWAP6 POP POP PUSH1 0x20 PUSH2 0xBD3 DUP9 DUP3 DUP10 ADD PUSH2 0xB6E JUMP JUMPDEST SWAP5 POP POP PUSH1 0x40 PUSH2 0xBE4 DUP9 DUP3 DUP10 ADD PUSH2 0xB83 JUMP JUMPDEST SWAP4 POP POP PUSH1 0x60 PUSH2 0xBF5 DUP9 DUP3 DUP10 ADD PUSH2 0xB83 JUMP JUMPDEST SWAP3 POP POP PUSH1 0x80 PUSH2 0xC06 DUP9 DUP3 DUP10 ADD PUSH2 0xB38 JUMP JUMPDEST SWAP2 POP POP SWAP3 SWAP6 POP SWAP3 SWAP6 SWAP1 SWAP4 POP JUMP JUMPDEST PUSH1 0x0 PUSH2 0xC1E DUP3 PUSH2 0xB4D JUMP JUMPDEST SWAP2 POP PUSH2 0xC29 DUP4 PUSH2 0xB4D JUMP JUMPDEST SWAP3 POP DUP3 PUSH32 0x7FFFFFFFFFFFFFFFFFFFFFFFFFFFFFFFFFFFFFFFFFFFFFFFFFFFFFFFFFFFFFFF DIV DUP3 GT PUSH1 0x0 DUP5 SGT PUSH1 0x0 DUP5 SGT AND AND ISZERO PUSH2 0xC68 JUMPI PUSH2 0xC67 PUSH2 0x88D JUMP JUMPDEST JUMPDEST DUP2 PUSH32 0x8000000000000000000000000000000000000000000000000000000000000000 SDIV DUP4 SLT PUSH1 0x0 DUP5 SLT PUSH1 0x0 DUP5 SGT AND AND ISZERO PUSH2 0xCA5 JUMPI PUSH2 0xCA4 PUSH2 0x88D JUMP JUMPDEST JUMPDEST DUP3 PUSH32 0x8000000000000000000000000000000000000000000000000000000000000000 SDIV DUP3 SLT PUSH1 0x0 DUP5 SGT PUSH1 0x0 DUP5 SLT AND AND ISZERO PUSH2 0xCE2 JUMPI PUSH2 0xCE1 PUSH2 0x88D JUMP JUMPDEST JUMPDEST DUP3 PUSH32 0x7FFFFFFFFFFFFFFFFFFFFFFFFFFFFFFFFFFFFFFFFFFFFFFFFFFFFFFFFFFFFFFF SDIV DUP3 SLT PUSH1 0x0 DUP5 SLT PUSH1 0x0 DUP5 SLT AND AND ISZERO PUSH2 0xD1F JUMPI PUSH2 0xD1E PUSH2 0x88D JUMP JUMPDEST JUMPDEST DUP3 DUP3 MUL SWAP1 POP SWAP3 SWAP2 POP POP JUMP INVALID LOG2 PUSH5 0x6970667358 0x22 SLT KECCAK256 0xB4 0xAB DUP12 0xD2 DUP15 CREATE 0xEA CALLVALUE 0xA9 DUP16 DUP13 0xB7 0xD7 PUSH18 0xC49D763F995E4EE94E3BC55CF9E4E4CE12CC PUSH5 0x736F6C6343 STOP ADDMOD 0xF STOP CALLER "
				},
				"gasEstimates": {
					"creation": {
						"codeDepositCost": "684800",
						"executionCost": "47087",
						"totalCost": "731887"
					},
					"external": {
						"addressToAmountFunded(address)": "2836",
						"fund()": "infinite",
						"funders(uint256)": "5044",
						"minimumUsd()": "2407",
						"owner()": "2558",
						"withdraw()": "infinite"
					}
				},
				"methodIdentifiers": {
					"addressToAmountFunded(address)": "3e47d6f3",
					"fund()": "b60d4288",
					"funders(uint256)": "dc0d3dff",
					"minimumUsd()": "098de820",
					"owner()": "8da5cb5b",
					"withdraw()": "3ccfd60b"
				}
			},
			"storageLayout": {
				"storage": [
					{
						"astId": 56,
						"contract": "contracts/FundMe.sol:FundMe",
						"label": "minimumUsd",
						"offset": 0,
						"slot": "0",
						"type": "t_uint256"
					},
					{
						"astId": 59,
						"contract": "contracts/FundMe.sol:FundMe",
						"label": "funders",
						"offset": 0,
						"slot": "1",
						"type": "t_array(t_address)dyn_storage"
					},
					{
						"astId": 63,
						"contract": "contracts/FundMe.sol:FundMe",
						"label": "addressToAmountFunded",
						"offset": 0,
						"slot": "2",
						"type": "t_mapping(t_address,t_uint256)"
					},
					{
						"astId": 65,
						"contract": "contracts/FundMe.sol:FundMe",
						"label": "owner",
						"offset": 0,
						"slot": "3",
						"type": "t_address"
					}
				],
				"types": {
					"t_address": {
						"encoding": "inplace",
						"label": "address",
						"numberOfBytes": "20"
					},
					"t_array(t_address)dyn_storage": {
						"base": "t_address",
						"encoding": "dynamic_array",
						"label": "address[]",
						"numberOfBytes": "32"
					},
					"t_mapping(t_address,t_uint256)": {
						"encoding": "mapping",
						"key": "t_address",
						"label": "mapping(address => uint256)",
						"numberOfBytes": "32",
						"value": "t_uint256"
					},
					"t_uint256": {
						"encoding": "inplace",
						"label": "uint256",
						"numberOfBytes": "32"
					}
				}
			},
			"userdoc": {
				"kind": "user",
				"methods": {},
				"version": 1
			}
		}
	}
}