{
	"contracts/PriceConverter.sol": {
		"PriceConverter": {
			"abi": [
				{
					"inputs": [],
					"name": "getPrice",
					"outputs": [
						{
							"internalType": "uint256",
							"name": "",
							"type": "uint256"
						}
					],
					"stateMutability": "view",
					"type": "function"
				},
				{
					"inputs": [],
					"name": "getVersion",
					"outputs": [
						{
							"internalType": "uint256",
							"name": "",
							"type": "uint256"
						}
					],
					"stateMutability": "view",
					"type": "function"
				}
			],
			"devdoc": {
				"kind": "dev",
				"methods": {},
				"version": 1
			},
			"evm": {
				"assembly": "    /* \"contracts/PriceConverter.sol\":136:1023  library PriceConverter {... */\n  dataSize(sub_0)\n  dataOffset(sub_0)\n  0x0b\n  dup3\n  dup3\n  dup3\n  codecopy\n  dup1\n  mload\n  0x00\n  byte\n  0x73\n  eq\n  tag_1\n  jumpi\n  mstore(0x00, 0x4e487b7100000000000000000000000000000000000000000000000000000000)\n  mstore(0x04, 0x00)\n  revert(0x00, 0x24)\ntag_1:\n  mstore(0x00, address)\n  0x73\n  dup2\n  mstore8\n  dup3\n  dup2\n  return\nstop\n\nsub_0: assembly {\n        /* \"contracts/PriceConverter.sol\":136:1023  library PriceConverter {... */\n      eq(address, deployTimeAddress())\n      mstore(0x40, 0x80)\n      jumpi(tag_1, lt(calldatasize, 0x04))\n      shr(0xe0, calldataload(0x00))\n      dup1\n      0x0d8e6e2c\n      eq\n      tag_2\n      jumpi\n      dup1\n      0x98d5fdca\n      eq\n      tag_3\n      jumpi\n    tag_1:\n      0x00\n      dup1\n      revert\n        /* \"contracts/PriceConverter.sol\":591:795  function getVersion() public view returns (uint256) {... */\n    tag_2:\n      tag_4\n      tag_5\n      jump\t// in\n    tag_4:\n      mload(0x40)\n      tag_6\n      swap2\n      swap1\n      tag_7\n      jump\t// in\n    tag_6:\n      mload(0x40)\n      dup1\n      swap2\n      sub\n      swap1\n      return\n        /* \"contracts/PriceConverter.sol\":166:585  function getPrice() public view returns(uint256) {... */\n    tag_3:\n      tag_8\n      tag_9\n      jump\t// in\n    tag_8:\n      mload(0x40)\n      tag_10\n      swap2\n      swap1\n      tag_7\n      jump\t// in\n    tag_10:\n      mload(0x40)\n      dup1\n      swap2\n      sub\n      swap1\n      return\n        /* \"contracts/PriceConverter.sol\":591:795  function getVersion() public view returns (uint256) {... */\n    tag_5:\n        /* \"contracts/PriceConverter.sol\":634:641  uint256 */\n      0x00\n        /* \"contracts/PriceConverter.sol\":653:684  AggregatorV3Interface priceFeed */\n      dup1\n        /* \"contracts/PriceConverter.sol\":709:751  0x8A753747A1Fa494EC906cE90E9f37563A8AF630e */\n      0x8a753747a1fa494ec906ce90e9f37563a8af630e\n        /* \"contracts/PriceConverter.sol\":653:752  AggregatorV3Interface priceFeed = AggregatorV3Interface(0x8A753747A1Fa494EC906cE90E9f37563A8AF630e) */\n      swap1\n      pop\n        /* \"contracts/PriceConverter.sol\":769:778  priceFeed */\n      dup1\n        /* \"contracts/PriceConverter.sol\":769:786  priceFeed.version */\n      0xffffffffffffffffffffffffffffffffffffffff\n      and\n      0x54fd4d50\n        /* \"contracts/PriceConverter.sol\":769:788  priceFeed.version() */\n      mload(0x40)\n      dup2\n      0xffffffff\n      and\n      0xe0\n      shl\n      dup2\n      mstore\n      0x04\n      add\n      0x20\n      mload(0x40)\n      dup1\n      dup4\n      sub\n      dup2\n      dup7\n      dup1\n      extcodesize\n      iszero\n      dup1\n      iszero\n      tag_12\n      jumpi\n      0x00\n      dup1\n      revert\n    tag_12:\n      pop\n      gas\n      staticcall\n      iszero\n      dup1\n      iszero\n      tag_14\n      jumpi\n      returndatasize\n      0x00\n      dup1\n      returndatacopy\n      revert(0x00, returndatasize)\n    tag_14:\n      pop\n      pop\n      pop\n      pop\n      mload(0x40)\n      returndatasize\n      not(0x1f)\n      0x1f\n      dup3\n      add\n      and\n      dup3\n      add\n      dup1\n      0x40\n      mstore\n      pop\n      dup2\n      add\n      swap1\n      tag_15\n      swap2\n      swap1\n      tag_16\n      jump\t// in\n    tag_15:\n        /* \"contracts/PriceConverter.sol\":762:788  return priceFeed.version() */\n      swap2\n      pop\n      pop\n        /* \"contracts/PriceConverter.sol\":591:795  function getVersion() public view returns (uint256) {... */\n      swap1\n      jump\t// out\n        /* \"contracts/PriceConverter.sol\":166:585  function getPrice() public view returns(uint256) {... */\n    tag_9:\n        /* \"contracts/PriceConverter.sol\":206:213  uint256 */\n      0x00\n        /* \"contracts/PriceConverter.sol\":306:337  AggregatorV3Interface priceFeed */\n      dup1\n        /* \"contracts/PriceConverter.sol\":362:404  0x8A753747A1Fa494EC906cE90E9f37563A8AF630e */\n      0x8a753747a1fa494ec906ce90e9f37563a8af630e\n        /* \"contracts/PriceConverter.sol\":306:405  AggregatorV3Interface priceFeed = AggregatorV3Interface(0x8A753747A1Fa494EC906cE90E9f37563A8AF630e) */\n      swap1\n      pop\n        /* \"contracts/PriceConverter.sol\":417:429  int256 price */\n      0x00\n        /* \"contracts/PriceConverter.sol\":436:445  priceFeed */\n      dup2\n        /* \"contracts/PriceConverter.sol\":436:461  priceFeed.latestRoundData */\n      0xffffffffffffffffffffffffffffffffffffffff\n      and\n      0xfeaf968c\n        /* \"contracts/PriceConverter.sol\":436:463  priceFeed.latestRoundData() */\n      mload(0x40)\n      dup2\n      0xffffffff\n      and\n      0xe0\n      shl\n      dup2\n      mstore\n      0x04\n      add\n      0xa0\n      mload(0x40)\n      dup1\n      dup4\n      sub\n      dup2\n      dup7\n      dup1\n      extcodesize\n      iszero\n      dup1\n      iszero\n      tag_18\n      jumpi\n      0x00\n      dup1\n      revert\n    tag_18:\n      pop\n      gas\n      staticcall\n      iszero\n      dup1\n      iszero\n      tag_20\n      jumpi\n      returndatasize\n      0x00\n      dup1\n      returndatacopy\n      revert(0x00, returndatasize)\n    tag_20:\n      pop\n      pop\n      pop\n      pop\n      mload(0x40)\n      returndatasize\n      not(0x1f)\n      0x1f\n      dup3\n      add\n      and\n      dup3\n      add\n      dup1\n      0x40\n      mstore\n      pop\n      dup2\n      add\n      swap1\n      tag_21\n      swap2\n      swap1\n      tag_22\n      jump\t// in\n    tag_21:\n        /* \"contracts/PriceConverter.sol\":415:463  (,int256 price,,,) = priceFeed.latestRoundData() */\n      pop\n      pop\n      pop\n      swap2\n      pop\n      pop\n        /* \"contracts/PriceConverter.sol\":550:554  1e10 */\n      0x02540be400\n        /* \"contracts/PriceConverter.sol\":542:547  price */\n      dup2\n        /* \"contracts/PriceConverter.sol\":542:554  price * 1e10 */\n      tag_23\n      swap2\n      swap1\n      tag_24\n      jump\t// in\n    tag_23:\n        /* \"contracts/PriceConverter.sol\":527:555  return uint256(price * 1e10) */\n      swap3\n      pop\n      pop\n      pop\n        /* \"contracts/PriceConverter.sol\":166:585  function getPrice() public view returns(uint256) {... */\n      swap1\n      jump\t// out\n        /* \"#utility.yul\":7:84   */\n    tag_25:\n        /* \"#utility.yul\":44:51   */\n      0x00\n        /* \"#utility.yul\":73:78   */\n      dup2\n        /* \"#utility.yul\":62:78   */\n      swap1\n      pop\n        /* \"#utility.yul\":7:84   */\n      swap2\n      swap1\n      pop\n      jump\t// out\n        /* \"#utility.yul\":90:216   */\n    tag_26:\n        /* \"#utility.yul\":185:209   */\n      tag_42\n        /* \"#utility.yul\":203:208   */\n      dup2\n        /* \"#utility.yul\":185:209   */\n      tag_25\n      jump\t// in\n    tag_42:\n        /* \"#utility.yul\":180:183   */\n      dup3\n        /* \"#utility.yul\":173:210   */\n      mstore\n        /* \"#utility.yul\":90:216   */\n      pop\n      pop\n      jump\t// out\n        /* \"#utility.yul\":222:460   */\n    tag_7:\n        /* \"#utility.yul\":323:327   */\n      0x00\n        /* \"#utility.yul\":361:363   */\n      0x20\n        /* \"#utility.yul\":350:359   */\n      dup3\n        /* \"#utility.yul\":346:364   */\n      add\n        /* \"#utility.yul\":338:364   */\n      swap1\n      pop\n        /* \"#utility.yul\":374:453   */\n      tag_44\n        /* \"#utility.yul\":450:451   */\n      0x00\n        /* \"#utility.yul\":439:448   */\n      dup4\n        /* \"#utility.yul\":435:452   */\n      add\n        /* \"#utility.yul\":426:432   */\n      dup5\n        /* \"#utility.yul\":374:453   */\n      tag_26\n      jump\t// in\n    tag_44:\n        /* \"#utility.yul\":222:460   */\n      swap3\n      swap2\n      pop\n      pop\n      jump\t// out\n        /* \"#utility.yul\":547:664   */\n    tag_28:\n        /* \"#utility.yul\":656:657   */\n      0x00\n        /* \"#utility.yul\":653:654   */\n      dup1\n        /* \"#utility.yul\":646:658   */\n      revert\n        /* \"#utility.yul\":793:915   */\n    tag_30:\n        /* \"#utility.yul\":866:890   */\n      tag_49\n        /* \"#utility.yul\":884:889   */\n      dup2\n        /* \"#utility.yul\":866:890   */\n      tag_25\n      jump\t// in\n    tag_49:\n        /* \"#utility.yul\":859:864   */\n      dup2\n        /* \"#utility.yul\":856:891   */\n      eq\n        /* \"#utility.yul\":846:909   */\n      tag_50\n      jumpi\n        /* \"#utility.yul\":905:906   */\n      0x00\n        /* \"#utility.yul\":902:903   */\n      dup1\n        /* \"#utility.yul\":895:907   */\n      revert\n        /* \"#utility.yul\":846:909   */\n    tag_50:\n        /* \"#utility.yul\":793:915   */\n      pop\n      jump\t// out\n        /* \"#utility.yul\":921:1064   */\n    tag_31:\n        /* \"#utility.yul\":978:983   */\n      0x00\n        /* \"#utility.yul\":1009:1015   */\n      dup2\n        /* \"#utility.yul\":1003:1016   */\n      mload\n        /* \"#utility.yul\":994:1016   */\n      swap1\n      pop\n        /* \"#utility.yul\":1025:1058   */\n      tag_52\n        /* \"#utility.yul\":1052:1057   */\n      dup2\n        /* \"#utility.yul\":1025:1058   */\n      tag_30\n      jump\t// in\n    tag_52:\n        /* \"#utility.yul\":921:1064   */\n      swap3\n      swap2\n      pop\n      pop\n      jump\t// out\n        /* \"#utility.yul\":1070:1421   */\n    tag_16:\n        /* \"#utility.yul\":1140:1146   */\n      0x00\n        /* \"#utility.yul\":1189:1191   */\n      0x20\n        /* \"#utility.yul\":1177:1186   */\n      dup3\n        /* \"#utility.yul\":1168:1175   */\n      dup5\n        /* \"#utility.yul\":1164:1187   */\n      sub\n        /* \"#utility.yul\":1160:1192   */\n      slt\n        /* \"#utility.yul\":1157:1276   */\n      iszero\n      tag_54\n      jumpi\n        /* \"#utility.yul\":1195:1274   */\n      tag_55\n      tag_28\n      jump\t// in\n    tag_55:\n        /* \"#utility.yul\":1157:1276   */\n    tag_54:\n        /* \"#utility.yul\":1315:1316   */\n      0x00\n        /* \"#utility.yul\":1340:1404   */\n      tag_56\n        /* \"#utility.yul\":1396:1403   */\n      dup5\n        /* \"#utility.yul\":1387:1393   */\n      dup3\n        /* \"#utility.yul\":1376:1385   */\n      dup6\n        /* \"#utility.yul\":1372:1394   */\n      add\n        /* \"#utility.yul\":1340:1404   */\n      tag_31\n      jump\t// in\n    tag_56:\n        /* \"#utility.yul\":1330:1404   */\n      swap2\n      pop\n        /* \"#utility.yul\":1286:1414   */\n      pop\n        /* \"#utility.yul\":1070:1421   */\n      swap3\n      swap2\n      pop\n      pop\n      jump\t// out\n        /* \"#utility.yul\":1427:1532   */\n    tag_32:\n        /* \"#utility.yul\":1463:1470   */\n      0x00\n        /* \"#utility.yul\":1503:1525   */\n      0xffffffffffffffffffff\n        /* \"#utility.yul\":1496:1501   */\n      dup3\n        /* \"#utility.yul\":1492:1526   */\n      and\n        /* \"#utility.yul\":1481:1526   */\n      swap1\n      pop\n        /* \"#utility.yul\":1427:1532   */\n      swap2\n      swap1\n      pop\n      jump\t// out\n        /* \"#utility.yul\":1538:1658   */\n    tag_33:\n        /* \"#utility.yul\":1610:1633   */\n      tag_59\n        /* \"#utility.yul\":1627:1632   */\n      dup2\n        /* \"#utility.yul\":1610:1633   */\n      tag_32\n      jump\t// in\n    tag_59:\n        /* \"#utility.yul\":1603:1608   */\n      dup2\n        /* \"#utility.yul\":1600:1634   */\n      eq\n        /* \"#utility.yul\":1590:1652   */\n      tag_60\n      jumpi\n        /* \"#utility.yul\":1648:1649   */\n      0x00\n        /* \"#utility.yul\":1645:1646   */\n      dup1\n        /* \"#utility.yul\":1638:1650   */\n      revert\n        /* \"#utility.yul\":1590:1652   */\n    tag_60:\n        /* \"#utility.yul\":1538:1658   */\n      pop\n      jump\t// out\n        /* \"#utility.yul\":1664:1805   */\n    tag_34:\n        /* \"#utility.yul\":1720:1725   */\n      0x00\n        /* \"#utility.yul\":1751:1757   */\n      dup2\n        /* \"#utility.yul\":1745:1758   */\n      mload\n        /* \"#utility.yul\":1736:1758   */\n      swap1\n      pop\n        /* \"#utility.yul\":1767:1799   */\n      tag_62\n        /* \"#utility.yul\":1793:1798   */\n      dup2\n        /* \"#utility.yul\":1767:1799   */\n      tag_33\n      jump\t// in\n    tag_62:\n        /* \"#utility.yul\":1664:1805   */\n      swap3\n      swap2\n      pop\n      pop\n      jump\t// out\n        /* \"#utility.yul\":1811:1887   */\n    tag_35:\n        /* \"#utility.yul\":1847:1854   */\n      0x00\n        /* \"#utility.yul\":1876:1881   */\n      dup2\n        /* \"#utility.yul\":1865:1881   */\n      swap1\n      pop\n        /* \"#utility.yul\":1811:1887   */\n      swap2\n      swap1\n      pop\n      jump\t// out\n        /* \"#utility.yul\":1893:2013   */\n    tag_36:\n        /* \"#utility.yul\":1965:1988   */\n      tag_65\n        /* \"#utility.yul\":1982:1987   */\n      dup2\n        /* \"#utility.yul\":1965:1988   */\n      tag_35\n      jump\t// in\n    tag_65:\n        /* \"#utility.yul\":1958:1963   */\n      dup2\n        /* \"#utility.yul\":1955:1989   */\n      eq\n        /* \"#utility.yul\":1945:2007   */\n      tag_66\n      jumpi\n        /* \"#utility.yul\":2003:2004   */\n      0x00\n        /* \"#utility.yul\":2000:2001   */\n      dup1\n        /* \"#utility.yul\":1993:2005   */\n      revert\n        /* \"#utility.yul\":1945:2007   */\n    tag_66:\n        /* \"#utility.yul\":1893:2013   */\n      pop\n      jump\t// out\n        /* \"#utility.yul\":2019:2160   */\n    tag_37:\n        /* \"#utility.yul\":2075:2080   */\n      0x00\n        /* \"#utility.yul\":2106:2112   */\n      dup2\n        /* \"#utility.yul\":2100:2113   */\n      mload\n        /* \"#utility.yul\":2091:2113   */\n      swap1\n      pop\n        /* \"#utility.yul\":2122:2154   */\n      tag_68\n        /* \"#utility.yul\":2148:2153   */\n      dup2\n        /* \"#utility.yul\":2122:2154   */\n      tag_36\n      jump\t// in\n    tag_68:\n        /* \"#utility.yul\":2019:2160   */\n      swap3\n      swap2\n      pop\n      pop\n      jump\t// out\n        /* \"#utility.yul\":2166:3137   */\n    tag_22:\n        /* \"#utility.yul\":2269:2275   */\n      0x00\n        /* \"#utility.yul\":2277:2283   */\n      dup1\n        /* \"#utility.yul\":2285:2291   */\n      0x00\n        /* \"#utility.yul\":2293:2299   */\n      dup1\n        /* \"#utility.yul\":2301:2307   */\n      0x00\n        /* \"#utility.yul\":2350:2353   */\n      0xa0\n        /* \"#utility.yul\":2338:2347   */\n      dup7\n        /* \"#utility.yul\":2329:2336   */\n      dup9\n        /* \"#utility.yul\":2325:2348   */\n      sub\n        /* \"#utility.yul\":2321:2354   */\n      slt\n        /* \"#utility.yul\":2318:2438   */\n      iszero\n      tag_70\n      jumpi\n        /* \"#utility.yul\":2357:2436   */\n      tag_71\n      tag_28\n      jump\t// in\n    tag_71:\n        /* \"#utility.yul\":2318:2438   */\n    tag_70:\n        /* \"#utility.yul\":2477:2478   */\n      0x00\n        /* \"#utility.yul\":2502:2565   */\n      tag_72\n        /* \"#utility.yul\":2557:2564   */\n      dup9\n        /* \"#utility.yul\":2548:2554   */\n      dup3\n        /* \"#utility.yul\":2537:2546   */\n      dup10\n        /* \"#utility.yul\":2533:2555   */\n      add\n        /* \"#utility.yul\":2502:2565   */\n      tag_34\n      jump\t// in\n    tag_72:\n        /* \"#utility.yul\":2492:2565   */\n      swap6\n      pop\n        /* \"#utility.yul\":2448:2575   */\n      pop\n        /* \"#utility.yul\":2614:2616   */\n      0x20\n        /* \"#utility.yul\":2640:2703   */\n      tag_73\n        /* \"#utility.yul\":2695:2702   */\n      dup9\n        /* \"#utility.yul\":2686:2692   */\n      dup3\n        /* \"#utility.yul\":2675:2684   */\n      dup10\n        /* \"#utility.yul\":2671:2693   */\n      add\n        /* \"#utility.yul\":2640:2703   */\n      tag_37\n      jump\t// in\n    tag_73:\n        /* \"#utility.yul\":2630:2703   */\n      swap5\n      pop\n        /* \"#utility.yul\":2585:2713   */\n      pop\n        /* \"#utility.yul\":2752:2754   */\n      0x40\n        /* \"#utility.yul\":2778:2842   */\n      tag_74\n        /* \"#utility.yul\":2834:2841   */\n      dup9\n        /* \"#utility.yul\":2825:2831   */\n      dup3\n        /* \"#utility.yul\":2814:2823   */\n      dup10\n        /* \"#utility.yul\":2810:2832   */\n      add\n        /* \"#utility.yul\":2778:2842   */\n      tag_31\n      jump\t// in\n    tag_74:\n        /* \"#utility.yul\":2768:2842   */\n      swap4\n      pop\n        /* \"#utility.yul\":2723:2852   */\n      pop\n        /* \"#utility.yul\":2891:2893   */\n      0x60\n        /* \"#utility.yul\":2917:2981   */\n      tag_75\n        /* \"#utility.yul\":2973:2980   */\n      dup9\n        /* \"#utility.yul\":2964:2970   */\n      dup3\n        /* \"#utility.yul\":2953:2962   */\n      dup10\n        /* \"#utility.yul\":2949:2971   */\n      add\n        /* \"#utility.yul\":2917:2981   */\n      tag_31\n      jump\t// in\n    tag_75:\n        /* \"#utility.yul\":2907:2981   */\n      swap3\n      pop\n        /* \"#utility.yul\":2862:2991   */\n      pop\n        /* \"#utility.yul\":3030:3033   */\n      0x80\n        /* \"#utility.yul\":3057:3120   */\n      tag_76\n        /* \"#utility.yul\":3112:3119   */\n      dup9\n        /* \"#utility.yul\":3103:3109   */\n      dup3\n        /* \"#utility.yul\":3092:3101   */\n      dup10\n        /* \"#utility.yul\":3088:3110   */\n      add\n        /* \"#utility.yul\":3057:3120   */\n      tag_34\n      jump\t// in\n    tag_76:\n        /* \"#utility.yul\":3047:3120   */\n      swap2\n      pop\n        /* \"#utility.yul\":3001:3130   */\n      pop\n        /* \"#utility.yul\":2166:3137   */\n      swap3\n      swap6\n      pop\n      swap3\n      swap6\n      swap1\n      swap4\n      pop\n      jump\t// out\n        /* \"#utility.yul\":3143:3323   */\n    tag_38:\n        /* \"#utility.yul\":3191:3268   */\n      0x4e487b7100000000000000000000000000000000000000000000000000000000\n        /* \"#utility.yul\":3188:3189   */\n      0x00\n        /* \"#utility.yul\":3181:3269   */\n      mstore\n        /* \"#utility.yul\":3288:3292   */\n      0x11\n        /* \"#utility.yul\":3285:3286   */\n      0x04\n        /* \"#utility.yul\":3278:3293   */\n      mstore\n        /* \"#utility.yul\":3312:3316   */\n      0x24\n        /* \"#utility.yul\":3309:3310   */\n      0x00\n        /* \"#utility.yul\":3302:3317   */\n      revert\n        /* \"#utility.yul\":3329:4320   */\n    tag_24:\n        /* \"#utility.yul\":3368:3375   */\n      0x00\n        /* \"#utility.yul\":3391:3410   */\n      tag_79\n        /* \"#utility.yul\":3408:3409   */\n      dup3\n        /* \"#utility.yul\":3391:3410   */\n      tag_35\n      jump\t// in\n    tag_79:\n        /* \"#utility.yul\":3386:3410   */\n      swap2\n      pop\n        /* \"#utility.yul\":3424:3443   */\n      tag_80\n        /* \"#utility.yul\":3441:3442   */\n      dup4\n        /* \"#utility.yul\":3424:3443   */\n      tag_35\n      jump\t// in\n    tag_80:\n        /* \"#utility.yul\":3419:3443   */\n      swap3\n      pop\n        /* \"#utility.yul\":3625:3626   */\n      dup3\n        /* \"#utility.yul\":3557:3623   */\n      0x7fffffffffffffffffffffffffffffffffffffffffffffffffffffffffffffff\n        /* \"#utility.yul\":3553:3627   */\n      div\n        /* \"#utility.yul\":3550:3551   */\n      dup3\n        /* \"#utility.yul\":3547:3628   */\n      gt\n        /* \"#utility.yul\":3542:3543   */\n      0x00\n        /* \"#utility.yul\":3539:3540   */\n      dup5\n        /* \"#utility.yul\":3535:3544   */\n      sgt\n        /* \"#utility.yul\":3531:3532   */\n      0x00\n        /* \"#utility.yul\":3528:3529   */\n      dup5\n        /* \"#utility.yul\":3524:3533   */\n      sgt\n        /* \"#utility.yul\":3520:3545   */\n      and\n        /* \"#utility.yul\":3516:3629   */\n      and\n        /* \"#utility.yul\":3513:3652   */\n      iszero\n      tag_81\n      jumpi\n        /* \"#utility.yul\":3632:3650   */\n      tag_82\n      tag_38\n      jump\t// in\n    tag_82:\n        /* \"#utility.yul\":3513:3652   */\n    tag_81:\n        /* \"#utility.yul\":3836:3837   */\n      dup2\n        /* \"#utility.yul\":3768:3834   */\n      0x8000000000000000000000000000000000000000000000000000000000000000\n        /* \"#utility.yul\":3763:3838   */\n      sdiv\n        /* \"#utility.yul\":3760:3761   */\n      dup4\n        /* \"#utility.yul\":3756:3839   */\n      slt\n        /* \"#utility.yul\":3751:3752   */\n      0x00\n        /* \"#utility.yul\":3748:3749   */\n      dup5\n        /* \"#utility.yul\":3744:3753   */\n      slt\n        /* \"#utility.yul\":3740:3741   */\n      0x00\n        /* \"#utility.yul\":3737:3738   */\n      dup5\n        /* \"#utility.yul\":3733:3742   */\n      sgt\n        /* \"#utility.yul\":3729:3754   */\n      and\n        /* \"#utility.yul\":3725:3840   */\n      and\n        /* \"#utility.yul\":3722:3863   */\n      iszero\n      tag_83\n      jumpi\n        /* \"#utility.yul\":3843:3861   */\n      tag_84\n      tag_38\n      jump\t// in\n    tag_84:\n        /* \"#utility.yul\":3722:3863   */\n    tag_83:\n        /* \"#utility.yul\":4047:4048   */\n      dup3\n        /* \"#utility.yul\":3979:4045   */\n      0x8000000000000000000000000000000000000000000000000000000000000000\n        /* \"#utility.yul\":3974:4049   */\n      sdiv\n        /* \"#utility.yul\":3971:3972   */\n      dup3\n        /* \"#utility.yul\":3967:4050   */\n      slt\n        /* \"#utility.yul\":3962:3963   */\n      0x00\n        /* \"#utility.yul\":3959:3960   */\n      dup5\n        /* \"#utility.yul\":3955:3964   */\n      sgt\n        /* \"#utility.yul\":3951:3952   */\n      0x00\n        /* \"#utility.yul\":3948:3949   */\n      dup5\n        /* \"#utility.yul\":3944:3953   */\n      slt\n        /* \"#utility.yul\":3940:3965   */\n      and\n        /* \"#utility.yul\":3936:4051   */\n      and\n        /* \"#utility.yul\":3933:4074   */\n      iszero\n      tag_85\n      jumpi\n        /* \"#utility.yul\":4054:4072   */\n      tag_86\n      tag_38\n      jump\t// in\n    tag_86:\n        /* \"#utility.yul\":3933:4074   */\n    tag_85:\n        /* \"#utility.yul\":4257:4258   */\n      dup3\n        /* \"#utility.yul\":4189:4255   */\n      0x7fffffffffffffffffffffffffffffffffffffffffffffffffffffffffffffff\n        /* \"#utility.yul\":4184:4259   */\n      sdiv\n        /* \"#utility.yul\":4181:4182   */\n      dup3\n        /* \"#utility.yul\":4177:4260   */\n      slt\n        /* \"#utility.yul\":4172:4173   */\n      0x00\n        /* \"#utility.yul\":4169:4170   */\n      dup5\n        /* \"#utility.yul\":4165:4174   */\n      slt\n        /* \"#utility.yul\":4161:4162   */\n      0x00\n        /* \"#utility.yul\":4158:4159   */\n      dup5\n        /* \"#utility.yul\":4154:4163   */\n      slt\n        /* \"#utility.yul\":4150:4175   */\n      and\n        /* \"#utility.yul\":4146:4261   */\n      and\n        /* \"#utility.yul\":4143:4284   */\n      iszero\n      tag_87\n      jumpi\n        /* \"#utility.yul\":4264:4282   */\n      tag_88\n      tag_38\n      jump\t// in\n    tag_88:\n        /* \"#utility.yul\":4143:4284   */\n    tag_87:\n        /* \"#utility.yul\":4312:4313   */\n      dup3\n        /* \"#utility.yul\":4309:4310   */\n      dup3\n        /* \"#utility.yul\":4305:4314   */\n      mul\n        /* \"#utility.yul\":4294:4314   */\n      swap1\n      pop\n        /* \"#utility.yul\":3329:4320   */\n      swap3\n      swap2\n      pop\n      pop\n      jump\t// out\n\n    auxdata: 0xa26469706673582212204dcc50026544c237854642328cda3f383447247be980aab884d2339ddd8762c664736f6c63430008080033\n}\n",
				"bytecode": {
					"linkReferences": {},
					"object": "6104d8610053600b82828239805160001a607314610046577f4e487b7100000000000000000000000000000000000000000000000000000000600052600060045260246000fd5b30600052607381538281f3fe73000000000000000000000000000000000000000030146080604052600436106100405760003560e01c80630d8e6e2c1461004557806398d5fdca14610063575b600080fd5b61004d610081565b60405161005a91906101f0565b60405180910390f35b61006b61011f565b60405161007891906101f0565b60405180910390f35b600080738a753747a1fa494ec906ce90e9f37563a8af630e90508073ffffffffffffffffffffffffffffffffffffffff166354fd4d506040518163ffffffff1660e01b815260040160206040518083038186803b1580156100e157600080fd5b505afa1580156100f5573d6000803e3d6000fd5b505050506040513d601f19601f82011682018060405250810190610119919061023c565b91505090565b600080738a753747a1fa494ec906ce90e9f37563a8af630e905060008173ffffffffffffffffffffffffffffffffffffffff1663feaf968c6040518163ffffffff1660e01b815260040160a06040518083038186803b15801561018157600080fd5b505afa158015610195573d6000803e3d6000fd5b505050506040513d601f19601f820116820180604052508101906101b991906102e1565b5050509150506402540be400816101d0919061038b565b9250505090565b6000819050919050565b6101ea816101d7565b82525050565b600060208201905061020560008301846101e1565b92915050565b600080fd5b610219816101d7565b811461022457600080fd5b50565b60008151905061023681610210565b92915050565b6000602082840312156102525761025161020b565b5b600061026084828501610227565b91505092915050565b600069ffffffffffffffffffff82169050919050565b61028881610269565b811461029357600080fd5b50565b6000815190506102a58161027f565b92915050565b6000819050919050565b6102be816102ab565b81146102c957600080fd5b50565b6000815190506102db816102b5565b92915050565b600080600080600060a086880312156102fd576102fc61020b565b5b600061030b88828901610296565b955050602061031c888289016102cc565b945050604061032d88828901610227565b935050606061033e88828901610227565b925050608061034f88828901610296565b9150509295509295909350565b7f4e487b7100000000000000000000000000000000000000000000000000000000600052601160045260246000fd5b6000610396826102ab565b91506103a1836102ab565b9250827f7fffffffffffffffffffffffffffffffffffffffffffffffffffffffffffffff04821160008413600084131616156103e0576103df61035c565b5b817f8000000000000000000000000000000000000000000000000000000000000000058312600084126000841316161561041d5761041c61035c565b5b827f8000000000000000000000000000000000000000000000000000000000000000058212600084136000841216161561045a5761045961035c565b5b827f7fffffffffffffffffffffffffffffffffffffffffffffffffffffffffffffff05821260008412600084121616156104975761049661035c565b5b82820290509291505056fea26469706673582212204dcc50026544c237854642328cda3f383447247be980aab884d2339ddd8762c664736f6c63430008080033",
					"opcodes": "PUSH2 0x4D8 PUSH2 0x53 PUSH1 0xB DUP3 DUP3 DUP3 CODECOPY DUP1 MLOAD PUSH1 0x0 BYTE PUSH1 0x73 EQ PUSH2 0x46 JUMPI PUSH32 0x4E487B7100000000000000000000000000000000000000000000000000000000 PUSH1 0x0 MSTORE PUSH1 0x0 PUSH1 0x4 MSTORE PUSH1 0x24 PUSH1 0x0 REVERT JUMPDEST ADDRESS PUSH1 0x0 MSTORE PUSH1 0x73 DUP2 MSTORE8 DUP3 DUP2 RETURN INVALID PUSH20 0x0 ADDRESS EQ PUSH1 0x80 PUSH1 0x40 MSTORE PUSH1 0x4 CALLDATASIZE LT PUSH2 0x40 JUMPI PUSH1 0x0 CALLDATALOAD PUSH1 0xE0 SHR DUP1 PUSH4 0xD8E6E2C EQ PUSH2 0x45 JUMPI DUP1 PUSH4 0x98D5FDCA EQ PUSH2 0x63 JUMPI JUMPDEST PUSH1 0x0 DUP1 REVERT JUMPDEST PUSH2 0x4D PUSH2 0x81 JUMP JUMPDEST PUSH1 0x40 MLOAD PUSH2 0x5A SWAP2 SWAP1 PUSH2 0x1F0 JUMP JUMPDEST PUSH1 0x40 MLOAD DUP1 SWAP2 SUB SWAP1 RETURN JUMPDEST PUSH2 0x6B PUSH2 0x11F JUMP JUMPDEST PUSH1 0x40 MLOAD PUSH2 0x78 SWAP2 SWAP1 PUSH2 0x1F0 JUMP JUMPDEST PUSH1 0x40 MLOAD DUP1 SWAP2 SUB SWAP1 RETURN JUMPDEST PUSH1 0x0 DUP1 PUSH20 0x8A753747A1FA494EC906CE90E9F37563A8AF630E SWAP1 POP DUP1 PUSH20 0xFFFFFFFFFFFFFFFFFFFFFFFFFFFFFFFFFFFFFFFF AND PUSH4 0x54FD4D50 PUSH1 0x40 MLOAD DUP2 PUSH4 0xFFFFFFFF AND PUSH1 0xE0 SHL DUP2 MSTORE PUSH1 0x4 ADD PUSH1 0x20 PUSH1 0x40 MLOAD DUP1 DUP4 SUB DUP2 DUP7 DUP1 EXTCODESIZE ISZERO DUP1 ISZERO PUSH2 0xE1 JUMPI PUSH1 0x0 DUP1 REVERT JUMPDEST POP GAS STATICCALL ISZERO DUP1 ISZERO PUSH2 0xF5 JUMPI RETURNDATASIZE PUSH1 0x0 DUP1 RETURNDATACOPY RETURNDATASIZE PUSH1 0x0 REVERT JUMPDEST POP POP POP POP PUSH1 0x40 MLOAD RETURNDATASIZE PUSH1 0x1F NOT PUSH1 0x1F DUP3 ADD AND DUP3 ADD DUP1 PUSH1 0x40 MSTORE POP DUP2 ADD SWAP1 PUSH2 0x119 SWAP2 SWAP1 PUSH2 0x23C JUMP JUMPDEST SWAP2 POP POP SWAP1 JUMP JUMPDEST PUSH1 0x0 DUP1 PUSH20 0x8A753747A1FA494EC906CE90E9F37563A8AF630E SWAP1 POP PUSH1 0x0 DUP2 PUSH20 0xFFFFFFFFFFFFFFFFFFFFFFFFFFFFFFFFFFFFFFFF AND PUSH4 0xFEAF968C PUSH1 0x40 MLOAD DUP2 PUSH4 0xFFFFFFFF AND PUSH1 0xE0 SHL DUP2 MSTORE PUSH1 0x4 ADD PUSH1 0xA0 PUSH1 0x40 MLOAD DUP1 DUP4 SUB DUP2 DUP7 DUP1 EXTCODESIZE ISZERO DUP1 ISZERO PUSH2 0x181 JUMPI PUSH1 0x0 DUP1 REVERT JUMPDEST POP GAS STATICCALL ISZERO DUP1 ISZERO PUSH2 0x195 JUMPI RETURNDATASIZE PUSH1 0x0 DUP1 RETURNDATACOPY RETURNDATASIZE PUSH1 0x0 REVERT JUMPDEST POP POP POP POP PUSH1 0x40 MLOAD RETURNDATASIZE PUSH1 0x1F NOT PUSH1 0x1F DUP3 ADD AND DUP3 ADD DUP1 PUSH1 0x40 MSTORE POP DUP2 ADD SWAP1 PUSH2 0x1B9 SWAP2 SWAP1 PUSH2 0x2E1 JUMP JUMPDEST POP POP POP SWAP2 POP POP PUSH5 0x2540BE400 DUP2 PUSH2 0x1D0 SWAP2 SWAP1 PUSH2 0x38B JUMP JUMPDEST SWAP3 POP POP POP SWAP1 JUMP JUMPDEST PUSH1 0x0 DUP2 SWAP1 POP SWAP2 SWAP1 POP JUMP JUMPDEST PUSH2 0x1EA DUP2 PUSH2 0x1D7 JUMP JUMPDEST DUP3 MSTORE POP POP JUMP JUMPDEST PUSH1 0x0 PUSH1 0x20 DUP3 ADD SWAP1 POP PUSH2 0x205 PUSH1 0x0 DUP4 ADD DUP5 PUSH2 0x1E1 JUMP JUMPDEST SWAP3 SWAP2 POP POP JUMP JUMPDEST PUSH1 0x0 DUP1 REVERT JUMPDEST PUSH2 0x219 DUP2 PUSH2 0x1D7 JUMP JUMPDEST DUP2 EQ PUSH2 0x224 JUMPI PUSH1 0x0 DUP1 REVERT JUMPDEST POP JUMP JUMPDEST PUSH1 0x0 DUP2 MLOAD SWAP1 POP PUSH2 0x236 DUP2 PUSH2 0x210 JUMP JUMPDEST SWAP3 SWAP2 POP POP JUMP JUMPDEST PUSH1 0x0 PUSH1 0x20 DUP3 DUP5 SUB SLT ISZERO PUSH2 0x252 JUMPI PUSH2 0x251 PUSH2 0x20B JUMP JUMPDEST JUMPDEST PUSH1 0x0 PUSH2 0x260 DUP5 DUP3 DUP6 ADD PUSH2 0x227 JUMP JUMPDEST SWAP2 POP POP SWAP3 SWAP2 POP POP JUMP JUMPDEST PUSH1 0x0 PUSH10 0xFFFFFFFFFFFFFFFFFFFF DUP3 AND SWAP1 POP SWAP2 SWAP1 POP JUMP JUMPDEST PUSH2 0x288 DUP2 PUSH2 0x269 JUMP JUMPDEST DUP2 EQ PUSH2 0x293 JUMPI PUSH1 0x0 DUP1 REVERT JUMPDEST POP JUMP JUMPDEST PUSH1 0x0 DUP2 MLOAD SWAP1 POP PUSH2 0x2A5 DUP2 PUSH2 0x27F JUMP JUMPDEST SWAP3 SWAP2 POP POP JUMP JUMPDEST PUSH1 0x0 DUP2 SWAP1 POP SWAP2 SWAP1 POP JUMP JUMPDEST PUSH2 0x2BE DUP2 PUSH2 0x2AB JUMP JUMPDEST DUP2 EQ PUSH2 0x2C9 JUMPI PUSH1 0x0 DUP1 REVERT JUMPDEST POP JUMP JUMPDEST PUSH1 0x0 DUP2 MLOAD SWAP1 POP PUSH2 0x2DB DUP2 PUSH2 0x2B5 JUMP JUMPDEST SWAP3 SWAP2 POP POP JUMP JUMPDEST PUSH1 0x0 DUP1 PUSH1 0x0 DUP1 PUSH1 0x0 PUSH1 0xA0 DUP7 DUP9 SUB SLT ISZERO PUSH2 0x2FD JUMPI PUSH2 0x2FC PUSH2 0x20B JUMP JUMPDEST JUMPDEST PUSH1 0x0 PUSH2 0x30B DUP9 DUP3 DUP10 ADD PUSH2 0x296 JUMP JUMPDEST SWAP6 POP POP PUSH1 0x20 PUSH2 0x31C DUP9 DUP3 DUP10 ADD PUSH2 0x2CC JUMP JUMPDEST SWAP5 POP POP PUSH1 0x40 PUSH2 0x32D DUP9 DUP3 DUP10 ADD PUSH2 0x227 JUMP JUMPDEST SWAP4 POP POP PUSH1 0x60 PUSH2 0x33E DUP9 DUP3 DUP10 ADD PUSH2 0x227 JUMP JUMPDEST SWAP3 POP POP PUSH1 0x80 PUSH2 0x34F DUP9 DUP3 DUP10 ADD PUSH2 0x296 JUMP JUMPDEST SWAP2 POP POP SWAP3 SWAP6 POP SWAP3 SWAP6 SWAP1 SWAP4 POP JUMP JUMPDEST PUSH32 0x4E487B7100000000000000000000000000000000000000000000000000000000 PUSH1 0x0 MSTORE PUSH1 0x11 PUSH1 0x4 MSTORE PUSH1 0x24 PUSH1 0x0 REVERT JUMPDEST PUSH1 0x0 PUSH2 0x396 DUP3 PUSH2 0x2AB JUMP JUMPDEST SWAP2 POP PUSH2 0x3A1 DUP4 PUSH2 0x2AB JUMP JUMPDEST SWAP3 POP DUP3 PUSH32 0x7FFFFFFFFFFFFFFFFFFFFFFFFFFFFFFFFFFFFFFFFFFFFFFFFFFFFFFFFFFFFFFF DIV DUP3 GT PUSH1 0x0 DUP5 SGT PUSH1 0x0 DUP5 SGT AND AND ISZERO PUSH2 0x3E0 JUMPI PUSH2 0x3DF PUSH2 0x35C JUMP JUMPDEST JUMPDEST DUP2 PUSH32 0x8000000000000000000000000000000000000000000000000000000000000000 SDIV DUP4 SLT PUSH1 0x0 DUP5 SLT PUSH1 0x0 DUP5 SGT AND AND ISZERO PUSH2 0x41D JUMPI PUSH2 0x41C PUSH2 0x35C JUMP JUMPDEST JUMPDEST DUP3 PUSH32 0x8000000000000000000000000000000000000000000000000000000000000000 SDIV DUP3 SLT PUSH1 0x0 DUP5 SGT PUSH1 0x0 DUP5 SLT AND AND ISZERO PUSH2 0x45A JUMPI PUSH2 0x459 PUSH2 0x35C JUMP JUMPDEST JUMPDEST DUP3 PUSH32 0x7FFFFFFFFFFFFFFFFFFFFFFFFFFFFFFFFFFFFFFFFFFFFFFFFFFFFFFFFFFFFFFF SDIV DUP3 SLT PUSH1 0x0 DUP5 SLT PUSH1 0x0 DUP5 SLT AND AND ISZERO PUSH2 0x497 JUMPI PUSH2 0x496 PUSH2 0x35C JUMP JUMPDEST JUMPDEST DUP3 DUP3 MUL SWAP1 POP SWAP3 SWAP2 POP POP JUMP INVALID LOG2 PUSH5 0x6970667358 0x22 SLT KECCAK256 0x4D 0xCC POP MUL PUSH6 0x44C237854642 ORIGIN DUP13 0xDA EXTCODEHASH CODESIZE CALLVALUE SELFBALANCE 0x24 PUSH28 0xE980AAB884D2339DDD8762C664736F6C634300080800330000000000 "
				},
				"gasEstimates": {
					"creation": {
						"codeDepositCost": "248000",
						"executionCost": "316",
						"totalCost": "248316"
					},
					"external": {
						"getPrice()": "infinite",
						"getVersion()": "infinite"
					},
					"internal": {
						"getConversionRate(uint256)": "infinite"
					}
				},
				"methodIdentifiers": {
					"getPrice()": "98d5fdca",
					"getVersion()": "0d8e6e2c"
				}
			},
			"storageLayout": {
				"storage": [],
				"types": null
			},
			"userdoc": {
				"kind": "user",
				"methods": {},
				"version": 1
			}
		}
	}
}